{
  "_format": "hh3-artifact-1",
  "contractName": "GuessWhatGame",
  "sourceName": "contracts/GuessWhatGame.sol",
  "abi": [
    {
      "inputs": [
        {
          "internalType": "address",
          "name": "initialOwner",
          "type": "address"
        }
      ],
      "stateMutability": "nonpayable",
      "type": "constructor"
    },
    {
      "inputs": [
        {
          "internalType": "address",
          "name": "owner",
          "type": "address"
        }
      ],
      "name": "OwnableInvalidOwner",
      "type": "error"
    },
    {
      "inputs": [
        {
          "internalType": "address",
          "name": "account",
          "type": "address"
        }
      ],
      "name": "OwnableUnauthorizedAccount",
      "type": "error"
    },
    {
      "inputs": [],
      "name": "ReentrancyGuardReentrantCall",
      "type": "error"
    },
    {
      "anonymous": false,
      "inputs": [
        {
          "indexed": true,
          "internalType": "uint256",
          "name": "gameId",
          "type": "uint256"
        },
        {
          "indexed": false,
          "internalType": "uint256",
          "name": "entryFee",
          "type": "uint256"
        },
        {
          "indexed": false,
          "internalType": "uint256",
          "name": "timeLimit",
          "type": "uint256"
        }
      ],
      "name": "GameCreated",
      "type": "event"
    },
    {
      "anonymous": false,
      "inputs": [
        {
          "indexed": true,
          "internalType": "uint256",
          "name": "gameId",
          "type": "uint256"
        },
        {
          "indexed": false,
          "internalType": "uint256",
          "name": "totalPrize",
          "type": "uint256"
        }
      ],
      "name": "GameExpired",
      "type": "event"
    },
    {
      "anonymous": false,
      "inputs": [
        {
          "indexed": true,
          "internalType": "uint256",
          "name": "gameId",
          "type": "uint256"
        },
        {
          "indexed": true,
          "internalType": "address",
          "name": "winner",
          "type": "address"
        },
        {
          "indexed": false,
          "internalType": "uint256",
          "name": "prize",
          "type": "uint256"
        }
      ],
      "name": "GameWon",
      "type": "event"
    },
    {
      "anonymous": false,
      "inputs": [
        {
          "indexed": true,
          "internalType": "uint256",
          "name": "gameId",
          "type": "uint256"
        },
        {
          "indexed": true,
          "internalType": "address",
          "name": "player",
          "type": "address"
        },
        {
          "indexed": false,
          "internalType": "string",
          "name": "guess",
          "type": "string"
        }
      ],
      "name": "GuessSubmitted",
      "type": "event"
    },
    {
      "anonymous": false,
      "inputs": [
        {
          "indexed": true,
          "internalType": "address",
          "name": "previousOwner",
          "type": "address"
        },
        {
          "indexed": true,
          "internalType": "address",
          "name": "newOwner",
          "type": "address"
        }
      ],
      "name": "OwnershipTransferred",
      "type": "event"
    },
    {
      "anonymous": false,
      "inputs": [
        {
          "indexed": true,
          "internalType": "uint256",
          "name": "gameId",
          "type": "uint256"
        },
        {
          "indexed": true,
          "internalType": "address",
          "name": "player",
          "type": "address"
        },
        {
          "indexed": false,
          "internalType": "uint256",
          "name": "entryFee",
          "type": "uint256"
        }
      ],
      "name": "PlayerJoined",
      "type": "event"
    },
    {
      "anonymous": false,
      "inputs": [
        {
          "indexed": true,
          "internalType": "uint256",
          "name": "gameId",
          "type": "uint256"
        },
        {
          "indexed": true,
          "internalType": "address",
          "name": "winner",
          "type": "address"
        },
        {
          "indexed": false,
          "internalType": "uint256",
          "name": "amount",
          "type": "uint256"
        }
      ],
      "name": "PrizeClaimed",
      "type": "event"
    },
    {
      "inputs": [],
      "name": "MAX_ENTRY_FEE",
      "outputs": [
        {
          "internalType": "uint256",
          "name": "",
          "type": "uint256"
        }
      ],
      "stateMutability": "view",
      "type": "function"
    },
    {
      "inputs": [],
      "name": "MIN_ENTRY_FEE",
      "outputs": [
        {
          "internalType": "uint256",
          "name": "",
          "type": "uint256"
        }
      ],
      "stateMutability": "view",
      "type": "function"
    },
    {
      "inputs": [],
      "name": "PLATFORM_FEE_PERCENT",
      "outputs": [
        {
          "internalType": "uint256",
          "name": "",
          "type": "uint256"
        }
      ],
      "stateMutability": "view",
      "type": "function"
    },
    {
      "inputs": [
        {
          "internalType": "string",
          "name": "_topWord",
          "type": "string"
        },
        {
          "internalType": "string",
          "name": "_middleWord",
          "type": "string"
        },
        {
          "internalType": "string",
          "name": "_bottomWord",
          "type": "string"
        },
        {
          "internalType": "uint256",
          "name": "_entryFee",
          "type": "uint256"
        }
      ],
      "name": "createGame",
      "outputs": [
        {
          "internalType": "uint256",
          "name": "",
          "type": "uint256"
        }
      ],
      "stateMutability": "nonpayable",
      "type": "function"
    },
    {
      "inputs": [],
      "name": "defaultTimeLimit",
      "outputs": [
        {
          "internalType": "uint256",
          "name": "",
          "type": "uint256"
        }
      ],
      "stateMutability": "view",
      "type": "function"
    },
    {
      "inputs": [
        {
          "internalType": "uint256",
          "name": "_gameId",
          "type": "uint256"
        }
      ],
      "name": "expireGame",
      "outputs": [],
      "stateMutability": "nonpayable",
      "type": "function"
    },
    {
      "inputs": [
        {
          "internalType": "uint256",
          "name": "",
          "type": "uint256"
        }
      ],
      "name": "games",
      "outputs": [
        {
          "internalType": "uint256",
          "name": "gameId",
          "type": "uint256"
        },
        {
          "internalType": "string",
          "name": "topWord",
          "type": "string"
        },
        {
          "internalType": "string",
          "name": "middleWord",
          "type": "string"
        },
        {
          "internalType": "string",
          "name": "bottomWord",
          "type": "string"
        },
        {
          "internalType": "uint256",
          "name": "entryFee",
          "type": "uint256"
        },
        {
          "internalType": "uint256",
          "name": "totalPrize",
          "type": "uint256"
        },
        {
          "internalType": "uint256",
          "name": "timeLimit",
          "type": "uint256"
        },
        {
          "internalType": "uint256",
          "name": "startTime",
          "type": "uint256"
        },
        {
          "internalType": "bool",
          "name": "isActive",
          "type": "bool"
        },
        {
          "internalType": "bool",
          "name": "isCompleted",
          "type": "bool"
        },
        {
          "internalType": "address",
          "name": "winner",
          "type": "address"
        }
      ],
      "stateMutability": "view",
      "type": "function"
    },
    {
      "inputs": [
        {
          "internalType": "uint256",
          "name": "_gameId",
          "type": "uint256"
        }
      ],
      "name": "getGameInfo",
      "outputs": [
        {
          "internalType": "uint256",
          "name": "gameId",
          "type": "uint256"
        },
        {
          "internalType": "string",
          "name": "topWord",
          "type": "string"
        },
        {
          "internalType": "string",
          "name": "middleWord",
          "type": "string"
        },
        {
          "internalType": "string",
          "name": "bottomWord",
          "type": "string"
        },
        {
          "internalType": "uint256",
          "name": "entryFee",
          "type": "uint256"
        },
        {
          "internalType": "uint256",
          "name": "totalPrize",
          "type": "uint256"
        },
        {
          "internalType": "uint256",
          "name": "timeLimit",
          "type": "uint256"
        },
        {
          "internalType": "uint256",
          "name": "startTime",
          "type": "uint256"
        },
        {
          "internalType": "bool",
          "name": "isActive",
          "type": "bool"
        },
        {
          "internalType": "bool",
          "name": "isCompleted",
          "type": "bool"
        },
        {
          "internalType": "address",
          "name": "winner",
          "type": "address"
        }
      ],
      "stateMutability": "view",
      "type": "function"
    },
    {
      "inputs": [
        {
          "internalType": "address",
          "name": "_player",
          "type": "address"
        }
      ],
      "name": "getPlayerGames",
      "outputs": [
        {
          "internalType": "uint256[]",
          "name": "",
          "type": "uint256[]"
        }
      ],
      "stateMutability": "view",
      "type": "function"
    },
    {
      "inputs": [
        {
          "internalType": "uint256",
          "name": "_gameId",
          "type": "uint256"
        },
        {
          "internalType": "address",
          "name": "_player",
          "type": "address"
        }
      ],
      "name": "getPlayerGuess",
      "outputs": [
        {
          "internalType": "string",
          "name": "",
          "type": "string"
        }
      ],
      "stateMutability": "view",
      "type": "function"
    },
    {
      "inputs": [
        {
          "internalType": "address",
          "name": "_player",
          "type": "address"
        }
      ],
      "name": "getPlayerStats",
      "outputs": [
        {
          "internalType": "uint256",
          "name": "gamesPlayed",
          "type": "uint256"
        },
        {
          "internalType": "uint256",
          "name": "correctGuesses",
          "type": "uint256"
        },
        {
          "internalType": "uint256",
          "name": "totalWinnings",
          "type": "uint256"
        },
        {
          "internalType": "uint256",
          "name": "accuracy",
          "type": "uint256"
        }
      ],
      "stateMutability": "view",
      "type": "function"
    },
    {
      "inputs": [
        {
          "internalType": "uint256",
          "name": "_gameId",
          "type": "uint256"
        },
        {
          "internalType": "address",
          "name": "_player",
          "type": "address"
        }
      ],
      "name": "hasPlayerGuessed",
      "outputs": [
        {
          "internalType": "bool",
          "name": "",
          "type": "bool"
        }
      ],
      "stateMutability": "view",
      "type": "function"
    },
    {
      "inputs": [
        {
          "internalType": "uint256",
          "name": "_gameId",
          "type": "uint256"
        },
        {
          "internalType": "address",
          "name": "_player",
          "type": "address"
        }
      ],
      "name": "isPlayerInGame",
      "outputs": [
        {
          "internalType": "bool",
          "name": "",
          "type": "bool"
        }
      ],
      "stateMutability": "view",
      "type": "function"
    },
    {
      "inputs": [
        {
          "internalType": "uint256",
          "name": "_gameId",
          "type": "uint256"
        }
      ],
      "name": "joinGame",
      "outputs": [],
      "stateMutability": "payable",
      "type": "function"
    },
    {
      "inputs": [],
      "name": "nextGameId",
      "outputs": [
        {
          "internalType": "uint256",
          "name": "",
          "type": "uint256"
        }
      ],
      "stateMutability": "view",
      "type": "function"
    },
    {
      "inputs": [],
      "name": "owner",
      "outputs": [
        {
          "internalType": "address",
          "name": "",
          "type": "address"
        }
      ],
      "stateMutability": "view",
      "type": "function"
    },
    {
      "inputs": [
        {
          "internalType": "address",
          "name": "",
          "type": "address"
        },
        {
          "internalType": "uint256",
          "name": "",
          "type": "uint256"
        }
      ],
      "name": "playerGames",
      "outputs": [
        {
          "internalType": "uint256",
          "name": "",
          "type": "uint256"
        }
      ],
      "stateMutability": "view",
      "type": "function"
    },
    {
      "inputs": [
        {
          "internalType": "address",
          "name": "",
          "type": "address"
        }
      ],
      "name": "playerStats",
      "outputs": [
        {
          "internalType": "uint256",
          "name": "gamesPlayed",
          "type": "uint256"
        },
        {
          "internalType": "uint256",
          "name": "correctGuesses",
          "type": "uint256"
        },
        {
          "internalType": "uint256",
          "name": "totalWinnings",
          "type": "uint256"
        },
        {
          "internalType": "uint256",
          "name": "accuracy",
          "type": "uint256"
        }
      ],
      "stateMutability": "view",
      "type": "function"
    },
    {
      "inputs": [],
      "name": "renounceOwnership",
      "outputs": [],
      "stateMutability": "nonpayable",
      "type": "function"
    },
    {
      "inputs": [
        {
          "internalType": "uint256",
          "name": "_newTimeLimit",
          "type": "uint256"
        }
      ],
      "name": "setTimeLimit",
      "outputs": [],
      "stateMutability": "nonpayable",
      "type": "function"
    },
    {
      "inputs": [
        {
          "internalType": "uint256",
          "name": "_gameId",
          "type": "uint256"
        },
        {
          "internalType": "string",
          "name": "_guess",
          "type": "string"
        }
      ],
      "name": "submitGuess",
      "outputs": [],
      "stateMutability": "nonpayable",
      "type": "function"
    },
    {
      "inputs": [
        {
          "internalType": "address",
          "name": "newOwner",
          "type": "address"
        }
      ],
      "name": "transferOwnership",
      "outputs": [],
      "stateMutability": "nonpayable",
      "type": "function"
    },
    {
      "inputs": [],
      "name": "withdraw",
      "outputs": [],
      "stateMutability": "nonpayable",
      "type": "function"
    }
  ],
  "bytecode": "0x60806040526001600255601e600355348015610019575f5ffd5b50604051611bd1380380611bd1833981016040819052610038916100cb565b60015f55806001600160a01b03811661006a57604051631e4fbdf760e01b81525f600482015260240160405180910390fd5b6100738161007a565b50506100f8565b600180546001600160a01b038381166001600160a01b0319831681179093556040519116919082907f8be0079c531659141344cd1fd0a4f28419497f9722a3daafe3b4186f6b6457e0905f90a35050565b5f602082840312156100db575f5ffd5b81516001600160a01b03811681146100f1575f5ffd5b9392505050565b611acc806101055f395ff3fe60806040526004361061013c575f3560e01c806381883759116100b3578063db249ec81161006d578063db249ec8146103d2578063e2889c82146103f1578063efaa55a014610410578063f2fde38b14610423578063f4dcdc8e14610442578063f50ab0de1461046e575f5ffd5b806381883759146102fe5780638da5cb5b146103185780639a53371e1461033f5780639c417c1c1461035e578063b135bbb01461037d578063cdafbbb614610392575f5ffd5b80633db494cb116101045780633db494cb1461021957806347e1d5501461022e5780634fd66eae1461024d578063560d52d4146102b757806361e4a23a146102cb578063715018a6146102ea575f5ffd5b80630a5694c2146101405780630d3b404f14610172578063117a5b90146101a1578063129daf84146101d75780633ccfd60b14610203575b5f5ffd5b34801561014b575f5ffd5b5061015f61015a3660046114f1565b610489565b6040519081526020015b60405180910390f35b34801561017d575f5ffd5b5061019161018c366004611519565b6104b4565b6040519015158152602001610169565b3480156101ac575f5ffd5b506101c06101bb366004611543565b61051b565b6040516101699b9a99989796959493929190611588565b3480156101e2575f5ffd5b506101f66101f1366004611612565b610713565b6040516101699190611632565b34801561020e575f5ffd5b5061021761077c565b005b348015610224575f5ffd5b5061015f60035481565b348015610239575f5ffd5b506101c0610248366004611543565b6107bd565b348015610258575f5ffd5b50610297610267366004611612565b6001600160a01b03165f908152600560205260409020805460018201546002830154600390930154919390929190565b604080519485526020850193909352918301526060820152608001610169565b3480156102c2575f5ffd5b5061015f600581565b3480156102d6575f5ffd5b506102176102e5366004611543565b610a21565b3480156102f5575f5ffd5b50610217610b46565b348015610309575f5ffd5b5061015f66038d7ea4c6800081565b348015610323575f5ffd5b506001546040516001600160a01b039091168152602001610169565b34801561034a575f5ffd5b50610191610359366004611519565b610b59565b348015610369575f5ffd5b5061015f610378366004611713565b610bc2565b348015610388575f5ffd5b5061015f60025481565b34801561039d575f5ffd5b506102976103ac366004611612565b60056020525f908152604090208054600182015460028301546003909301549192909184565b3480156103dd575f5ffd5b506102176103ec3660046117a9565b610cfb565b3480156103fc575f5ffd5b5061021761040b366004611543565b610f2b565b61021761041e366004611543565b610f8c565b34801561042e575f5ffd5b5061021761043d366004611612565b6111a0565b34801561044d575f5ffd5b5061046161045c366004611519565b6111da565b60405161016991906117ed565b348015610479575f5ffd5b5061015f67016345785d8a000081565b6006602052815f5260405f2081815481106104a2575f80fd5b905f5260205f20015f91509150505481565b5f825f811180156104c6575060025481105b6104eb5760405162461bcd60e51b81526004016104e2906117ff565b60405180910390fd5b50505f9182526004602090815260408084206001600160a01b039390931684526009909201905290205460ff1690565b60046020525f90815260409020805460018201805491929161053c9061182c565b80601f01602080910402602001604051908101604052809291908181526020018280546105689061182c565b80156105b35780601f1061058a576101008083540402835291602001916105b3565b820191905f5260205f20905b81548152906001019060200180831161059657829003601f168201915b5050505050908060020180546105c89061182c565b80601f01602080910402602001604051908101604052809291908181526020018280546105f49061182c565b801561063f5780601f106106165761010080835404028352916020019161063f565b820191905f5260205f20905b81548152906001019060200180831161062257829003601f168201915b5050505050908060030180546106549061182c565b80601f01602080910402602001604051908101604052809291908181526020018280546106809061182c565b80156106cb5780601f106106a2576101008083540402835291602001916106cb565b820191905f5260205f20905b8154815290600101906020018083116106ae57829003601f168201915b505050600484015460058501546006860154600787015460089097015495969295919450925060ff808216916101008104909116906001600160a01b0362010000909104168b565b6001600160a01b0381165f9081526006602090815260409182902080548351818402810184019094528084526060939283018282801561077057602002820191905f5260205f20905b81548152602001906001019080831161075c575b50505050509050919050565b6107846112bd565b6001546040516001600160a01b03909116904780156108fc02915f818181858888f193505050501580156107ba573d5f5f3e3d5ffd5b50565b5f60608060605f5f5f5f5f5f5f8b5f811180156107db575060025481105b6107f75760405162461bcd60e51b81526004016104e2906117ff565b5f8d815260046020819052604090912080549181015460058201546006830154600784015460088501546001860180549697969095600289019560038a0195919490939192909160ff808216926101008304909116916201000090046001600160a01b0316908a906108689061182c565b80601f01602080910402602001604051908101604052809291908181526020018280546108949061182c565b80156108df5780601f106108b6576101008083540402835291602001916108df565b820191905f5260205f20905b8154815290600101906020018083116108c257829003601f168201915b505050505099508880546108f29061182c565b80601f016020809104026020016040519081016040528092919081815260200182805461091e9061182c565b80156109695780601f1061094057610100808354040283529160200191610969565b820191905f5260205f20905b81548152906001019060200180831161094c57829003601f168201915b5050505050985087805461097c9061182c565b80601f01602080910402602001604051908101604052809291908181526020018280546109a89061182c565b80156109f35780601f106109ca576101008083540402835291602001916109f3565b820191905f5260205f20905b8154815290600101906020018083116109d657829003601f168201915b505050505097509c509c509c509c509c509c509c509c509c509c509c50505091939597999b90929496989a50565b805f81118015610a32575060025481105b610a4e5760405162461bcd60e51b81526004016104e2906117ff565b5f82815260046020526040902060080154829060ff16610a805760405162461bcd60e51b81526004016104e290611864565b5f83815260046020526040902060068101546007820154610aa191906118a4565b4211610aef5760405162461bcd60e51b815260206004820152601860248201527f47616d6520686173206e6f74206578706972656420796574000000000000000060448201526064016104e2565b60088101805461ffff1916610100179055600581015460405185917fa72860103f540f00e7d5c44ff9ea4cdb6cf0361b63e542d7a657c4c1154100de91610b3891815260200190565b60405180910390a250505050565b610b4e6112bd565b610b575f6112ea565b565b5f825f81118015610b6b575060025481105b610b875760405162461bcd60e51b81526004016104e2906117ff565b5f8481526004602090815260408083206001600160a01b0387168452600a0190915281208054610bb69061182c565b90501191505092915050565b5f610bcb6112bd565b66038d7ea4c680008210158015610bea575067016345785d8a00008211155b610c2a5760405162461bcd60e51b8152602060048201526011602482015270496e76616c696420656e7472792066656560781b60448201526064016104e2565b600280545f9182610c3a836118bd565b909155505f81815260046020526040902081815590915060018101610c5f8882611921565b5060028101610c6e8782611921565b5060038101610c7d8682611921565b50600481018490555f60058201556003805460068301554260078301556008820180546001600160b01b03191660011790555460405183917fbd3f84a55fdc44f970adc6ccbaa93e78d7da5f3fc37c4b7da578d47c9ad2e46a91610ce991888252602082015260400190565b60405180910390a25095945050505050565b815f81118015610d0c575060025481105b610d285760405162461bcd60e51b81526004016104e2906117ff565b5f83815260046020526040902060080154839060ff16610d5a5760405162461bcd60e51b81526004016104e290611864565b5f84815260046020526040902060068101546007909101548591610d7d916118a4565b421115610dbf5760405162461bcd60e51b815260206004820152601060248201526f11d85b59481a185cc8195e1c1a5c995960821b60448201526064016104e2565b5f858152600460209081526040808320338452600981019092529091205460ff16610e2c5760405162461bcd60e51b815260206004820152601760248201527f506c61796572206e6f7420696e20746869732067616d6500000000000000000060448201526064016104e2565b335f908152600a8201602052604090208054610e479061182c565b159050610e965760405162461bcd60e51b815260206004820152601760248201527f416c7265616479207375626d697474656420677565737300000000000000000060448201526064016104e2565b335f908152600a820160205260409020610eb08682611921565b5080600201604051610ec291906119dc565b6040518091039020858051906020012003610ee157610ee1863361133b565b336001600160a01b0316867f17a40e01bf0138d07f888b59d3df945ee0f73445ebbde5213180ad0cb1b8b38387604051610f1b91906117ed565b60405180910390a3505050505050565b610f336112bd565b600a8110158015610f46575061012c8111155b610f875760405162461bcd60e51b8152602060048201526012602482015271125b9d985b1a59081d1a5b59481b1a5b5a5d60721b60448201526064016104e2565b600355565b805f81118015610f9d575060025481105b610fb95760405162461bcd60e51b81526004016104e2906117ff565b5f82815260046020526040902060080154829060ff16610feb5760405162461bcd60e51b81526004016104e290611864565b5f8381526004602052604090206006810154600790910154849161100e916118a4565b4211156110505760405162461bcd60e51b815260206004820152601060248201526f11d85b59481a185cc8195e1c1a5c995960821b60448201526064016104e2565b5f848152600460209081526040808320338452600981019092529091205460ff16156110be5760405162461bcd60e51b815260206004820152601f60248201527f506c6179657220616c7265616479206a6f696e656420746869732067616d650060448201526064016104e2565b806004015434146111075760405162461bcd60e51b8152602060048201526013602482015272496e636f727265637420656e7472792066656560681b60448201526064016104e2565b335f9081526009820160205260408120805460ff191660011790556005820180543492906111369084906118a4565b9091555050335f818152600660209081526040808320805460018101825590845291909220018790555186907f03dfbe1fcb4e2d61f3b4a0c93d8f814c92250618b3387f396cc9fc9fafe2c203906111919034815260200190565b60405180910390a35050505050565b6111a86112bd565b6001600160a01b0381166111d157604051631e4fbdf760e01b81525f60048201526024016104e2565b6107ba816112ea565b6060825f811180156111ed575060025481105b6112095760405162461bcd60e51b81526004016104e2906117ff565b5f8481526004602090815260408083206001600160a01b0387168452600a01909152902080546112389061182c565b80601f01602080910402602001604051908101604052809291908181526020018280546112649061182c565b80156112af5780601f10611286576101008083540402835291602001916112af565b820191905f5260205f20905b81548152906001019060200180831161129257829003601f168201915b505050505091505092915050565b6001546001600160a01b03163314610b575760405163118cdaa760e01b81523360048201526024016104e2565b600180546001600160a01b038381166001600160a01b0319831681179093556040519116919082907f8be0079c531659141344cd1fd0a4f28419497f9722a3daafe3b4186f6b6457e0905f90a35050565b5f8281526004602052604081206008810180546001600160a01b03851662010000026001600160b01b03199091161761010017905560058082015491929160649161138591611a4d565b61138f9190611a64565b90505f8183600501546113a29190611a83565b6001600160a01b0385165f9081526005602052604081208054929350919082906113cb836118bd565b9091555050600181018054905f6113e1836118bd565b919050555081816002015f8282546113f991906118a4565b90915550508054600182015461141190612710611a4d565b61141b9190611a64565b6003820155811561145b576040516001600160a01b0386169083156108fc029084905f818181858888f19350505050158015611459573d5f5f3e3d5ffd5b505b821561149a576001546040516001600160a01b039091169084156108fc029085905f818181858888f19350505050158015611498573d5f5f3e3d5ffd5b505b846001600160a01b0316867f9e59e9b0ec1755ccaf2fd4a7ed4ad5b0a678626e91834aee53ebdf1356bd390a84604051610f1b91815260200190565b80356001600160a01b03811681146114ec575f5ffd5b919050565b5f5f60408385031215611502575f5ffd5b61150b836114d6565b946020939093013593505050565b5f5f6040838503121561152a575f5ffd5b8235915061153a602084016114d6565b90509250929050565b5f60208284031215611553575f5ffd5b5035919050565b5f81518084528060208401602086015e5f602082860101526020601f19601f83011685010191505092915050565b8b815261016060208201525f6115a261016083018d61155a565b82810360408401526115b4818d61155a565b905082810360608401526115c8818c61155a565b608084019a909a52505060a081019690965260c086019490945260e0850192909252151561010084015215156101208301526001600160a01b031661014090910152949350505050565b5f60208284031215611622575f5ffd5b61162b826114d6565b9392505050565b602080825282518282018190525f918401906040840190835b8181101561166957835183526020938401939092019160010161164b565b509095945050505050565b634e487b7160e01b5f52604160045260245ffd5b5f82601f830112611697575f5ffd5b813567ffffffffffffffff8111156116b1576116b1611674565b604051601f8201601f19908116603f0116810167ffffffffffffffff811182821017156116e0576116e0611674565b6040528181528382016020018510156116f7575f5ffd5b816020850160208301375f918101602001919091529392505050565b5f5f5f5f60808587031215611726575f5ffd5b843567ffffffffffffffff81111561173c575f5ffd5b61174887828801611688565b945050602085013567ffffffffffffffff811115611764575f5ffd5b61177087828801611688565b935050604085013567ffffffffffffffff81111561178c575f5ffd5b61179887828801611688565b949793965093946060013593505050565b5f5f604083850312156117ba575f5ffd5b82359150602083013567ffffffffffffffff8111156117d7575f5ffd5b6117e385828601611688565b9150509250929050565b602081525f61162b602083018461155a565b60208082526013908201527211d85b5948191bd95cc81b9bdd08195e1a5cdd606a1b604082015260600190565b600181811c9082168061184057607f821691505b60208210810361185e57634e487b7160e01b5f52602260045260245ffd5b50919050565b60208082526012908201527147616d65206973206e6f742061637469766560701b604082015260600190565b634e487b7160e01b5f52601160045260245ffd5b808201808211156118b7576118b7611890565b92915050565b5f600182016118ce576118ce611890565b5060010190565b601f82111561191c57805f5260205f20601f840160051c810160208510156118fa5750805b601f840160051c820191505b81811015611919575f8155600101611906565b50505b505050565b815167ffffffffffffffff81111561193b5761193b611674565b61194f81611949845461182c565b846118d5565b6020601f821160018114611981575f831561196a5750848201515b5f19600385901b1c1916600184901b178455611919565b5f84815260208120601f198516915b828110156119b05787850151825560209485019460019092019101611990565b50848210156119cd57868401515f19600387901b60f8161c191681555b50505050600190811b01905550565b5f5f83546119e98161182c565b600182168015611a005760018114611a1557611a42565b60ff1983168652811515820286019350611a42565b865f5260205f205f5b83811015611a3a57815488820152600190910190602001611a1e565b505081860193505b509195945050505050565b80820281158282048414176118b7576118b7611890565b5f82611a7e57634e487b7160e01b5f52601260045260245ffd5b500490565b818103818111156118b7576118b761189056fea2646970667358221220cc8aa0f949426a2fe6dffe962d92ee69e54861346231d9de55ef8f11d4cf5a2164736f6c634300081c0033",
  "linkReferences": {},
  "deployedLinkReferences": {},
  "immutableReferences": {},
  "inputSourceName": "project/contracts/GuessWhatGame.sol",
  "buildInfoId": "solc-0_8_28-a764891b5234f62a6eeccdfdfc18fbe7331cf85d"
}