{"project/contracts/GuessWhatGame.sol":{"GuessWhatGame":{"abi":[{"inputs":[{"internalType":"address","name":"initialOwner","type":"address"},{"internalType":"address[]","name":"initialAdmins","type":"address[]"}],"stateMutability":"nonpayable","type":"constructor"},{"inputs":[{"internalType":"address","name":"owner","type":"address"}],"name":"OwnableInvalidOwner","type":"error"},{"inputs":[{"internalType":"address","name":"account","type":"address"}],"name":"OwnableUnauthorizedAccount","type":"error"},{"inputs":[],"name":"ReentrancyGuardReentrantCall","type":"error"},{"anonymous":false,"inputs":[{"indexed":true,"internalType":"address","name":"admin","type":"address"}],"name":"AdminAdded","type":"event"},{"anonymous":false,"inputs":[{"indexed":true,"internalType":"address","name":"admin","type":"address"}],"name":"AdminRemoved","type":"event"},{"anonymous":false,"inputs":[{"indexed":true,"internalType":"uint256","name":"gameId","type":"uint256"},{"indexed":false,"internalType":"uint256","name":"entryFee","type":"uint256"},{"indexed":false,"internalType":"uint256","name":"basePrizeAmount","type":"uint256"}],"name":"GameCreated","type":"event"},{"anonymous":false,"inputs":[{"indexed":true,"internalType":"uint256","name":"gameId","type":"uint256"},{"indexed":false,"internalType":"uint256","name":"totalPrize","type":"uint256"}],"name":"GameExpired","type":"event"},{"anonymous":false,"inputs":[{"indexed":true,"internalType":"uint256","name":"gameId","type":"uint256"},{"indexed":true,"internalType":"address","name":"winner","type":"address"},{"indexed":false,"internalType":"uint256","name":"prize","type":"uint256"}],"name":"GameWon","type":"event"},{"anonymous":false,"inputs":[{"indexed":true,"internalType":"uint256","name":"gameId","type":"uint256"},{"indexed":true,"internalType":"address","name":"player","type":"address"},{"indexed":false,"internalType":"string","name":"guess","type":"string"}],"name":"GuessSubmitted","type":"event"},{"anonymous":false,"inputs":[{"indexed":true,"internalType":"address","name":"previousOwner","type":"address"},{"indexed":true,"internalType":"address","name":"newOwner","type":"address"}],"name":"OwnershipTransferred","type":"event"},{"anonymous":false,"inputs":[{"indexed":false,"internalType":"uint256","name":"oldFee","type":"uint256"},{"indexed":false,"internalType":"uint256","name":"newFee","type":"uint256"}],"name":"PlatformFeeUpdated","type":"event"},{"anonymous":false,"inputs":[{"indexed":true,"internalType":"uint256","name":"gameId","type":"uint256"},{"indexed":true,"internalType":"address","name":"player","type":"address"},{"indexed":false,"internalType":"uint256","name":"entryFee","type":"uint256"}],"name":"PlayerJoined","type":"event"},{"anonymous":false,"inputs":[{"indexed":true,"internalType":"uint256","name":"gameId","type":"uint256"},{"indexed":true,"internalType":"address","name":"winner","type":"address"},{"indexed":false,"internalType":"uint256","name":"amount","type":"uint256"}],"name":"PrizeClaimed","type":"event"},{"anonymous":false,"inputs":[{"indexed":false,"internalType":"uint256","name":"oldMultiplier","type":"uint256"},{"indexed":false,"internalType":"uint256","name":"newMultiplier","type":"uint256"}],"name":"PrizeMultiplierUpdated","type":"event"},{"anonymous":false,"inputs":[{"indexed":true,"internalType":"address","name":"funder","type":"address"},{"indexed":false,"internalType":"uint256","name":"amount","type":"uint256"}],"name":"TreasuryFunded","type":"event"},{"anonymous":false,"inputs":[{"indexed":true,"internalType":"address","name":"recipient","type":"address"},{"indexed":false,"internalType":"uint256","name":"amount","type":"uint256"}],"name":"TreasuryWithdrawn","type":"event"},{"inputs":[{"internalType":"address","name":"_admin","type":"address"}],"name":"addAdmin","outputs":[],"stateMutability":"nonpayable","type":"function"},{"inputs":[{"internalType":"uint256","name":"","type":"uint256"}],"name":"adminList","outputs":[{"internalType":"address","name":"","type":"address"}],"stateMutability":"view","type":"function"},{"inputs":[{"internalType":"address","name":"","type":"address"}],"name":"admins","outputs":[{"internalType":"bool","name":"","type":"bool"}],"stateMutability":"view","type":"function"},{"inputs":[{"internalType":"string","name":"_topWord","type":"string"},{"internalType":"bytes32","name":"_middleWordHash","type":"bytes32"},{"internalType":"string","name":"_bottomWord","type":"string"},{"internalType":"uint256","name":"_entryFee","type":"uint256"}],"name":"createGame","outputs":[{"internalType":"uint256","name":"","type":"uint256"}],"stateMutability":"nonpayable","type":"function"},{"inputs":[],"name":"defaultPrizeMultiplier","outputs":[{"internalType":"uint256","name":"","type":"uint256"}],"stateMutability":"view","type":"function"},{"inputs":[{"internalType":"uint256","name":"_gameId","type":"uint256"}],"name":"emergencyCloseGame","outputs":[],"stateMutability":"nonpayable","type":"function"},{"inputs":[],"name":"emergencyWithdraw","outputs":[],"stateMutability":"nonpayable","type":"function"},{"inputs":[],"name":"fundTreasury","outputs":[],"stateMutability":"payable","type":"function"},{"inputs":[{"internalType":"uint256","name":"","type":"uint256"}],"name":"games","outputs":[{"internalType":"uint256","name":"gameId","type":"uint256"},{"internalType":"string","name":"topWord","type":"string"},{"internalType":"bytes32","name":"middleWordHash","type":"bytes32"},{"internalType":"string","name":"bottomWord","type":"string"},{"internalType":"uint256","name":"entryFee","type":"uint256"},{"internalType":"uint256","name":"totalPrize","type":"uint256"},{"internalType":"uint256","name":"basePrizeAmount","type":"uint256"},{"internalType":"uint256","name":"startTime","type":"uint256"},{"internalType":"bool","name":"isActive","type":"bool"},{"internalType":"bool","name":"isCompleted","type":"bool"},{"internalType":"address","name":"winner","type":"address"}],"stateMutability":"view","type":"function"},{"inputs":[],"name":"getActiveGamesCount","outputs":[{"internalType":"uint256","name":"","type":"uint256"}],"stateMutability":"view","type":"function"},{"inputs":[],"name":"getAdminCount","outputs":[{"internalType":"uint256","name":"","type":"uint256"}],"stateMutability":"view","type":"function"},{"inputs":[],"name":"getAdminList","outputs":[{"internalType":"address[]","name":"","type":"address[]"}],"stateMutability":"view","type":"function"},{"inputs":[],"name":"getContractBalance","outputs":[{"internalType":"uint256","name":"","type":"uint256"}],"stateMutability":"view","type":"function"},{"inputs":[{"internalType":"uint256","name":"_gameId","type":"uint256"}],"name":"getGameInfo","outputs":[{"internalType":"uint256","name":"gameId","type":"uint256"},{"internalType":"string","name":"topWord","type":"string"},{"internalType":"uint256","name":"middleWordLength","type":"uint256"},{"internalType":"string","name":"bottomWord","type":"string"},{"internalType":"uint256","name":"entryFee","type":"uint256"},{"internalType":"uint256","name":"totalPrize","type":"uint256"},{"internalType":"uint256","name":"basePrizeAmount","type":"uint256"},{"internalType":"uint256","name":"startTime","type":"uint256"},{"internalType":"bool","name":"isActive","type":"bool"},{"internalType":"bool","name":"isCompleted","type":"bool"},{"internalType":"address","name":"winner","type":"address"}],"stateMutability":"view","type":"function"},{"inputs":[{"internalType":"address","name":"_player","type":"address"}],"name":"getPlayerGames","outputs":[{"internalType":"uint256[]","name":"","type":"uint256[]"}],"stateMutability":"view","type":"function"},{"inputs":[{"internalType":"uint256","name":"_gameId","type":"uint256"},{"internalType":"address","name":"_player","type":"address"}],"name":"getPlayerGuess","outputs":[{"internalType":"string","name":"","type":"string"}],"stateMutability":"view","type":"function"},{"inputs":[{"internalType":"address","name":"_player","type":"address"}],"name":"getPlayerStats","outputs":[{"internalType":"uint256","name":"gamesPlayed","type":"uint256"},{"internalType":"uint256","name":"guessesPlayed","type":"uint256"},{"internalType":"uint256","name":"correctGuesses","type":"uint256"},{"internalType":"uint256","name":"totalWinnings","type":"uint256"},{"internalType":"uint256","name":"accuracy","type":"uint256"}],"stateMutability":"view","type":"function"},{"inputs":[],"name":"getRandomActiveGame","outputs":[{"internalType":"uint256","name":"","type":"uint256"}],"stateMutability":"view","type":"function"},{"inputs":[],"name":"getTreasuryBalance","outputs":[{"internalType":"uint256","name":"","type":"uint256"}],"stateMutability":"view","type":"function"},{"inputs":[{"internalType":"uint256","name":"_gameId","type":"uint256"},{"internalType":"address","name":"_player","type":"address"}],"name":"hasPlayerGuessed","outputs":[{"internalType":"bool","name":"","type":"bool"}],"stateMutability":"view","type":"function"},{"inputs":[{"internalType":"address","name":"_address","type":"address"}],"name":"isAdmin","outputs":[{"internalType":"bool","name":"","type":"bool"}],"stateMutability":"view","type":"function"},{"inputs":[{"internalType":"address","name":"_address","type":"address"}],"name":"isOwner","outputs":[{"internalType":"bool","name":"","type":"bool"}],"stateMutability":"view","type":"function"},{"inputs":[{"internalType":"uint256","name":"_gameId","type":"uint256"},{"internalType":"address","name":"_player","type":"address"}],"name":"isPlayerInGame","outputs":[{"internalType":"bool","name":"","type":"bool"}],"stateMutability":"view","type":"function"},{"inputs":[],"name":"nextGameId","outputs":[{"internalType":"uint256","name":"","type":"uint256"}],"stateMutability":"view","type":"function"},{"inputs":[],"name":"owner","outputs":[{"internalType":"address","name":"","type":"address"}],"stateMutability":"view","type":"function"},{"inputs":[],"name":"platformFeePercent","outputs":[{"internalType":"uint256","name":"","type":"uint256"}],"stateMutability":"view","type":"function"},{"inputs":[{"internalType":"address","name":"","type":"address"},{"internalType":"uint256","name":"","type":"uint256"}],"name":"playerGames","outputs":[{"internalType":"uint256","name":"","type":"uint256"}],"stateMutability":"view","type":"function"},{"inputs":[{"internalType":"address","name":"","type":"address"}],"name":"playerStats","outputs":[{"internalType":"uint256","name":"gamesPlayed","type":"uint256"},{"internalType":"uint256","name":"guessesPlayed","type":"uint256"},{"internalType":"uint256","name":"correctGuesses","type":"uint256"},{"internalType":"uint256","name":"totalWinnings","type":"uint256"},{"internalType":"uint256","name":"accuracy","type":"uint256"}],"stateMutability":"view","type":"function"},{"inputs":[{"internalType":"address","name":"_admin","type":"address"}],"name":"removeAdmin","outputs":[],"stateMutability":"nonpayable","type":"function"},{"inputs":[],"name":"renounceOwnership","outputs":[],"stateMutability":"nonpayable","type":"function"},{"inputs":[{"internalType":"uint256","name":"_feePercent","type":"uint256"}],"name":"setPlatformFee","outputs":[],"stateMutability":"nonpayable","type":"function"},{"inputs":[{"internalType":"uint256","name":"_multiplier","type":"uint256"}],"name":"setPrizeMultiplier","outputs":[],"stateMutability":"nonpayable","type":"function"},{"inputs":[{"internalType":"uint256","name":"_gameId","type":"uint256"},{"internalType":"string","name":"_guess","type":"string"}],"name":"submitGuess","outputs":[],"stateMutability":"payable","type":"function"},{"inputs":[{"internalType":"address","name":"newOwner","type":"address"}],"name":"transferOwnership","outputs":[],"stateMutability":"nonpayable","type":"function"},{"inputs":[],"name":"treasuryBalance","outputs":[{"internalType":"uint256","name":"","type":"uint256"}],"stateMutability":"view","type":"function"},{"inputs":[{"internalType":"uint256","name":"_amount","type":"uint256"}],"name":"withdrawFromTreasury","outputs":[],"stateMutability":"nonpayable","type":"function"}],"evm":{"bytecode":{"linkReferences":{},"object":"608060405234610269576122c6803803806100198161026d565b9283398101906040818303126102695761003281610292565b602082015190916001600160401b03821161026957019180601f84011215610269578251926001600160401b03841161021b578360051b9060208061007881850161026d565b80978152019282010192831161026957602001905b82821061025157505060015f55506001600160a01b0316801561023e57600180546001600160a01b0319811683179091556001600160a01b03167f8be0079c531659141344cd1fd0a4f28419497f9722a3daafe3b4186f6b6457e05f80a360016002556005600355600a6005555f5b815181101561022f576001600160a01b0361011782846102a6565b5116610126575b6001016100fc565b6001600160a01b0361013882846102a6565b51165f908152600960205260409020805460ff191660011790556001600160a01b0361016482846102a6565b511690600a54916801000000000000000083101561021b576001830180600a5583101561020757600a5f527fc65a7bb8d6351c1cf70c95a316cc6a92839c986682d98bc35f958f4883f9d2a890920180546001600160a01b0319169092179091556001906001600160a01b036101da82856102a6565b51167f44d6d25963f097ad14f29f06854a01f575648a1ef82f30e562ccd3889717e3395f80a2905061011e565b634e487b7160e01b5f52603260045260245ffd5b634e487b7160e01b5f52604160045260245ffd5b60405161200b90816102bb8239f35b631e4fbdf760e01b5f525f60045260245ffd5b6020809161025e84610292565b81520191019061008d565b5f80fd5b6040519190601f01601f191682016001600160401b0381118382101761021b57604052565b51906001600160a01b038216820361026957565b80518210156102075760209160051b01019056fe60806040526004361015610011575f80fd5b5f3560e01c80630a5694c214611bc15780630d3b404f14611b5757806311117fc814611b15578063117a5b9014611a84578063129daf84146119d057806312e8e2c3146119365780631785f53c146117895780631b39c1f6146116bc57806324d7806c146116615780632d57dc34146115b75780632e25eb471461119e5780632f54bf6e14611169578063313dab2014610a9a578063429b62e51461112c57806347e1d5501461103e5780634fd66eae146109505780636355562414610f5e5780636ce5ba6f14610dd55780636f9fb98a14610dba5780637048027514610c81578063715018a614610c2657806372aeb81f14610ba557806382f7defa14610b885780638b7bf3eb14610b6b5780638c639a8514610b4e5780638da5cb5b14610b265780639a53371e14610ab75780639b5655dc14610a9a578063b135bbb014610a7d578063b9c18685146109c4578063cdafbbb614610950578063d9f774fc14610888578063db249ec81461033b578063db2e21bc146102ac578063f2fde38b146102265763f4dcdc8e146101a5575f80fd5b34610222576040366003190112610222576004356101c1611c2f565b9080151580610217575b6101d490611dfa565b5f526006602052600a60405f20019060018060a01b03165f526020526102136101ff60405f20611ce0565b604051918291602083526020830190611d80565b0390f35b5060025481106101cb565b5f80fd5b346102225760203660031901126102225761023f611c19565b610247611f90565b6001600160a01b0316801561029957600180546001600160a01b0319811683179091556001600160a01b03167f8be0079c531659141344cd1fd0a4f28419497f9722a3daafe3b4186f6b6457e05f80a3005b631e4fbdf760e01b5f525f60045260245ffd5b34610222575f366003190112610222576102c4611f90565b6102cc611fb7565b4780156102ff576001545f918291829182916001600160a01b031682f1156102f45760015f55005b6040513d5f823e3d90fd5b60405162461bcd60e51b81526020600482015260146024820152734e6f2066756e647320746f20776974686472617760601b6044820152606490fd5b60403660031901126102225760043560243567ffffffffffffffff81116102225761036a903690600401611da4565b908015158061087d575b61037d90611dfa565b805f52600660205261039860ff600860405f20015416611e8b565b6103a0611fb7565b805f52600660205260405f206004810154340361084257335f908152600760209081526040808320600985019283905292205460ff1615610776575b50600190600583016103ef348254611ecc565b9055016103fc8154611ed9565b9055335f908152600a820160205260409020835167ffffffffffffffff8111610762576104298254611c86565b601f811161071d575b50806020601f82116001146106bc575f916106b1575b508160011b915f199060031b1c19161790555b600283516020850120910154145f1461069d575f8181526006602052604090206008810180546001600160b01b0319163360101b62010000600160b01b031617610100179055600581015460048201548082111561068f576104c26006916104cd93611e3c565b925b01549182611ecc565b6104e660646104de60035484611ee7565b048092611e3c565b9160045490808210610652576104fb91611e3c565b600455335f52600760205260405f20600281016105188154611ed9565b8091556003820161052a858254611ecc565b905581549081610612575b50505081801580156105ed575b5050801580156105be575b5050604051908152817f9e59e9b0ec1755ccaf2fd4a7ed4ad5b0a678626e91834aee53ebdf1356bd390a60203393a35b7f17a40e01bf0138d07f888b59d3df945ee0f73445ebbde5213180ad0cb1b8b38360405160208152806105b533956020830190611d80565b0390a360015f55005b5f808093819360018060a01b03600154169083906105e4575bf1156102f457838061054d565b506108fc6105d7565b5f90610609575b5f80809381933390f1156102f4578185610542565b506108fc6105f4565b612710810290808204612710149015171561063e5760049161063391611f72565b910155848080610535565b634e487b7160e01b5f52601160045260245ffd5b60405162461bcd60e51b8152602060048201526015602482015274496e73756666696369656e7420747265617375727960581b6044820152606490fd5b50506104cd60065f926104c4565b6106a934600454611ecc565b60045561057d565b905085015186610448565b5f8481528181209250601f198416905b818110610705575090836001949392106106ed575b5050811b01905561045b565b8701515f1960f88460031b161c1916905586806106e1565b9192602060018192868c0151815501940192016106cc565b825f5260205f20601f830160051c81019160208410610758575b601f0160051c01905b81811061074d5750610432565b5f8155600101610740565b9091508190610737565b634e487b7160e01b5f52604160045260245ffd5b335f90815260209182526040808220805460ff191660011790556008909252208054600160401b811015610762576107b391600182018155611c71565b81549060031b9085821b915f19901b19161790556107d18154611ed9565b9081815581610812575b60019150604051348152847f03dfbe1fcb4e2d61f3b4a0c93d8f814c92250618b3387f396cc9fc9fafe2c20360203393a3906103dc565b6002810154612710810290808204612710149015171561063e5760019261083891611f72565b60048201556107db565b60405162461bcd60e51b8152602060048201526013602482015272496e636f727265637420656e7472792066656560681b6044820152606490fd5b506002548110610374565b34610222575f36600319011261022257604051806020600a5492838152018092600a5f527fc65a7bb8d6351c1cf70c95a316cc6a92839c986682d98bc35f958f4883f9d2a8905f5b81811061093157505050816108e6910382611cbe565b604051918291602083019060208452518091526040830191905f5b81811061090f575050500390f35b82516001600160a01b0316845285945060209384019390920191600101610901565b82546001600160a01b03168452602090930192600192830192016108d0565b34610222576020366003190112610222576001600160a01b03610971611c19565b165f52600760205260405f2080546102136001830154926002810154906004600382015491015491604051958695869192608093969594919660a084019784526020840152604083015260608201520152565b5f36600319011261022257335f52600960205260ff60405f2054168015610a69575b6109ef90611e49565b3415610a3257610a0134600454611ecc565b6004556040513481527fda1785fe1dec267c363b06ae3e02c3e086123f9d611399f7a1cc98492518372e60203392a2005b60405162461bcd60e51b815260206004820152600f60248201526e4d7573742073656e642066756e647360881b6044820152606490fd5b506001546001600160a01b031633146109e6565b34610222575f366003190112610222576020600254604051908152f35b34610222575f366003190112610222576020600454604051908152f35b3461022257604036600319011261022257600435610ad3611c2f565b9080151580610b1b575b610ae690611dfa565b5f526006602052600a60405f20019060018060a01b03165f526020526020610b1160405f2054611c86565b1515604051908152f35b506002548110610add565b34610222575f366003190112610222576001546040516001600160a01b039091168152602090f35b34610222575f366003190112610222576020600354604051908152f35b34610222575f366003190112610222576020600a54604051908152f35b34610222575f366003190112610222576020600554604051908152f35b34610222575f366003190112610222575f6001600254905b818110610bcf57602083604051908152f35b805f52600660205260ff600860405f2001541680610c09575b610bf5575b600101610bbd565b91610c01600191611ed9565b929050610bed565b50805f52600660205260ff600860405f20015460081c1615610be8565b34610222575f36600319011261022257610c3e611f90565b600180546001600160a01b031981169091555f906001600160a01b03167f8be0079c531659141344cd1fd0a4f28419497f9722a3daafe3b4186f6b6457e08280a3005b3461022257602036600319011261022257610c9a611c19565b610ca2611f90565b6001600160a01b038116908115610d8357815f52600960205260ff60405f205416610d4b57815f52600960205260405f20600160ff19825416179055600a5490600160401b82101561076257610d01826001610d259401600a55611c45565b81546001600160a01b0393841660039290921b91821b9390911b1916919091179055565b7f44d6d25963f097ad14f29f06854a01f575648a1ef82f30e562ccd3889717e3395f80a2005b60405162461bcd60e51b815260206004820152601060248201526f20b63932b0b23c9030b71030b236b4b760811b6044820152606490fd5b60405162461bcd60e51b815260206004820152600f60248201526e496e76616c6964206164647265737360881b6044820152606490fd5b34610222575f36600319011261022257602047604051908152f35b34610222575f366003190112610222576002546001811115610f28575f1981019080821161063e57610e0682611f46565b91610e146040519384611cbe565b808352610e23601f1991611f46565b013660208401375f9060015b818110610ec55750508015610e8057602091610e7791604051848101904282524460408201523360601b606082015260548152610e6d607482611cbe565b5190200690611f5e565b51604051908152f35b60405162461bcd60e51b815260206004820152601960248201527f4e6f206163746976652067616d657320617661696c61626c65000000000000006044820152606490fd5b805f52600660205260ff600860405f2001541680610f0b575b610eeb575b600101610e2f565b91610f038184610efd60019488611f5e565b52611ed9565b929050610ee3565b50805f52600660205260ff600860405f20015460081c1615610ede565b60405162461bcd60e51b815260206004820152600e60248201526d139bc819d85b595cc8195e1a5cdd60921b6044820152606490fd5b3461022257602036600319011261022257600435610f7a611f90565b610f82611fb7565b8015610ff957610fa081600454610f9b82821015611efa565b611e3c565b6004555f8080808460018060a01b036001541682f1156102f4576001546040519182526001600160a01b0316907f41fdd680478135993bc53fb2ffaf9560951b57ef62ff6badd02b61e018b4f17f90602090a260015f55005b60405162461bcd60e51b815260206004820152601d60248201527f416d6f756e74206d7573742062652067726561746572207468616e20300000006044820152606490fd5b346102225760203660031901126102225760043580151580611121575b61106490611dfa565b5f52600660205260405f2080546004820154600583015460068401546007850154906008860154926110d96110a760036110a060018b01611ce0565b9901611ce0565b6110c5604051998a998a5261016060208b01526101608a0190611d80565b905f60408a015288820360608a0152611d80565b608087019590955260a086015260c085015260e084015260ff8181161515610100850152600882901c16151561012084015260101c6001600160a01b03166101408301520390f35b50600254811061105b565b34610222576020366003190112610222576001600160a01b0361114d611c19565b165f526009602052602060ff60405f2054166040519015158152f35b34610222576020366003190112610222576020611184611c19565b6001546040516001600160a01b0392831691909216148152f35b346102225760803660031901126102225760043567ffffffffffffffff8111610222576111cf903690600401611da4565b6024359060443567ffffffffffffffff8111610222576111f3903690600401611da4565b9060643592335f52600960205260ff60405f20541680156115a3575b61121890611e49565b831561155f57801561151b576002549261123184611ed9565b600255835f52600660205260405f209161124d60055487611ee7565b9361125c856004541015611efa565b8584558051600185019167ffffffffffffffff82116107625781906112818454611c86565b601f81116114cb575b50602090601f8311600114611468575f9261145d575b50508160011b915f199060031b1c19161790555b60028301558051600383019167ffffffffffffffff8211610762576112d98354611c86565b601f8111611418575b509160209693918695938890601f831160011461138a5792826008937fbd3f84a55fdc44f970adc6ccbaa93e78d7da5f3fc37c4b7da578d47c9ad2e46a989693604098965f9261137f575b50508160011b915f199060031b1c19161790555b60048101849055600681018390555f60058201554260078201550180546001600160b01b0319166001179055825191825286820152a2604051908152f35b015190508c8061132d565b90601f19831691845f52815f20925f5b8181106113fe5750937fbd3f84a55fdc44f970adc6ccbaa93e78d7da5f3fc37c4b7da578d47c9ad2e46a989693604098969360019383600898106113e6575b505050811b019055611341565b01515f1960f88460031b161c191690558c80806113d9565b8284015185558b9a50600190940193928c01928c0161139a565b835f5260205f20601f840160051c81019160208510611453575b601f0160051c01905b81811061144857506112e2565b5f815560010161143b565b9091508190611432565b0151905089806112a0565b5f8581528281209350601f198516905b8181106114b3575090846001959493921061149b575b505050811b0190556112b4565b01515f1960f88460031b161c1916905589808061148e565b92936020600181928786015181550195019301611478565b909150835f5260205f20601f840160051c81019160208510611511575b90601f859493920160051c01905b818110611503575061128a565b5f81558493506001016114f6565b90915081906114e8565b606460405162461bcd60e51b815260206004820152602060248201527f4d6964646c6520776f726420686173682063616e6e6f7420626520656d7074796044820152fd5b606460405162461bcd60e51b815260206004820152602060248201527f456e74727920666565206d7573742062652067726561746572207468616e20306044820152fd5b506001546001600160a01b0316331461120f565b34610222576020366003190112610222576004356115d3611f90565b80156116125760407f514a13b7c45f1c0e37b6e90a86a9d5760aa7b452d562dfad87123c398c6c6b9591600554908060055582519182526020820152a1005b60405162461bcd60e51b815260206004820152602160248201527f4d756c7469706c696572206d7573742062652067726561746572207468616e206044820152600360fc1b6064820152608490fd5b346102225760203660031901126102225760206001600160a01b03611684611c19565b16805f526009825260ff60405f2054169081156116a7575b506040519015158152f35b6001546001600160a01b03161490508261169c565b3461022257602036600319011261022257600435335f52600960205260ff60405f2054168015611775575b6116f090611e49565b6116f8611fb7565b805f5260066020527fa72860103f540f00e7d5c44ff9ea4cdb6cf0361b63e542d7a657c4c1154100de602060405f205f60088201600581549361173d60ff8616611e8b565b019061010082549461ffff19161790555580611761575b604051908152a260015f55005b61176d81600454611ecc565b600455611754565b506001546001600160a01b031633146116e7565b34610222576020366003190112610222576117a2611c19565b6117aa611f90565b6001600160a01b03165f8181526009602052604090205460ff1615611902576001546001600160a01b031681146118c7575f818152600960205260408120805460ff191690555b600a5490818110156118c0578261180782611c45565b905460039190911b1c6001600160a01b0316146118285760019150016117f1565b5f19820191821161063e57610d0161184261185a93611c45565b905460039190911b1c6001600160a01b031691611c45565b600a5480156118ac575f190161186f81611c45565b81549060018060a01b039060031b1b19169055600a555b7fa3b62bc36326052d97ea62d63c3d60308ed4c3ea8ac079dd8499f1e9c4f80c0f5f80a2005b634e487b7160e01b5f52603160045260245ffd5b5050611886565b60405162461bcd60e51b815260206004820152601360248201527221b0b73737ba103932b6b7bb329037bbb732b960691b6044820152606490fd5b60405162461bcd60e51b815260206004820152600c60248201526b2737ba1030b71030b236b4b760a11b6044820152606490fd5b3461022257602036600319011261022257600435611952611f90565b603281116119935760407fd347e206f25a89b917fc9482f1a2d294d749baa4dc9bde7fb495ee11fe49164391600354908060035582519182526020820152a1005b60405162461bcd60e51b81526020600482015260156024820152744665652063616e6e6f74206578636565642035302560581b6044820152606490fd5b34610222576020366003190112610222576001600160a01b036119f1611c19565b165f52600860205260405f20604051806020835491828152019081935f5260205f20905f5b818110611a6e5750505081611a2c910382611cbe565b604051918291602083019060208452518091526040830191905f5b818110611a55575050500390f35b8251845285945060209384019390920191600101611a47565b8254845260209093019260019283019201611a16565b34610222576020366003190112610222576004355f52600660205260405f208054611ab160018301611ce0565b91600281015490611ac460038201611ce0565b9060048101549260058201546110d96006840154926008600786015495015495611b026040519a8b9a8b5261016060208c01526101608b0190611d80565b9160408a015288820360608a0152611d80565b3461022257602036600319011261022257600435600a5481101561022257611b3e602091611c45565b905460405160039290921b1c6001600160a01b03168152f35b3461022257604036600319011261022257600435611b73611c2f565b9080151580611bb6575b611b8690611dfa565b5f526006602052600960405f20019060018060a01b03165f52602052602060ff60405f2054166040519015158152f35b506002548110611b7d565b3461022257604036600319011261022257611bda611c19565b6001600160a01b03165f9081526008602052604090208054602435919082101561022257602091611c0a91611c71565b90549060031b1c604051908152f35b600435906001600160a01b038216820361022257565b602435906001600160a01b038216820361022257565b600a54811015611c5d57600a5f5260205f2001905f90565b634e487b7160e01b5f52603260045260245ffd5b8054821015611c5d575f5260205f2001905f90565b90600182811c92168015611cb4575b6020831014611ca057565b634e487b7160e01b5f52602260045260245ffd5b91607f1691611c95565b90601f8019910116810190811067ffffffffffffffff82111761076257604052565b9060405191825f825492611cf384611c86565b8084529360018116908115611d5e5750600114611d1a575b50611d1892500383611cbe565b565b90505f9291925260205f20905f915b818310611d42575050906020611d18928201015f611d0b565b6020919350806001915483858901015201910190918492611d29565b905060209250611d1894915060ff191682840152151560051b8201015f611d0b565b805180835260209291819084018484015e5f828201840152601f01601f1916010190565b81601f820112156102225780359067ffffffffffffffff82116107625760405192611dd9601f8401601f191660200185611cbe565b8284526020838301011161022257815f926020809301838601378301015290565b15611e0157565b60405162461bcd60e51b815260206004820152601360248201527211d85b5948191bd95cc81b9bdd08195e1a5cdd606a1b6044820152606490fd5b9190820391821161063e57565b15611e5057565b60405162461bcd60e51b815260206004820152601360248201527227b7363c9030b236b4b71037b91037bbb732b960691b6044820152606490fd5b15611e9257565b60405162461bcd60e51b815260206004820152601260248201527147616d65206973206e6f742061637469766560701b6044820152606490fd5b9190820180921161063e57565b5f19811461063e5760010190565b8181029291811591840414171561063e57565b15611f0157565b60405162461bcd60e51b815260206004820152601d60248201527f496e73756666696369656e742074726561737572792062616c616e63650000006044820152606490fd5b67ffffffffffffffff81116107625760051b60200190565b8051821015611c5d5760209160051b010190565b8115611f7c570490565b634e487b7160e01b5f52601260045260245ffd5b6001546001600160a01b03163303611fa457565b63118cdaa760e01b5f523360045260245ffd5b60025f5414611fc65760025f55565b633ee5aeb560e01b5f5260045ffdfea2646970667358221220563e2c41229ef015399d63bfe29ec4928d7af294accbc10a7562a2d839ef064964736f6c634300081c0033","opcodes":"PUSH1 0x80 PUSH1 0x40 MSTORE CALLVALUE PUSH2 0x269 JUMPI PUSH2 0x22C6 DUP1 CODESIZE SUB DUP1 PUSH2 0x19 DUP2 PUSH2 0x26D JUMP JUMPDEST SWAP3 DUP4 CODECOPY DUP2 ADD SWAP1 PUSH1 0x40 DUP2 DUP4 SUB SLT PUSH2 0x269 JUMPI PUSH2 0x32 DUP2 PUSH2 0x292 JUMP JUMPDEST PUSH1 0x20 DUP3 ADD MLOAD SWAP1 SWAP2 PUSH1 0x1 PUSH1 0x1 PUSH1 0x40 SHL SUB DUP3 GT PUSH2 0x269 JUMPI ADD SWAP2 DUP1 PUSH1 0x1F DUP5 ADD SLT ISZERO PUSH2 0x269 JUMPI DUP3 MLOAD SWAP3 PUSH1 0x1 PUSH1 0x1 PUSH1 0x40 SHL SUB DUP5 GT PUSH2 0x21B JUMPI DUP4 PUSH1 0x5 SHL SWAP1 PUSH1 0x20 DUP1 PUSH2 0x78 DUP2 DUP6 ADD PUSH2 0x26D JUMP JUMPDEST DUP1 SWAP8 DUP2 MSTORE ADD SWAP3 DUP3 ADD ADD SWAP3 DUP4 GT PUSH2 0x269 JUMPI PUSH1 0x20 ADD SWAP1 JUMPDEST DUP3 DUP3 LT PUSH2 0x251 JUMPI POP POP PUSH1 0x1 PUSH0 SSTORE POP PUSH1 0x1 PUSH1 0x1 PUSH1 0xA0 SHL SUB AND DUP1 ISZERO PUSH2 0x23E JUMPI PUSH1 0x1 DUP1 SLOAD PUSH1 0x1 PUSH1 0x1 PUSH1 0xA0 SHL SUB NOT DUP2 AND DUP4 OR SWAP1 SWAP2 SSTORE PUSH1 0x1 PUSH1 0x1 PUSH1 0xA0 SHL SUB AND PUSH32 0x8BE0079C531659141344CD1FD0A4F28419497F9722A3DAAFE3B4186F6B6457E0 PUSH0 DUP1 LOG3 PUSH1 0x1 PUSH1 0x2 SSTORE PUSH1 0x5 PUSH1 0x3 SSTORE PUSH1 0xA PUSH1 0x5 SSTORE PUSH0 JUMPDEST DUP2 MLOAD DUP2 LT ISZERO PUSH2 0x22F JUMPI PUSH1 0x1 PUSH1 0x1 PUSH1 0xA0 SHL SUB PUSH2 0x117 DUP3 DUP5 PUSH2 0x2A6 JUMP JUMPDEST MLOAD AND PUSH2 0x126 JUMPI JUMPDEST PUSH1 0x1 ADD PUSH2 0xFC JUMP JUMPDEST PUSH1 0x1 PUSH1 0x1 PUSH1 0xA0 SHL SUB PUSH2 0x138 DUP3 DUP5 PUSH2 0x2A6 JUMP JUMPDEST MLOAD AND PUSH0 SWAP1 DUP2 MSTORE PUSH1 0x9 PUSH1 0x20 MSTORE PUSH1 0x40 SWAP1 KECCAK256 DUP1 SLOAD PUSH1 0xFF NOT AND PUSH1 0x1 OR SWAP1 SSTORE PUSH1 0x1 PUSH1 0x1 PUSH1 0xA0 SHL SUB PUSH2 0x164 DUP3 DUP5 PUSH2 0x2A6 JUMP JUMPDEST MLOAD AND SWAP1 PUSH1 0xA SLOAD SWAP2 PUSH9 0x10000000000000000 DUP4 LT ISZERO PUSH2 0x21B JUMPI PUSH1 0x1 DUP4 ADD DUP1 PUSH1 0xA SSTORE DUP4 LT ISZERO PUSH2 0x207 JUMPI PUSH1 0xA PUSH0 MSTORE PUSH32 0xC65A7BB8D6351C1CF70C95A316CC6A92839C986682D98BC35F958F4883F9D2A8 SWAP1 SWAP3 ADD DUP1 SLOAD PUSH1 0x1 PUSH1 0x1 PUSH1 0xA0 SHL SUB NOT AND SWAP1 SWAP3 OR SWAP1 SWAP2 SSTORE PUSH1 0x1 SWAP1 PUSH1 0x1 PUSH1 0x1 PUSH1 0xA0 SHL SUB PUSH2 0x1DA DUP3 DUP6 PUSH2 0x2A6 JUMP JUMPDEST MLOAD AND PUSH32 0x44D6D25963F097AD14F29F06854A01F575648A1EF82F30E562CCD3889717E339 PUSH0 DUP1 LOG2 SWAP1 POP PUSH2 0x11E JUMP JUMPDEST PUSH4 0x4E487B71 PUSH1 0xE0 SHL PUSH0 MSTORE PUSH1 0x32 PUSH1 0x4 MSTORE PUSH1 0x24 PUSH0 REVERT JUMPDEST PUSH4 0x4E487B71 PUSH1 0xE0 SHL PUSH0 MSTORE PUSH1 0x41 PUSH1 0x4 MSTORE PUSH1 0x24 PUSH0 REVERT JUMPDEST PUSH1 0x40 MLOAD PUSH2 0x200B SWAP1 DUP2 PUSH2 0x2BB DUP3 CODECOPY RETURN JUMPDEST PUSH4 0x1E4FBDF7 PUSH1 0xE0 SHL PUSH0 MSTORE PUSH0 PUSH1 0x4 MSTORE PUSH1 0x24 PUSH0 REVERT JUMPDEST PUSH1 0x20 DUP1 SWAP2 PUSH2 0x25E DUP5 PUSH2 0x292 JUMP JUMPDEST DUP2 MSTORE ADD SWAP2 ADD SWAP1 PUSH2 0x8D JUMP JUMPDEST PUSH0 DUP1 REVERT JUMPDEST PUSH1 0x40 MLOAD SWAP2 SWAP1 PUSH1 0x1F ADD PUSH1 0x1F NOT AND DUP3 ADD PUSH1 0x1 PUSH1 0x1 PUSH1 0x40 SHL SUB DUP2 GT DUP4 DUP3 LT OR PUSH2 0x21B JUMPI PUSH1 0x40 MSTORE JUMP JUMPDEST MLOAD SWAP1 PUSH1 0x1 PUSH1 0x1 PUSH1 0xA0 SHL SUB DUP3 AND DUP3 SUB PUSH2 0x269 JUMPI JUMP JUMPDEST DUP1 MLOAD DUP3 LT ISZERO PUSH2 0x207 JUMPI PUSH1 0x20 SWAP2 PUSH1 0x5 SHL ADD ADD SWAP1 JUMP INVALID PUSH1 0x80 PUSH1 0x40 MSTORE PUSH1 0x4 CALLDATASIZE LT ISZERO PUSH2 0x11 JUMPI PUSH0 DUP1 REVERT JUMPDEST PUSH0 CALLDATALOAD PUSH1 0xE0 SHR DUP1 PUSH4 0xA5694C2 EQ PUSH2 0x1BC1 JUMPI DUP1 PUSH4 0xD3B404F EQ PUSH2 0x1B57 JUMPI DUP1 PUSH4 0x11117FC8 EQ PUSH2 0x1B15 JUMPI DUP1 PUSH4 0x117A5B90 EQ PUSH2 0x1A84 JUMPI DUP1 PUSH4 0x129DAF84 EQ PUSH2 0x19D0 JUMPI DUP1 PUSH4 0x12E8E2C3 EQ PUSH2 0x1936 JUMPI DUP1 PUSH4 0x1785F53C EQ PUSH2 0x1789 JUMPI DUP1 PUSH4 0x1B39C1F6 EQ PUSH2 0x16BC JUMPI DUP1 PUSH4 0x24D7806C EQ PUSH2 0x1661 JUMPI DUP1 PUSH4 0x2D57DC34 EQ PUSH2 0x15B7 JUMPI DUP1 PUSH4 0x2E25EB47 EQ PUSH2 0x119E JUMPI DUP1 PUSH4 0x2F54BF6E EQ PUSH2 0x1169 JUMPI DUP1 PUSH4 0x313DAB20 EQ PUSH2 0xA9A JUMPI DUP1 PUSH4 0x429B62E5 EQ PUSH2 0x112C JUMPI DUP1 PUSH4 0x47E1D550 EQ PUSH2 0x103E JUMPI DUP1 PUSH4 0x4FD66EAE EQ PUSH2 0x950 JUMPI DUP1 PUSH4 0x63555624 EQ PUSH2 0xF5E JUMPI DUP1 PUSH4 0x6CE5BA6F EQ PUSH2 0xDD5 JUMPI DUP1 PUSH4 0x6F9FB98A EQ PUSH2 0xDBA JUMPI DUP1 PUSH4 0x70480275 EQ PUSH2 0xC81 JUMPI DUP1 PUSH4 0x715018A6 EQ PUSH2 0xC26 JUMPI DUP1 PUSH4 0x72AEB81F EQ PUSH2 0xBA5 JUMPI DUP1 PUSH4 0x82F7DEFA EQ PUSH2 0xB88 JUMPI DUP1 PUSH4 0x8B7BF3EB EQ PUSH2 0xB6B JUMPI DUP1 PUSH4 0x8C639A85 EQ PUSH2 0xB4E JUMPI DUP1 PUSH4 0x8DA5CB5B EQ PUSH2 0xB26 JUMPI DUP1 PUSH4 0x9A53371E EQ PUSH2 0xAB7 JUMPI DUP1 PUSH4 0x9B5655DC EQ PUSH2 0xA9A JUMPI DUP1 PUSH4 0xB135BBB0 EQ PUSH2 0xA7D JUMPI DUP1 PUSH4 0xB9C18685 EQ PUSH2 0x9C4 JUMPI DUP1 PUSH4 0xCDAFBBB6 EQ PUSH2 0x950 JUMPI DUP1 PUSH4 0xD9F774FC EQ PUSH2 0x888 JUMPI DUP1 PUSH4 0xDB249EC8 EQ PUSH2 0x33B JUMPI DUP1 PUSH4 0xDB2E21BC EQ PUSH2 0x2AC JUMPI DUP1 PUSH4 0xF2FDE38B EQ PUSH2 0x226 JUMPI PUSH4 0xF4DCDC8E EQ PUSH2 0x1A5 JUMPI PUSH0 DUP1 REVERT JUMPDEST CALLVALUE PUSH2 0x222 JUMPI PUSH1 0x40 CALLDATASIZE PUSH1 0x3 NOT ADD SLT PUSH2 0x222 JUMPI PUSH1 0x4 CALLDATALOAD PUSH2 0x1C1 PUSH2 0x1C2F JUMP JUMPDEST SWAP1 DUP1 ISZERO ISZERO DUP1 PUSH2 0x217 JUMPI JUMPDEST PUSH2 0x1D4 SWAP1 PUSH2 0x1DFA JUMP JUMPDEST PUSH0 MSTORE PUSH1 0x6 PUSH1 0x20 MSTORE PUSH1 0xA PUSH1 0x40 PUSH0 KECCAK256 ADD SWAP1 PUSH1 0x1 DUP1 PUSH1 0xA0 SHL SUB AND PUSH0 MSTORE PUSH1 0x20 MSTORE PUSH2 0x213 PUSH2 0x1FF PUSH1 0x40 PUSH0 KECCAK256 PUSH2 0x1CE0 JUMP JUMPDEST PUSH1 0x40 MLOAD SWAP2 DUP3 SWAP2 PUSH1 0x20 DUP4 MSTORE PUSH1 0x20 DUP4 ADD SWAP1 PUSH2 0x1D80 JUMP JUMPDEST SUB SWAP1 RETURN JUMPDEST POP PUSH1 0x2 SLOAD DUP2 LT PUSH2 0x1CB JUMP JUMPDEST PUSH0 DUP1 REVERT JUMPDEST CALLVALUE PUSH2 0x222 JUMPI PUSH1 0x20 CALLDATASIZE PUSH1 0x3 NOT ADD SLT PUSH2 0x222 JUMPI PUSH2 0x23F PUSH2 0x1C19 JUMP JUMPDEST PUSH2 0x247 PUSH2 0x1F90 JUMP JUMPDEST PUSH1 0x1 PUSH1 0x1 PUSH1 0xA0 SHL SUB AND DUP1 ISZERO PUSH2 0x299 JUMPI PUSH1 0x1 DUP1 SLOAD PUSH1 0x1 PUSH1 0x1 PUSH1 0xA0 SHL SUB NOT DUP2 AND DUP4 OR SWAP1 SWAP2 SSTORE PUSH1 0x1 PUSH1 0x1 PUSH1 0xA0 SHL SUB AND PUSH32 0x8BE0079C531659141344CD1FD0A4F28419497F9722A3DAAFE3B4186F6B6457E0 PUSH0 DUP1 LOG3 STOP JUMPDEST PUSH4 0x1E4FBDF7 PUSH1 0xE0 SHL PUSH0 MSTORE PUSH0 PUSH1 0x4 MSTORE PUSH1 0x24 PUSH0 REVERT JUMPDEST CALLVALUE PUSH2 0x222 JUMPI PUSH0 CALLDATASIZE PUSH1 0x3 NOT ADD SLT PUSH2 0x222 JUMPI PUSH2 0x2C4 PUSH2 0x1F90 JUMP JUMPDEST PUSH2 0x2CC PUSH2 0x1FB7 JUMP JUMPDEST SELFBALANCE DUP1 ISZERO PUSH2 0x2FF JUMPI PUSH1 0x1 SLOAD PUSH0 SWAP2 DUP3 SWAP2 DUP3 SWAP2 DUP3 SWAP2 PUSH1 0x1 PUSH1 0x1 PUSH1 0xA0 SHL SUB AND DUP3 CALL ISZERO PUSH2 0x2F4 JUMPI PUSH1 0x1 PUSH0 SSTORE STOP JUMPDEST PUSH1 0x40 MLOAD RETURNDATASIZE PUSH0 DUP3 RETURNDATACOPY RETURNDATASIZE SWAP1 REVERT JUMPDEST PUSH1 0x40 MLOAD PUSH3 0x461BCD PUSH1 0xE5 SHL DUP2 MSTORE PUSH1 0x20 PUSH1 0x4 DUP3 ADD MSTORE PUSH1 0x14 PUSH1 0x24 DUP3 ADD MSTORE PUSH20 0x4E6F2066756E647320746F207769746864726177 PUSH1 0x60 SHL PUSH1 0x44 DUP3 ADD MSTORE PUSH1 0x64 SWAP1 REVERT JUMPDEST PUSH1 0x40 CALLDATASIZE PUSH1 0x3 NOT ADD SLT PUSH2 0x222 JUMPI PUSH1 0x4 CALLDATALOAD PUSH1 0x24 CALLDATALOAD PUSH8 0xFFFFFFFFFFFFFFFF DUP2 GT PUSH2 0x222 JUMPI PUSH2 0x36A SWAP1 CALLDATASIZE SWAP1 PUSH1 0x4 ADD PUSH2 0x1DA4 JUMP JUMPDEST SWAP1 DUP1 ISZERO ISZERO DUP1 PUSH2 0x87D JUMPI JUMPDEST PUSH2 0x37D SWAP1 PUSH2 0x1DFA JUMP JUMPDEST DUP1 PUSH0 MSTORE PUSH1 0x6 PUSH1 0x20 MSTORE PUSH2 0x398 PUSH1 0xFF PUSH1 0x8 PUSH1 0x40 PUSH0 KECCAK256 ADD SLOAD AND PUSH2 0x1E8B JUMP JUMPDEST PUSH2 0x3A0 PUSH2 0x1FB7 JUMP JUMPDEST DUP1 PUSH0 MSTORE PUSH1 0x6 PUSH1 0x20 MSTORE PUSH1 0x40 PUSH0 KECCAK256 PUSH1 0x4 DUP2 ADD SLOAD CALLVALUE SUB PUSH2 0x842 JUMPI CALLER PUSH0 SWAP1 DUP2 MSTORE PUSH1 0x7 PUSH1 0x20 SWAP1 DUP2 MSTORE PUSH1 0x40 DUP1 DUP4 KECCAK256 PUSH1 0x9 DUP6 ADD SWAP3 DUP4 SWAP1 MSTORE SWAP3 KECCAK256 SLOAD PUSH1 0xFF AND ISZERO PUSH2 0x776 JUMPI JUMPDEST POP PUSH1 0x1 SWAP1 PUSH1 0x5 DUP4 ADD PUSH2 0x3EF CALLVALUE DUP3 SLOAD PUSH2 0x1ECC JUMP JUMPDEST SWAP1 SSTORE ADD PUSH2 0x3FC DUP2 SLOAD PUSH2 0x1ED9 JUMP JUMPDEST SWAP1 SSTORE CALLER PUSH0 SWAP1 DUP2 MSTORE PUSH1 0xA DUP3 ADD PUSH1 0x20 MSTORE PUSH1 0x40 SWAP1 KECCAK256 DUP4 MLOAD PUSH8 0xFFFFFFFFFFFFFFFF DUP2 GT PUSH2 0x762 JUMPI PUSH2 0x429 DUP3 SLOAD PUSH2 0x1C86 JUMP JUMPDEST PUSH1 0x1F DUP2 GT PUSH2 0x71D JUMPI JUMPDEST POP DUP1 PUSH1 0x20 PUSH1 0x1F DUP3 GT PUSH1 0x1 EQ PUSH2 0x6BC JUMPI PUSH0 SWAP2 PUSH2 0x6B1 JUMPI JUMPDEST POP DUP2 PUSH1 0x1 SHL SWAP2 PUSH0 NOT SWAP1 PUSH1 0x3 SHL SHR NOT AND OR SWAP1 SSTORE JUMPDEST PUSH1 0x2 DUP4 MLOAD PUSH1 0x20 DUP6 ADD KECCAK256 SWAP2 ADD SLOAD EQ PUSH0 EQ PUSH2 0x69D JUMPI PUSH0 DUP2 DUP2 MSTORE PUSH1 0x6 PUSH1 0x20 MSTORE PUSH1 0x40 SWAP1 KECCAK256 PUSH1 0x8 DUP2 ADD DUP1 SLOAD PUSH1 0x1 PUSH1 0x1 PUSH1 0xB0 SHL SUB NOT AND CALLER PUSH1 0x10 SHL PUSH3 0x10000 PUSH1 0x1 PUSH1 0xB0 SHL SUB AND OR PUSH2 0x100 OR SWAP1 SSTORE PUSH1 0x5 DUP2 ADD SLOAD PUSH1 0x4 DUP3 ADD SLOAD DUP1 DUP3 GT ISZERO PUSH2 0x68F JUMPI PUSH2 0x4C2 PUSH1 0x6 SWAP2 PUSH2 0x4CD SWAP4 PUSH2 0x1E3C JUMP JUMPDEST SWAP3 JUMPDEST ADD SLOAD SWAP2 DUP3 PUSH2 0x1ECC JUMP JUMPDEST PUSH2 0x4E6 PUSH1 0x64 PUSH2 0x4DE PUSH1 0x3 SLOAD DUP5 PUSH2 0x1EE7 JUMP JUMPDEST DIV DUP1 SWAP3 PUSH2 0x1E3C JUMP JUMPDEST SWAP2 PUSH1 0x4 SLOAD SWAP1 DUP1 DUP3 LT PUSH2 0x652 JUMPI PUSH2 0x4FB SWAP2 PUSH2 0x1E3C JUMP JUMPDEST PUSH1 0x4 SSTORE CALLER PUSH0 MSTORE PUSH1 0x7 PUSH1 0x20 MSTORE PUSH1 0x40 PUSH0 KECCAK256 PUSH1 0x2 DUP2 ADD PUSH2 0x518 DUP2 SLOAD PUSH2 0x1ED9 JUMP JUMPDEST DUP1 SWAP2 SSTORE PUSH1 0x3 DUP3 ADD PUSH2 0x52A DUP6 DUP3 SLOAD PUSH2 0x1ECC JUMP JUMPDEST SWAP1 SSTORE DUP2 SLOAD SWAP1 DUP2 PUSH2 0x612 JUMPI JUMPDEST POP POP POP DUP2 DUP1 ISZERO DUP1 ISZERO PUSH2 0x5ED JUMPI JUMPDEST POP POP DUP1 ISZERO DUP1 ISZERO PUSH2 0x5BE JUMPI JUMPDEST POP POP PUSH1 0x40 MLOAD SWAP1 DUP2 MSTORE DUP2 PUSH32 0x9E59E9B0EC1755CCAF2FD4A7ED4AD5B0A678626E91834AEE53EBDF1356BD390A PUSH1 0x20 CALLER SWAP4 LOG3 JUMPDEST PUSH32 0x17A40E01BF0138D07F888B59D3DF945EE0F73445EBBDE5213180AD0CB1B8B383 PUSH1 0x40 MLOAD PUSH1 0x20 DUP2 MSTORE DUP1 PUSH2 0x5B5 CALLER SWAP6 PUSH1 0x20 DUP4 ADD SWAP1 PUSH2 0x1D80 JUMP JUMPDEST SUB SWAP1 LOG3 PUSH1 0x1 PUSH0 SSTORE STOP JUMPDEST PUSH0 DUP1 DUP1 SWAP4 DUP2 SWAP4 PUSH1 0x1 DUP1 PUSH1 0xA0 SHL SUB PUSH1 0x1 SLOAD AND SWAP1 DUP4 SWAP1 PUSH2 0x5E4 JUMPI JUMPDEST CALL ISZERO PUSH2 0x2F4 JUMPI DUP4 DUP1 PUSH2 0x54D JUMP JUMPDEST POP PUSH2 0x8FC PUSH2 0x5D7 JUMP JUMPDEST PUSH0 SWAP1 PUSH2 0x609 JUMPI JUMPDEST PUSH0 DUP1 DUP1 SWAP4 DUP2 SWAP4 CALLER SWAP1 CALL ISZERO PUSH2 0x2F4 JUMPI DUP2 DUP6 PUSH2 0x542 JUMP JUMPDEST POP PUSH2 0x8FC PUSH2 0x5F4 JUMP JUMPDEST PUSH2 0x2710 DUP2 MUL SWAP1 DUP1 DUP3 DIV PUSH2 0x2710 EQ SWAP1 ISZERO OR ISZERO PUSH2 0x63E JUMPI PUSH1 0x4 SWAP2 PUSH2 0x633 SWAP2 PUSH2 0x1F72 JUMP JUMPDEST SWAP2 ADD SSTORE DUP5 DUP1 DUP1 PUSH2 0x535 JUMP JUMPDEST PUSH4 0x4E487B71 PUSH1 0xE0 SHL PUSH0 MSTORE PUSH1 0x11 PUSH1 0x4 MSTORE PUSH1 0x24 PUSH0 REVERT JUMPDEST PUSH1 0x40 MLOAD PUSH3 0x461BCD PUSH1 0xE5 SHL DUP2 MSTORE PUSH1 0x20 PUSH1 0x4 DUP3 ADD MSTORE PUSH1 0x15 PUSH1 0x24 DUP3 ADD MSTORE PUSH21 0x496E73756666696369656E74207472656173757279 PUSH1 0x58 SHL PUSH1 0x44 DUP3 ADD MSTORE PUSH1 0x64 SWAP1 REVERT JUMPDEST POP POP PUSH2 0x4CD PUSH1 0x6 PUSH0 SWAP3 PUSH2 0x4C4 JUMP JUMPDEST PUSH2 0x6A9 CALLVALUE PUSH1 0x4 SLOAD PUSH2 0x1ECC JUMP JUMPDEST PUSH1 0x4 SSTORE PUSH2 0x57D JUMP JUMPDEST SWAP1 POP DUP6 ADD MLOAD DUP7 PUSH2 0x448 JUMP JUMPDEST PUSH0 DUP5 DUP2 MSTORE DUP2 DUP2 KECCAK256 SWAP3 POP PUSH1 0x1F NOT DUP5 AND SWAP1 JUMPDEST DUP2 DUP2 LT PUSH2 0x705 JUMPI POP SWAP1 DUP4 PUSH1 0x1 SWAP5 SWAP4 SWAP3 LT PUSH2 0x6ED JUMPI JUMPDEST POP POP DUP2 SHL ADD SWAP1 SSTORE PUSH2 0x45B JUMP JUMPDEST DUP8 ADD MLOAD PUSH0 NOT PUSH1 0xF8 DUP5 PUSH1 0x3 SHL AND SHR NOT AND SWAP1 SSTORE DUP7 DUP1 PUSH2 0x6E1 JUMP JUMPDEST SWAP2 SWAP3 PUSH1 0x20 PUSH1 0x1 DUP2 SWAP3 DUP7 DUP13 ADD MLOAD DUP2 SSTORE ADD SWAP5 ADD SWAP3 ADD PUSH2 0x6CC JUMP JUMPDEST DUP3 PUSH0 MSTORE PUSH1 0x20 PUSH0 KECCAK256 PUSH1 0x1F DUP4 ADD PUSH1 0x5 SHR DUP2 ADD SWAP2 PUSH1 0x20 DUP5 LT PUSH2 0x758 JUMPI JUMPDEST PUSH1 0x1F ADD PUSH1 0x5 SHR ADD SWAP1 JUMPDEST DUP2 DUP2 LT PUSH2 0x74D JUMPI POP PUSH2 0x432 JUMP JUMPDEST PUSH0 DUP2 SSTORE PUSH1 0x1 ADD PUSH2 0x740 JUMP JUMPDEST SWAP1 SWAP2 POP DUP2 SWAP1 PUSH2 0x737 JUMP JUMPDEST PUSH4 0x4E487B71 PUSH1 0xE0 SHL PUSH0 MSTORE PUSH1 0x41 PUSH1 0x4 MSTORE PUSH1 0x24 PUSH0 REVERT JUMPDEST CALLER PUSH0 SWAP1 DUP2 MSTORE PUSH1 0x20 SWAP2 DUP3 MSTORE PUSH1 0x40 DUP1 DUP3 KECCAK256 DUP1 SLOAD PUSH1 0xFF NOT AND PUSH1 0x1 OR SWAP1 SSTORE PUSH1 0x8 SWAP1 SWAP3 MSTORE KECCAK256 DUP1 SLOAD PUSH1 0x1 PUSH1 0x40 SHL DUP2 LT ISZERO PUSH2 0x762 JUMPI PUSH2 0x7B3 SWAP2 PUSH1 0x1 DUP3 ADD DUP2 SSTORE PUSH2 0x1C71 JUMP JUMPDEST DUP2 SLOAD SWAP1 PUSH1 0x3 SHL SWAP1 DUP6 DUP3 SHL SWAP2 PUSH0 NOT SWAP1 SHL NOT AND OR SWAP1 SSTORE PUSH2 0x7D1 DUP2 SLOAD PUSH2 0x1ED9 JUMP JUMPDEST SWAP1 DUP2 DUP2 SSTORE DUP2 PUSH2 0x812 JUMPI JUMPDEST PUSH1 0x1 SWAP2 POP PUSH1 0x40 MLOAD CALLVALUE DUP2 MSTORE DUP5 PUSH32 0x3DFBE1FCB4E2D61F3B4A0C93D8F814C92250618B3387F396CC9FC9FAFE2C203 PUSH1 0x20 CALLER SWAP4 LOG3 SWAP1 PUSH2 0x3DC JUMP JUMPDEST PUSH1 0x2 DUP2 ADD SLOAD PUSH2 0x2710 DUP2 MUL SWAP1 DUP1 DUP3 DIV PUSH2 0x2710 EQ SWAP1 ISZERO OR ISZERO PUSH2 0x63E JUMPI PUSH1 0x1 SWAP3 PUSH2 0x838 SWAP2 PUSH2 0x1F72 JUMP JUMPDEST PUSH1 0x4 DUP3 ADD SSTORE PUSH2 0x7DB JUMP JUMPDEST PUSH1 0x40 MLOAD PUSH3 0x461BCD PUSH1 0xE5 SHL DUP2 MSTORE PUSH1 0x20 PUSH1 0x4 DUP3 ADD MSTORE PUSH1 0x13 PUSH1 0x24 DUP3 ADD MSTORE PUSH19 0x496E636F727265637420656E74727920666565 PUSH1 0x68 SHL PUSH1 0x44 DUP3 ADD MSTORE PUSH1 0x64 SWAP1 REVERT JUMPDEST POP PUSH1 0x2 SLOAD DUP2 LT PUSH2 0x374 JUMP JUMPDEST CALLVALUE PUSH2 0x222 JUMPI PUSH0 CALLDATASIZE PUSH1 0x3 NOT ADD SLT PUSH2 0x222 JUMPI PUSH1 0x40 MLOAD DUP1 PUSH1 0x20 PUSH1 0xA SLOAD SWAP3 DUP4 DUP2 MSTORE ADD DUP1 SWAP3 PUSH1 0xA PUSH0 MSTORE PUSH32 0xC65A7BB8D6351C1CF70C95A316CC6A92839C986682D98BC35F958F4883F9D2A8 SWAP1 PUSH0 JUMPDEST DUP2 DUP2 LT PUSH2 0x931 JUMPI POP POP POP DUP2 PUSH2 0x8E6 SWAP2 SUB DUP3 PUSH2 0x1CBE JUMP JUMPDEST PUSH1 0x40 MLOAD SWAP2 DUP3 SWAP2 PUSH1 0x20 DUP4 ADD SWAP1 PUSH1 0x20 DUP5 MSTORE MLOAD DUP1 SWAP2 MSTORE PUSH1 0x40 DUP4 ADD SWAP2 SWAP1 PUSH0 JUMPDEST DUP2 DUP2 LT PUSH2 0x90F JUMPI POP POP POP SUB SWAP1 RETURN JUMPDEST DUP3 MLOAD PUSH1 0x1 PUSH1 0x1 PUSH1 0xA0 SHL SUB AND DUP5 MSTORE DUP6 SWAP5 POP PUSH1 0x20 SWAP4 DUP5 ADD SWAP4 SWAP1 SWAP3 ADD SWAP2 PUSH1 0x1 ADD PUSH2 0x901 JUMP JUMPDEST DUP3 SLOAD PUSH1 0x1 PUSH1 0x1 PUSH1 0xA0 SHL SUB AND DUP5 MSTORE PUSH1 0x20 SWAP1 SWAP4 ADD SWAP3 PUSH1 0x1 SWAP3 DUP4 ADD SWAP3 ADD PUSH2 0x8D0 JUMP JUMPDEST CALLVALUE PUSH2 0x222 JUMPI PUSH1 0x20 CALLDATASIZE PUSH1 0x3 NOT ADD SLT PUSH2 0x222 JUMPI PUSH1 0x1 PUSH1 0x1 PUSH1 0xA0 SHL SUB PUSH2 0x971 PUSH2 0x1C19 JUMP JUMPDEST AND PUSH0 MSTORE PUSH1 0x7 PUSH1 0x20 MSTORE PUSH1 0x40 PUSH0 KECCAK256 DUP1 SLOAD PUSH2 0x213 PUSH1 0x1 DUP4 ADD SLOAD SWAP3 PUSH1 0x2 DUP2 ADD SLOAD SWAP1 PUSH1 0x4 PUSH1 0x3 DUP3 ADD SLOAD SWAP2 ADD SLOAD SWAP2 PUSH1 0x40 MLOAD SWAP6 DUP7 SWAP6 DUP7 SWAP2 SWAP3 PUSH1 0x80 SWAP4 SWAP7 SWAP6 SWAP5 SWAP2 SWAP7 PUSH1 0xA0 DUP5 ADD SWAP8 DUP5 MSTORE PUSH1 0x20 DUP5 ADD MSTORE PUSH1 0x40 DUP4 ADD MSTORE PUSH1 0x60 DUP3 ADD MSTORE ADD MSTORE JUMP JUMPDEST PUSH0 CALLDATASIZE PUSH1 0x3 NOT ADD SLT PUSH2 0x222 JUMPI CALLER PUSH0 MSTORE PUSH1 0x9 PUSH1 0x20 MSTORE PUSH1 0xFF PUSH1 0x40 PUSH0 KECCAK256 SLOAD AND DUP1 ISZERO PUSH2 0xA69 JUMPI JUMPDEST PUSH2 0x9EF SWAP1 PUSH2 0x1E49 JUMP JUMPDEST CALLVALUE ISZERO PUSH2 0xA32 JUMPI PUSH2 0xA01 CALLVALUE PUSH1 0x4 SLOAD PUSH2 0x1ECC JUMP JUMPDEST PUSH1 0x4 SSTORE PUSH1 0x40 MLOAD CALLVALUE DUP2 MSTORE PUSH32 0xDA1785FE1DEC267C363B06AE3E02C3E086123F9D611399F7A1CC98492518372E PUSH1 0x20 CALLER SWAP3 LOG2 STOP JUMPDEST PUSH1 0x40 MLOAD PUSH3 0x461BCD PUSH1 0xE5 SHL DUP2 MSTORE PUSH1 0x20 PUSH1 0x4 DUP3 ADD MSTORE PUSH1 0xF PUSH1 0x24 DUP3 ADD MSTORE PUSH15 0x4D7573742073656E642066756E6473 PUSH1 0x88 SHL PUSH1 0x44 DUP3 ADD MSTORE PUSH1 0x64 SWAP1 REVERT JUMPDEST POP PUSH1 0x1 SLOAD PUSH1 0x1 PUSH1 0x1 PUSH1 0xA0 SHL SUB AND CALLER EQ PUSH2 0x9E6 JUMP JUMPDEST CALLVALUE PUSH2 0x222 JUMPI PUSH0 CALLDATASIZE PUSH1 0x3 NOT ADD SLT PUSH2 0x222 JUMPI PUSH1 0x20 PUSH1 0x2 SLOAD PUSH1 0x40 MLOAD SWAP1 DUP2 MSTORE RETURN JUMPDEST CALLVALUE PUSH2 0x222 JUMPI PUSH0 CALLDATASIZE PUSH1 0x3 NOT ADD SLT PUSH2 0x222 JUMPI PUSH1 0x20 PUSH1 0x4 SLOAD PUSH1 0x40 MLOAD SWAP1 DUP2 MSTORE RETURN JUMPDEST CALLVALUE PUSH2 0x222 JUMPI PUSH1 0x40 CALLDATASIZE PUSH1 0x3 NOT ADD SLT PUSH2 0x222 JUMPI PUSH1 0x4 CALLDATALOAD PUSH2 0xAD3 PUSH2 0x1C2F JUMP JUMPDEST SWAP1 DUP1 ISZERO ISZERO DUP1 PUSH2 0xB1B JUMPI JUMPDEST PUSH2 0xAE6 SWAP1 PUSH2 0x1DFA JUMP JUMPDEST PUSH0 MSTORE PUSH1 0x6 PUSH1 0x20 MSTORE PUSH1 0xA PUSH1 0x40 PUSH0 KECCAK256 ADD SWAP1 PUSH1 0x1 DUP1 PUSH1 0xA0 SHL SUB AND PUSH0 MSTORE PUSH1 0x20 MSTORE PUSH1 0x20 PUSH2 0xB11 PUSH1 0x40 PUSH0 KECCAK256 SLOAD PUSH2 0x1C86 JUMP JUMPDEST ISZERO ISZERO PUSH1 0x40 MLOAD SWAP1 DUP2 MSTORE RETURN JUMPDEST POP PUSH1 0x2 SLOAD DUP2 LT PUSH2 0xADD JUMP JUMPDEST CALLVALUE PUSH2 0x222 JUMPI PUSH0 CALLDATASIZE PUSH1 0x3 NOT ADD SLT PUSH2 0x222 JUMPI PUSH1 0x1 SLOAD PUSH1 0x40 MLOAD PUSH1 0x1 PUSH1 0x1 PUSH1 0xA0 SHL SUB SWAP1 SWAP2 AND DUP2 MSTORE PUSH1 0x20 SWAP1 RETURN JUMPDEST CALLVALUE PUSH2 0x222 JUMPI PUSH0 CALLDATASIZE PUSH1 0x3 NOT ADD SLT PUSH2 0x222 JUMPI PUSH1 0x20 PUSH1 0x3 SLOAD PUSH1 0x40 MLOAD SWAP1 DUP2 MSTORE RETURN JUMPDEST CALLVALUE PUSH2 0x222 JUMPI PUSH0 CALLDATASIZE PUSH1 0x3 NOT ADD SLT PUSH2 0x222 JUMPI PUSH1 0x20 PUSH1 0xA SLOAD PUSH1 0x40 MLOAD SWAP1 DUP2 MSTORE RETURN JUMPDEST CALLVALUE PUSH2 0x222 JUMPI PUSH0 CALLDATASIZE PUSH1 0x3 NOT ADD SLT PUSH2 0x222 JUMPI PUSH1 0x20 PUSH1 0x5 SLOAD PUSH1 0x40 MLOAD SWAP1 DUP2 MSTORE RETURN JUMPDEST CALLVALUE PUSH2 0x222 JUMPI PUSH0 CALLDATASIZE PUSH1 0x3 NOT ADD SLT PUSH2 0x222 JUMPI PUSH0 PUSH1 0x1 PUSH1 0x2 SLOAD SWAP1 JUMPDEST DUP2 DUP2 LT PUSH2 0xBCF JUMPI PUSH1 0x20 DUP4 PUSH1 0x40 MLOAD SWAP1 DUP2 MSTORE RETURN JUMPDEST DUP1 PUSH0 MSTORE PUSH1 0x6 PUSH1 0x20 MSTORE PUSH1 0xFF PUSH1 0x8 PUSH1 0x40 PUSH0 KECCAK256 ADD SLOAD AND DUP1 PUSH2 0xC09 JUMPI JUMPDEST PUSH2 0xBF5 JUMPI JUMPDEST PUSH1 0x1 ADD PUSH2 0xBBD JUMP JUMPDEST SWAP2 PUSH2 0xC01 PUSH1 0x1 SWAP2 PUSH2 0x1ED9 JUMP JUMPDEST SWAP3 SWAP1 POP PUSH2 0xBED JUMP JUMPDEST POP DUP1 PUSH0 MSTORE PUSH1 0x6 PUSH1 0x20 MSTORE PUSH1 0xFF PUSH1 0x8 PUSH1 0x40 PUSH0 KECCAK256 ADD SLOAD PUSH1 0x8 SHR AND ISZERO PUSH2 0xBE8 JUMP JUMPDEST CALLVALUE PUSH2 0x222 JUMPI PUSH0 CALLDATASIZE PUSH1 0x3 NOT ADD SLT PUSH2 0x222 JUMPI PUSH2 0xC3E PUSH2 0x1F90 JUMP JUMPDEST PUSH1 0x1 DUP1 SLOAD PUSH1 0x1 PUSH1 0x1 PUSH1 0xA0 SHL SUB NOT DUP2 AND SWAP1 SWAP2 SSTORE PUSH0 SWAP1 PUSH1 0x1 PUSH1 0x1 PUSH1 0xA0 SHL SUB AND PUSH32 0x8BE0079C531659141344CD1FD0A4F28419497F9722A3DAAFE3B4186F6B6457E0 DUP3 DUP1 LOG3 STOP JUMPDEST CALLVALUE PUSH2 0x222 JUMPI PUSH1 0x20 CALLDATASIZE PUSH1 0x3 NOT ADD SLT PUSH2 0x222 JUMPI PUSH2 0xC9A PUSH2 0x1C19 JUMP JUMPDEST PUSH2 0xCA2 PUSH2 0x1F90 JUMP JUMPDEST PUSH1 0x1 PUSH1 0x1 PUSH1 0xA0 SHL SUB DUP2 AND SWAP1 DUP2 ISZERO PUSH2 0xD83 JUMPI DUP2 PUSH0 MSTORE PUSH1 0x9 PUSH1 0x20 MSTORE PUSH1 0xFF PUSH1 0x40 PUSH0 KECCAK256 SLOAD AND PUSH2 0xD4B JUMPI DUP2 PUSH0 MSTORE PUSH1 0x9 PUSH1 0x20 MSTORE PUSH1 0x40 PUSH0 KECCAK256 PUSH1 0x1 PUSH1 0xFF NOT DUP3 SLOAD AND OR SWAP1 SSTORE PUSH1 0xA SLOAD SWAP1 PUSH1 0x1 PUSH1 0x40 SHL DUP3 LT ISZERO PUSH2 0x762 JUMPI PUSH2 0xD01 DUP3 PUSH1 0x1 PUSH2 0xD25 SWAP5 ADD PUSH1 0xA SSTORE PUSH2 0x1C45 JUMP JUMPDEST DUP2 SLOAD PUSH1 0x1 PUSH1 0x1 PUSH1 0xA0 SHL SUB SWAP4 DUP5 AND PUSH1 0x3 SWAP3 SWAP1 SWAP3 SHL SWAP2 DUP3 SHL SWAP4 SWAP1 SWAP2 SHL NOT AND SWAP2 SWAP1 SWAP2 OR SWAP1 SSTORE JUMP JUMPDEST PUSH32 0x44D6D25963F097AD14F29F06854A01F575648A1EF82F30E562CCD3889717E339 PUSH0 DUP1 LOG2 STOP JUMPDEST PUSH1 0x40 MLOAD PUSH3 0x461BCD PUSH1 0xE5 SHL DUP2 MSTORE PUSH1 0x20 PUSH1 0x4 DUP3 ADD MSTORE PUSH1 0x10 PUSH1 0x24 DUP3 ADD MSTORE PUSH16 0x20B63932B0B23C9030B71030B236B4B7 PUSH1 0x81 SHL PUSH1 0x44 DUP3 ADD MSTORE PUSH1 0x64 SWAP1 REVERT JUMPDEST PUSH1 0x40 MLOAD PUSH3 0x461BCD PUSH1 0xE5 SHL DUP2 MSTORE PUSH1 0x20 PUSH1 0x4 DUP3 ADD MSTORE PUSH1 0xF PUSH1 0x24 DUP3 ADD MSTORE PUSH15 0x496E76616C69642061646472657373 PUSH1 0x88 SHL PUSH1 0x44 DUP3 ADD MSTORE PUSH1 0x64 SWAP1 REVERT JUMPDEST CALLVALUE PUSH2 0x222 JUMPI PUSH0 CALLDATASIZE PUSH1 0x3 NOT ADD SLT PUSH2 0x222 JUMPI PUSH1 0x20 SELFBALANCE PUSH1 0x40 MLOAD SWAP1 DUP2 MSTORE RETURN JUMPDEST CALLVALUE PUSH2 0x222 JUMPI PUSH0 CALLDATASIZE PUSH1 0x3 NOT ADD SLT PUSH2 0x222 JUMPI PUSH1 0x2 SLOAD PUSH1 0x1 DUP2 GT ISZERO PUSH2 0xF28 JUMPI PUSH0 NOT DUP2 ADD SWAP1 DUP1 DUP3 GT PUSH2 0x63E JUMPI PUSH2 0xE06 DUP3 PUSH2 0x1F46 JUMP JUMPDEST SWAP2 PUSH2 0xE14 PUSH1 0x40 MLOAD SWAP4 DUP5 PUSH2 0x1CBE JUMP JUMPDEST DUP1 DUP4 MSTORE PUSH2 0xE23 PUSH1 0x1F NOT SWAP2 PUSH2 0x1F46 JUMP JUMPDEST ADD CALLDATASIZE PUSH1 0x20 DUP5 ADD CALLDATACOPY PUSH0 SWAP1 PUSH1 0x1 JUMPDEST DUP2 DUP2 LT PUSH2 0xEC5 JUMPI POP POP DUP1 ISZERO PUSH2 0xE80 JUMPI PUSH1 0x20 SWAP2 PUSH2 0xE77 SWAP2 PUSH1 0x40 MLOAD DUP5 DUP2 ADD SWAP1 TIMESTAMP DUP3 MSTORE PREVRANDAO PUSH1 0x40 DUP3 ADD MSTORE CALLER PUSH1 0x60 SHL PUSH1 0x60 DUP3 ADD MSTORE PUSH1 0x54 DUP2 MSTORE PUSH2 0xE6D PUSH1 0x74 DUP3 PUSH2 0x1CBE JUMP JUMPDEST MLOAD SWAP1 KECCAK256 MOD SWAP1 PUSH2 0x1F5E JUMP JUMPDEST MLOAD PUSH1 0x40 MLOAD SWAP1 DUP2 MSTORE RETURN JUMPDEST PUSH1 0x40 MLOAD PUSH3 0x461BCD PUSH1 0xE5 SHL DUP2 MSTORE PUSH1 0x20 PUSH1 0x4 DUP3 ADD MSTORE PUSH1 0x19 PUSH1 0x24 DUP3 ADD MSTORE PUSH32 0x4E6F206163746976652067616D657320617661696C61626C6500000000000000 PUSH1 0x44 DUP3 ADD MSTORE PUSH1 0x64 SWAP1 REVERT JUMPDEST DUP1 PUSH0 MSTORE PUSH1 0x6 PUSH1 0x20 MSTORE PUSH1 0xFF PUSH1 0x8 PUSH1 0x40 PUSH0 KECCAK256 ADD SLOAD AND DUP1 PUSH2 0xF0B JUMPI JUMPDEST PUSH2 0xEEB JUMPI JUMPDEST PUSH1 0x1 ADD PUSH2 0xE2F JUMP JUMPDEST SWAP2 PUSH2 0xF03 DUP2 DUP5 PUSH2 0xEFD PUSH1 0x1 SWAP5 DUP9 PUSH2 0x1F5E JUMP JUMPDEST MSTORE PUSH2 0x1ED9 JUMP JUMPDEST SWAP3 SWAP1 POP PUSH2 0xEE3 JUMP JUMPDEST POP DUP1 PUSH0 MSTORE PUSH1 0x6 PUSH1 0x20 MSTORE PUSH1 0xFF PUSH1 0x8 PUSH1 0x40 PUSH0 KECCAK256 ADD SLOAD PUSH1 0x8 SHR AND ISZERO PUSH2 0xEDE JUMP JUMPDEST PUSH1 0x40 MLOAD PUSH3 0x461BCD PUSH1 0xE5 SHL DUP2 MSTORE PUSH1 0x20 PUSH1 0x4 DUP3 ADD MSTORE PUSH1 0xE PUSH1 0x24 DUP3 ADD MSTORE PUSH14 0x139BC819D85B595CC8195E1A5CDD PUSH1 0x92 SHL PUSH1 0x44 DUP3 ADD MSTORE PUSH1 0x64 SWAP1 REVERT JUMPDEST CALLVALUE PUSH2 0x222 JUMPI PUSH1 0x20 CALLDATASIZE PUSH1 0x3 NOT ADD SLT PUSH2 0x222 JUMPI PUSH1 0x4 CALLDATALOAD PUSH2 0xF7A PUSH2 0x1F90 JUMP JUMPDEST PUSH2 0xF82 PUSH2 0x1FB7 JUMP JUMPDEST DUP1 ISZERO PUSH2 0xFF9 JUMPI PUSH2 0xFA0 DUP2 PUSH1 0x4 SLOAD PUSH2 0xF9B DUP3 DUP3 LT ISZERO PUSH2 0x1EFA JUMP JUMPDEST PUSH2 0x1E3C JUMP JUMPDEST PUSH1 0x4 SSTORE PUSH0 DUP1 DUP1 DUP1 DUP5 PUSH1 0x1 DUP1 PUSH1 0xA0 SHL SUB PUSH1 0x1 SLOAD AND DUP3 CALL ISZERO PUSH2 0x2F4 JUMPI PUSH1 0x1 SLOAD PUSH1 0x40 MLOAD SWAP2 DUP3 MSTORE PUSH1 0x1 PUSH1 0x1 PUSH1 0xA0 SHL SUB AND SWAP1 PUSH32 0x41FDD680478135993BC53FB2FFAF9560951B57EF62FF6BADD02B61E018B4F17F SWAP1 PUSH1 0x20 SWAP1 LOG2 PUSH1 0x1 PUSH0 SSTORE STOP JUMPDEST PUSH1 0x40 MLOAD PUSH3 0x461BCD PUSH1 0xE5 SHL DUP2 MSTORE PUSH1 0x20 PUSH1 0x4 DUP3 ADD MSTORE PUSH1 0x1D PUSH1 0x24 DUP3 ADD MSTORE PUSH32 0x416D6F756E74206D7573742062652067726561746572207468616E2030000000 PUSH1 0x44 DUP3 ADD MSTORE PUSH1 0x64 SWAP1 REVERT JUMPDEST CALLVALUE PUSH2 0x222 JUMPI PUSH1 0x20 CALLDATASIZE PUSH1 0x3 NOT ADD SLT PUSH2 0x222 JUMPI PUSH1 0x4 CALLDATALOAD DUP1 ISZERO ISZERO DUP1 PUSH2 0x1121 JUMPI JUMPDEST PUSH2 0x1064 SWAP1 PUSH2 0x1DFA JUMP JUMPDEST PUSH0 MSTORE PUSH1 0x6 PUSH1 0x20 MSTORE PUSH1 0x40 PUSH0 KECCAK256 DUP1 SLOAD PUSH1 0x4 DUP3 ADD SLOAD PUSH1 0x5 DUP4 ADD SLOAD PUSH1 0x6 DUP5 ADD SLOAD PUSH1 0x7 DUP6 ADD SLOAD SWAP1 PUSH1 0x8 DUP7 ADD SLOAD SWAP3 PUSH2 0x10D9 PUSH2 0x10A7 PUSH1 0x3 PUSH2 0x10A0 PUSH1 0x1 DUP12 ADD PUSH2 0x1CE0 JUMP JUMPDEST SWAP10 ADD PUSH2 0x1CE0 JUMP JUMPDEST PUSH2 0x10C5 PUSH1 0x40 MLOAD SWAP10 DUP11 SWAP10 DUP11 MSTORE PUSH2 0x160 PUSH1 0x20 DUP12 ADD MSTORE PUSH2 0x160 DUP11 ADD SWAP1 PUSH2 0x1D80 JUMP JUMPDEST SWAP1 PUSH0 PUSH1 0x40 DUP11 ADD MSTORE DUP9 DUP3 SUB PUSH1 0x60 DUP11 ADD MSTORE PUSH2 0x1D80 JUMP JUMPDEST PUSH1 0x80 DUP8 ADD SWAP6 SWAP1 SWAP6 MSTORE PUSH1 0xA0 DUP7 ADD MSTORE PUSH1 0xC0 DUP6 ADD MSTORE PUSH1 0xE0 DUP5 ADD MSTORE PUSH1 0xFF DUP2 DUP2 AND ISZERO ISZERO PUSH2 0x100 DUP6 ADD MSTORE PUSH1 0x8 DUP3 SWAP1 SHR AND ISZERO ISZERO PUSH2 0x120 DUP5 ADD MSTORE PUSH1 0x10 SHR PUSH1 0x1 PUSH1 0x1 PUSH1 0xA0 SHL SUB AND PUSH2 0x140 DUP4 ADD MSTORE SUB SWAP1 RETURN JUMPDEST POP PUSH1 0x2 SLOAD DUP2 LT PUSH2 0x105B JUMP JUMPDEST CALLVALUE PUSH2 0x222 JUMPI PUSH1 0x20 CALLDATASIZE PUSH1 0x3 NOT ADD SLT PUSH2 0x222 JUMPI PUSH1 0x1 PUSH1 0x1 PUSH1 0xA0 SHL SUB PUSH2 0x114D PUSH2 0x1C19 JUMP JUMPDEST AND PUSH0 MSTORE PUSH1 0x9 PUSH1 0x20 MSTORE PUSH1 0x20 PUSH1 0xFF PUSH1 0x40 PUSH0 KECCAK256 SLOAD AND PUSH1 0x40 MLOAD SWAP1 ISZERO ISZERO DUP2 MSTORE RETURN JUMPDEST CALLVALUE PUSH2 0x222 JUMPI PUSH1 0x20 CALLDATASIZE PUSH1 0x3 NOT ADD SLT PUSH2 0x222 JUMPI PUSH1 0x20 PUSH2 0x1184 PUSH2 0x1C19 JUMP JUMPDEST PUSH1 0x1 SLOAD PUSH1 0x40 MLOAD PUSH1 0x1 PUSH1 0x1 PUSH1 0xA0 SHL SUB SWAP3 DUP4 AND SWAP2 SWAP1 SWAP3 AND EQ DUP2 MSTORE RETURN JUMPDEST CALLVALUE PUSH2 0x222 JUMPI PUSH1 0x80 CALLDATASIZE PUSH1 0x3 NOT ADD SLT PUSH2 0x222 JUMPI PUSH1 0x4 CALLDATALOAD PUSH8 0xFFFFFFFFFFFFFFFF DUP2 GT PUSH2 0x222 JUMPI PUSH2 0x11CF SWAP1 CALLDATASIZE SWAP1 PUSH1 0x4 ADD PUSH2 0x1DA4 JUMP JUMPDEST PUSH1 0x24 CALLDATALOAD SWAP1 PUSH1 0x44 CALLDATALOAD PUSH8 0xFFFFFFFFFFFFFFFF DUP2 GT PUSH2 0x222 JUMPI PUSH2 0x11F3 SWAP1 CALLDATASIZE SWAP1 PUSH1 0x4 ADD PUSH2 0x1DA4 JUMP JUMPDEST SWAP1 PUSH1 0x64 CALLDATALOAD SWAP3 CALLER PUSH0 MSTORE PUSH1 0x9 PUSH1 0x20 MSTORE PUSH1 0xFF PUSH1 0x40 PUSH0 KECCAK256 SLOAD AND DUP1 ISZERO PUSH2 0x15A3 JUMPI JUMPDEST PUSH2 0x1218 SWAP1 PUSH2 0x1E49 JUMP JUMPDEST DUP4 ISZERO PUSH2 0x155F JUMPI DUP1 ISZERO PUSH2 0x151B JUMPI PUSH1 0x2 SLOAD SWAP3 PUSH2 0x1231 DUP5 PUSH2 0x1ED9 JUMP JUMPDEST PUSH1 0x2 SSTORE DUP4 PUSH0 MSTORE PUSH1 0x6 PUSH1 0x20 MSTORE PUSH1 0x40 PUSH0 KECCAK256 SWAP2 PUSH2 0x124D PUSH1 0x5 SLOAD DUP8 PUSH2 0x1EE7 JUMP JUMPDEST SWAP4 PUSH2 0x125C DUP6 PUSH1 0x4 SLOAD LT ISZERO PUSH2 0x1EFA JUMP JUMPDEST DUP6 DUP5 SSTORE DUP1 MLOAD PUSH1 0x1 DUP6 ADD SWAP2 PUSH8 0xFFFFFFFFFFFFFFFF DUP3 GT PUSH2 0x762 JUMPI DUP2 SWAP1 PUSH2 0x1281 DUP5 SLOAD PUSH2 0x1C86 JUMP JUMPDEST PUSH1 0x1F DUP2 GT PUSH2 0x14CB JUMPI JUMPDEST POP PUSH1 0x20 SWAP1 PUSH1 0x1F DUP4 GT PUSH1 0x1 EQ PUSH2 0x1468 JUMPI PUSH0 SWAP3 PUSH2 0x145D JUMPI JUMPDEST POP POP DUP2 PUSH1 0x1 SHL SWAP2 PUSH0 NOT SWAP1 PUSH1 0x3 SHL SHR NOT AND OR SWAP1 SSTORE JUMPDEST PUSH1 0x2 DUP4 ADD SSTORE DUP1 MLOAD PUSH1 0x3 DUP4 ADD SWAP2 PUSH8 0xFFFFFFFFFFFFFFFF DUP3 GT PUSH2 0x762 JUMPI PUSH2 0x12D9 DUP4 SLOAD PUSH2 0x1C86 JUMP JUMPDEST PUSH1 0x1F DUP2 GT PUSH2 0x1418 JUMPI JUMPDEST POP SWAP2 PUSH1 0x20 SWAP7 SWAP4 SWAP2 DUP7 SWAP6 SWAP4 DUP9 SWAP1 PUSH1 0x1F DUP4 GT PUSH1 0x1 EQ PUSH2 0x138A JUMPI SWAP3 DUP3 PUSH1 0x8 SWAP4 PUSH32 0xBD3F84A55FDC44F970ADC6CCBAA93E78D7DA5F3FC37C4B7DA578D47C9AD2E46A SWAP9 SWAP7 SWAP4 PUSH1 0x40 SWAP9 SWAP7 PUSH0 SWAP3 PUSH2 0x137F JUMPI JUMPDEST POP POP DUP2 PUSH1 0x1 SHL SWAP2 PUSH0 NOT SWAP1 PUSH1 0x3 SHL SHR NOT AND OR SWAP1 SSTORE JUMPDEST PUSH1 0x4 DUP2 ADD DUP5 SWAP1 SSTORE PUSH1 0x6 DUP2 ADD DUP4 SWAP1 SSTORE PUSH0 PUSH1 0x5 DUP3 ADD SSTORE TIMESTAMP PUSH1 0x7 DUP3 ADD SSTORE ADD DUP1 SLOAD PUSH1 0x1 PUSH1 0x1 PUSH1 0xB0 SHL SUB NOT AND PUSH1 0x1 OR SWAP1 SSTORE DUP3 MLOAD SWAP2 DUP3 MSTORE DUP7 DUP3 ADD MSTORE LOG2 PUSH1 0x40 MLOAD SWAP1 DUP2 MSTORE RETURN JUMPDEST ADD MLOAD SWAP1 POP DUP13 DUP1 PUSH2 0x132D JUMP JUMPDEST SWAP1 PUSH1 0x1F NOT DUP4 AND SWAP2 DUP5 PUSH0 MSTORE DUP2 PUSH0 KECCAK256 SWAP3 PUSH0 JUMPDEST DUP2 DUP2 LT PUSH2 0x13FE JUMPI POP SWAP4 PUSH32 0xBD3F84A55FDC44F970ADC6CCBAA93E78D7DA5F3FC37C4B7DA578D47C9AD2E46A SWAP9 SWAP7 SWAP4 PUSH1 0x40 SWAP9 SWAP7 SWAP4 PUSH1 0x1 SWAP4 DUP4 PUSH1 0x8 SWAP9 LT PUSH2 0x13E6 JUMPI JUMPDEST POP POP POP DUP2 SHL ADD SWAP1 SSTORE PUSH2 0x1341 JUMP JUMPDEST ADD MLOAD PUSH0 NOT PUSH1 0xF8 DUP5 PUSH1 0x3 SHL AND SHR NOT AND SWAP1 SSTORE DUP13 DUP1 DUP1 PUSH2 0x13D9 JUMP JUMPDEST DUP3 DUP5 ADD MLOAD DUP6 SSTORE DUP12 SWAP11 POP PUSH1 0x1 SWAP1 SWAP5 ADD SWAP4 SWAP3 DUP13 ADD SWAP3 DUP13 ADD PUSH2 0x139A JUMP JUMPDEST DUP4 PUSH0 MSTORE PUSH1 0x20 PUSH0 KECCAK256 PUSH1 0x1F DUP5 ADD PUSH1 0x5 SHR DUP2 ADD SWAP2 PUSH1 0x20 DUP6 LT PUSH2 0x1453 JUMPI JUMPDEST PUSH1 0x1F ADD PUSH1 0x5 SHR ADD SWAP1 JUMPDEST DUP2 DUP2 LT PUSH2 0x1448 JUMPI POP PUSH2 0x12E2 JUMP JUMPDEST PUSH0 DUP2 SSTORE PUSH1 0x1 ADD PUSH2 0x143B JUMP JUMPDEST SWAP1 SWAP2 POP DUP2 SWAP1 PUSH2 0x1432 JUMP JUMPDEST ADD MLOAD SWAP1 POP DUP10 DUP1 PUSH2 0x12A0 JUMP JUMPDEST PUSH0 DUP6 DUP2 MSTORE DUP3 DUP2 KECCAK256 SWAP4 POP PUSH1 0x1F NOT DUP6 AND SWAP1 JUMPDEST DUP2 DUP2 LT PUSH2 0x14B3 JUMPI POP SWAP1 DUP5 PUSH1 0x1 SWAP6 SWAP5 SWAP4 SWAP3 LT PUSH2 0x149B JUMPI JUMPDEST POP POP POP DUP2 SHL ADD SWAP1 SSTORE PUSH2 0x12B4 JUMP JUMPDEST ADD MLOAD PUSH0 NOT PUSH1 0xF8 DUP5 PUSH1 0x3 SHL AND SHR NOT AND SWAP1 SSTORE DUP10 DUP1 DUP1 PUSH2 0x148E JUMP JUMPDEST SWAP3 SWAP4 PUSH1 0x20 PUSH1 0x1 DUP2 SWAP3 DUP8 DUP7 ADD MLOAD DUP2 SSTORE ADD SWAP6 ADD SWAP4 ADD PUSH2 0x1478 JUMP JUMPDEST SWAP1 SWAP2 POP DUP4 PUSH0 MSTORE PUSH1 0x20 PUSH0 KECCAK256 PUSH1 0x1F DUP5 ADD PUSH1 0x5 SHR DUP2 ADD SWAP2 PUSH1 0x20 DUP6 LT PUSH2 0x1511 JUMPI JUMPDEST SWAP1 PUSH1 0x1F DUP6 SWAP5 SWAP4 SWAP3 ADD PUSH1 0x5 SHR ADD SWAP1 JUMPDEST DUP2 DUP2 LT PUSH2 0x1503 JUMPI POP PUSH2 0x128A JUMP JUMPDEST PUSH0 DUP2 SSTORE DUP5 SWAP4 POP PUSH1 0x1 ADD PUSH2 0x14F6 JUMP JUMPDEST SWAP1 SWAP2 POP DUP2 SWAP1 PUSH2 0x14E8 JUMP JUMPDEST PUSH1 0x64 PUSH1 0x40 MLOAD PUSH3 0x461BCD PUSH1 0xE5 SHL DUP2 MSTORE PUSH1 0x20 PUSH1 0x4 DUP3 ADD MSTORE PUSH1 0x20 PUSH1 0x24 DUP3 ADD MSTORE PUSH32 0x4D6964646C6520776F726420686173682063616E6E6F7420626520656D707479 PUSH1 0x44 DUP3 ADD MSTORE REVERT JUMPDEST PUSH1 0x64 PUSH1 0x40 MLOAD PUSH3 0x461BCD PUSH1 0xE5 SHL DUP2 MSTORE PUSH1 0x20 PUSH1 0x4 DUP3 ADD MSTORE PUSH1 0x20 PUSH1 0x24 DUP3 ADD MSTORE PUSH32 0x456E74727920666565206D7573742062652067726561746572207468616E2030 PUSH1 0x44 DUP3 ADD MSTORE REVERT JUMPDEST POP PUSH1 0x1 SLOAD PUSH1 0x1 PUSH1 0x1 PUSH1 0xA0 SHL SUB AND CALLER EQ PUSH2 0x120F JUMP JUMPDEST CALLVALUE PUSH2 0x222 JUMPI PUSH1 0x20 CALLDATASIZE PUSH1 0x3 NOT ADD SLT PUSH2 0x222 JUMPI PUSH1 0x4 CALLDATALOAD PUSH2 0x15D3 PUSH2 0x1F90 JUMP JUMPDEST DUP1 ISZERO PUSH2 0x1612 JUMPI PUSH1 0x40 PUSH32 0x514A13B7C45F1C0E37B6E90A86A9D5760AA7B452D562DFAD87123C398C6C6B95 SWAP2 PUSH1 0x5 SLOAD SWAP1 DUP1 PUSH1 0x5 SSTORE DUP3 MLOAD SWAP2 DUP3 MSTORE PUSH1 0x20 DUP3 ADD MSTORE LOG1 STOP JUMPDEST PUSH1 0x40 MLOAD PUSH3 0x461BCD PUSH1 0xE5 SHL DUP2 MSTORE PUSH1 0x20 PUSH1 0x4 DUP3 ADD MSTORE PUSH1 0x21 PUSH1 0x24 DUP3 ADD MSTORE PUSH32 0x4D756C7469706C696572206D7573742062652067726561746572207468616E20 PUSH1 0x44 DUP3 ADD MSTORE PUSH1 0x3 PUSH1 0xFC SHL PUSH1 0x64 DUP3 ADD MSTORE PUSH1 0x84 SWAP1 REVERT JUMPDEST CALLVALUE PUSH2 0x222 JUMPI PUSH1 0x20 CALLDATASIZE PUSH1 0x3 NOT ADD SLT PUSH2 0x222 JUMPI PUSH1 0x20 PUSH1 0x1 PUSH1 0x1 PUSH1 0xA0 SHL SUB PUSH2 0x1684 PUSH2 0x1C19 JUMP JUMPDEST AND DUP1 PUSH0 MSTORE PUSH1 0x9 DUP3 MSTORE PUSH1 0xFF PUSH1 0x40 PUSH0 KECCAK256 SLOAD AND SWAP1 DUP2 ISZERO PUSH2 0x16A7 JUMPI JUMPDEST POP PUSH1 0x40 MLOAD SWAP1 ISZERO ISZERO DUP2 MSTORE RETURN JUMPDEST PUSH1 0x1 SLOAD PUSH1 0x1 PUSH1 0x1 PUSH1 0xA0 SHL SUB AND EQ SWAP1 POP DUP3 PUSH2 0x169C JUMP JUMPDEST CALLVALUE PUSH2 0x222 JUMPI PUSH1 0x20 CALLDATASIZE PUSH1 0x3 NOT ADD SLT PUSH2 0x222 JUMPI PUSH1 0x4 CALLDATALOAD CALLER PUSH0 MSTORE PUSH1 0x9 PUSH1 0x20 MSTORE PUSH1 0xFF PUSH1 0x40 PUSH0 KECCAK256 SLOAD AND DUP1 ISZERO PUSH2 0x1775 JUMPI JUMPDEST PUSH2 0x16F0 SWAP1 PUSH2 0x1E49 JUMP JUMPDEST PUSH2 0x16F8 PUSH2 0x1FB7 JUMP JUMPDEST DUP1 PUSH0 MSTORE PUSH1 0x6 PUSH1 0x20 MSTORE PUSH32 0xA72860103F540F00E7D5C44FF9EA4CDB6CF0361B63E542D7A657C4C1154100DE PUSH1 0x20 PUSH1 0x40 PUSH0 KECCAK256 PUSH0 PUSH1 0x8 DUP3 ADD PUSH1 0x5 DUP2 SLOAD SWAP4 PUSH2 0x173D PUSH1 0xFF DUP7 AND PUSH2 0x1E8B JUMP JUMPDEST ADD SWAP1 PUSH2 0x100 DUP3 SLOAD SWAP5 PUSH2 0xFFFF NOT AND OR SWAP1 SSTORE SSTORE DUP1 PUSH2 0x1761 JUMPI JUMPDEST PUSH1 0x40 MLOAD SWAP1 DUP2 MSTORE LOG2 PUSH1 0x1 PUSH0 SSTORE STOP JUMPDEST PUSH2 0x176D DUP2 PUSH1 0x4 SLOAD PUSH2 0x1ECC JUMP JUMPDEST PUSH1 0x4 SSTORE PUSH2 0x1754 JUMP JUMPDEST POP PUSH1 0x1 SLOAD PUSH1 0x1 PUSH1 0x1 PUSH1 0xA0 SHL SUB AND CALLER EQ PUSH2 0x16E7 JUMP JUMPDEST CALLVALUE PUSH2 0x222 JUMPI PUSH1 0x20 CALLDATASIZE PUSH1 0x3 NOT ADD SLT PUSH2 0x222 JUMPI PUSH2 0x17A2 PUSH2 0x1C19 JUMP JUMPDEST PUSH2 0x17AA PUSH2 0x1F90 JUMP JUMPDEST PUSH1 0x1 PUSH1 0x1 PUSH1 0xA0 SHL SUB AND PUSH0 DUP2 DUP2 MSTORE PUSH1 0x9 PUSH1 0x20 MSTORE PUSH1 0x40 SWAP1 KECCAK256 SLOAD PUSH1 0xFF AND ISZERO PUSH2 0x1902 JUMPI PUSH1 0x1 SLOAD PUSH1 0x1 PUSH1 0x1 PUSH1 0xA0 SHL SUB AND DUP2 EQ PUSH2 0x18C7 JUMPI PUSH0 DUP2 DUP2 MSTORE PUSH1 0x9 PUSH1 0x20 MSTORE PUSH1 0x40 DUP2 KECCAK256 DUP1 SLOAD PUSH1 0xFF NOT AND SWAP1 SSTORE JUMPDEST PUSH1 0xA SLOAD SWAP1 DUP2 DUP2 LT ISZERO PUSH2 0x18C0 JUMPI DUP3 PUSH2 0x1807 DUP3 PUSH2 0x1C45 JUMP JUMPDEST SWAP1 SLOAD PUSH1 0x3 SWAP2 SWAP1 SWAP2 SHL SHR PUSH1 0x1 PUSH1 0x1 PUSH1 0xA0 SHL SUB AND EQ PUSH2 0x1828 JUMPI PUSH1 0x1 SWAP2 POP ADD PUSH2 0x17F1 JUMP JUMPDEST PUSH0 NOT DUP3 ADD SWAP2 DUP3 GT PUSH2 0x63E JUMPI PUSH2 0xD01 PUSH2 0x1842 PUSH2 0x185A SWAP4 PUSH2 0x1C45 JUMP JUMPDEST SWAP1 SLOAD PUSH1 0x3 SWAP2 SWAP1 SWAP2 SHL SHR PUSH1 0x1 PUSH1 0x1 PUSH1 0xA0 SHL SUB AND SWAP2 PUSH2 0x1C45 JUMP JUMPDEST PUSH1 0xA SLOAD DUP1 ISZERO PUSH2 0x18AC JUMPI PUSH0 NOT ADD PUSH2 0x186F DUP2 PUSH2 0x1C45 JUMP JUMPDEST DUP2 SLOAD SWAP1 PUSH1 0x1 DUP1 PUSH1 0xA0 SHL SUB SWAP1 PUSH1 0x3 SHL SHL NOT AND SWAP1 SSTORE PUSH1 0xA SSTORE JUMPDEST PUSH32 0xA3B62BC36326052D97EA62D63C3D60308ED4C3EA8AC079DD8499F1E9C4F80C0F PUSH0 DUP1 LOG2 STOP JUMPDEST PUSH4 0x4E487B71 PUSH1 0xE0 SHL PUSH0 MSTORE PUSH1 0x31 PUSH1 0x4 MSTORE PUSH1 0x24 PUSH0 REVERT JUMPDEST POP POP PUSH2 0x1886 JUMP JUMPDEST PUSH1 0x40 MLOAD PUSH3 0x461BCD PUSH1 0xE5 SHL DUP2 MSTORE PUSH1 0x20 PUSH1 0x4 DUP3 ADD MSTORE PUSH1 0x13 PUSH1 0x24 DUP3 ADD MSTORE PUSH19 0x21B0B73737BA103932B6B7BB329037BBB732B9 PUSH1 0x69 SHL PUSH1 0x44 DUP3 ADD MSTORE PUSH1 0x64 SWAP1 REVERT JUMPDEST PUSH1 0x40 MLOAD PUSH3 0x461BCD PUSH1 0xE5 SHL DUP2 MSTORE PUSH1 0x20 PUSH1 0x4 DUP3 ADD MSTORE PUSH1 0xC PUSH1 0x24 DUP3 ADD MSTORE PUSH12 0x2737BA1030B71030B236B4B7 PUSH1 0xA1 SHL PUSH1 0x44 DUP3 ADD MSTORE PUSH1 0x64 SWAP1 REVERT JUMPDEST CALLVALUE PUSH2 0x222 JUMPI PUSH1 0x20 CALLDATASIZE PUSH1 0x3 NOT ADD SLT PUSH2 0x222 JUMPI PUSH1 0x4 CALLDATALOAD PUSH2 0x1952 PUSH2 0x1F90 JUMP JUMPDEST PUSH1 0x32 DUP2 GT PUSH2 0x1993 JUMPI PUSH1 0x40 PUSH32 0xD347E206F25A89B917FC9482F1A2D294D749BAA4DC9BDE7FB495EE11FE491643 SWAP2 PUSH1 0x3 SLOAD SWAP1 DUP1 PUSH1 0x3 SSTORE DUP3 MLOAD SWAP2 DUP3 MSTORE PUSH1 0x20 DUP3 ADD MSTORE LOG1 STOP JUMPDEST PUSH1 0x40 MLOAD PUSH3 0x461BCD PUSH1 0xE5 SHL DUP2 MSTORE PUSH1 0x20 PUSH1 0x4 DUP3 ADD MSTORE PUSH1 0x15 PUSH1 0x24 DUP3 ADD MSTORE PUSH21 0x4665652063616E6E6F742065786365656420353025 PUSH1 0x58 SHL PUSH1 0x44 DUP3 ADD MSTORE PUSH1 0x64 SWAP1 REVERT JUMPDEST CALLVALUE PUSH2 0x222 JUMPI PUSH1 0x20 CALLDATASIZE PUSH1 0x3 NOT ADD SLT PUSH2 0x222 JUMPI PUSH1 0x1 PUSH1 0x1 PUSH1 0xA0 SHL SUB PUSH2 0x19F1 PUSH2 0x1C19 JUMP JUMPDEST AND PUSH0 MSTORE PUSH1 0x8 PUSH1 0x20 MSTORE PUSH1 0x40 PUSH0 KECCAK256 PUSH1 0x40 MLOAD DUP1 PUSH1 0x20 DUP4 SLOAD SWAP2 DUP3 DUP2 MSTORE ADD SWAP1 DUP2 SWAP4 PUSH0 MSTORE PUSH1 0x20 PUSH0 KECCAK256 SWAP1 PUSH0 JUMPDEST DUP2 DUP2 LT PUSH2 0x1A6E JUMPI POP POP POP DUP2 PUSH2 0x1A2C SWAP2 SUB DUP3 PUSH2 0x1CBE JUMP JUMPDEST PUSH1 0x40 MLOAD SWAP2 DUP3 SWAP2 PUSH1 0x20 DUP4 ADD SWAP1 PUSH1 0x20 DUP5 MSTORE MLOAD DUP1 SWAP2 MSTORE PUSH1 0x40 DUP4 ADD SWAP2 SWAP1 PUSH0 JUMPDEST DUP2 DUP2 LT PUSH2 0x1A55 JUMPI POP POP POP SUB SWAP1 RETURN JUMPDEST DUP3 MLOAD DUP5 MSTORE DUP6 SWAP5 POP PUSH1 0x20 SWAP4 DUP5 ADD SWAP4 SWAP1 SWAP3 ADD SWAP2 PUSH1 0x1 ADD PUSH2 0x1A47 JUMP JUMPDEST DUP3 SLOAD DUP5 MSTORE PUSH1 0x20 SWAP1 SWAP4 ADD SWAP3 PUSH1 0x1 SWAP3 DUP4 ADD SWAP3 ADD PUSH2 0x1A16 JUMP JUMPDEST CALLVALUE PUSH2 0x222 JUMPI PUSH1 0x20 CALLDATASIZE PUSH1 0x3 NOT ADD SLT PUSH2 0x222 JUMPI PUSH1 0x4 CALLDATALOAD PUSH0 MSTORE PUSH1 0x6 PUSH1 0x20 MSTORE PUSH1 0x40 PUSH0 KECCAK256 DUP1 SLOAD PUSH2 0x1AB1 PUSH1 0x1 DUP4 ADD PUSH2 0x1CE0 JUMP JUMPDEST SWAP2 PUSH1 0x2 DUP2 ADD SLOAD SWAP1 PUSH2 0x1AC4 PUSH1 0x3 DUP3 ADD PUSH2 0x1CE0 JUMP JUMPDEST SWAP1 PUSH1 0x4 DUP2 ADD SLOAD SWAP3 PUSH1 0x5 DUP3 ADD SLOAD PUSH2 0x10D9 PUSH1 0x6 DUP5 ADD SLOAD SWAP3 PUSH1 0x8 PUSH1 0x7 DUP7 ADD SLOAD SWAP6 ADD SLOAD SWAP6 PUSH2 0x1B02 PUSH1 0x40 MLOAD SWAP11 DUP12 SWAP11 DUP12 MSTORE PUSH2 0x160 PUSH1 0x20 DUP13 ADD MSTORE PUSH2 0x160 DUP12 ADD SWAP1 PUSH2 0x1D80 JUMP JUMPDEST SWAP2 PUSH1 0x40 DUP11 ADD MSTORE DUP9 DUP3 SUB PUSH1 0x60 DUP11 ADD MSTORE PUSH2 0x1D80 JUMP JUMPDEST CALLVALUE PUSH2 0x222 JUMPI PUSH1 0x20 CALLDATASIZE PUSH1 0x3 NOT ADD SLT PUSH2 0x222 JUMPI PUSH1 0x4 CALLDATALOAD PUSH1 0xA SLOAD DUP2 LT ISZERO PUSH2 0x222 JUMPI PUSH2 0x1B3E PUSH1 0x20 SWAP2 PUSH2 0x1C45 JUMP JUMPDEST SWAP1 SLOAD PUSH1 0x40 MLOAD PUSH1 0x3 SWAP3 SWAP1 SWAP3 SHL SHR PUSH1 0x1 PUSH1 0x1 PUSH1 0xA0 SHL SUB AND DUP2 MSTORE RETURN JUMPDEST CALLVALUE PUSH2 0x222 JUMPI PUSH1 0x40 CALLDATASIZE PUSH1 0x3 NOT ADD SLT PUSH2 0x222 JUMPI PUSH1 0x4 CALLDATALOAD PUSH2 0x1B73 PUSH2 0x1C2F JUMP JUMPDEST SWAP1 DUP1 ISZERO ISZERO DUP1 PUSH2 0x1BB6 JUMPI JUMPDEST PUSH2 0x1B86 SWAP1 PUSH2 0x1DFA JUMP JUMPDEST PUSH0 MSTORE PUSH1 0x6 PUSH1 0x20 MSTORE PUSH1 0x9 PUSH1 0x40 PUSH0 KECCAK256 ADD SWAP1 PUSH1 0x1 DUP1 PUSH1 0xA0 SHL SUB AND PUSH0 MSTORE PUSH1 0x20 MSTORE PUSH1 0x20 PUSH1 0xFF PUSH1 0x40 PUSH0 KECCAK256 SLOAD AND PUSH1 0x40 MLOAD SWAP1 ISZERO ISZERO DUP2 MSTORE RETURN JUMPDEST POP PUSH1 0x2 SLOAD DUP2 LT PUSH2 0x1B7D JUMP JUMPDEST CALLVALUE PUSH2 0x222 JUMPI PUSH1 0x40 CALLDATASIZE PUSH1 0x3 NOT ADD SLT PUSH2 0x222 JUMPI PUSH2 0x1BDA PUSH2 0x1C19 JUMP JUMPDEST PUSH1 0x1 PUSH1 0x1 PUSH1 0xA0 SHL SUB AND PUSH0 SWAP1 DUP2 MSTORE PUSH1 0x8 PUSH1 0x20 MSTORE PUSH1 0x40 SWAP1 KECCAK256 DUP1 SLOAD PUSH1 0x24 CALLDATALOAD SWAP2 SWAP1 DUP3 LT ISZERO PUSH2 0x222 JUMPI PUSH1 0x20 SWAP2 PUSH2 0x1C0A SWAP2 PUSH2 0x1C71 JUMP JUMPDEST SWAP1 SLOAD SWAP1 PUSH1 0x3 SHL SHR PUSH1 0x40 MLOAD SWAP1 DUP2 MSTORE RETURN JUMPDEST PUSH1 0x4 CALLDATALOAD SWAP1 PUSH1 0x1 PUSH1 0x1 PUSH1 0xA0 SHL SUB DUP3 AND DUP3 SUB PUSH2 0x222 JUMPI JUMP JUMPDEST PUSH1 0x24 CALLDATALOAD SWAP1 PUSH1 0x1 PUSH1 0x1 PUSH1 0xA0 SHL SUB DUP3 AND DUP3 SUB PUSH2 0x222 JUMPI JUMP JUMPDEST PUSH1 0xA SLOAD DUP2 LT ISZERO PUSH2 0x1C5D JUMPI PUSH1 0xA PUSH0 MSTORE PUSH1 0x20 PUSH0 KECCAK256 ADD SWAP1 PUSH0 SWAP1 JUMP JUMPDEST PUSH4 0x4E487B71 PUSH1 0xE0 SHL PUSH0 MSTORE PUSH1 0x32 PUSH1 0x4 MSTORE PUSH1 0x24 PUSH0 REVERT JUMPDEST DUP1 SLOAD DUP3 LT ISZERO PUSH2 0x1C5D JUMPI PUSH0 MSTORE PUSH1 0x20 PUSH0 KECCAK256 ADD SWAP1 PUSH0 SWAP1 JUMP JUMPDEST SWAP1 PUSH1 0x1 DUP3 DUP2 SHR SWAP3 AND DUP1 ISZERO PUSH2 0x1CB4 JUMPI JUMPDEST PUSH1 0x20 DUP4 LT EQ PUSH2 0x1CA0 JUMPI JUMP JUMPDEST PUSH4 0x4E487B71 PUSH1 0xE0 SHL PUSH0 MSTORE PUSH1 0x22 PUSH1 0x4 MSTORE PUSH1 0x24 PUSH0 REVERT JUMPDEST SWAP2 PUSH1 0x7F AND SWAP2 PUSH2 0x1C95 JUMP JUMPDEST SWAP1 PUSH1 0x1F DUP1 NOT SWAP2 ADD AND DUP2 ADD SWAP1 DUP2 LT PUSH8 0xFFFFFFFFFFFFFFFF DUP3 GT OR PUSH2 0x762 JUMPI PUSH1 0x40 MSTORE JUMP JUMPDEST SWAP1 PUSH1 0x40 MLOAD SWAP2 DUP3 PUSH0 DUP3 SLOAD SWAP3 PUSH2 0x1CF3 DUP5 PUSH2 0x1C86 JUMP JUMPDEST DUP1 DUP5 MSTORE SWAP4 PUSH1 0x1 DUP2 AND SWAP1 DUP2 ISZERO PUSH2 0x1D5E JUMPI POP PUSH1 0x1 EQ PUSH2 0x1D1A JUMPI JUMPDEST POP PUSH2 0x1D18 SWAP3 POP SUB DUP4 PUSH2 0x1CBE JUMP JUMPDEST JUMP JUMPDEST SWAP1 POP PUSH0 SWAP3 SWAP2 SWAP3 MSTORE PUSH1 0x20 PUSH0 KECCAK256 SWAP1 PUSH0 SWAP2 JUMPDEST DUP2 DUP4 LT PUSH2 0x1D42 JUMPI POP POP SWAP1 PUSH1 0x20 PUSH2 0x1D18 SWAP3 DUP3 ADD ADD PUSH0 PUSH2 0x1D0B JUMP JUMPDEST PUSH1 0x20 SWAP2 SWAP4 POP DUP1 PUSH1 0x1 SWAP2 SLOAD DUP4 DUP6 DUP10 ADD ADD MSTORE ADD SWAP2 ADD SWAP1 SWAP2 DUP5 SWAP3 PUSH2 0x1D29 JUMP JUMPDEST SWAP1 POP PUSH1 0x20 SWAP3 POP PUSH2 0x1D18 SWAP5 SWAP2 POP PUSH1 0xFF NOT AND DUP3 DUP5 ADD MSTORE ISZERO ISZERO PUSH1 0x5 SHL DUP3 ADD ADD PUSH0 PUSH2 0x1D0B JUMP JUMPDEST DUP1 MLOAD DUP1 DUP4 MSTORE PUSH1 0x20 SWAP3 SWAP2 DUP2 SWAP1 DUP5 ADD DUP5 DUP5 ADD MCOPY PUSH0 DUP3 DUP3 ADD DUP5 ADD MSTORE PUSH1 0x1F ADD PUSH1 0x1F NOT AND ADD ADD SWAP1 JUMP JUMPDEST DUP2 PUSH1 0x1F DUP3 ADD SLT ISZERO PUSH2 0x222 JUMPI DUP1 CALLDATALOAD SWAP1 PUSH8 0xFFFFFFFFFFFFFFFF DUP3 GT PUSH2 0x762 JUMPI PUSH1 0x40 MLOAD SWAP3 PUSH2 0x1DD9 PUSH1 0x1F DUP5 ADD PUSH1 0x1F NOT AND PUSH1 0x20 ADD DUP6 PUSH2 0x1CBE JUMP JUMPDEST DUP3 DUP5 MSTORE PUSH1 0x20 DUP4 DUP4 ADD ADD GT PUSH2 0x222 JUMPI DUP2 PUSH0 SWAP3 PUSH1 0x20 DUP1 SWAP4 ADD DUP4 DUP7 ADD CALLDATACOPY DUP4 ADD ADD MSTORE SWAP1 JUMP JUMPDEST ISZERO PUSH2 0x1E01 JUMPI JUMP JUMPDEST PUSH1 0x40 MLOAD PUSH3 0x461BCD PUSH1 0xE5 SHL DUP2 MSTORE PUSH1 0x20 PUSH1 0x4 DUP3 ADD MSTORE PUSH1 0x13 PUSH1 0x24 DUP3 ADD MSTORE PUSH19 0x11D85B5948191BD95CC81B9BDD08195E1A5CDD PUSH1 0x6A SHL PUSH1 0x44 DUP3 ADD MSTORE PUSH1 0x64 SWAP1 REVERT JUMPDEST SWAP2 SWAP1 DUP3 SUB SWAP2 DUP3 GT PUSH2 0x63E JUMPI JUMP JUMPDEST ISZERO PUSH2 0x1E50 JUMPI JUMP JUMPDEST PUSH1 0x40 MLOAD PUSH3 0x461BCD PUSH1 0xE5 SHL DUP2 MSTORE PUSH1 0x20 PUSH1 0x4 DUP3 ADD MSTORE PUSH1 0x13 PUSH1 0x24 DUP3 ADD MSTORE PUSH19 0x27B7363C9030B236B4B71037B91037BBB732B9 PUSH1 0x69 SHL PUSH1 0x44 DUP3 ADD MSTORE PUSH1 0x64 SWAP1 REVERT JUMPDEST ISZERO PUSH2 0x1E92 JUMPI JUMP JUMPDEST PUSH1 0x40 MLOAD PUSH3 0x461BCD PUSH1 0xE5 SHL DUP2 MSTORE PUSH1 0x20 PUSH1 0x4 DUP3 ADD MSTORE PUSH1 0x12 PUSH1 0x24 DUP3 ADD MSTORE PUSH18 0x47616D65206973206E6F7420616374697665 PUSH1 0x70 SHL PUSH1 0x44 DUP3 ADD MSTORE PUSH1 0x64 SWAP1 REVERT JUMPDEST SWAP2 SWAP1 DUP3 ADD DUP1 SWAP3 GT PUSH2 0x63E JUMPI JUMP JUMPDEST PUSH0 NOT DUP2 EQ PUSH2 0x63E JUMPI PUSH1 0x1 ADD SWAP1 JUMP JUMPDEST DUP2 DUP2 MUL SWAP3 SWAP2 DUP2 ISZERO SWAP2 DUP5 DIV EQ OR ISZERO PUSH2 0x63E JUMPI JUMP JUMPDEST ISZERO PUSH2 0x1F01 JUMPI JUMP JUMPDEST PUSH1 0x40 MLOAD PUSH3 0x461BCD PUSH1 0xE5 SHL DUP2 MSTORE PUSH1 0x20 PUSH1 0x4 DUP3 ADD MSTORE PUSH1 0x1D PUSH1 0x24 DUP3 ADD MSTORE PUSH32 0x496E73756666696369656E742074726561737572792062616C616E6365000000 PUSH1 0x44 DUP3 ADD MSTORE PUSH1 0x64 SWAP1 REVERT JUMPDEST PUSH8 0xFFFFFFFFFFFFFFFF DUP2 GT PUSH2 0x762 JUMPI PUSH1 0x5 SHL PUSH1 0x20 ADD SWAP1 JUMP JUMPDEST DUP1 MLOAD DUP3 LT ISZERO PUSH2 0x1C5D JUMPI PUSH1 0x20 SWAP2 PUSH1 0x5 SHL ADD ADD SWAP1 JUMP JUMPDEST DUP2 ISZERO PUSH2 0x1F7C JUMPI DIV SWAP1 JUMP JUMPDEST PUSH4 0x4E487B71 PUSH1 0xE0 SHL PUSH0 MSTORE PUSH1 0x12 PUSH1 0x4 MSTORE PUSH1 0x24 PUSH0 REVERT JUMPDEST PUSH1 0x1 SLOAD PUSH1 0x1 PUSH1 0x1 PUSH1 0xA0 SHL SUB AND CALLER SUB PUSH2 0x1FA4 JUMPI JUMP JUMPDEST PUSH4 0x118CDAA7 PUSH1 0xE0 SHL PUSH0 MSTORE CALLER PUSH1 0x4 MSTORE PUSH1 0x24 PUSH0 REVERT JUMPDEST PUSH1 0x2 PUSH0 SLOAD EQ PUSH2 0x1FC6 JUMPI PUSH1 0x2 PUSH0 SSTORE JUMP JUMPDEST PUSH4 0x3EE5AEB5 PUSH1 0xE0 SHL PUSH0 MSTORE PUSH1 0x4 PUSH0 REVERT INVALID LOG2 PUSH5 0x6970667358 0x22 SLT KECCAK256 JUMP RETURNDATACOPY 0x2C COINBASE 0x22 SWAP15 CREATE ISZERO CODECOPY SWAP14 PUSH4 0xBFE29EC4 SWAP3 DUP14 PUSH27 0xF294ACCBC10A7562A2D839EF064964736F6C634300081C00330000 "},"methodIdentifiers":{"addAdmin(address)":"70480275","adminList(uint256)":"11117fc8","admins(address)":"429b62e5","createGame(string,bytes32,string,uint256)":"2e25eb47","defaultPrizeMultiplier()":"82f7defa","emergencyCloseGame(uint256)":"1b39c1f6","emergencyWithdraw()":"db2e21bc","fundTreasury()":"b9c18685","games(uint256)":"117a5b90","getActiveGamesCount()":"72aeb81f","getAdminCount()":"8b7bf3eb","getAdminList()":"d9f774fc","getContractBalance()":"6f9fb98a","getGameInfo(uint256)":"47e1d550","getPlayerGames(address)":"129daf84","getPlayerGuess(uint256,address)":"f4dcdc8e","getPlayerStats(address)":"4fd66eae","getRandomActiveGame()":"6ce5ba6f","getTreasuryBalance()":"9b5655dc","hasPlayerGuessed(uint256,address)":"9a53371e","isAdmin(address)":"24d7806c","isOwner(address)":"2f54bf6e","isPlayerInGame(uint256,address)":"0d3b404f","nextGameId()":"b135bbb0","owner()":"8da5cb5b","platformFeePercent()":"8c639a85","playerGames(address,uint256)":"0a5694c2","playerStats(address)":"cdafbbb6","removeAdmin(address)":"1785f53c","renounceOwnership()":"715018a6","setPlatformFee(uint256)":"12e8e2c3","setPrizeMultiplier(uint256)":"2d57dc34","submitGuess(uint256,string)":"db249ec8","transferOwnership(address)":"f2fde38b","treasuryBalance()":"313dab20","withdrawFromTreasury(uint256)":"63555624"}}}}}