{"project/contracts/GuessWhatGame.sol":{"GuessWhatGame":{"abi":[{"inputs":[{"internalType":"address","name":"initialOwner","type":"address"},{"internalType":"address[]","name":"initialAdmins","type":"address[]"}],"stateMutability":"nonpayable","type":"constructor"},{"inputs":[{"internalType":"address","name":"owner","type":"address"}],"name":"OwnableInvalidOwner","type":"error"},{"inputs":[{"internalType":"address","name":"account","type":"address"}],"name":"OwnableUnauthorizedAccount","type":"error"},{"inputs":[],"name":"ReentrancyGuardReentrantCall","type":"error"},{"anonymous":false,"inputs":[{"indexed":true,"internalType":"address","name":"admin","type":"address"}],"name":"AdminAdded","type":"event"},{"anonymous":false,"inputs":[{"indexed":true,"internalType":"address","name":"admin","type":"address"}],"name":"AdminRemoved","type":"event"},{"anonymous":false,"inputs":[{"indexed":true,"internalType":"uint256","name":"gameId","type":"uint256"},{"indexed":false,"internalType":"uint256","name":"entryFee","type":"uint256"}],"name":"GameCreated","type":"event"},{"anonymous":false,"inputs":[{"indexed":true,"internalType":"uint256","name":"gameId","type":"uint256"},{"indexed":false,"internalType":"uint256","name":"totalPrize","type":"uint256"}],"name":"GameExpired","type":"event"},{"anonymous":false,"inputs":[{"indexed":true,"internalType":"uint256","name":"gameId","type":"uint256"},{"indexed":true,"internalType":"address","name":"winner","type":"address"},{"indexed":false,"internalType":"uint256","name":"prize","type":"uint256"}],"name":"GameWon","type":"event"},{"anonymous":false,"inputs":[{"indexed":true,"internalType":"uint256","name":"gameId","type":"uint256"},{"indexed":true,"internalType":"address","name":"player","type":"address"},{"indexed":false,"internalType":"string","name":"guess","type":"string"}],"name":"GuessSubmitted","type":"event"},{"anonymous":false,"inputs":[{"indexed":true,"internalType":"address","name":"previousOwner","type":"address"},{"indexed":true,"internalType":"address","name":"newOwner","type":"address"}],"name":"OwnershipTransferred","type":"event"},{"anonymous":false,"inputs":[{"indexed":true,"internalType":"uint256","name":"gameId","type":"uint256"},{"indexed":true,"internalType":"address","name":"player","type":"address"},{"indexed":false,"internalType":"uint256","name":"entryFee","type":"uint256"}],"name":"PlayerJoined","type":"event"},{"anonymous":false,"inputs":[{"indexed":true,"internalType":"uint256","name":"gameId","type":"uint256"},{"indexed":true,"internalType":"address","name":"winner","type":"address"},{"indexed":false,"internalType":"uint256","name":"amount","type":"uint256"}],"name":"PrizeClaimed","type":"event"},{"inputs":[],"name":"PLATFORM_FEE_PERCENT","outputs":[{"internalType":"uint256","name":"","type":"uint256"}],"stateMutability":"view","type":"function"},{"inputs":[{"internalType":"address","name":"_admin","type":"address"}],"name":"addAdmin","outputs":[],"stateMutability":"nonpayable","type":"function"},{"inputs":[{"internalType":"uint256","name":"","type":"uint256"}],"name":"adminList","outputs":[{"internalType":"address","name":"","type":"address"}],"stateMutability":"view","type":"function"},{"inputs":[{"internalType":"address","name":"","type":"address"}],"name":"admins","outputs":[{"internalType":"bool","name":"","type":"bool"}],"stateMutability":"view","type":"function"},{"inputs":[{"internalType":"string","name":"_topWord","type":"string"},{"internalType":"string","name":"_middleWord","type":"string"},{"internalType":"string","name":"_bottomWord","type":"string"},{"internalType":"uint256","name":"_entryFee","type":"uint256"},{"internalType":"uint256","name":"_initialPrizePool","type":"uint256"}],"name":"createGame","outputs":[{"internalType":"uint256","name":"","type":"uint256"}],"stateMutability":"payable","type":"function"},{"inputs":[{"internalType":"uint256","name":"_gameId","type":"uint256"}],"name":"emergencyCloseGame","outputs":[],"stateMutability":"nonpayable","type":"function"},{"inputs":[{"internalType":"uint256","name":"","type":"uint256"}],"name":"games","outputs":[{"internalType":"uint256","name":"gameId","type":"uint256"},{"internalType":"string","name":"topWord","type":"string"},{"internalType":"string","name":"middleWord","type":"string"},{"internalType":"string","name":"bottomWord","type":"string"},{"internalType":"uint256","name":"entryFee","type":"uint256"},{"internalType":"uint256","name":"totalPrize","type":"uint256"},{"internalType":"uint256","name":"initialPrizePool","type":"uint256"},{"internalType":"uint256","name":"startTime","type":"uint256"},{"internalType":"bool","name":"isActive","type":"bool"},{"internalType":"bool","name":"isCompleted","type":"bool"},{"internalType":"address","name":"winner","type":"address"}],"stateMutability":"view","type":"function"},{"inputs":[],"name":"getActiveGamesCount","outputs":[{"internalType":"uint256","name":"","type":"uint256"}],"stateMutability":"view","type":"function"},{"inputs":[],"name":"getAdminCount","outputs":[{"internalType":"uint256","name":"","type":"uint256"}],"stateMutability":"view","type":"function"},{"inputs":[],"name":"getAdminList","outputs":[{"internalType":"address[]","name":"","type":"address[]"}],"stateMutability":"view","type":"function"},{"inputs":[{"internalType":"uint256","name":"_gameId","type":"uint256"}],"name":"getGameInfo","outputs":[{"internalType":"uint256","name":"gameId","type":"uint256"},{"internalType":"string","name":"topWord","type":"string"},{"internalType":"string","name":"middleWord","type":"string"},{"internalType":"string","name":"bottomWord","type":"string"},{"internalType":"uint256","name":"entryFee","type":"uint256"},{"internalType":"uint256","name":"totalPrize","type":"uint256"},{"internalType":"uint256","name":"initialPrizePool","type":"uint256"},{"internalType":"uint256","name":"startTime","type":"uint256"},{"internalType":"bool","name":"isActive","type":"bool"},{"internalType":"bool","name":"isCompleted","type":"bool"},{"internalType":"address","name":"winner","type":"address"}],"stateMutability":"view","type":"function"},{"inputs":[{"internalType":"address","name":"_player","type":"address"}],"name":"getPlayerGames","outputs":[{"internalType":"uint256[]","name":"","type":"uint256[]"}],"stateMutability":"view","type":"function"},{"inputs":[{"internalType":"uint256","name":"_gameId","type":"uint256"},{"internalType":"address","name":"_player","type":"address"}],"name":"getPlayerGuess","outputs":[{"internalType":"string","name":"","type":"string"}],"stateMutability":"view","type":"function"},{"inputs":[{"internalType":"address","name":"_player","type":"address"}],"name":"getPlayerStats","outputs":[{"internalType":"uint256","name":"gamesPlayed","type":"uint256"},{"internalType":"uint256","name":"correctGuesses","type":"uint256"},{"internalType":"uint256","name":"totalWinnings","type":"uint256"},{"internalType":"uint256","name":"accuracy","type":"uint256"}],"stateMutability":"view","type":"function"},{"inputs":[],"name":"getRandomActiveGame","outputs":[{"internalType":"uint256","name":"","type":"uint256"}],"stateMutability":"view","type":"function"},{"inputs":[{"internalType":"uint256","name":"_gameId","type":"uint256"},{"internalType":"address","name":"_player","type":"address"}],"name":"hasPlayerGuessed","outputs":[{"internalType":"bool","name":"","type":"bool"}],"stateMutability":"view","type":"function"},{"inputs":[{"internalType":"address","name":"_address","type":"address"}],"name":"isAdmin","outputs":[{"internalType":"bool","name":"","type":"bool"}],"stateMutability":"view","type":"function"},{"inputs":[{"internalType":"address","name":"_address","type":"address"}],"name":"isOwner","outputs":[{"internalType":"bool","name":"","type":"bool"}],"stateMutability":"view","type":"function"},{"inputs":[{"internalType":"uint256","name":"_gameId","type":"uint256"},{"internalType":"address","name":"_player","type":"address"}],"name":"isPlayerInGame","outputs":[{"internalType":"bool","name":"","type":"bool"}],"stateMutability":"view","type":"function"},{"inputs":[{"internalType":"uint256","name":"_gameId","type":"uint256"}],"name":"joinGame","outputs":[],"stateMutability":"payable","type":"function"},{"inputs":[],"name":"nextGameId","outputs":[{"internalType":"uint256","name":"","type":"uint256"}],"stateMutability":"view","type":"function"},{"inputs":[],"name":"owner","outputs":[{"internalType":"address","name":"","type":"address"}],"stateMutability":"view","type":"function"},{"inputs":[{"internalType":"address","name":"","type":"address"},{"internalType":"uint256","name":"","type":"uint256"}],"name":"playerGames","outputs":[{"internalType":"uint256","name":"","type":"uint256"}],"stateMutability":"view","type":"function"},{"inputs":[{"internalType":"address","name":"","type":"address"}],"name":"playerStats","outputs":[{"internalType":"uint256","name":"gamesPlayed","type":"uint256"},{"internalType":"uint256","name":"correctGuesses","type":"uint256"},{"internalType":"uint256","name":"totalWinnings","type":"uint256"},{"internalType":"uint256","name":"accuracy","type":"uint256"}],"stateMutability":"view","type":"function"},{"inputs":[{"internalType":"address","name":"_admin","type":"address"}],"name":"removeAdmin","outputs":[],"stateMutability":"nonpayable","type":"function"},{"inputs":[],"name":"renounceOwnership","outputs":[],"stateMutability":"nonpayable","type":"function"},{"inputs":[{"internalType":"uint256","name":"_gameId","type":"uint256"},{"internalType":"string","name":"_guess","type":"string"}],"name":"submitGuess","outputs":[],"stateMutability":"nonpayable","type":"function"},{"inputs":[{"internalType":"address","name":"newOwner","type":"address"}],"name":"transferOwnership","outputs":[],"stateMutability":"nonpayable","type":"function"},{"inputs":[],"name":"withdraw","outputs":[],"stateMutability":"nonpayable","type":"function"}],"evm":{"bytecode":{"linkReferences":{},"object":"60806040523461025f576120a38038038061001981610263565b92833981019060408183031261025f5761003281610288565b602082015190916001600160401b03821161025f57019180601f8401121561025f578251926001600160401b038411610211578360051b90602080610078818501610263565b80978152019282010192831161025f57602001905b82821061024757505060015f55506001600160a01b0316801561023457600180546001600160a01b0319811683179091556001600160a01b03167f8be0079c531659141344cd1fd0a4f28419497f9722a3daafe3b4186f6b6457e05f80a360016002555f5b8151811015610225576001600160a01b0361010d828461029c565b511661011c575b6001016100f2565b6001600160a01b0361012e828461029c565b51165f908152600660205260409020805460ff191660011790556001600160a01b0361015a828461029c565b51169060075491680100000000000000008310156102115760018301806007558310156101fd5760075f527fa66cc928b5edb82af9bd49922954155ab7b0942694bea4ce44661d9a8736c68890920180546001600160a01b0319169092179091556001906001600160a01b036101d0828561029c565b51167f44d6d25963f097ad14f29f06854a01f575648a1ef82f30e562ccd3889717e3395f80a29050610114565b634e487b7160e01b5f52603260045260245ffd5b634e487b7160e01b5f52604160045260245ffd5b604051611df290816102b18239f35b631e4fbdf760e01b5f525f60045260245ffd5b6020809161025484610288565b81520191019061008d565b5f80fd5b6040519190601f01601f191682016001600160401b0381118382101761021157604052565b51906001600160a01b038216820361025f57565b80518210156101fd5760209160051b01019056fe60806040526004361015610011575f80fd5b5f3560e01c80630a5694c2146119d25780630d3b404f1461196857806311117fc814611926578063117a5b901461189b578063129daf84146117e75780631785f53c1461163a5780631b39c1f61461156757806324d7806c1461150c5780632f54bf6e146114d75780633ccfd60b14611495578063429b62e51461145857806347e1d550146113af5780634fd66eae1461099b578063560d52d4146113945780636cc7d8f814610e665780636ce5ba6f14610cdd5780637048027514610ba4578063715018a614610b4957806372aeb81f14610ac85780638b7bf3eb14610aab5780638da5cb5b14610a835780639a53371e14610a14578063b135bbb0146109f7578063cdafbbb61461099b578063d9f774fc146108d3578063db249ec81461040b578063efaa55a01461025f578063f2fde38b146101d95763f4dcdc8e14610158575f80fd5b346101d55760403660031901126101d557600435610174611a40565b90801515806101ca575b61018790611c89565b5f526003602052600a60405f20019060018060a01b03165f526020526101c66101b260405f20611af1565b604051918291602083526020830190611b91565b0390f35b50600254811061017e565b5f80fd5b346101d55760203660031901126101d5576101f2611a2a565b6101fa611d95565b6001600160a01b0316801561024c57600180546001600160a01b0319811683179091556001600160a01b03167f8be0079c531659141344cd1fd0a4f28419497f9722a3daafe3b4186f6b6457e05f80a3005b631e4fbdf760e01b5f525f60045260245ffd5b60203660031901126101d55760043580151580610400575b61028090611c89565b805f52600360205261029b60ff600860405f20015416611d0d565b805f52600360205260405f20600981019060018060a01b0333165f528160205260ff60405f2054166103bb57600481015434036103805760059160018060a01b0333165f5260205260405f20600160ff19825416179055016102fe348254611d88565b9055335f52600560205260405f208054600160401b81101561036c5761032991600182018155611a82565b81549060031b9083821b915f19901b1916179055604051903482527f03dfbe1fcb4e2d61f3b4a0c93d8f814c92250618b3387f396cc9fc9fafe2c20360203393a3005b634e487b7160e01b5f52604160045260245ffd5b60405162461bcd60e51b8152602060048201526013602482015272496e636f727265637420656e7472792066656560681b6044820152606490fd5b60405162461bcd60e51b815260206004820152601f60248201527f506c6179657220616c7265616479206a6f696e656420746869732067616d65006044820152606490fd5b506002548110610277565b346101d55760403660031901126101d55760043560243567ffffffffffffffff81116101d55761043f903690600401611c33565b90801515806108c8575b61045290611c89565b805f52600360205261046d60ff600860405f20015416611d0d565b5f818152600360209081526040808320338452600981019092529091205460ff161561088357335f908152600a820160208190526040909120546104b090611a97565b61083e57335f90815260209190915260409020835167ffffffffffffffff811161036c576104de8254611a97565b601f81116107f9575b50806020601f8211600114610798575f9161078d575b508160011b915f199060031b1c19161790555b60028351602085012091016040515f918181549361052d85611a97565b9283835260208301956001811690815f1461076e575060011461072a575b5061055892500382611acf565b5190201461059e575b7f17a40e01bf0138d07f888b59d3df945ee0f73445ebbde5213180ad0cb1b8b383604051602081528061059933956020830190611b91565b0390a3005b5f8181526003602052604090206008810180546001600160b01b0319163360101b62010000600160b01b03161761010017905560059081015490818102908215838304909114171561071657606490048082039180831161071657335f52600460205260405f20906106108254611d4e565b9081835560018301926106238454611d4e565b80945560028101610635878254611d88565b9055612710840293808504612710149015171561071657821561070257600385938795049101551480156106dd575b5050801580156106a3575b5050604051908152817f9e59e9b0ec1755ccaf2fd4a7ed4ad5b0a678626e91834aee53ebdf1356bd390a60203393a3610561565b5f808093819360018060a01b03600154169083906106d4575bf1156106c957838061066f565b6040513d5f823e3d90fd5b506108fc6106bc565b5f906106f9575b5f80809381933390f1156106c9578185610664565b506108fc6106e4565b634e487b7160e01b5f52601260045260245ffd5b634e487b7160e01b5f52601160045260245ffd5b90505f9291925260205f20905f915b818310610752575050906020610558928201018861054b565b6020919350806001915483858801015201910190918392610739565b60ff191687525061055893151560051b8301602001915089905061054b565b9050850151866104fd565b5f8481528181209250601f198416905b8181106107e1575090836001949392106107c9575b5050811b019055610510565b8701515f1960f88460031b161c1916905586806107bd565b9192602060018192868c0151815501940192016107a8565b825f5260205f20601f830160051c81019160208410610834575b601f0160051c01905b81811061082957506104e7565b5f815560010161081c565b9091508190610813565b60405162461bcd60e51b815260206004820152601760248201527f416c7265616479207375626d69747465642067756573730000000000000000006044820152606490fd5b60405162461bcd60e51b815260206004820152601760248201527f506c61796572206e6f7420696e20746869732067616d650000000000000000006044820152606490fd5b506002548110610449565b346101d5575f3660031901126101d5576040518060206007549283815201809260075f527fa66cc928b5edb82af9bd49922954155ab7b0942694bea4ce44661d9a8736c688905f5b81811061097c5750505081610931910382611acf565b604051918291602083019060208452518091526040830191905f5b81811061095a575050500390f35b82516001600160a01b031684528594506020938401939092019160010161094c565b82546001600160a01b031684526020909301926001928301920161091b565b346101d55760203660031901126101d5576001600160a01b036109bc611a2a565b165f90815260046020908152604091829020805460018201546002830154600390930154855192835293820152928301526060820152608090f35b346101d5575f3660031901126101d5576020600254604051908152f35b346101d55760403660031901126101d557600435610a30611a40565b9080151580610a78575b610a4390611c89565b5f526003602052600a60405f20019060018060a01b03165f526020526020610a6e60405f2054611a97565b1515604051908152f35b506002548110610a3a565b346101d5575f3660031901126101d5576001546040516001600160a01b039091168152602090f35b346101d5575f3660031901126101d5576020600754604051908152f35b346101d5575f3660031901126101d5575f6001600254905b818110610af257602083604051908152f35b805f52600360205260ff600860405f2001541680610b2c575b610b18575b600101610ae0565b91610b24600191611d4e565b929050610b10565b50805f52600360205260ff600860405f20015460081c1615610b0b565b346101d5575f3660031901126101d557610b61611d95565b600180546001600160a01b031981169091555f906001600160a01b03167f8be0079c531659141344cd1fd0a4f28419497f9722a3daafe3b4186f6b6457e08280a3005b346101d55760203660031901126101d557610bbd611a2a565b610bc5611d95565b6001600160a01b038116908115610ca657815f52600660205260ff60405f205416610c6e57815f52600660205260405f20600160ff1982541617905560075490600160401b82101561036c57610c24826001610c489401600755611a56565b81546001600160a01b0393841660039290921b91821b9390911b1916919091179055565b7f44d6d25963f097ad14f29f06854a01f575648a1ef82f30e562ccd3889717e3395f80a2005b60405162461bcd60e51b815260206004820152601060248201526f20b63932b0b23c9030b71030b236b4b760811b6044820152606490fd5b60405162461bcd60e51b815260206004820152600f60248201526e496e76616c6964206164647265737360881b6044820152606490fd5b346101d5575f3660031901126101d5576002546001811115610e30575f1981019080821161071657610d0e82611d5c565b91610d1c6040519384611acf565b808352610d2b601f1991611d5c565b013660208401375f9060015b818110610dcd5750508015610d8857602091610d7f91604051848101904282524460408201523360601b606082015260548152610d75607482611acf565b5190200690611d74565b51604051908152f35b60405162461bcd60e51b815260206004820152601960248201527f4e6f206163746976652067616d657320617661696c61626c65000000000000006044820152606490fd5b805f52600360205260ff600860405f2001541680610e13575b610df3575b600101610d37565b91610e0b8184610e0560019488611d74565b52611d4e565b929050610deb565b50805f52600360205260ff600860405f20015460081c1615610de6565b60405162461bcd60e51b815260206004820152600e60248201526d139bc819d85b595cc8195e1a5cdd60921b6044820152606490fd5b60a03660031901126101d55760043567ffffffffffffffff81116101d557610e92903690600401611c33565b60243567ffffffffffffffff81116101d557610eb2903690600401611c33565b60443567ffffffffffffffff81116101d557610ed2903690600401611c33565b916064359260843590335f52600660205260ff60405f2054168015611380575b610efb90611ccb565b841561133c578134106112ed5760025493610f1585611d4e565b600255845f52600360205260405f2093858555600185019080519067ffffffffffffffff821161036c578190610f4b8454611a97565b601f811161129d575b50602090601f831160011461123a575f9261122f575b50508160011b915f199060031b1c19161790555b8051600285019167ffffffffffffffff821161036c578190610fa08454611a97565b601f81116111df575b50602090601f831160011461117c575f92611171575b50508160011b915f199060031b1c19161790555b8051600384019167ffffffffffffffff821161036c57610ff38354611a97565b601f811161112c575b509160209693918695938890601f831160011461109f5792828a96937fa26856d25e558c79e1632806bc6824075cf59885a115825f2aab62385a3f71429896936008965f92611094575b50508160011b915f199060031b1c19161790555b600482018490556006820181905560058201554260078201550180546001600160b01b0319166001179055604051908152a2604051908152f35b015190508c80611046565b90601f19831691845f52815f20925f5b8181106111125750937fa26856d25e558c79e1632806bc6824075cf59885a115825f2aab62385a3f714298969360089693600193838f9b98106110fa575b505050811b01905561105a565b01515f1960f88460031b161c191690558c80806110ed565b8284015185558b9a50600190940193928c01928c016110af565b835f5260205f20601f840160051c81019160208510611167575b601f0160051c01905b81811061115c5750610ffc565b5f815560010161114f565b9091508190611146565b015190508880610fbf565b5f8581528281209350601f198516905b8181106111c757509084600195949392106111af575b505050811b019055610fd3565b01515f1960f88460031b161c191690558880806111a2565b9293602060018192878601518155019501930161118c565b909150835f5260205f20601f840160051c81019160208510611225575b90601f859493920160051c01905b8181106112175750610fa9565b5f815584935060010161120a565b90915081906111fc565b015190508980610f6a565b5f8581528281209350601f198516905b818110611285575090846001959493921061126d575b505050811b019055610f7e565b01515f1960f88460031b161c19169055898080611260565b9293602060018192878601518155019501930161124a565b909150835f5260205f20601f840160051c810191602085106112e3575b90601f859493920160051c01905b8181106112d55750610f54565b5f81558493506001016112c8565b90915081906112ba565b60405162461bcd60e51b815260206004820152602160248201527f496e73756666696369656e742066756e647320666f72207072697a6520706f6f6044820152601b60fa1b6064820152608490fd5b606460405162461bcd60e51b815260206004820152602060248201527f456e74727920666565206d7573742062652067726561746572207468616e20306044820152fd5b506001546001600160a01b03163314610ef2565b346101d5575f3660031901126101d557602060405160058152f35b346101d55760203660031901126101d5576004358015158061144d575b6113d590611c89565b5f52600360205260405f208054906101c6600482015492600583015490600684015490600785015460088601549261140f60018801611af1565b94611428600361142160028b01611af1565b9901611af1565b98604051998a9960018060a01b038860101c169860ff808a60081c169916978c611bb5565b5060025481106113cc565b346101d55760203660031901126101d5576001600160a01b03611479611a2a565b165f526006602052602060ff60405f2054166040519015158152f35b346101d5575f3660031901126101d5576114ad611d95565b5f80808060018060a01b036001541647908282156114ce575bf1156106c957005b506108fc6114c6565b346101d55760203660031901126101d55760206114f2611a2a565b6001546040516001600160a01b0392831691909216148152f35b346101d55760203660031901126101d55760206001600160a01b0361152f611a2a565b16805f526006825260ff60405f205416908115611552575b506040519015158152f35b6001546001600160a01b031614905082611547565b346101d55760203660031901126101d557600435335f52600660205260ff60405f2054168015611626575b61159b90611ccb565b805f526003602052600560405f206008810161010081546115be60ff8216611d0d565b61ffff191617905501805480158015611601575b837fa72860103f540f00e7d5c44ff9ea4cdb6cf0361b63e542d7a657c4c1154100de60208554604051908152a2005b5f8080938193829061161d575b3390f1156106c95782806115d2565b506108fc61160e565b506001546001600160a01b03163314611592565b346101d55760203660031901126101d557611653611a2a565b61165b611d95565b6001600160a01b03165f8181526006602052604090205460ff16156117b3576001546001600160a01b03168114611778575f818152600660205260408120805460ff191690555b600754908181101561177157826116b882611a56565b905460039190911b1c6001600160a01b0316146116d95760019150016116a2565b5f19820191821161071657610c246116f361170b93611a56565b905460039190911b1c6001600160a01b031691611a56565b600754801561175d575f190161172081611a56565b81549060018060a01b039060031b1b191690556007555b7fa3b62bc36326052d97ea62d63c3d60308ed4c3ea8ac079dd8499f1e9c4f80c0f5f80a2005b634e487b7160e01b5f52603160045260245ffd5b5050611737565b60405162461bcd60e51b815260206004820152601360248201527221b0b73737ba103932b6b7bb329037bbb732b960691b6044820152606490fd5b60405162461bcd60e51b815260206004820152600c60248201526b2737ba1030b71030b236b4b760a11b6044820152606490fd5b346101d55760203660031901126101d5576001600160a01b03611808611a2a565b165f52600560205260405f20604051806020835491828152019081935f5260205f20905f5b8181106118855750505081611843910382611acf565b604051918291602083019060208452518091526040830191905f5b81811061186c575050500390f35b825184528594506020938401939092019160010161185e565b825484526020909301926001928301920161182d565b346101d55760203660031901126101d5576004355f52600360205260405f208054906101c66118cc60018301611af1565b6118d860028401611af1565b926118e560038201611af1565b9460048201549160058101546006820154906008600784015493015494604051998a9960018060a01b038860101c169860ff808a60081c169916978c611bb5565b346101d55760203660031901126101d5576004356007548110156101d55761194f602091611a56565b905460405160039290921b1c6001600160a01b03168152f35b346101d55760403660031901126101d557600435611984611a40565b90801515806119c7575b61199790611c89565b5f526003602052600960405f20019060018060a01b03165f52602052602060ff60405f2054166040519015158152f35b50600254811061198e565b346101d55760403660031901126101d5576119eb611a2a565b6001600160a01b03165f908152600560205260409020805460243591908210156101d557602091611a1b91611a82565b90549060031b1c604051908152f35b600435906001600160a01b03821682036101d557565b602435906001600160a01b03821682036101d557565b600754811015611a6e5760075f5260205f2001905f90565b634e487b7160e01b5f52603260045260245ffd5b8054821015611a6e575f5260205f2001905f90565b90600182811c92168015611ac5575b6020831014611ab157565b634e487b7160e01b5f52602260045260245ffd5b91607f1691611aa6565b90601f8019910116810190811067ffffffffffffffff82111761036c57604052565b9060405191825f825492611b0484611a97565b8084529360018116908115611b6f5750600114611b2b575b50611b2992500383611acf565b565b90505f9291925260205f20905f915b818310611b53575050906020611b29928201015f611b1c565b6020919350806001915483858901015201910190918492611b3a565b905060209250611b2994915060ff191682840152151560051b8201015f611b1c565b805180835260209291819084018484015e5f828201840152601f01601f1916010190565b99969390610140999693611be2611bfe94979e9d9a976101608e611bf09581528160208201520190611b91565b8c810360408e015290611b91565b908a820360608c0152611b91565b608089019a909a5260a088015260c087015260e0860152151561010085015215156101208401526001600160a01b0316910152565b81601f820112156101d55780359067ffffffffffffffff821161036c5760405192611c68601f8401601f191660200185611acf565b828452602083830101116101d557815f926020809301838601378301015290565b15611c9057565b60405162461bcd60e51b815260206004820152601360248201527211d85b5948191bd95cc81b9bdd08195e1a5cdd606a1b6044820152606490fd5b15611cd257565b60405162461bcd60e51b815260206004820152601360248201527227b7363c9030b236b4b71037b91037bbb732b960691b6044820152606490fd5b15611d1457565b60405162461bcd60e51b815260206004820152601260248201527147616d65206973206e6f742061637469766560701b6044820152606490fd5b5f1981146107165760010190565b67ffffffffffffffff811161036c5760051b60200190565b8051821015611a6e5760209160051b010190565b9190820180921161071657565b6001546001600160a01b03163303611da957565b63118cdaa760e01b5f523360045260245ffdfea2646970667358221220d4e10e7e0388adfe9ea472a36ebf86f751fa9c44add8a86177e93f7059136f2964736f6c634300081c0033","opcodes":"PUSH1 0x80 PUSH1 0x40 MSTORE CALLVALUE PUSH2 0x25F JUMPI PUSH2 0x20A3 DUP1 CODESIZE SUB DUP1 PUSH2 0x19 DUP2 PUSH2 0x263 JUMP JUMPDEST SWAP3 DUP4 CODECOPY DUP2 ADD SWAP1 PUSH1 0x40 DUP2 DUP4 SUB SLT PUSH2 0x25F JUMPI PUSH2 0x32 DUP2 PUSH2 0x288 JUMP JUMPDEST PUSH1 0x20 DUP3 ADD MLOAD SWAP1 SWAP2 PUSH1 0x1 PUSH1 0x1 PUSH1 0x40 SHL SUB DUP3 GT PUSH2 0x25F JUMPI ADD SWAP2 DUP1 PUSH1 0x1F DUP5 ADD SLT ISZERO PUSH2 0x25F JUMPI DUP3 MLOAD SWAP3 PUSH1 0x1 PUSH1 0x1 PUSH1 0x40 SHL SUB DUP5 GT PUSH2 0x211 JUMPI DUP4 PUSH1 0x5 SHL SWAP1 PUSH1 0x20 DUP1 PUSH2 0x78 DUP2 DUP6 ADD PUSH2 0x263 JUMP JUMPDEST DUP1 SWAP8 DUP2 MSTORE ADD SWAP3 DUP3 ADD ADD SWAP3 DUP4 GT PUSH2 0x25F JUMPI PUSH1 0x20 ADD SWAP1 JUMPDEST DUP3 DUP3 LT PUSH2 0x247 JUMPI POP POP PUSH1 0x1 PUSH0 SSTORE POP PUSH1 0x1 PUSH1 0x1 PUSH1 0xA0 SHL SUB AND DUP1 ISZERO PUSH2 0x234 JUMPI PUSH1 0x1 DUP1 SLOAD PUSH1 0x1 PUSH1 0x1 PUSH1 0xA0 SHL SUB NOT DUP2 AND DUP4 OR SWAP1 SWAP2 SSTORE PUSH1 0x1 PUSH1 0x1 PUSH1 0xA0 SHL SUB AND PUSH32 0x8BE0079C531659141344CD1FD0A4F28419497F9722A3DAAFE3B4186F6B6457E0 PUSH0 DUP1 LOG3 PUSH1 0x1 PUSH1 0x2 SSTORE PUSH0 JUMPDEST DUP2 MLOAD DUP2 LT ISZERO PUSH2 0x225 JUMPI PUSH1 0x1 PUSH1 0x1 PUSH1 0xA0 SHL SUB PUSH2 0x10D DUP3 DUP5 PUSH2 0x29C JUMP JUMPDEST MLOAD AND PUSH2 0x11C JUMPI JUMPDEST PUSH1 0x1 ADD PUSH2 0xF2 JUMP JUMPDEST PUSH1 0x1 PUSH1 0x1 PUSH1 0xA0 SHL SUB PUSH2 0x12E DUP3 DUP5 PUSH2 0x29C JUMP JUMPDEST MLOAD AND PUSH0 SWAP1 DUP2 MSTORE PUSH1 0x6 PUSH1 0x20 MSTORE PUSH1 0x40 SWAP1 KECCAK256 DUP1 SLOAD PUSH1 0xFF NOT AND PUSH1 0x1 OR SWAP1 SSTORE PUSH1 0x1 PUSH1 0x1 PUSH1 0xA0 SHL SUB PUSH2 0x15A DUP3 DUP5 PUSH2 0x29C JUMP JUMPDEST MLOAD AND SWAP1 PUSH1 0x7 SLOAD SWAP2 PUSH9 0x10000000000000000 DUP4 LT ISZERO PUSH2 0x211 JUMPI PUSH1 0x1 DUP4 ADD DUP1 PUSH1 0x7 SSTORE DUP4 LT ISZERO PUSH2 0x1FD JUMPI PUSH1 0x7 PUSH0 MSTORE PUSH32 0xA66CC928B5EDB82AF9BD49922954155AB7B0942694BEA4CE44661D9A8736C688 SWAP1 SWAP3 ADD DUP1 SLOAD PUSH1 0x1 PUSH1 0x1 PUSH1 0xA0 SHL SUB NOT AND SWAP1 SWAP3 OR SWAP1 SWAP2 SSTORE PUSH1 0x1 SWAP1 PUSH1 0x1 PUSH1 0x1 PUSH1 0xA0 SHL SUB PUSH2 0x1D0 DUP3 DUP6 PUSH2 0x29C JUMP JUMPDEST MLOAD AND PUSH32 0x44D6D25963F097AD14F29F06854A01F575648A1EF82F30E562CCD3889717E339 PUSH0 DUP1 LOG2 SWAP1 POP PUSH2 0x114 JUMP JUMPDEST PUSH4 0x4E487B71 PUSH1 0xE0 SHL PUSH0 MSTORE PUSH1 0x32 PUSH1 0x4 MSTORE PUSH1 0x24 PUSH0 REVERT JUMPDEST PUSH4 0x4E487B71 PUSH1 0xE0 SHL PUSH0 MSTORE PUSH1 0x41 PUSH1 0x4 MSTORE PUSH1 0x24 PUSH0 REVERT JUMPDEST PUSH1 0x40 MLOAD PUSH2 0x1DF2 SWAP1 DUP2 PUSH2 0x2B1 DUP3 CODECOPY RETURN JUMPDEST PUSH4 0x1E4FBDF7 PUSH1 0xE0 SHL PUSH0 MSTORE PUSH0 PUSH1 0x4 MSTORE PUSH1 0x24 PUSH0 REVERT JUMPDEST PUSH1 0x20 DUP1 SWAP2 PUSH2 0x254 DUP5 PUSH2 0x288 JUMP JUMPDEST DUP2 MSTORE ADD SWAP2 ADD SWAP1 PUSH2 0x8D JUMP JUMPDEST PUSH0 DUP1 REVERT JUMPDEST PUSH1 0x40 MLOAD SWAP2 SWAP1 PUSH1 0x1F ADD PUSH1 0x1F NOT AND DUP3 ADD PUSH1 0x1 PUSH1 0x1 PUSH1 0x40 SHL SUB DUP2 GT DUP4 DUP3 LT OR PUSH2 0x211 JUMPI PUSH1 0x40 MSTORE JUMP JUMPDEST MLOAD SWAP1 PUSH1 0x1 PUSH1 0x1 PUSH1 0xA0 SHL SUB DUP3 AND DUP3 SUB PUSH2 0x25F JUMPI JUMP JUMPDEST DUP1 MLOAD DUP3 LT ISZERO PUSH2 0x1FD JUMPI PUSH1 0x20 SWAP2 PUSH1 0x5 SHL ADD ADD SWAP1 JUMP INVALID PUSH1 0x80 PUSH1 0x40 MSTORE PUSH1 0x4 CALLDATASIZE LT ISZERO PUSH2 0x11 JUMPI PUSH0 DUP1 REVERT JUMPDEST PUSH0 CALLDATALOAD PUSH1 0xE0 SHR DUP1 PUSH4 0xA5694C2 EQ PUSH2 0x19D2 JUMPI DUP1 PUSH4 0xD3B404F EQ PUSH2 0x1968 JUMPI DUP1 PUSH4 0x11117FC8 EQ PUSH2 0x1926 JUMPI DUP1 PUSH4 0x117A5B90 EQ PUSH2 0x189B JUMPI DUP1 PUSH4 0x129DAF84 EQ PUSH2 0x17E7 JUMPI DUP1 PUSH4 0x1785F53C EQ PUSH2 0x163A JUMPI DUP1 PUSH4 0x1B39C1F6 EQ PUSH2 0x1567 JUMPI DUP1 PUSH4 0x24D7806C EQ PUSH2 0x150C JUMPI DUP1 PUSH4 0x2F54BF6E EQ PUSH2 0x14D7 JUMPI DUP1 PUSH4 0x3CCFD60B EQ PUSH2 0x1495 JUMPI DUP1 PUSH4 0x429B62E5 EQ PUSH2 0x1458 JUMPI DUP1 PUSH4 0x47E1D550 EQ PUSH2 0x13AF JUMPI DUP1 PUSH4 0x4FD66EAE EQ PUSH2 0x99B JUMPI DUP1 PUSH4 0x560D52D4 EQ PUSH2 0x1394 JUMPI DUP1 PUSH4 0x6CC7D8F8 EQ PUSH2 0xE66 JUMPI DUP1 PUSH4 0x6CE5BA6F EQ PUSH2 0xCDD JUMPI DUP1 PUSH4 0x70480275 EQ PUSH2 0xBA4 JUMPI DUP1 PUSH4 0x715018A6 EQ PUSH2 0xB49 JUMPI DUP1 PUSH4 0x72AEB81F EQ PUSH2 0xAC8 JUMPI DUP1 PUSH4 0x8B7BF3EB EQ PUSH2 0xAAB JUMPI DUP1 PUSH4 0x8DA5CB5B EQ PUSH2 0xA83 JUMPI DUP1 PUSH4 0x9A53371E EQ PUSH2 0xA14 JUMPI DUP1 PUSH4 0xB135BBB0 EQ PUSH2 0x9F7 JUMPI DUP1 PUSH4 0xCDAFBBB6 EQ PUSH2 0x99B JUMPI DUP1 PUSH4 0xD9F774FC EQ PUSH2 0x8D3 JUMPI DUP1 PUSH4 0xDB249EC8 EQ PUSH2 0x40B JUMPI DUP1 PUSH4 0xEFAA55A0 EQ PUSH2 0x25F JUMPI DUP1 PUSH4 0xF2FDE38B EQ PUSH2 0x1D9 JUMPI PUSH4 0xF4DCDC8E EQ PUSH2 0x158 JUMPI PUSH0 DUP1 REVERT JUMPDEST CALLVALUE PUSH2 0x1D5 JUMPI PUSH1 0x40 CALLDATASIZE PUSH1 0x3 NOT ADD SLT PUSH2 0x1D5 JUMPI PUSH1 0x4 CALLDATALOAD PUSH2 0x174 PUSH2 0x1A40 JUMP JUMPDEST SWAP1 DUP1 ISZERO ISZERO DUP1 PUSH2 0x1CA JUMPI JUMPDEST PUSH2 0x187 SWAP1 PUSH2 0x1C89 JUMP JUMPDEST PUSH0 MSTORE PUSH1 0x3 PUSH1 0x20 MSTORE PUSH1 0xA PUSH1 0x40 PUSH0 KECCAK256 ADD SWAP1 PUSH1 0x1 DUP1 PUSH1 0xA0 SHL SUB AND PUSH0 MSTORE PUSH1 0x20 MSTORE PUSH2 0x1C6 PUSH2 0x1B2 PUSH1 0x40 PUSH0 KECCAK256 PUSH2 0x1AF1 JUMP JUMPDEST PUSH1 0x40 MLOAD SWAP2 DUP3 SWAP2 PUSH1 0x20 DUP4 MSTORE PUSH1 0x20 DUP4 ADD SWAP1 PUSH2 0x1B91 JUMP JUMPDEST SUB SWAP1 RETURN JUMPDEST POP PUSH1 0x2 SLOAD DUP2 LT PUSH2 0x17E JUMP JUMPDEST PUSH0 DUP1 REVERT JUMPDEST CALLVALUE PUSH2 0x1D5 JUMPI PUSH1 0x20 CALLDATASIZE PUSH1 0x3 NOT ADD SLT PUSH2 0x1D5 JUMPI PUSH2 0x1F2 PUSH2 0x1A2A JUMP JUMPDEST PUSH2 0x1FA PUSH2 0x1D95 JUMP JUMPDEST PUSH1 0x1 PUSH1 0x1 PUSH1 0xA0 SHL SUB AND DUP1 ISZERO PUSH2 0x24C JUMPI PUSH1 0x1 DUP1 SLOAD PUSH1 0x1 PUSH1 0x1 PUSH1 0xA0 SHL SUB NOT DUP2 AND DUP4 OR SWAP1 SWAP2 SSTORE PUSH1 0x1 PUSH1 0x1 PUSH1 0xA0 SHL SUB AND PUSH32 0x8BE0079C531659141344CD1FD0A4F28419497F9722A3DAAFE3B4186F6B6457E0 PUSH0 DUP1 LOG3 STOP JUMPDEST PUSH4 0x1E4FBDF7 PUSH1 0xE0 SHL PUSH0 MSTORE PUSH0 PUSH1 0x4 MSTORE PUSH1 0x24 PUSH0 REVERT JUMPDEST PUSH1 0x20 CALLDATASIZE PUSH1 0x3 NOT ADD SLT PUSH2 0x1D5 JUMPI PUSH1 0x4 CALLDATALOAD DUP1 ISZERO ISZERO DUP1 PUSH2 0x400 JUMPI JUMPDEST PUSH2 0x280 SWAP1 PUSH2 0x1C89 JUMP JUMPDEST DUP1 PUSH0 MSTORE PUSH1 0x3 PUSH1 0x20 MSTORE PUSH2 0x29B PUSH1 0xFF PUSH1 0x8 PUSH1 0x40 PUSH0 KECCAK256 ADD SLOAD AND PUSH2 0x1D0D JUMP JUMPDEST DUP1 PUSH0 MSTORE PUSH1 0x3 PUSH1 0x20 MSTORE PUSH1 0x40 PUSH0 KECCAK256 PUSH1 0x9 DUP2 ADD SWAP1 PUSH1 0x1 DUP1 PUSH1 0xA0 SHL SUB CALLER AND PUSH0 MSTORE DUP2 PUSH1 0x20 MSTORE PUSH1 0xFF PUSH1 0x40 PUSH0 KECCAK256 SLOAD AND PUSH2 0x3BB JUMPI PUSH1 0x4 DUP2 ADD SLOAD CALLVALUE SUB PUSH2 0x380 JUMPI PUSH1 0x5 SWAP2 PUSH1 0x1 DUP1 PUSH1 0xA0 SHL SUB CALLER AND PUSH0 MSTORE PUSH1 0x20 MSTORE PUSH1 0x40 PUSH0 KECCAK256 PUSH1 0x1 PUSH1 0xFF NOT DUP3 SLOAD AND OR SWAP1 SSTORE ADD PUSH2 0x2FE CALLVALUE DUP3 SLOAD PUSH2 0x1D88 JUMP JUMPDEST SWAP1 SSTORE CALLER PUSH0 MSTORE PUSH1 0x5 PUSH1 0x20 MSTORE PUSH1 0x40 PUSH0 KECCAK256 DUP1 SLOAD PUSH1 0x1 PUSH1 0x40 SHL DUP2 LT ISZERO PUSH2 0x36C JUMPI PUSH2 0x329 SWAP2 PUSH1 0x1 DUP3 ADD DUP2 SSTORE PUSH2 0x1A82 JUMP JUMPDEST DUP2 SLOAD SWAP1 PUSH1 0x3 SHL SWAP1 DUP4 DUP3 SHL SWAP2 PUSH0 NOT SWAP1 SHL NOT AND OR SWAP1 SSTORE PUSH1 0x40 MLOAD SWAP1 CALLVALUE DUP3 MSTORE PUSH32 0x3DFBE1FCB4E2D61F3B4A0C93D8F814C92250618B3387F396CC9FC9FAFE2C203 PUSH1 0x20 CALLER SWAP4 LOG3 STOP JUMPDEST PUSH4 0x4E487B71 PUSH1 0xE0 SHL PUSH0 MSTORE PUSH1 0x41 PUSH1 0x4 MSTORE PUSH1 0x24 PUSH0 REVERT JUMPDEST PUSH1 0x40 MLOAD PUSH3 0x461BCD PUSH1 0xE5 SHL DUP2 MSTORE PUSH1 0x20 PUSH1 0x4 DUP3 ADD MSTORE PUSH1 0x13 PUSH1 0x24 DUP3 ADD MSTORE PUSH19 0x496E636F727265637420656E74727920666565 PUSH1 0x68 SHL PUSH1 0x44 DUP3 ADD MSTORE PUSH1 0x64 SWAP1 REVERT JUMPDEST PUSH1 0x40 MLOAD PUSH3 0x461BCD PUSH1 0xE5 SHL DUP2 MSTORE PUSH1 0x20 PUSH1 0x4 DUP3 ADD MSTORE PUSH1 0x1F PUSH1 0x24 DUP3 ADD MSTORE PUSH32 0x506C6179657220616C7265616479206A6F696E656420746869732067616D6500 PUSH1 0x44 DUP3 ADD MSTORE PUSH1 0x64 SWAP1 REVERT JUMPDEST POP PUSH1 0x2 SLOAD DUP2 LT PUSH2 0x277 JUMP JUMPDEST CALLVALUE PUSH2 0x1D5 JUMPI PUSH1 0x40 CALLDATASIZE PUSH1 0x3 NOT ADD SLT PUSH2 0x1D5 JUMPI PUSH1 0x4 CALLDATALOAD PUSH1 0x24 CALLDATALOAD PUSH8 0xFFFFFFFFFFFFFFFF DUP2 GT PUSH2 0x1D5 JUMPI PUSH2 0x43F SWAP1 CALLDATASIZE SWAP1 PUSH1 0x4 ADD PUSH2 0x1C33 JUMP JUMPDEST SWAP1 DUP1 ISZERO ISZERO DUP1 PUSH2 0x8C8 JUMPI JUMPDEST PUSH2 0x452 SWAP1 PUSH2 0x1C89 JUMP JUMPDEST DUP1 PUSH0 MSTORE PUSH1 0x3 PUSH1 0x20 MSTORE PUSH2 0x46D PUSH1 0xFF PUSH1 0x8 PUSH1 0x40 PUSH0 KECCAK256 ADD SLOAD AND PUSH2 0x1D0D JUMP JUMPDEST PUSH0 DUP2 DUP2 MSTORE PUSH1 0x3 PUSH1 0x20 SWAP1 DUP2 MSTORE PUSH1 0x40 DUP1 DUP4 KECCAK256 CALLER DUP5 MSTORE PUSH1 0x9 DUP2 ADD SWAP1 SWAP3 MSTORE SWAP1 SWAP2 KECCAK256 SLOAD PUSH1 0xFF AND ISZERO PUSH2 0x883 JUMPI CALLER PUSH0 SWAP1 DUP2 MSTORE PUSH1 0xA DUP3 ADD PUSH1 0x20 DUP2 SWAP1 MSTORE PUSH1 0x40 SWAP1 SWAP2 KECCAK256 SLOAD PUSH2 0x4B0 SWAP1 PUSH2 0x1A97 JUMP JUMPDEST PUSH2 0x83E JUMPI CALLER PUSH0 SWAP1 DUP2 MSTORE PUSH1 0x20 SWAP2 SWAP1 SWAP2 MSTORE PUSH1 0x40 SWAP1 KECCAK256 DUP4 MLOAD PUSH8 0xFFFFFFFFFFFFFFFF DUP2 GT PUSH2 0x36C JUMPI PUSH2 0x4DE DUP3 SLOAD PUSH2 0x1A97 JUMP JUMPDEST PUSH1 0x1F DUP2 GT PUSH2 0x7F9 JUMPI JUMPDEST POP DUP1 PUSH1 0x20 PUSH1 0x1F DUP3 GT PUSH1 0x1 EQ PUSH2 0x798 JUMPI PUSH0 SWAP2 PUSH2 0x78D JUMPI JUMPDEST POP DUP2 PUSH1 0x1 SHL SWAP2 PUSH0 NOT SWAP1 PUSH1 0x3 SHL SHR NOT AND OR SWAP1 SSTORE JUMPDEST PUSH1 0x2 DUP4 MLOAD PUSH1 0x20 DUP6 ADD KECCAK256 SWAP2 ADD PUSH1 0x40 MLOAD PUSH0 SWAP2 DUP2 DUP2 SLOAD SWAP4 PUSH2 0x52D DUP6 PUSH2 0x1A97 JUMP JUMPDEST SWAP3 DUP4 DUP4 MSTORE PUSH1 0x20 DUP4 ADD SWAP6 PUSH1 0x1 DUP2 AND SWAP1 DUP2 PUSH0 EQ PUSH2 0x76E JUMPI POP PUSH1 0x1 EQ PUSH2 0x72A JUMPI JUMPDEST POP PUSH2 0x558 SWAP3 POP SUB DUP3 PUSH2 0x1ACF JUMP JUMPDEST MLOAD SWAP1 KECCAK256 EQ PUSH2 0x59E JUMPI JUMPDEST PUSH32 0x17A40E01BF0138D07F888B59D3DF945EE0F73445EBBDE5213180AD0CB1B8B383 PUSH1 0x40 MLOAD PUSH1 0x20 DUP2 MSTORE DUP1 PUSH2 0x599 CALLER SWAP6 PUSH1 0x20 DUP4 ADD SWAP1 PUSH2 0x1B91 JUMP JUMPDEST SUB SWAP1 LOG3 STOP JUMPDEST PUSH0 DUP2 DUP2 MSTORE PUSH1 0x3 PUSH1 0x20 MSTORE PUSH1 0x40 SWAP1 KECCAK256 PUSH1 0x8 DUP2 ADD DUP1 SLOAD PUSH1 0x1 PUSH1 0x1 PUSH1 0xB0 SHL SUB NOT AND CALLER PUSH1 0x10 SHL PUSH3 0x10000 PUSH1 0x1 PUSH1 0xB0 SHL SUB AND OR PUSH2 0x100 OR SWAP1 SSTORE PUSH1 0x5 SWAP1 DUP2 ADD SLOAD SWAP1 DUP2 DUP2 MUL SWAP1 DUP3 ISZERO DUP4 DUP4 DIV SWAP1 SWAP2 EQ OR ISZERO PUSH2 0x716 JUMPI PUSH1 0x64 SWAP1 DIV DUP1 DUP3 SUB SWAP2 DUP1 DUP4 GT PUSH2 0x716 JUMPI CALLER PUSH0 MSTORE PUSH1 0x4 PUSH1 0x20 MSTORE PUSH1 0x40 PUSH0 KECCAK256 SWAP1 PUSH2 0x610 DUP3 SLOAD PUSH2 0x1D4E JUMP JUMPDEST SWAP1 DUP2 DUP4 SSTORE PUSH1 0x1 DUP4 ADD SWAP3 PUSH2 0x623 DUP5 SLOAD PUSH2 0x1D4E JUMP JUMPDEST DUP1 SWAP5 SSTORE PUSH1 0x2 DUP2 ADD PUSH2 0x635 DUP8 DUP3 SLOAD PUSH2 0x1D88 JUMP JUMPDEST SWAP1 SSTORE PUSH2 0x2710 DUP5 MUL SWAP4 DUP1 DUP6 DIV PUSH2 0x2710 EQ SWAP1 ISZERO OR ISZERO PUSH2 0x716 JUMPI DUP3 ISZERO PUSH2 0x702 JUMPI PUSH1 0x3 DUP6 SWAP4 DUP8 SWAP6 DIV SWAP2 ADD SSTORE EQ DUP1 ISZERO PUSH2 0x6DD JUMPI JUMPDEST POP POP DUP1 ISZERO DUP1 ISZERO PUSH2 0x6A3 JUMPI JUMPDEST POP POP PUSH1 0x40 MLOAD SWAP1 DUP2 MSTORE DUP2 PUSH32 0x9E59E9B0EC1755CCAF2FD4A7ED4AD5B0A678626E91834AEE53EBDF1356BD390A PUSH1 0x20 CALLER SWAP4 LOG3 PUSH2 0x561 JUMP JUMPDEST PUSH0 DUP1 DUP1 SWAP4 DUP2 SWAP4 PUSH1 0x1 DUP1 PUSH1 0xA0 SHL SUB PUSH1 0x1 SLOAD AND SWAP1 DUP4 SWAP1 PUSH2 0x6D4 JUMPI JUMPDEST CALL ISZERO PUSH2 0x6C9 JUMPI DUP4 DUP1 PUSH2 0x66F JUMP JUMPDEST PUSH1 0x40 MLOAD RETURNDATASIZE PUSH0 DUP3 RETURNDATACOPY RETURNDATASIZE SWAP1 REVERT JUMPDEST POP PUSH2 0x8FC PUSH2 0x6BC JUMP JUMPDEST PUSH0 SWAP1 PUSH2 0x6F9 JUMPI JUMPDEST PUSH0 DUP1 DUP1 SWAP4 DUP2 SWAP4 CALLER SWAP1 CALL ISZERO PUSH2 0x6C9 JUMPI DUP2 DUP6 PUSH2 0x664 JUMP JUMPDEST POP PUSH2 0x8FC PUSH2 0x6E4 JUMP JUMPDEST PUSH4 0x4E487B71 PUSH1 0xE0 SHL PUSH0 MSTORE PUSH1 0x12 PUSH1 0x4 MSTORE PUSH1 0x24 PUSH0 REVERT JUMPDEST PUSH4 0x4E487B71 PUSH1 0xE0 SHL PUSH0 MSTORE PUSH1 0x11 PUSH1 0x4 MSTORE PUSH1 0x24 PUSH0 REVERT JUMPDEST SWAP1 POP PUSH0 SWAP3 SWAP2 SWAP3 MSTORE PUSH1 0x20 PUSH0 KECCAK256 SWAP1 PUSH0 SWAP2 JUMPDEST DUP2 DUP4 LT PUSH2 0x752 JUMPI POP POP SWAP1 PUSH1 0x20 PUSH2 0x558 SWAP3 DUP3 ADD ADD DUP9 PUSH2 0x54B JUMP JUMPDEST PUSH1 0x20 SWAP2 SWAP4 POP DUP1 PUSH1 0x1 SWAP2 SLOAD DUP4 DUP6 DUP9 ADD ADD MSTORE ADD SWAP2 ADD SWAP1 SWAP2 DUP4 SWAP3 PUSH2 0x739 JUMP JUMPDEST PUSH1 0xFF NOT AND DUP8 MSTORE POP PUSH2 0x558 SWAP4 ISZERO ISZERO PUSH1 0x5 SHL DUP4 ADD PUSH1 0x20 ADD SWAP2 POP DUP10 SWAP1 POP PUSH2 0x54B JUMP JUMPDEST SWAP1 POP DUP6 ADD MLOAD DUP7 PUSH2 0x4FD JUMP JUMPDEST PUSH0 DUP5 DUP2 MSTORE DUP2 DUP2 KECCAK256 SWAP3 POP PUSH1 0x1F NOT DUP5 AND SWAP1 JUMPDEST DUP2 DUP2 LT PUSH2 0x7E1 JUMPI POP SWAP1 DUP4 PUSH1 0x1 SWAP5 SWAP4 SWAP3 LT PUSH2 0x7C9 JUMPI JUMPDEST POP POP DUP2 SHL ADD SWAP1 SSTORE PUSH2 0x510 JUMP JUMPDEST DUP8 ADD MLOAD PUSH0 NOT PUSH1 0xF8 DUP5 PUSH1 0x3 SHL AND SHR NOT AND SWAP1 SSTORE DUP7 DUP1 PUSH2 0x7BD JUMP JUMPDEST SWAP2 SWAP3 PUSH1 0x20 PUSH1 0x1 DUP2 SWAP3 DUP7 DUP13 ADD MLOAD DUP2 SSTORE ADD SWAP5 ADD SWAP3 ADD PUSH2 0x7A8 JUMP JUMPDEST DUP3 PUSH0 MSTORE PUSH1 0x20 PUSH0 KECCAK256 PUSH1 0x1F DUP4 ADD PUSH1 0x5 SHR DUP2 ADD SWAP2 PUSH1 0x20 DUP5 LT PUSH2 0x834 JUMPI JUMPDEST PUSH1 0x1F ADD PUSH1 0x5 SHR ADD SWAP1 JUMPDEST DUP2 DUP2 LT PUSH2 0x829 JUMPI POP PUSH2 0x4E7 JUMP JUMPDEST PUSH0 DUP2 SSTORE PUSH1 0x1 ADD PUSH2 0x81C JUMP JUMPDEST SWAP1 SWAP2 POP DUP2 SWAP1 PUSH2 0x813 JUMP JUMPDEST PUSH1 0x40 MLOAD PUSH3 0x461BCD PUSH1 0xE5 SHL DUP2 MSTORE PUSH1 0x20 PUSH1 0x4 DUP3 ADD MSTORE PUSH1 0x17 PUSH1 0x24 DUP3 ADD MSTORE PUSH32 0x416C7265616479207375626D6974746564206775657373000000000000000000 PUSH1 0x44 DUP3 ADD MSTORE PUSH1 0x64 SWAP1 REVERT JUMPDEST PUSH1 0x40 MLOAD PUSH3 0x461BCD PUSH1 0xE5 SHL DUP2 MSTORE PUSH1 0x20 PUSH1 0x4 DUP3 ADD MSTORE PUSH1 0x17 PUSH1 0x24 DUP3 ADD MSTORE PUSH32 0x506C61796572206E6F7420696E20746869732067616D65000000000000000000 PUSH1 0x44 DUP3 ADD MSTORE PUSH1 0x64 SWAP1 REVERT JUMPDEST POP PUSH1 0x2 SLOAD DUP2 LT PUSH2 0x449 JUMP JUMPDEST CALLVALUE PUSH2 0x1D5 JUMPI PUSH0 CALLDATASIZE PUSH1 0x3 NOT ADD SLT PUSH2 0x1D5 JUMPI PUSH1 0x40 MLOAD DUP1 PUSH1 0x20 PUSH1 0x7 SLOAD SWAP3 DUP4 DUP2 MSTORE ADD DUP1 SWAP3 PUSH1 0x7 PUSH0 MSTORE PUSH32 0xA66CC928B5EDB82AF9BD49922954155AB7B0942694BEA4CE44661D9A8736C688 SWAP1 PUSH0 JUMPDEST DUP2 DUP2 LT PUSH2 0x97C JUMPI POP POP POP DUP2 PUSH2 0x931 SWAP2 SUB DUP3 PUSH2 0x1ACF JUMP JUMPDEST PUSH1 0x40 MLOAD SWAP2 DUP3 SWAP2 PUSH1 0x20 DUP4 ADD SWAP1 PUSH1 0x20 DUP5 MSTORE MLOAD DUP1 SWAP2 MSTORE PUSH1 0x40 DUP4 ADD SWAP2 SWAP1 PUSH0 JUMPDEST DUP2 DUP2 LT PUSH2 0x95A JUMPI POP POP POP SUB SWAP1 RETURN JUMPDEST DUP3 MLOAD PUSH1 0x1 PUSH1 0x1 PUSH1 0xA0 SHL SUB AND DUP5 MSTORE DUP6 SWAP5 POP PUSH1 0x20 SWAP4 DUP5 ADD SWAP4 SWAP1 SWAP3 ADD SWAP2 PUSH1 0x1 ADD PUSH2 0x94C JUMP JUMPDEST DUP3 SLOAD PUSH1 0x1 PUSH1 0x1 PUSH1 0xA0 SHL SUB AND DUP5 MSTORE PUSH1 0x20 SWAP1 SWAP4 ADD SWAP3 PUSH1 0x1 SWAP3 DUP4 ADD SWAP3 ADD PUSH2 0x91B JUMP JUMPDEST CALLVALUE PUSH2 0x1D5 JUMPI PUSH1 0x20 CALLDATASIZE PUSH1 0x3 NOT ADD SLT PUSH2 0x1D5 JUMPI PUSH1 0x1 PUSH1 0x1 PUSH1 0xA0 SHL SUB PUSH2 0x9BC PUSH2 0x1A2A JUMP JUMPDEST AND PUSH0 SWAP1 DUP2 MSTORE PUSH1 0x4 PUSH1 0x20 SWAP1 DUP2 MSTORE PUSH1 0x40 SWAP2 DUP3 SWAP1 KECCAK256 DUP1 SLOAD PUSH1 0x1 DUP3 ADD SLOAD PUSH1 0x2 DUP4 ADD SLOAD PUSH1 0x3 SWAP1 SWAP4 ADD SLOAD DUP6 MLOAD SWAP3 DUP4 MSTORE SWAP4 DUP3 ADD MSTORE SWAP3 DUP4 ADD MSTORE PUSH1 0x60 DUP3 ADD MSTORE PUSH1 0x80 SWAP1 RETURN JUMPDEST CALLVALUE PUSH2 0x1D5 JUMPI PUSH0 CALLDATASIZE PUSH1 0x3 NOT ADD SLT PUSH2 0x1D5 JUMPI PUSH1 0x20 PUSH1 0x2 SLOAD PUSH1 0x40 MLOAD SWAP1 DUP2 MSTORE RETURN JUMPDEST CALLVALUE PUSH2 0x1D5 JUMPI PUSH1 0x40 CALLDATASIZE PUSH1 0x3 NOT ADD SLT PUSH2 0x1D5 JUMPI PUSH1 0x4 CALLDATALOAD PUSH2 0xA30 PUSH2 0x1A40 JUMP JUMPDEST SWAP1 DUP1 ISZERO ISZERO DUP1 PUSH2 0xA78 JUMPI JUMPDEST PUSH2 0xA43 SWAP1 PUSH2 0x1C89 JUMP JUMPDEST PUSH0 MSTORE PUSH1 0x3 PUSH1 0x20 MSTORE PUSH1 0xA PUSH1 0x40 PUSH0 KECCAK256 ADD SWAP1 PUSH1 0x1 DUP1 PUSH1 0xA0 SHL SUB AND PUSH0 MSTORE PUSH1 0x20 MSTORE PUSH1 0x20 PUSH2 0xA6E PUSH1 0x40 PUSH0 KECCAK256 SLOAD PUSH2 0x1A97 JUMP JUMPDEST ISZERO ISZERO PUSH1 0x40 MLOAD SWAP1 DUP2 MSTORE RETURN JUMPDEST POP PUSH1 0x2 SLOAD DUP2 LT PUSH2 0xA3A JUMP JUMPDEST CALLVALUE PUSH2 0x1D5 JUMPI PUSH0 CALLDATASIZE PUSH1 0x3 NOT ADD SLT PUSH2 0x1D5 JUMPI PUSH1 0x1 SLOAD PUSH1 0x40 MLOAD PUSH1 0x1 PUSH1 0x1 PUSH1 0xA0 SHL SUB SWAP1 SWAP2 AND DUP2 MSTORE PUSH1 0x20 SWAP1 RETURN JUMPDEST CALLVALUE PUSH2 0x1D5 JUMPI PUSH0 CALLDATASIZE PUSH1 0x3 NOT ADD SLT PUSH2 0x1D5 JUMPI PUSH1 0x20 PUSH1 0x7 SLOAD PUSH1 0x40 MLOAD SWAP1 DUP2 MSTORE RETURN JUMPDEST CALLVALUE PUSH2 0x1D5 JUMPI PUSH0 CALLDATASIZE PUSH1 0x3 NOT ADD SLT PUSH2 0x1D5 JUMPI PUSH0 PUSH1 0x1 PUSH1 0x2 SLOAD SWAP1 JUMPDEST DUP2 DUP2 LT PUSH2 0xAF2 JUMPI PUSH1 0x20 DUP4 PUSH1 0x40 MLOAD SWAP1 DUP2 MSTORE RETURN JUMPDEST DUP1 PUSH0 MSTORE PUSH1 0x3 PUSH1 0x20 MSTORE PUSH1 0xFF PUSH1 0x8 PUSH1 0x40 PUSH0 KECCAK256 ADD SLOAD AND DUP1 PUSH2 0xB2C JUMPI JUMPDEST PUSH2 0xB18 JUMPI JUMPDEST PUSH1 0x1 ADD PUSH2 0xAE0 JUMP JUMPDEST SWAP2 PUSH2 0xB24 PUSH1 0x1 SWAP2 PUSH2 0x1D4E JUMP JUMPDEST SWAP3 SWAP1 POP PUSH2 0xB10 JUMP JUMPDEST POP DUP1 PUSH0 MSTORE PUSH1 0x3 PUSH1 0x20 MSTORE PUSH1 0xFF PUSH1 0x8 PUSH1 0x40 PUSH0 KECCAK256 ADD SLOAD PUSH1 0x8 SHR AND ISZERO PUSH2 0xB0B JUMP JUMPDEST CALLVALUE PUSH2 0x1D5 JUMPI PUSH0 CALLDATASIZE PUSH1 0x3 NOT ADD SLT PUSH2 0x1D5 JUMPI PUSH2 0xB61 PUSH2 0x1D95 JUMP JUMPDEST PUSH1 0x1 DUP1 SLOAD PUSH1 0x1 PUSH1 0x1 PUSH1 0xA0 SHL SUB NOT DUP2 AND SWAP1 SWAP2 SSTORE PUSH0 SWAP1 PUSH1 0x1 PUSH1 0x1 PUSH1 0xA0 SHL SUB AND PUSH32 0x8BE0079C531659141344CD1FD0A4F28419497F9722A3DAAFE3B4186F6B6457E0 DUP3 DUP1 LOG3 STOP JUMPDEST CALLVALUE PUSH2 0x1D5 JUMPI PUSH1 0x20 CALLDATASIZE PUSH1 0x3 NOT ADD SLT PUSH2 0x1D5 JUMPI PUSH2 0xBBD PUSH2 0x1A2A JUMP JUMPDEST PUSH2 0xBC5 PUSH2 0x1D95 JUMP JUMPDEST PUSH1 0x1 PUSH1 0x1 PUSH1 0xA0 SHL SUB DUP2 AND SWAP1 DUP2 ISZERO PUSH2 0xCA6 JUMPI DUP2 PUSH0 MSTORE PUSH1 0x6 PUSH1 0x20 MSTORE PUSH1 0xFF PUSH1 0x40 PUSH0 KECCAK256 SLOAD AND PUSH2 0xC6E JUMPI DUP2 PUSH0 MSTORE PUSH1 0x6 PUSH1 0x20 MSTORE PUSH1 0x40 PUSH0 KECCAK256 PUSH1 0x1 PUSH1 0xFF NOT DUP3 SLOAD AND OR SWAP1 SSTORE PUSH1 0x7 SLOAD SWAP1 PUSH1 0x1 PUSH1 0x40 SHL DUP3 LT ISZERO PUSH2 0x36C JUMPI PUSH2 0xC24 DUP3 PUSH1 0x1 PUSH2 0xC48 SWAP5 ADD PUSH1 0x7 SSTORE PUSH2 0x1A56 JUMP JUMPDEST DUP2 SLOAD PUSH1 0x1 PUSH1 0x1 PUSH1 0xA0 SHL SUB SWAP4 DUP5 AND PUSH1 0x3 SWAP3 SWAP1 SWAP3 SHL SWAP2 DUP3 SHL SWAP4 SWAP1 SWAP2 SHL NOT AND SWAP2 SWAP1 SWAP2 OR SWAP1 SSTORE JUMP JUMPDEST PUSH32 0x44D6D25963F097AD14F29F06854A01F575648A1EF82F30E562CCD3889717E339 PUSH0 DUP1 LOG2 STOP JUMPDEST PUSH1 0x40 MLOAD PUSH3 0x461BCD PUSH1 0xE5 SHL DUP2 MSTORE PUSH1 0x20 PUSH1 0x4 DUP3 ADD MSTORE PUSH1 0x10 PUSH1 0x24 DUP3 ADD MSTORE PUSH16 0x20B63932B0B23C9030B71030B236B4B7 PUSH1 0x81 SHL PUSH1 0x44 DUP3 ADD MSTORE PUSH1 0x64 SWAP1 REVERT JUMPDEST PUSH1 0x40 MLOAD PUSH3 0x461BCD PUSH1 0xE5 SHL DUP2 MSTORE PUSH1 0x20 PUSH1 0x4 DUP3 ADD MSTORE PUSH1 0xF PUSH1 0x24 DUP3 ADD MSTORE PUSH15 0x496E76616C69642061646472657373 PUSH1 0x88 SHL PUSH1 0x44 DUP3 ADD MSTORE PUSH1 0x64 SWAP1 REVERT JUMPDEST CALLVALUE PUSH2 0x1D5 JUMPI PUSH0 CALLDATASIZE PUSH1 0x3 NOT ADD SLT PUSH2 0x1D5 JUMPI PUSH1 0x2 SLOAD PUSH1 0x1 DUP2 GT ISZERO PUSH2 0xE30 JUMPI PUSH0 NOT DUP2 ADD SWAP1 DUP1 DUP3 GT PUSH2 0x716 JUMPI PUSH2 0xD0E DUP3 PUSH2 0x1D5C JUMP JUMPDEST SWAP2 PUSH2 0xD1C PUSH1 0x40 MLOAD SWAP4 DUP5 PUSH2 0x1ACF JUMP JUMPDEST DUP1 DUP4 MSTORE PUSH2 0xD2B PUSH1 0x1F NOT SWAP2 PUSH2 0x1D5C JUMP JUMPDEST ADD CALLDATASIZE PUSH1 0x20 DUP5 ADD CALLDATACOPY PUSH0 SWAP1 PUSH1 0x1 JUMPDEST DUP2 DUP2 LT PUSH2 0xDCD JUMPI POP POP DUP1 ISZERO PUSH2 0xD88 JUMPI PUSH1 0x20 SWAP2 PUSH2 0xD7F SWAP2 PUSH1 0x40 MLOAD DUP5 DUP2 ADD SWAP1 TIMESTAMP DUP3 MSTORE PREVRANDAO PUSH1 0x40 DUP3 ADD MSTORE CALLER PUSH1 0x60 SHL PUSH1 0x60 DUP3 ADD MSTORE PUSH1 0x54 DUP2 MSTORE PUSH2 0xD75 PUSH1 0x74 DUP3 PUSH2 0x1ACF JUMP JUMPDEST MLOAD SWAP1 KECCAK256 MOD SWAP1 PUSH2 0x1D74 JUMP JUMPDEST MLOAD PUSH1 0x40 MLOAD SWAP1 DUP2 MSTORE RETURN JUMPDEST PUSH1 0x40 MLOAD PUSH3 0x461BCD PUSH1 0xE5 SHL DUP2 MSTORE PUSH1 0x20 PUSH1 0x4 DUP3 ADD MSTORE PUSH1 0x19 PUSH1 0x24 DUP3 ADD MSTORE PUSH32 0x4E6F206163746976652067616D657320617661696C61626C6500000000000000 PUSH1 0x44 DUP3 ADD MSTORE PUSH1 0x64 SWAP1 REVERT JUMPDEST DUP1 PUSH0 MSTORE PUSH1 0x3 PUSH1 0x20 MSTORE PUSH1 0xFF PUSH1 0x8 PUSH1 0x40 PUSH0 KECCAK256 ADD SLOAD AND DUP1 PUSH2 0xE13 JUMPI JUMPDEST PUSH2 0xDF3 JUMPI JUMPDEST PUSH1 0x1 ADD PUSH2 0xD37 JUMP JUMPDEST SWAP2 PUSH2 0xE0B DUP2 DUP5 PUSH2 0xE05 PUSH1 0x1 SWAP5 DUP9 PUSH2 0x1D74 JUMP JUMPDEST MSTORE PUSH2 0x1D4E JUMP JUMPDEST SWAP3 SWAP1 POP PUSH2 0xDEB JUMP JUMPDEST POP DUP1 PUSH0 MSTORE PUSH1 0x3 PUSH1 0x20 MSTORE PUSH1 0xFF PUSH1 0x8 PUSH1 0x40 PUSH0 KECCAK256 ADD SLOAD PUSH1 0x8 SHR AND ISZERO PUSH2 0xDE6 JUMP JUMPDEST PUSH1 0x40 MLOAD PUSH3 0x461BCD PUSH1 0xE5 SHL DUP2 MSTORE PUSH1 0x20 PUSH1 0x4 DUP3 ADD MSTORE PUSH1 0xE PUSH1 0x24 DUP3 ADD MSTORE PUSH14 0x139BC819D85B595CC8195E1A5CDD PUSH1 0x92 SHL PUSH1 0x44 DUP3 ADD MSTORE PUSH1 0x64 SWAP1 REVERT JUMPDEST PUSH1 0xA0 CALLDATASIZE PUSH1 0x3 NOT ADD SLT PUSH2 0x1D5 JUMPI PUSH1 0x4 CALLDATALOAD PUSH8 0xFFFFFFFFFFFFFFFF DUP2 GT PUSH2 0x1D5 JUMPI PUSH2 0xE92 SWAP1 CALLDATASIZE SWAP1 PUSH1 0x4 ADD PUSH2 0x1C33 JUMP JUMPDEST PUSH1 0x24 CALLDATALOAD PUSH8 0xFFFFFFFFFFFFFFFF DUP2 GT PUSH2 0x1D5 JUMPI PUSH2 0xEB2 SWAP1 CALLDATASIZE SWAP1 PUSH1 0x4 ADD PUSH2 0x1C33 JUMP JUMPDEST PUSH1 0x44 CALLDATALOAD PUSH8 0xFFFFFFFFFFFFFFFF DUP2 GT PUSH2 0x1D5 JUMPI PUSH2 0xED2 SWAP1 CALLDATASIZE SWAP1 PUSH1 0x4 ADD PUSH2 0x1C33 JUMP JUMPDEST SWAP2 PUSH1 0x64 CALLDATALOAD SWAP3 PUSH1 0x84 CALLDATALOAD SWAP1 CALLER PUSH0 MSTORE PUSH1 0x6 PUSH1 0x20 MSTORE PUSH1 0xFF PUSH1 0x40 PUSH0 KECCAK256 SLOAD AND DUP1 ISZERO PUSH2 0x1380 JUMPI JUMPDEST PUSH2 0xEFB SWAP1 PUSH2 0x1CCB JUMP JUMPDEST DUP5 ISZERO PUSH2 0x133C JUMPI DUP2 CALLVALUE LT PUSH2 0x12ED JUMPI PUSH1 0x2 SLOAD SWAP4 PUSH2 0xF15 DUP6 PUSH2 0x1D4E JUMP JUMPDEST PUSH1 0x2 SSTORE DUP5 PUSH0 MSTORE PUSH1 0x3 PUSH1 0x20 MSTORE PUSH1 0x40 PUSH0 KECCAK256 SWAP4 DUP6 DUP6 SSTORE PUSH1 0x1 DUP6 ADD SWAP1 DUP1 MLOAD SWAP1 PUSH8 0xFFFFFFFFFFFFFFFF DUP3 GT PUSH2 0x36C JUMPI DUP2 SWAP1 PUSH2 0xF4B DUP5 SLOAD PUSH2 0x1A97 JUMP JUMPDEST PUSH1 0x1F DUP2 GT PUSH2 0x129D JUMPI JUMPDEST POP PUSH1 0x20 SWAP1 PUSH1 0x1F DUP4 GT PUSH1 0x1 EQ PUSH2 0x123A JUMPI PUSH0 SWAP3 PUSH2 0x122F JUMPI JUMPDEST POP POP DUP2 PUSH1 0x1 SHL SWAP2 PUSH0 NOT SWAP1 PUSH1 0x3 SHL SHR NOT AND OR SWAP1 SSTORE JUMPDEST DUP1 MLOAD PUSH1 0x2 DUP6 ADD SWAP2 PUSH8 0xFFFFFFFFFFFFFFFF DUP3 GT PUSH2 0x36C JUMPI DUP2 SWAP1 PUSH2 0xFA0 DUP5 SLOAD PUSH2 0x1A97 JUMP JUMPDEST PUSH1 0x1F DUP2 GT PUSH2 0x11DF JUMPI JUMPDEST POP PUSH1 0x20 SWAP1 PUSH1 0x1F DUP4 GT PUSH1 0x1 EQ PUSH2 0x117C JUMPI PUSH0 SWAP3 PUSH2 0x1171 JUMPI JUMPDEST POP POP DUP2 PUSH1 0x1 SHL SWAP2 PUSH0 NOT SWAP1 PUSH1 0x3 SHL SHR NOT AND OR SWAP1 SSTORE JUMPDEST DUP1 MLOAD PUSH1 0x3 DUP5 ADD SWAP2 PUSH8 0xFFFFFFFFFFFFFFFF DUP3 GT PUSH2 0x36C JUMPI PUSH2 0xFF3 DUP4 SLOAD PUSH2 0x1A97 JUMP JUMPDEST PUSH1 0x1F DUP2 GT PUSH2 0x112C JUMPI JUMPDEST POP SWAP2 PUSH1 0x20 SWAP7 SWAP4 SWAP2 DUP7 SWAP6 SWAP4 DUP9 SWAP1 PUSH1 0x1F DUP4 GT PUSH1 0x1 EQ PUSH2 0x109F JUMPI SWAP3 DUP3 DUP11 SWAP7 SWAP4 PUSH32 0xA26856D25E558C79E1632806BC6824075CF59885A115825F2AAB62385A3F7142 SWAP9 SWAP7 SWAP4 PUSH1 0x8 SWAP7 PUSH0 SWAP3 PUSH2 0x1094 JUMPI JUMPDEST POP POP DUP2 PUSH1 0x1 SHL SWAP2 PUSH0 NOT SWAP1 PUSH1 0x3 SHL SHR NOT AND OR SWAP1 SSTORE JUMPDEST PUSH1 0x4 DUP3 ADD DUP5 SWAP1 SSTORE PUSH1 0x6 DUP3 ADD DUP2 SWAP1 SSTORE PUSH1 0x5 DUP3 ADD SSTORE TIMESTAMP PUSH1 0x7 DUP3 ADD SSTORE ADD DUP1 SLOAD PUSH1 0x1 PUSH1 0x1 PUSH1 0xB0 SHL SUB NOT AND PUSH1 0x1 OR SWAP1 SSTORE PUSH1 0x40 MLOAD SWAP1 DUP2 MSTORE LOG2 PUSH1 0x40 MLOAD SWAP1 DUP2 MSTORE RETURN JUMPDEST ADD MLOAD SWAP1 POP DUP13 DUP1 PUSH2 0x1046 JUMP JUMPDEST SWAP1 PUSH1 0x1F NOT DUP4 AND SWAP2 DUP5 PUSH0 MSTORE DUP2 PUSH0 KECCAK256 SWAP3 PUSH0 JUMPDEST DUP2 DUP2 LT PUSH2 0x1112 JUMPI POP SWAP4 PUSH32 0xA26856D25E558C79E1632806BC6824075CF59885A115825F2AAB62385A3F7142 SWAP9 SWAP7 SWAP4 PUSH1 0x8 SWAP7 SWAP4 PUSH1 0x1 SWAP4 DUP4 DUP16 SWAP12 SWAP9 LT PUSH2 0x10FA JUMPI JUMPDEST POP POP POP DUP2 SHL ADD SWAP1 SSTORE PUSH2 0x105A JUMP JUMPDEST ADD MLOAD PUSH0 NOT PUSH1 0xF8 DUP5 PUSH1 0x3 SHL AND SHR NOT AND SWAP1 SSTORE DUP13 DUP1 DUP1 PUSH2 0x10ED JUMP JUMPDEST DUP3 DUP5 ADD MLOAD DUP6 SSTORE DUP12 SWAP11 POP PUSH1 0x1 SWAP1 SWAP5 ADD SWAP4 SWAP3 DUP13 ADD SWAP3 DUP13 ADD PUSH2 0x10AF JUMP JUMPDEST DUP4 PUSH0 MSTORE PUSH1 0x20 PUSH0 KECCAK256 PUSH1 0x1F DUP5 ADD PUSH1 0x5 SHR DUP2 ADD SWAP2 PUSH1 0x20 DUP6 LT PUSH2 0x1167 JUMPI JUMPDEST PUSH1 0x1F ADD PUSH1 0x5 SHR ADD SWAP1 JUMPDEST DUP2 DUP2 LT PUSH2 0x115C JUMPI POP PUSH2 0xFFC JUMP JUMPDEST PUSH0 DUP2 SSTORE PUSH1 0x1 ADD PUSH2 0x114F JUMP JUMPDEST SWAP1 SWAP2 POP DUP2 SWAP1 PUSH2 0x1146 JUMP JUMPDEST ADD MLOAD SWAP1 POP DUP9 DUP1 PUSH2 0xFBF JUMP JUMPDEST PUSH0 DUP6 DUP2 MSTORE DUP3 DUP2 KECCAK256 SWAP4 POP PUSH1 0x1F NOT DUP6 AND SWAP1 JUMPDEST DUP2 DUP2 LT PUSH2 0x11C7 JUMPI POP SWAP1 DUP5 PUSH1 0x1 SWAP6 SWAP5 SWAP4 SWAP3 LT PUSH2 0x11AF JUMPI JUMPDEST POP POP POP DUP2 SHL ADD SWAP1 SSTORE PUSH2 0xFD3 JUMP JUMPDEST ADD MLOAD PUSH0 NOT PUSH1 0xF8 DUP5 PUSH1 0x3 SHL AND SHR NOT AND SWAP1 SSTORE DUP9 DUP1 DUP1 PUSH2 0x11A2 JUMP JUMPDEST SWAP3 SWAP4 PUSH1 0x20 PUSH1 0x1 DUP2 SWAP3 DUP8 DUP7 ADD MLOAD DUP2 SSTORE ADD SWAP6 ADD SWAP4 ADD PUSH2 0x118C JUMP JUMPDEST SWAP1 SWAP2 POP DUP4 PUSH0 MSTORE PUSH1 0x20 PUSH0 KECCAK256 PUSH1 0x1F DUP5 ADD PUSH1 0x5 SHR DUP2 ADD SWAP2 PUSH1 0x20 DUP6 LT PUSH2 0x1225 JUMPI JUMPDEST SWAP1 PUSH1 0x1F DUP6 SWAP5 SWAP4 SWAP3 ADD PUSH1 0x5 SHR ADD SWAP1 JUMPDEST DUP2 DUP2 LT PUSH2 0x1217 JUMPI POP PUSH2 0xFA9 JUMP JUMPDEST PUSH0 DUP2 SSTORE DUP5 SWAP4 POP PUSH1 0x1 ADD PUSH2 0x120A JUMP JUMPDEST SWAP1 SWAP2 POP DUP2 SWAP1 PUSH2 0x11FC JUMP JUMPDEST ADD MLOAD SWAP1 POP DUP10 DUP1 PUSH2 0xF6A JUMP JUMPDEST PUSH0 DUP6 DUP2 MSTORE DUP3 DUP2 KECCAK256 SWAP4 POP PUSH1 0x1F NOT DUP6 AND SWAP1 JUMPDEST DUP2 DUP2 LT PUSH2 0x1285 JUMPI POP SWAP1 DUP5 PUSH1 0x1 SWAP6 SWAP5 SWAP4 SWAP3 LT PUSH2 0x126D JUMPI JUMPDEST POP POP POP DUP2 SHL ADD SWAP1 SSTORE PUSH2 0xF7E JUMP JUMPDEST ADD MLOAD PUSH0 NOT PUSH1 0xF8 DUP5 PUSH1 0x3 SHL AND SHR NOT AND SWAP1 SSTORE DUP10 DUP1 DUP1 PUSH2 0x1260 JUMP JUMPDEST SWAP3 SWAP4 PUSH1 0x20 PUSH1 0x1 DUP2 SWAP3 DUP8 DUP7 ADD MLOAD DUP2 SSTORE ADD SWAP6 ADD SWAP4 ADD PUSH2 0x124A JUMP JUMPDEST SWAP1 SWAP2 POP DUP4 PUSH0 MSTORE PUSH1 0x20 PUSH0 KECCAK256 PUSH1 0x1F DUP5 ADD PUSH1 0x5 SHR DUP2 ADD SWAP2 PUSH1 0x20 DUP6 LT PUSH2 0x12E3 JUMPI JUMPDEST SWAP1 PUSH1 0x1F DUP6 SWAP5 SWAP4 SWAP3 ADD PUSH1 0x5 SHR ADD SWAP1 JUMPDEST DUP2 DUP2 LT PUSH2 0x12D5 JUMPI POP PUSH2 0xF54 JUMP JUMPDEST PUSH0 DUP2 SSTORE DUP5 SWAP4 POP PUSH1 0x1 ADD PUSH2 0x12C8 JUMP JUMPDEST SWAP1 SWAP2 POP DUP2 SWAP1 PUSH2 0x12BA JUMP JUMPDEST PUSH1 0x40 MLOAD PUSH3 0x461BCD PUSH1 0xE5 SHL DUP2 MSTORE PUSH1 0x20 PUSH1 0x4 DUP3 ADD MSTORE PUSH1 0x21 PUSH1 0x24 DUP3 ADD MSTORE PUSH32 0x496E73756666696369656E742066756E647320666F72207072697A6520706F6F PUSH1 0x44 DUP3 ADD MSTORE PUSH1 0x1B PUSH1 0xFA SHL PUSH1 0x64 DUP3 ADD MSTORE PUSH1 0x84 SWAP1 REVERT JUMPDEST PUSH1 0x64 PUSH1 0x40 MLOAD PUSH3 0x461BCD PUSH1 0xE5 SHL DUP2 MSTORE PUSH1 0x20 PUSH1 0x4 DUP3 ADD MSTORE PUSH1 0x20 PUSH1 0x24 DUP3 ADD MSTORE PUSH32 0x456E74727920666565206D7573742062652067726561746572207468616E2030 PUSH1 0x44 DUP3 ADD MSTORE REVERT JUMPDEST POP PUSH1 0x1 SLOAD PUSH1 0x1 PUSH1 0x1 PUSH1 0xA0 SHL SUB AND CALLER EQ PUSH2 0xEF2 JUMP JUMPDEST CALLVALUE PUSH2 0x1D5 JUMPI PUSH0 CALLDATASIZE PUSH1 0x3 NOT ADD SLT PUSH2 0x1D5 JUMPI PUSH1 0x20 PUSH1 0x40 MLOAD PUSH1 0x5 DUP2 MSTORE RETURN JUMPDEST CALLVALUE PUSH2 0x1D5 JUMPI PUSH1 0x20 CALLDATASIZE PUSH1 0x3 NOT ADD SLT PUSH2 0x1D5 JUMPI PUSH1 0x4 CALLDATALOAD DUP1 ISZERO ISZERO DUP1 PUSH2 0x144D JUMPI JUMPDEST PUSH2 0x13D5 SWAP1 PUSH2 0x1C89 JUMP JUMPDEST PUSH0 MSTORE PUSH1 0x3 PUSH1 0x20 MSTORE PUSH1 0x40 PUSH0 KECCAK256 DUP1 SLOAD SWAP1 PUSH2 0x1C6 PUSH1 0x4 DUP3 ADD SLOAD SWAP3 PUSH1 0x5 DUP4 ADD SLOAD SWAP1 PUSH1 0x6 DUP5 ADD SLOAD SWAP1 PUSH1 0x7 DUP6 ADD SLOAD PUSH1 0x8 DUP7 ADD SLOAD SWAP3 PUSH2 0x140F PUSH1 0x1 DUP9 ADD PUSH2 0x1AF1 JUMP JUMPDEST SWAP5 PUSH2 0x1428 PUSH1 0x3 PUSH2 0x1421 PUSH1 0x2 DUP12 ADD PUSH2 0x1AF1 JUMP JUMPDEST SWAP10 ADD PUSH2 0x1AF1 JUMP JUMPDEST SWAP9 PUSH1 0x40 MLOAD SWAP10 DUP11 SWAP10 PUSH1 0x1 DUP1 PUSH1 0xA0 SHL SUB DUP9 PUSH1 0x10 SHR AND SWAP9 PUSH1 0xFF DUP1 DUP11 PUSH1 0x8 SHR AND SWAP10 AND SWAP8 DUP13 PUSH2 0x1BB5 JUMP JUMPDEST POP PUSH1 0x2 SLOAD DUP2 LT PUSH2 0x13CC JUMP JUMPDEST CALLVALUE PUSH2 0x1D5 JUMPI PUSH1 0x20 CALLDATASIZE PUSH1 0x3 NOT ADD SLT PUSH2 0x1D5 JUMPI PUSH1 0x1 PUSH1 0x1 PUSH1 0xA0 SHL SUB PUSH2 0x1479 PUSH2 0x1A2A JUMP JUMPDEST AND PUSH0 MSTORE PUSH1 0x6 PUSH1 0x20 MSTORE PUSH1 0x20 PUSH1 0xFF PUSH1 0x40 PUSH0 KECCAK256 SLOAD AND PUSH1 0x40 MLOAD SWAP1 ISZERO ISZERO DUP2 MSTORE RETURN JUMPDEST CALLVALUE PUSH2 0x1D5 JUMPI PUSH0 CALLDATASIZE PUSH1 0x3 NOT ADD SLT PUSH2 0x1D5 JUMPI PUSH2 0x14AD PUSH2 0x1D95 JUMP JUMPDEST PUSH0 DUP1 DUP1 DUP1 PUSH1 0x1 DUP1 PUSH1 0xA0 SHL SUB PUSH1 0x1 SLOAD AND SELFBALANCE SWAP1 DUP3 DUP3 ISZERO PUSH2 0x14CE JUMPI JUMPDEST CALL ISZERO PUSH2 0x6C9 JUMPI STOP JUMPDEST POP PUSH2 0x8FC PUSH2 0x14C6 JUMP JUMPDEST CALLVALUE PUSH2 0x1D5 JUMPI PUSH1 0x20 CALLDATASIZE PUSH1 0x3 NOT ADD SLT PUSH2 0x1D5 JUMPI PUSH1 0x20 PUSH2 0x14F2 PUSH2 0x1A2A JUMP JUMPDEST PUSH1 0x1 SLOAD PUSH1 0x40 MLOAD PUSH1 0x1 PUSH1 0x1 PUSH1 0xA0 SHL SUB SWAP3 DUP4 AND SWAP2 SWAP1 SWAP3 AND EQ DUP2 MSTORE RETURN JUMPDEST CALLVALUE PUSH2 0x1D5 JUMPI PUSH1 0x20 CALLDATASIZE PUSH1 0x3 NOT ADD SLT PUSH2 0x1D5 JUMPI PUSH1 0x20 PUSH1 0x1 PUSH1 0x1 PUSH1 0xA0 SHL SUB PUSH2 0x152F PUSH2 0x1A2A JUMP JUMPDEST AND DUP1 PUSH0 MSTORE PUSH1 0x6 DUP3 MSTORE PUSH1 0xFF PUSH1 0x40 PUSH0 KECCAK256 SLOAD AND SWAP1 DUP2 ISZERO PUSH2 0x1552 JUMPI JUMPDEST POP PUSH1 0x40 MLOAD SWAP1 ISZERO ISZERO DUP2 MSTORE RETURN JUMPDEST PUSH1 0x1 SLOAD PUSH1 0x1 PUSH1 0x1 PUSH1 0xA0 SHL SUB AND EQ SWAP1 POP DUP3 PUSH2 0x1547 JUMP JUMPDEST CALLVALUE PUSH2 0x1D5 JUMPI PUSH1 0x20 CALLDATASIZE PUSH1 0x3 NOT ADD SLT PUSH2 0x1D5 JUMPI PUSH1 0x4 CALLDATALOAD CALLER PUSH0 MSTORE PUSH1 0x6 PUSH1 0x20 MSTORE PUSH1 0xFF PUSH1 0x40 PUSH0 KECCAK256 SLOAD AND DUP1 ISZERO PUSH2 0x1626 JUMPI JUMPDEST PUSH2 0x159B SWAP1 PUSH2 0x1CCB JUMP JUMPDEST DUP1 PUSH0 MSTORE PUSH1 0x3 PUSH1 0x20 MSTORE PUSH1 0x5 PUSH1 0x40 PUSH0 KECCAK256 PUSH1 0x8 DUP2 ADD PUSH2 0x100 DUP2 SLOAD PUSH2 0x15BE PUSH1 0xFF DUP3 AND PUSH2 0x1D0D JUMP JUMPDEST PUSH2 0xFFFF NOT AND OR SWAP1 SSTORE ADD DUP1 SLOAD DUP1 ISZERO DUP1 ISZERO PUSH2 0x1601 JUMPI JUMPDEST DUP4 PUSH32 0xA72860103F540F00E7D5C44FF9EA4CDB6CF0361B63E542D7A657C4C1154100DE PUSH1 0x20 DUP6 SLOAD PUSH1 0x40 MLOAD SWAP1 DUP2 MSTORE LOG2 STOP JUMPDEST PUSH0 DUP1 DUP1 SWAP4 DUP2 SWAP4 DUP3 SWAP1 PUSH2 0x161D JUMPI JUMPDEST CALLER SWAP1 CALL ISZERO PUSH2 0x6C9 JUMPI DUP3 DUP1 PUSH2 0x15D2 JUMP JUMPDEST POP PUSH2 0x8FC PUSH2 0x160E JUMP JUMPDEST POP PUSH1 0x1 SLOAD PUSH1 0x1 PUSH1 0x1 PUSH1 0xA0 SHL SUB AND CALLER EQ PUSH2 0x1592 JUMP JUMPDEST CALLVALUE PUSH2 0x1D5 JUMPI PUSH1 0x20 CALLDATASIZE PUSH1 0x3 NOT ADD SLT PUSH2 0x1D5 JUMPI PUSH2 0x1653 PUSH2 0x1A2A JUMP JUMPDEST PUSH2 0x165B PUSH2 0x1D95 JUMP JUMPDEST PUSH1 0x1 PUSH1 0x1 PUSH1 0xA0 SHL SUB AND PUSH0 DUP2 DUP2 MSTORE PUSH1 0x6 PUSH1 0x20 MSTORE PUSH1 0x40 SWAP1 KECCAK256 SLOAD PUSH1 0xFF AND ISZERO PUSH2 0x17B3 JUMPI PUSH1 0x1 SLOAD PUSH1 0x1 PUSH1 0x1 PUSH1 0xA0 SHL SUB AND DUP2 EQ PUSH2 0x1778 JUMPI PUSH0 DUP2 DUP2 MSTORE PUSH1 0x6 PUSH1 0x20 MSTORE PUSH1 0x40 DUP2 KECCAK256 DUP1 SLOAD PUSH1 0xFF NOT AND SWAP1 SSTORE JUMPDEST PUSH1 0x7 SLOAD SWAP1 DUP2 DUP2 LT ISZERO PUSH2 0x1771 JUMPI DUP3 PUSH2 0x16B8 DUP3 PUSH2 0x1A56 JUMP JUMPDEST SWAP1 SLOAD PUSH1 0x3 SWAP2 SWAP1 SWAP2 SHL SHR PUSH1 0x1 PUSH1 0x1 PUSH1 0xA0 SHL SUB AND EQ PUSH2 0x16D9 JUMPI PUSH1 0x1 SWAP2 POP ADD PUSH2 0x16A2 JUMP JUMPDEST PUSH0 NOT DUP3 ADD SWAP2 DUP3 GT PUSH2 0x716 JUMPI PUSH2 0xC24 PUSH2 0x16F3 PUSH2 0x170B SWAP4 PUSH2 0x1A56 JUMP JUMPDEST SWAP1 SLOAD PUSH1 0x3 SWAP2 SWAP1 SWAP2 SHL SHR PUSH1 0x1 PUSH1 0x1 PUSH1 0xA0 SHL SUB AND SWAP2 PUSH2 0x1A56 JUMP JUMPDEST PUSH1 0x7 SLOAD DUP1 ISZERO PUSH2 0x175D JUMPI PUSH0 NOT ADD PUSH2 0x1720 DUP2 PUSH2 0x1A56 JUMP JUMPDEST DUP2 SLOAD SWAP1 PUSH1 0x1 DUP1 PUSH1 0xA0 SHL SUB SWAP1 PUSH1 0x3 SHL SHL NOT AND SWAP1 SSTORE PUSH1 0x7 SSTORE JUMPDEST PUSH32 0xA3B62BC36326052D97EA62D63C3D60308ED4C3EA8AC079DD8499F1E9C4F80C0F PUSH0 DUP1 LOG2 STOP JUMPDEST PUSH4 0x4E487B71 PUSH1 0xE0 SHL PUSH0 MSTORE PUSH1 0x31 PUSH1 0x4 MSTORE PUSH1 0x24 PUSH0 REVERT JUMPDEST POP POP PUSH2 0x1737 JUMP JUMPDEST PUSH1 0x40 MLOAD PUSH3 0x461BCD PUSH1 0xE5 SHL DUP2 MSTORE PUSH1 0x20 PUSH1 0x4 DUP3 ADD MSTORE PUSH1 0x13 PUSH1 0x24 DUP3 ADD MSTORE PUSH19 0x21B0B73737BA103932B6B7BB329037BBB732B9 PUSH1 0x69 SHL PUSH1 0x44 DUP3 ADD MSTORE PUSH1 0x64 SWAP1 REVERT JUMPDEST PUSH1 0x40 MLOAD PUSH3 0x461BCD PUSH1 0xE5 SHL DUP2 MSTORE PUSH1 0x20 PUSH1 0x4 DUP3 ADD MSTORE PUSH1 0xC PUSH1 0x24 DUP3 ADD MSTORE PUSH12 0x2737BA1030B71030B236B4B7 PUSH1 0xA1 SHL PUSH1 0x44 DUP3 ADD MSTORE PUSH1 0x64 SWAP1 REVERT JUMPDEST CALLVALUE PUSH2 0x1D5 JUMPI PUSH1 0x20 CALLDATASIZE PUSH1 0x3 NOT ADD SLT PUSH2 0x1D5 JUMPI PUSH1 0x1 PUSH1 0x1 PUSH1 0xA0 SHL SUB PUSH2 0x1808 PUSH2 0x1A2A JUMP JUMPDEST AND PUSH0 MSTORE PUSH1 0x5 PUSH1 0x20 MSTORE PUSH1 0x40 PUSH0 KECCAK256 PUSH1 0x40 MLOAD DUP1 PUSH1 0x20 DUP4 SLOAD SWAP2 DUP3 DUP2 MSTORE ADD SWAP1 DUP2 SWAP4 PUSH0 MSTORE PUSH1 0x20 PUSH0 KECCAK256 SWAP1 PUSH0 JUMPDEST DUP2 DUP2 LT PUSH2 0x1885 JUMPI POP POP POP DUP2 PUSH2 0x1843 SWAP2 SUB DUP3 PUSH2 0x1ACF JUMP JUMPDEST PUSH1 0x40 MLOAD SWAP2 DUP3 SWAP2 PUSH1 0x20 DUP4 ADD SWAP1 PUSH1 0x20 DUP5 MSTORE MLOAD DUP1 SWAP2 MSTORE PUSH1 0x40 DUP4 ADD SWAP2 SWAP1 PUSH0 JUMPDEST DUP2 DUP2 LT PUSH2 0x186C JUMPI POP POP POP SUB SWAP1 RETURN JUMPDEST DUP3 MLOAD DUP5 MSTORE DUP6 SWAP5 POP PUSH1 0x20 SWAP4 DUP5 ADD SWAP4 SWAP1 SWAP3 ADD SWAP2 PUSH1 0x1 ADD PUSH2 0x185E JUMP JUMPDEST DUP3 SLOAD DUP5 MSTORE PUSH1 0x20 SWAP1 SWAP4 ADD SWAP3 PUSH1 0x1 SWAP3 DUP4 ADD SWAP3 ADD PUSH2 0x182D JUMP JUMPDEST CALLVALUE PUSH2 0x1D5 JUMPI PUSH1 0x20 CALLDATASIZE PUSH1 0x3 NOT ADD SLT PUSH2 0x1D5 JUMPI PUSH1 0x4 CALLDATALOAD PUSH0 MSTORE PUSH1 0x3 PUSH1 0x20 MSTORE PUSH1 0x40 PUSH0 KECCAK256 DUP1 SLOAD SWAP1 PUSH2 0x1C6 PUSH2 0x18CC PUSH1 0x1 DUP4 ADD PUSH2 0x1AF1 JUMP JUMPDEST PUSH2 0x18D8 PUSH1 0x2 DUP5 ADD PUSH2 0x1AF1 JUMP JUMPDEST SWAP3 PUSH2 0x18E5 PUSH1 0x3 DUP3 ADD PUSH2 0x1AF1 JUMP JUMPDEST SWAP5 PUSH1 0x4 DUP3 ADD SLOAD SWAP2 PUSH1 0x5 DUP2 ADD SLOAD PUSH1 0x6 DUP3 ADD SLOAD SWAP1 PUSH1 0x8 PUSH1 0x7 DUP5 ADD SLOAD SWAP4 ADD SLOAD SWAP5 PUSH1 0x40 MLOAD SWAP10 DUP11 SWAP10 PUSH1 0x1 DUP1 PUSH1 0xA0 SHL SUB DUP9 PUSH1 0x10 SHR AND SWAP9 PUSH1 0xFF DUP1 DUP11 PUSH1 0x8 SHR AND SWAP10 AND SWAP8 DUP13 PUSH2 0x1BB5 JUMP JUMPDEST CALLVALUE PUSH2 0x1D5 JUMPI PUSH1 0x20 CALLDATASIZE PUSH1 0x3 NOT ADD SLT PUSH2 0x1D5 JUMPI PUSH1 0x4 CALLDATALOAD PUSH1 0x7 SLOAD DUP2 LT ISZERO PUSH2 0x1D5 JUMPI PUSH2 0x194F PUSH1 0x20 SWAP2 PUSH2 0x1A56 JUMP JUMPDEST SWAP1 SLOAD PUSH1 0x40 MLOAD PUSH1 0x3 SWAP3 SWAP1 SWAP3 SHL SHR PUSH1 0x1 PUSH1 0x1 PUSH1 0xA0 SHL SUB AND DUP2 MSTORE RETURN JUMPDEST CALLVALUE PUSH2 0x1D5 JUMPI PUSH1 0x40 CALLDATASIZE PUSH1 0x3 NOT ADD SLT PUSH2 0x1D5 JUMPI PUSH1 0x4 CALLDATALOAD PUSH2 0x1984 PUSH2 0x1A40 JUMP JUMPDEST SWAP1 DUP1 ISZERO ISZERO DUP1 PUSH2 0x19C7 JUMPI JUMPDEST PUSH2 0x1997 SWAP1 PUSH2 0x1C89 JUMP JUMPDEST PUSH0 MSTORE PUSH1 0x3 PUSH1 0x20 MSTORE PUSH1 0x9 PUSH1 0x40 PUSH0 KECCAK256 ADD SWAP1 PUSH1 0x1 DUP1 PUSH1 0xA0 SHL SUB AND PUSH0 MSTORE PUSH1 0x20 MSTORE PUSH1 0x20 PUSH1 0xFF PUSH1 0x40 PUSH0 KECCAK256 SLOAD AND PUSH1 0x40 MLOAD SWAP1 ISZERO ISZERO DUP2 MSTORE RETURN JUMPDEST POP PUSH1 0x2 SLOAD DUP2 LT PUSH2 0x198E JUMP JUMPDEST CALLVALUE PUSH2 0x1D5 JUMPI PUSH1 0x40 CALLDATASIZE PUSH1 0x3 NOT ADD SLT PUSH2 0x1D5 JUMPI PUSH2 0x19EB PUSH2 0x1A2A JUMP JUMPDEST PUSH1 0x1 PUSH1 0x1 PUSH1 0xA0 SHL SUB AND PUSH0 SWAP1 DUP2 MSTORE PUSH1 0x5 PUSH1 0x20 MSTORE PUSH1 0x40 SWAP1 KECCAK256 DUP1 SLOAD PUSH1 0x24 CALLDATALOAD SWAP2 SWAP1 DUP3 LT ISZERO PUSH2 0x1D5 JUMPI PUSH1 0x20 SWAP2 PUSH2 0x1A1B SWAP2 PUSH2 0x1A82 JUMP JUMPDEST SWAP1 SLOAD SWAP1 PUSH1 0x3 SHL SHR PUSH1 0x40 MLOAD SWAP1 DUP2 MSTORE RETURN JUMPDEST PUSH1 0x4 CALLDATALOAD SWAP1 PUSH1 0x1 PUSH1 0x1 PUSH1 0xA0 SHL SUB DUP3 AND DUP3 SUB PUSH2 0x1D5 JUMPI JUMP JUMPDEST PUSH1 0x24 CALLDATALOAD SWAP1 PUSH1 0x1 PUSH1 0x1 PUSH1 0xA0 SHL SUB DUP3 AND DUP3 SUB PUSH2 0x1D5 JUMPI JUMP JUMPDEST PUSH1 0x7 SLOAD DUP2 LT ISZERO PUSH2 0x1A6E JUMPI PUSH1 0x7 PUSH0 MSTORE PUSH1 0x20 PUSH0 KECCAK256 ADD SWAP1 PUSH0 SWAP1 JUMP JUMPDEST PUSH4 0x4E487B71 PUSH1 0xE0 SHL PUSH0 MSTORE PUSH1 0x32 PUSH1 0x4 MSTORE PUSH1 0x24 PUSH0 REVERT JUMPDEST DUP1 SLOAD DUP3 LT ISZERO PUSH2 0x1A6E JUMPI PUSH0 MSTORE PUSH1 0x20 PUSH0 KECCAK256 ADD SWAP1 PUSH0 SWAP1 JUMP JUMPDEST SWAP1 PUSH1 0x1 DUP3 DUP2 SHR SWAP3 AND DUP1 ISZERO PUSH2 0x1AC5 JUMPI JUMPDEST PUSH1 0x20 DUP4 LT EQ PUSH2 0x1AB1 JUMPI JUMP JUMPDEST PUSH4 0x4E487B71 PUSH1 0xE0 SHL PUSH0 MSTORE PUSH1 0x22 PUSH1 0x4 MSTORE PUSH1 0x24 PUSH0 REVERT JUMPDEST SWAP2 PUSH1 0x7F AND SWAP2 PUSH2 0x1AA6 JUMP JUMPDEST SWAP1 PUSH1 0x1F DUP1 NOT SWAP2 ADD AND DUP2 ADD SWAP1 DUP2 LT PUSH8 0xFFFFFFFFFFFFFFFF DUP3 GT OR PUSH2 0x36C JUMPI PUSH1 0x40 MSTORE JUMP JUMPDEST SWAP1 PUSH1 0x40 MLOAD SWAP2 DUP3 PUSH0 DUP3 SLOAD SWAP3 PUSH2 0x1B04 DUP5 PUSH2 0x1A97 JUMP JUMPDEST DUP1 DUP5 MSTORE SWAP4 PUSH1 0x1 DUP2 AND SWAP1 DUP2 ISZERO PUSH2 0x1B6F JUMPI POP PUSH1 0x1 EQ PUSH2 0x1B2B JUMPI JUMPDEST POP PUSH2 0x1B29 SWAP3 POP SUB DUP4 PUSH2 0x1ACF JUMP JUMPDEST JUMP JUMPDEST SWAP1 POP PUSH0 SWAP3 SWAP2 SWAP3 MSTORE PUSH1 0x20 PUSH0 KECCAK256 SWAP1 PUSH0 SWAP2 JUMPDEST DUP2 DUP4 LT PUSH2 0x1B53 JUMPI POP POP SWAP1 PUSH1 0x20 PUSH2 0x1B29 SWAP3 DUP3 ADD ADD PUSH0 PUSH2 0x1B1C JUMP JUMPDEST PUSH1 0x20 SWAP2 SWAP4 POP DUP1 PUSH1 0x1 SWAP2 SLOAD DUP4 DUP6 DUP10 ADD ADD MSTORE ADD SWAP2 ADD SWAP1 SWAP2 DUP5 SWAP3 PUSH2 0x1B3A JUMP JUMPDEST SWAP1 POP PUSH1 0x20 SWAP3 POP PUSH2 0x1B29 SWAP5 SWAP2 POP PUSH1 0xFF NOT AND DUP3 DUP5 ADD MSTORE ISZERO ISZERO PUSH1 0x5 SHL DUP3 ADD ADD PUSH0 PUSH2 0x1B1C JUMP JUMPDEST DUP1 MLOAD DUP1 DUP4 MSTORE PUSH1 0x20 SWAP3 SWAP2 DUP2 SWAP1 DUP5 ADD DUP5 DUP5 ADD MCOPY PUSH0 DUP3 DUP3 ADD DUP5 ADD MSTORE PUSH1 0x1F ADD PUSH1 0x1F NOT AND ADD ADD SWAP1 JUMP JUMPDEST SWAP10 SWAP7 SWAP4 SWAP1 PUSH2 0x140 SWAP10 SWAP7 SWAP4 PUSH2 0x1BE2 PUSH2 0x1BFE SWAP5 SWAP8 SWAP15 SWAP14 SWAP11 SWAP8 PUSH2 0x160 DUP15 PUSH2 0x1BF0 SWAP6 DUP2 MSTORE DUP2 PUSH1 0x20 DUP3 ADD MSTORE ADD SWAP1 PUSH2 0x1B91 JUMP JUMPDEST DUP13 DUP2 SUB PUSH1 0x40 DUP15 ADD MSTORE SWAP1 PUSH2 0x1B91 JUMP JUMPDEST SWAP1 DUP11 DUP3 SUB PUSH1 0x60 DUP13 ADD MSTORE PUSH2 0x1B91 JUMP JUMPDEST PUSH1 0x80 DUP10 ADD SWAP11 SWAP1 SWAP11 MSTORE PUSH1 0xA0 DUP9 ADD MSTORE PUSH1 0xC0 DUP8 ADD MSTORE PUSH1 0xE0 DUP7 ADD MSTORE ISZERO ISZERO PUSH2 0x100 DUP6 ADD MSTORE ISZERO ISZERO PUSH2 0x120 DUP5 ADD MSTORE PUSH1 0x1 PUSH1 0x1 PUSH1 0xA0 SHL SUB AND SWAP2 ADD MSTORE JUMP JUMPDEST DUP2 PUSH1 0x1F DUP3 ADD SLT ISZERO PUSH2 0x1D5 JUMPI DUP1 CALLDATALOAD SWAP1 PUSH8 0xFFFFFFFFFFFFFFFF DUP3 GT PUSH2 0x36C JUMPI PUSH1 0x40 MLOAD SWAP3 PUSH2 0x1C68 PUSH1 0x1F DUP5 ADD PUSH1 0x1F NOT AND PUSH1 0x20 ADD DUP6 PUSH2 0x1ACF JUMP JUMPDEST DUP3 DUP5 MSTORE PUSH1 0x20 DUP4 DUP4 ADD ADD GT PUSH2 0x1D5 JUMPI DUP2 PUSH0 SWAP3 PUSH1 0x20 DUP1 SWAP4 ADD DUP4 DUP7 ADD CALLDATACOPY DUP4 ADD ADD MSTORE SWAP1 JUMP JUMPDEST ISZERO PUSH2 0x1C90 JUMPI JUMP JUMPDEST PUSH1 0x40 MLOAD PUSH3 0x461BCD PUSH1 0xE5 SHL DUP2 MSTORE PUSH1 0x20 PUSH1 0x4 DUP3 ADD MSTORE PUSH1 0x13 PUSH1 0x24 DUP3 ADD MSTORE PUSH19 0x11D85B5948191BD95CC81B9BDD08195E1A5CDD PUSH1 0x6A SHL PUSH1 0x44 DUP3 ADD MSTORE PUSH1 0x64 SWAP1 REVERT JUMPDEST ISZERO PUSH2 0x1CD2 JUMPI JUMP JUMPDEST PUSH1 0x40 MLOAD PUSH3 0x461BCD PUSH1 0xE5 SHL DUP2 MSTORE PUSH1 0x20 PUSH1 0x4 DUP3 ADD MSTORE PUSH1 0x13 PUSH1 0x24 DUP3 ADD MSTORE PUSH19 0x27B7363C9030B236B4B71037B91037BBB732B9 PUSH1 0x69 SHL PUSH1 0x44 DUP3 ADD MSTORE PUSH1 0x64 SWAP1 REVERT JUMPDEST ISZERO PUSH2 0x1D14 JUMPI JUMP JUMPDEST PUSH1 0x40 MLOAD PUSH3 0x461BCD PUSH1 0xE5 SHL DUP2 MSTORE PUSH1 0x20 PUSH1 0x4 DUP3 ADD MSTORE PUSH1 0x12 PUSH1 0x24 DUP3 ADD MSTORE PUSH18 0x47616D65206973206E6F7420616374697665 PUSH1 0x70 SHL PUSH1 0x44 DUP3 ADD MSTORE PUSH1 0x64 SWAP1 REVERT JUMPDEST PUSH0 NOT DUP2 EQ PUSH2 0x716 JUMPI PUSH1 0x1 ADD SWAP1 JUMP JUMPDEST PUSH8 0xFFFFFFFFFFFFFFFF DUP2 GT PUSH2 0x36C JUMPI PUSH1 0x5 SHL PUSH1 0x20 ADD SWAP1 JUMP JUMPDEST DUP1 MLOAD DUP3 LT ISZERO PUSH2 0x1A6E JUMPI PUSH1 0x20 SWAP2 PUSH1 0x5 SHL ADD ADD SWAP1 JUMP JUMPDEST SWAP2 SWAP1 DUP3 ADD DUP1 SWAP3 GT PUSH2 0x716 JUMPI JUMP JUMPDEST PUSH1 0x1 SLOAD PUSH1 0x1 PUSH1 0x1 PUSH1 0xA0 SHL SUB AND CALLER SUB PUSH2 0x1DA9 JUMPI JUMP JUMPDEST PUSH4 0x118CDAA7 PUSH1 0xE0 SHL PUSH0 MSTORE CALLER PUSH1 0x4 MSTORE PUSH1 0x24 PUSH0 REVERT INVALID LOG2 PUSH5 0x6970667358 0x22 SLT KECCAK256 0xD4 0xE1 0xE PUSH31 0x388ADFE9EA472A36EBF86F751FA9C44ADD8A86177E93F7059136F2964736F PUSH13 0x634300081C0033000000000000 "},"methodIdentifiers":{"PLATFORM_FEE_PERCENT()":"560d52d4","addAdmin(address)":"70480275","adminList(uint256)":"11117fc8","admins(address)":"429b62e5","createGame(string,string,string,uint256,uint256)":"6cc7d8f8","emergencyCloseGame(uint256)":"1b39c1f6","games(uint256)":"117a5b90","getActiveGamesCount()":"72aeb81f","getAdminCount()":"8b7bf3eb","getAdminList()":"d9f774fc","getGameInfo(uint256)":"47e1d550","getPlayerGames(address)":"129daf84","getPlayerGuess(uint256,address)":"f4dcdc8e","getPlayerStats(address)":"4fd66eae","getRandomActiveGame()":"6ce5ba6f","hasPlayerGuessed(uint256,address)":"9a53371e","isAdmin(address)":"24d7806c","isOwner(address)":"2f54bf6e","isPlayerInGame(uint256,address)":"0d3b404f","joinGame(uint256)":"efaa55a0","nextGameId()":"b135bbb0","owner()":"8da5cb5b","playerGames(address,uint256)":"0a5694c2","playerStats(address)":"cdafbbb6","removeAdmin(address)":"1785f53c","renounceOwnership()":"715018a6","submitGuess(uint256,string)":"db249ec8","transferOwnership(address)":"f2fde38b","withdraw()":"3ccfd60b"}}}}}