{"project/contracts/GuessWhatGame.sol":{"GuessWhatGame":{"abi":[{"inputs":[{"internalType":"address","name":"initialOwner","type":"address"},{"internalType":"address[]","name":"initialAdmins","type":"address[]"}],"stateMutability":"nonpayable","type":"constructor"},{"inputs":[{"internalType":"address","name":"owner","type":"address"}],"name":"OwnableInvalidOwner","type":"error"},{"inputs":[{"internalType":"address","name":"account","type":"address"}],"name":"OwnableUnauthorizedAccount","type":"error"},{"inputs":[],"name":"ReentrancyGuardReentrantCall","type":"error"},{"anonymous":false,"inputs":[{"indexed":true,"internalType":"address","name":"admin","type":"address"}],"name":"AdminAdded","type":"event"},{"anonymous":false,"inputs":[{"indexed":true,"internalType":"address","name":"admin","type":"address"}],"name":"AdminRemoved","type":"event"},{"anonymous":false,"inputs":[{"indexed":true,"internalType":"uint256","name":"gameId","type":"uint256"},{"indexed":false,"internalType":"uint256","name":"entryFee","type":"uint256"},{"indexed":false,"internalType":"uint256","name":"timeLimit","type":"uint256"}],"name":"GameCreated","type":"event"},{"anonymous":false,"inputs":[{"indexed":true,"internalType":"uint256","name":"gameId","type":"uint256"},{"indexed":false,"internalType":"uint256","name":"totalPrize","type":"uint256"}],"name":"GameExpired","type":"event"},{"anonymous":false,"inputs":[{"indexed":true,"internalType":"uint256","name":"gameId","type":"uint256"},{"indexed":true,"internalType":"address","name":"winner","type":"address"},{"indexed":false,"internalType":"uint256","name":"prize","type":"uint256"}],"name":"GameWon","type":"event"},{"anonymous":false,"inputs":[{"indexed":true,"internalType":"uint256","name":"gameId","type":"uint256"},{"indexed":true,"internalType":"address","name":"player","type":"address"},{"indexed":false,"internalType":"string","name":"guess","type":"string"}],"name":"GuessSubmitted","type":"event"},{"anonymous":false,"inputs":[{"indexed":true,"internalType":"address","name":"previousOwner","type":"address"},{"indexed":true,"internalType":"address","name":"newOwner","type":"address"}],"name":"OwnershipTransferred","type":"event"},{"anonymous":false,"inputs":[{"indexed":true,"internalType":"uint256","name":"gameId","type":"uint256"},{"indexed":true,"internalType":"address","name":"player","type":"address"},{"indexed":false,"internalType":"uint256","name":"entryFee","type":"uint256"}],"name":"PlayerJoined","type":"event"},{"anonymous":false,"inputs":[{"indexed":true,"internalType":"uint256","name":"gameId","type":"uint256"},{"indexed":true,"internalType":"address","name":"winner","type":"address"},{"indexed":false,"internalType":"uint256","name":"amount","type":"uint256"}],"name":"PrizeClaimed","type":"event"},{"inputs":[],"name":"PLATFORM_FEE_PERCENT","outputs":[{"internalType":"uint256","name":"","type":"uint256"}],"stateMutability":"view","type":"function"},{"inputs":[{"internalType":"address","name":"_admin","type":"address"}],"name":"addAdmin","outputs":[],"stateMutability":"nonpayable","type":"function"},{"inputs":[{"internalType":"uint256","name":"","type":"uint256"}],"name":"adminList","outputs":[{"internalType":"address","name":"","type":"address"}],"stateMutability":"view","type":"function"},{"inputs":[{"internalType":"address","name":"","type":"address"}],"name":"admins","outputs":[{"internalType":"bool","name":"","type":"bool"}],"stateMutability":"view","type":"function"},{"inputs":[{"internalType":"string","name":"_topWord","type":"string"},{"internalType":"string","name":"_middleWord","type":"string"},{"internalType":"string","name":"_bottomWord","type":"string"},{"internalType":"uint256","name":"_entryFee","type":"uint256"},{"internalType":"uint256","name":"_initialPrizePool","type":"uint256"}],"name":"createGame","outputs":[{"internalType":"uint256","name":"","type":"uint256"}],"stateMutability":"payable","type":"function"},{"inputs":[],"name":"defaultTimeLimit","outputs":[{"internalType":"uint256","name":"","type":"uint256"}],"stateMutability":"view","type":"function"},{"inputs":[{"internalType":"uint256","name":"_gameId","type":"uint256"}],"name":"expireGame","outputs":[],"stateMutability":"nonpayable","type":"function"},{"inputs":[{"internalType":"uint256","name":"","type":"uint256"}],"name":"games","outputs":[{"internalType":"uint256","name":"gameId","type":"uint256"},{"internalType":"string","name":"topWord","type":"string"},{"internalType":"string","name":"middleWord","type":"string"},{"internalType":"string","name":"bottomWord","type":"string"},{"internalType":"uint256","name":"entryFee","type":"uint256"},{"internalType":"uint256","name":"totalPrize","type":"uint256"},{"internalType":"uint256","name":"initialPrizePool","type":"uint256"},{"internalType":"uint256","name":"timeLimit","type":"uint256"},{"internalType":"uint256","name":"startTime","type":"uint256"},{"internalType":"bool","name":"isActive","type":"bool"},{"internalType":"bool","name":"isCompleted","type":"bool"},{"internalType":"address","name":"winner","type":"address"}],"stateMutability":"view","type":"function"},{"inputs":[],"name":"getActiveGamesCount","outputs":[{"internalType":"uint256","name":"","type":"uint256"}],"stateMutability":"view","type":"function"},{"inputs":[],"name":"getAdminCount","outputs":[{"internalType":"uint256","name":"","type":"uint256"}],"stateMutability":"view","type":"function"},{"inputs":[],"name":"getAdminList","outputs":[{"internalType":"address[]","name":"","type":"address[]"}],"stateMutability":"view","type":"function"},{"inputs":[{"internalType":"uint256","name":"_gameId","type":"uint256"}],"name":"getGameInfo","outputs":[{"internalType":"uint256","name":"gameId","type":"uint256"},{"internalType":"string","name":"topWord","type":"string"},{"internalType":"string","name":"middleWord","type":"string"},{"internalType":"string","name":"bottomWord","type":"string"},{"internalType":"uint256","name":"entryFee","type":"uint256"},{"internalType":"uint256","name":"totalPrize","type":"uint256"},{"internalType":"uint256","name":"initialPrizePool","type":"uint256"},{"internalType":"uint256","name":"timeLimit","type":"uint256"},{"internalType":"uint256","name":"startTime","type":"uint256"},{"internalType":"bool","name":"isActive","type":"bool"},{"internalType":"bool","name":"isCompleted","type":"bool"},{"internalType":"address","name":"winner","type":"address"}],"stateMutability":"view","type":"function"},{"inputs":[{"internalType":"address","name":"_player","type":"address"}],"name":"getPlayerGames","outputs":[{"internalType":"uint256[]","name":"","type":"uint256[]"}],"stateMutability":"view","type":"function"},{"inputs":[{"internalType":"uint256","name":"_gameId","type":"uint256"},{"internalType":"address","name":"_player","type":"address"}],"name":"getPlayerGuess","outputs":[{"internalType":"string","name":"","type":"string"}],"stateMutability":"view","type":"function"},{"inputs":[{"internalType":"address","name":"_player","type":"address"}],"name":"getPlayerStats","outputs":[{"internalType":"uint256","name":"gamesPlayed","type":"uint256"},{"internalType":"uint256","name":"correctGuesses","type":"uint256"},{"internalType":"uint256","name":"totalWinnings","type":"uint256"},{"internalType":"uint256","name":"accuracy","type":"uint256"}],"stateMutability":"view","type":"function"},{"inputs":[],"name":"getRandomActiveGame","outputs":[{"internalType":"uint256","name":"","type":"uint256"}],"stateMutability":"view","type":"function"},{"inputs":[{"internalType":"uint256","name":"_gameId","type":"uint256"},{"internalType":"address","name":"_player","type":"address"}],"name":"hasPlayerGuessed","outputs":[{"internalType":"bool","name":"","type":"bool"}],"stateMutability":"view","type":"function"},{"inputs":[{"internalType":"address","name":"_address","type":"address"}],"name":"isAdmin","outputs":[{"internalType":"bool","name":"","type":"bool"}],"stateMutability":"view","type":"function"},{"inputs":[{"internalType":"address","name":"_address","type":"address"}],"name":"isOwner","outputs":[{"internalType":"bool","name":"","type":"bool"}],"stateMutability":"view","type":"function"},{"inputs":[{"internalType":"uint256","name":"_gameId","type":"uint256"},{"internalType":"address","name":"_player","type":"address"}],"name":"isPlayerInGame","outputs":[{"internalType":"bool","name":"","type":"bool"}],"stateMutability":"view","type":"function"},{"inputs":[{"internalType":"uint256","name":"_gameId","type":"uint256"}],"name":"joinGame","outputs":[],"stateMutability":"payable","type":"function"},{"inputs":[],"name":"nextGameId","outputs":[{"internalType":"uint256","name":"","type":"uint256"}],"stateMutability":"view","type":"function"},{"inputs":[],"name":"owner","outputs":[{"internalType":"address","name":"","type":"address"}],"stateMutability":"view","type":"function"},{"inputs":[{"internalType":"address","name":"","type":"address"},{"internalType":"uint256","name":"","type":"uint256"}],"name":"playerGames","outputs":[{"internalType":"uint256","name":"","type":"uint256"}],"stateMutability":"view","type":"function"},{"inputs":[{"internalType":"address","name":"","type":"address"}],"name":"playerStats","outputs":[{"internalType":"uint256","name":"gamesPlayed","type":"uint256"},{"internalType":"uint256","name":"correctGuesses","type":"uint256"},{"internalType":"uint256","name":"totalWinnings","type":"uint256"},{"internalType":"uint256","name":"accuracy","type":"uint256"}],"stateMutability":"view","type":"function"},{"inputs":[{"internalType":"address","name":"_admin","type":"address"}],"name":"removeAdmin","outputs":[],"stateMutability":"nonpayable","type":"function"},{"inputs":[],"name":"renounceOwnership","outputs":[],"stateMutability":"nonpayable","type":"function"},{"inputs":[{"internalType":"uint256","name":"_newTimeLimit","type":"uint256"}],"name":"setTimeLimit","outputs":[],"stateMutability":"nonpayable","type":"function"},{"inputs":[{"internalType":"uint256","name":"_gameId","type":"uint256"},{"internalType":"string","name":"_guess","type":"string"}],"name":"submitGuess","outputs":[],"stateMutability":"nonpayable","type":"function"},{"inputs":[{"internalType":"address","name":"newOwner","type":"address"}],"name":"transferOwnership","outputs":[],"stateMutability":"nonpayable","type":"function"},{"inputs":[],"name":"withdraw","outputs":[],"stateMutability":"nonpayable","type":"function"}],"evm":{"bytecode":{"linkReferences":{},"object":"608060405234610264576122218038038061001981610268565b928339810190604081830312610264576100328161028d565b602082015190916001600160401b03821161026457019180601f84011215610264578251926001600160401b038411610216578360051b90602080610078818501610268565b80978152019282010192831161026457602001905b82821061024c57505060015f55506001600160a01b0316801561023957600180546001600160a01b0319811683179091556001600160a01b03167f8be0079c531659141344cd1fd0a4f28419497f9722a3daafe3b4186f6b6457e05f80a36001600255601e6003555f5b815181101561022a576001600160a01b0361011282846102a1565b5116610121575b6001016100f7565b6001600160a01b0361013382846102a1565b51165f908152600760205260409020805460ff191660011790556001600160a01b0361015f82846102a1565b51169060085491680100000000000000008310156102165760018301806008558310156102025760085f527ff3f7a9fe364faab93b216da50a3214154f22a0a2b415b23a84c8169e8b636ee390920180546001600160a01b0319169092179091556001906001600160a01b036101d582856102a1565b51167f44d6d25963f097ad14f29f06854a01f575648a1ef82f30e562ccd3889717e3395f80a29050610119565b634e487b7160e01b5f52603260045260245ffd5b634e487b7160e01b5f52604160045260245ffd5b604051611f6b90816102b68239f35b631e4fbdf760e01b5f525f60045260245ffd5b602080916102598461028d565b81520191019061008d565b5f80fd5b6040519190601f01601f191682016001600160401b0381118382101761021657604052565b51906001600160a01b038216820361026457565b80518210156102025760209160051b01019056fe60806040526004361015610011575f80fd5b5f3560e01c80630a5694c214611b485780630d3b404f14611ade57806311117fc814611a9c578063117a5b9014611a0c578063129daf84146119585780631785f53c146117ab57806324d7806c146117505780632f54bf6e1461171b5780633ccfd60b146116d95780633db494cb146116bc578063429b62e51461167f57806347e1d550146115d05780634fd66eae14610a7c578063560d52d4146115b557806361e4a23a146114bc5780636cc7d8f814610f475780636ce5ba6f14610dbe5780637048027514610c85578063715018a614610c2a57806372aeb81f14610ba95780638b7bf3eb14610b8c5780638da5cb5b14610b645780639a53371e14610af5578063b135bbb014610ad8578063cdafbbb614610a7c578063d9f774fc146109b4578063db249ec8146104c6578063e2889c821461044f578063efaa55a014610275578063f2fde38b146101ef5763f4dcdc8e1461016e575f80fd5b346101eb5760403660031901126101eb5760043561018a611bb6565b90801515806101e0575b61019d90611e05565b5f526004602052600b60405f20019060018060a01b03165f526020526101dc6101c860405f20611c67565b604051918291602083526020830190611d07565b0390f35b506002548110610194565b5f80fd5b346101eb5760203660031901126101eb57610208611ba0565b610210611f0e565b6001600160a01b0316801561026257600180546001600160a01b0319811683179091556001600160a01b03167f8be0079c531659141344cd1fd0a4f28419497f9722a3daafe3b4186f6b6457e05f80a3005b631e4fbdf760e01b5f525f60045260245ffd5b60203660031901126101eb5760043580151580610444575b61029690611e05565b805f5260046020526102b160ff600960405f20015416611e47565b5f81815260046020526040902060088101546007909101546102df916102d79190611e88565b421115611ecf565b805f52600460205260405f20600a81019060018060a01b0333165f528160205260ff60405f2054166103ff57600481015434036103c45760059160018060a01b0333165f5260205260405f20600160ff1982541617905501610342348254611e88565b9055335f52600660205260405f208054600160401b8110156103b05761036d91600182018155611bf8565b81549060031b9083821b915f19901b1916179055604051903482527f03dfbe1fcb4e2d61f3b4a0c93d8f814c92250618b3387f396cc9fc9fafe2c20360203393a3005b634e487b7160e01b5f52604160045260245ffd5b60405162461bcd60e51b8152602060048201526013602482015272496e636f727265637420656e7472792066656560681b6044820152606490fd5b60405162461bcd60e51b815260206004820152601f60248201527f506c6179657220616c7265616479206a6f696e656420746869732067616d65006044820152606490fd5b50600254811061028d565b346101eb5760203660031901126101eb5760043561046b611f0e565b600a811015806104ba575b1561048057600355005b60405162461bcd60e51b8152602060048201526012602482015271125b9d985b1a59081d1a5b59481b1a5b5a5d60721b6044820152606490fd5b5061012c811115610476565b346101eb5760403660031901126101eb5760043560243567ffffffffffffffff81116101eb576104fa903690600401611daf565b90801515806109a9575b61050d90611e05565b805f52600460205261052860ff600960405f20015416611e47565b5f818152600460205260409020600881015460079091015461054e916102d79190611e88565b5f818152600460209081526040808320338452600a81019092529091205460ff161561096457335f908152600b8201602081905260409091205461059190611c0d565b61091f57335f90815260209190915260409020835167ffffffffffffffff81116103b0576105bf8254611c0d565b601f81116108da575b50806020601f8211600114610879575f9161086e575b508160011b915f199060031b1c19161790555b60028351602085012091016040515f918181549361060e85611c0d565b9283835260208301956001811690815f1461084f575060011461080b575b5061063992500382611c45565b5190201461067f575b7f17a40e01bf0138d07f888b59d3df945ee0f73445ebbde5213180ad0cb1b8b383604051602081528061067a33956020830190611d07565b0390a3005b5f8181526004602052604090206009810180546001600160b01b0319163360101b62010000600160b01b0316176101001790556005908101549081810290821583830490911417156107f75760649004808203918083116107f757335f52600560205260405f20906106f18254611e95565b9081835560018301926107048454611e95565b80945560028101610716878254611e88565b905561271084029380850461271014901517156107f75782156107e357600385938795049101551480156107be575b505080158015610784575b5050604051908152817f9e59e9b0ec1755ccaf2fd4a7ed4ad5b0a678626e91834aee53ebdf1356bd390a60203393a3610642565b5f808093819360018060a01b03600154169083906107b5575bf1156107aa578380610750565b6040513d5f823e3d90fd5b506108fc61079d565b5f906107da575b5f80809381933390f1156107aa578185610745565b506108fc6107c5565b634e487b7160e01b5f52601260045260245ffd5b634e487b7160e01b5f52601160045260245ffd5b90505f9291925260205f20905f915b818310610833575050906020610639928201018861062c565b602091935080600191548385880101520191019091839261081a565b60ff191687525061063993151560051b8301602001915089905061062c565b9050850151866105de565b5f8481528181209250601f198416905b8181106108c2575090836001949392106108aa575b5050811b0190556105f1565b8701515f1960f88460031b161c19169055868061089e565b9192602060018192868c015181550194019201610889565b825f5260205f20601f830160051c81019160208410610915575b601f0160051c01905b81811061090a57506105c8565b5f81556001016108fd565b90915081906108f4565b60405162461bcd60e51b815260206004820152601760248201527f416c7265616479207375626d69747465642067756573730000000000000000006044820152606490fd5b60405162461bcd60e51b815260206004820152601760248201527f506c61796572206e6f7420696e20746869732067616d650000000000000000006044820152606490fd5b506002548110610504565b346101eb575f3660031901126101eb576040518060206008549283815201809260085f527ff3f7a9fe364faab93b216da50a3214154f22a0a2b415b23a84c8169e8b636ee3905f5b818110610a5d5750505081610a12910382611c45565b604051918291602083019060208452518091526040830191905f5b818110610a3b575050500390f35b82516001600160a01b0316845285945060209384019390920191600101610a2d565b82546001600160a01b03168452602090930192600192830192016109fc565b346101eb5760203660031901126101eb576001600160a01b03610a9d611ba0565b165f90815260056020908152604091829020805460018201546002830154600390930154855192835293820152928301526060820152608090f35b346101eb575f3660031901126101eb576020600254604051908152f35b346101eb5760403660031901126101eb57600435610b11611bb6565b9080151580610b59575b610b2490611e05565b5f526004602052600b60405f20019060018060a01b03165f526020526020610b4f60405f2054611c0d565b1515604051908152f35b506002548110610b1b565b346101eb575f3660031901126101eb576001546040516001600160a01b039091168152602090f35b346101eb575f3660031901126101eb576020600854604051908152f35b346101eb575f3660031901126101eb575f6001600254905b818110610bd357602083604051908152f35b805f52600460205260ff600960405f2001541680610c0d575b610bf9575b600101610bc1565b91610c05600191611e95565b929050610bf1565b50805f52600460205260ff600960405f20015460081c1615610bec565b346101eb575f3660031901126101eb57610c42611f0e565b600180546001600160a01b031981169091555f906001600160a01b03167f8be0079c531659141344cd1fd0a4f28419497f9722a3daafe3b4186f6b6457e08280a3005b346101eb5760203660031901126101eb57610c9e611ba0565b610ca6611f0e565b6001600160a01b038116908115610d8757815f52600760205260ff60405f205416610d4f57815f52600760205260405f20600160ff1982541617905560085490600160401b8210156103b057610d05826001610d299401600855611bcc565b81546001600160a01b0393841660039290921b91821b9390911b1916919091179055565b7f44d6d25963f097ad14f29f06854a01f575648a1ef82f30e562ccd3889717e3395f80a2005b60405162461bcd60e51b815260206004820152601060248201526f20b63932b0b23c9030b71030b236b4b760811b6044820152606490fd5b60405162461bcd60e51b815260206004820152600f60248201526e496e76616c6964206164647265737360881b6044820152606490fd5b346101eb575f3660031901126101eb576002546001811115610f11575f198101908082116107f757610def82611ea3565b91610dfd6040519384611c45565b808352610e0c601f1991611ea3565b013660208401375f9060015b818110610eae5750508015610e6957602091610e6091604051848101904282524460408201523360601b606082015260548152610e56607482611c45565b5190200690611ebb565b51604051908152f35b60405162461bcd60e51b815260206004820152601960248201527f4e6f206163746976652067616d657320617661696c61626c65000000000000006044820152606490fd5b805f52600460205260ff600960405f2001541680610ef4575b610ed4575b600101610e18565b91610eec8184610ee660019488611ebb565b52611e95565b929050610ecc565b50805f52600460205260ff600960405f20015460081c1615610ec7565b60405162461bcd60e51b815260206004820152600e60248201526d139bc819d85b595cc8195e1a5cdd60921b6044820152606490fd5b60a03660031901126101eb5760043567ffffffffffffffff81116101eb57610f73903690600401611daf565b60243567ffffffffffffffff81116101eb57610f93903690600401611daf565b60443567ffffffffffffffff81116101eb57610fb3903690600401611daf565b916064359260843590335f52600760205260ff60405f20541680156114a8575b1561146d578415611429578134106113da5760025493610ff285611e95565b600255845f52600460205260405f2093858555600185019080519067ffffffffffffffff82116103b05781906110288454611c0d565b601f811161138a575b50602090601f8311600114611327575f9261131c575b50508160011b915f199060031b1c19161790555b8051600285019167ffffffffffffffff82116103b057819061107d8454611c0d565b601f81116112cc575b50602090601f8311600114611269575f9261125e575b50508160011b915f199060031b1c19161790555b8051600384019167ffffffffffffffff82116103b0576110d08354611c0d565b601f8111611219575b509160209693918695938890601f831160011461118b579282604096937fbd3f84a55fdc44f970adc6ccbaa93e78d7da5f3fc37c4b7da578d47c9ad2e46a9896936009965f92611180575b50508160011b915f199060031b1c19161790555b60048201849055600682018190556005820155600380546007830155426008830155910180546001600160b01b031916600117905554825191825286820152a2604051908152f35b015190508c80611124565b90601f19831691845f52815f20925f5b8181106111ff5750937fbd3f84a55fdc44f970adc6ccbaa93e78d7da5f3fc37c4b7da578d47c9ad2e46a989693600996936001938360409b98106111e7575b505050811b019055611138565b01515f1960f88460031b161c191690558c80806111da565b8284015185558b9a50600190940193928c01928c0161119b565b835f5260205f20601f840160051c81019160208510611254575b601f0160051c01905b81811061124957506110d9565b5f815560010161123c565b9091508190611233565b01519050888061109c565b5f8581528281209350601f198516905b8181106112b4575090846001959493921061129c575b505050811b0190556110b0565b01515f1960f88460031b161c1916905588808061128f565b92936020600181928786015181550195019301611279565b909150835f5260205f20601f840160051c81019160208510611312575b90601f859493920160051c01905b8181106113045750611086565b5f81558493506001016112f7565b90915081906112e9565b015190508980611047565b5f8581528281209350601f198516905b818110611372575090846001959493921061135a575b505050811b01905561105b565b01515f1960f88460031b161c1916905589808061134d565b92936020600181928786015181550195019301611337565b909150835f5260205f20601f840160051c810191602085106113d0575b90601f859493920160051c01905b8181106113c25750611031565b5f81558493506001016113b5565b90915081906113a7565b60405162461bcd60e51b815260206004820152602160248201527f496e73756666696369656e742066756e647320666f72207072697a6520706f6f6044820152601b60fa1b6064820152608490fd5b606460405162461bcd60e51b815260206004820152602060248201527f456e74727920666565206d7573742062652067726561746572207468616e20306044820152fd5b60405162461bcd60e51b815260206004820152601360248201527227b7363c9030b236b4b71037b91037bbb732b960691b6044820152606490fd5b506001546001600160a01b03163314610fd3565b346101eb5760203660031901126101eb57600435801515806115aa575b6114e290611e05565b805f5260046020526114fd60ff600960405f20015416611e47565b805f52600460205260405f2061151c6008820154600783015490611e88565b42111561156557602060058260097fa72860103f540f00e7d5c44ff9ea4cdb6cf0361b63e542d7a657c4c1154100de940161010061ffff198254161790550154604051908152a2005b60405162461bcd60e51b815260206004820152601860248201527f47616d6520686173206e6f7420657870697265642079657400000000000000006044820152606490fd5b5060025481106114d9565b346101eb575f3660031901126101eb57602060405160058152f35b346101eb5760203660031901126101eb5760043580151580611674575b6115f690611e05565b5f52600460205260405f208054906101dc600482015492600583015490600684015490600785015460088601549060098701549361163660018901611c67565b9561164f600361164860028c01611c67565b9a01611c67565b996040519a8b9a60018060a01b038960101c169960ff808b60081c169a16988d611d2b565b5060025481106115ed565b346101eb5760203660031901126101eb576001600160a01b036116a0611ba0565b165f526007602052602060ff60405f2054166040519015158152f35b346101eb575f3660031901126101eb576020600354604051908152f35b346101eb575f3660031901126101eb576116f1611f0e565b5f80808060018060a01b03600154164790828215611712575bf1156107aa57005b506108fc61170a565b346101eb5760203660031901126101eb576020611736611ba0565b6001546040516001600160a01b0392831691909216148152f35b346101eb5760203660031901126101eb5760206001600160a01b03611773611ba0565b16805f526007825260ff60405f205416908115611796575b506040519015158152f35b6001546001600160a01b03161490508261178b565b346101eb5760203660031901126101eb576117c4611ba0565b6117cc611f0e565b6001600160a01b03165f8181526007602052604090205460ff1615611924576001546001600160a01b031681146118e9575f818152600760205260408120805460ff191690555b60085490818110156118e2578261182982611bcc565b905460039190911b1c6001600160a01b03161461184a576001915001611813565b5f1982019182116107f757610d0561186461187c93611bcc565b905460039190911b1c6001600160a01b031691611bcc565b60085480156118ce575f190161189181611bcc565b81549060018060a01b039060031b1b191690556008555b7fa3b62bc36326052d97ea62d63c3d60308ed4c3ea8ac079dd8499f1e9c4f80c0f5f80a2005b634e487b7160e01b5f52603160045260245ffd5b50506118a8565b60405162461bcd60e51b815260206004820152601360248201527221b0b73737ba103932b6b7bb329037bbb732b960691b6044820152606490fd5b60405162461bcd60e51b815260206004820152600c60248201526b2737ba1030b71030b236b4b760a11b6044820152606490fd5b346101eb5760203660031901126101eb576001600160a01b03611979611ba0565b165f52600660205260405f20604051806020835491828152019081935f5260205f20905f5b8181106119f657505050816119b4910382611c45565b604051918291602083019060208452518091526040830191905f5b8181106119dd575050500390f35b82518452859450602093840193909201916001016119cf565b825484526020909301926001928301920161199e565b346101eb5760203660031901126101eb576004355f52600460205260405f208054906101dc611a3d60018301611c67565b611a4960028401611c67565b92611a5660038201611c67565b946004820154916005810154600682015460078301549160096008850154940154956040519a8b9a60018060a01b038960101c169960ff808b60081c169a16988d611d2b565b346101eb5760203660031901126101eb576004356008548110156101eb57611ac5602091611bcc565b905460405160039290921b1c6001600160a01b03168152f35b346101eb5760403660031901126101eb57600435611afa611bb6565b9080151580611b3d575b611b0d90611e05565b5f526004602052600a60405f20019060018060a01b03165f52602052602060ff60405f2054166040519015158152f35b506002548110611b04565b346101eb5760403660031901126101eb57611b61611ba0565b6001600160a01b03165f908152600660205260409020805460243591908210156101eb57602091611b9191611bf8565b90549060031b1c604051908152f35b600435906001600160a01b03821682036101eb57565b602435906001600160a01b03821682036101eb57565b600854811015611be45760085f5260205f2001905f90565b634e487b7160e01b5f52603260045260245ffd5b8054821015611be4575f5260205f2001905f90565b90600182811c92168015611c3b575b6020831014611c2757565b634e487b7160e01b5f52602260045260245ffd5b91607f1691611c1c565b90601f8019910116810190811067ffffffffffffffff8211176103b057604052565b9060405191825f825492611c7a84611c0d565b8084529360018116908115611ce55750600114611ca1575b50611c9f92500383611c45565b565b90505f9291925260205f20905f915b818310611cc9575050906020611c9f928201015f611c92565b6020919350806001915483858901015201910190918492611cb0565b905060209250611c9f94915060ff191682840152151560051b8201015f611c92565b805180835260209291819084018484015e5f828201840152601f01601f1916010190565b9a97949c9b989592611d6690611d58611d74946101808f6101609f9c999681528160208201520190611d07565b8d810360408f015290611d07565b908b820360608d0152611d07565b60808a019b909b5260a089015260c088015260e0870152610100860152151561012085015215156101408401526001600160a01b0316910152565b81601f820112156101eb5780359067ffffffffffffffff82116103b05760405192611de4601f8401601f191660200185611c45565b828452602083830101116101eb57815f926020809301838601378301015290565b15611e0c57565b60405162461bcd60e51b815260206004820152601360248201527211d85b5948191bd95cc81b9bdd08195e1a5cdd606a1b6044820152606490fd5b15611e4e57565b60405162461bcd60e51b815260206004820152601260248201527147616d65206973206e6f742061637469766560701b6044820152606490fd5b919082018092116107f757565b5f1981146107f75760010190565b67ffffffffffffffff81116103b05760051b60200190565b8051821015611be45760209160051b010190565b15611ed657565b60405162461bcd60e51b815260206004820152601060248201526f11d85b59481a185cc8195e1c1a5c995960821b6044820152606490fd5b6001546001600160a01b03163303611f2257565b63118cdaa760e01b5f523360045260245ffdfea2646970667358221220855191c07c6d9ebb7fe138014de66f36623526f975c3ef672954ca6f7678181d64736f6c634300081c0033","opcodes":"PUSH1 0x80 PUSH1 0x40 MSTORE CALLVALUE PUSH2 0x264 JUMPI PUSH2 0x2221 DUP1 CODESIZE SUB DUP1 PUSH2 0x19 DUP2 PUSH2 0x268 JUMP JUMPDEST SWAP3 DUP4 CODECOPY DUP2 ADD SWAP1 PUSH1 0x40 DUP2 DUP4 SUB SLT PUSH2 0x264 JUMPI PUSH2 0x32 DUP2 PUSH2 0x28D JUMP JUMPDEST PUSH1 0x20 DUP3 ADD MLOAD SWAP1 SWAP2 PUSH1 0x1 PUSH1 0x1 PUSH1 0x40 SHL SUB DUP3 GT PUSH2 0x264 JUMPI ADD SWAP2 DUP1 PUSH1 0x1F DUP5 ADD SLT ISZERO PUSH2 0x264 JUMPI DUP3 MLOAD SWAP3 PUSH1 0x1 PUSH1 0x1 PUSH1 0x40 SHL SUB DUP5 GT PUSH2 0x216 JUMPI DUP4 PUSH1 0x5 SHL SWAP1 PUSH1 0x20 DUP1 PUSH2 0x78 DUP2 DUP6 ADD PUSH2 0x268 JUMP JUMPDEST DUP1 SWAP8 DUP2 MSTORE ADD SWAP3 DUP3 ADD ADD SWAP3 DUP4 GT PUSH2 0x264 JUMPI PUSH1 0x20 ADD SWAP1 JUMPDEST DUP3 DUP3 LT PUSH2 0x24C JUMPI POP POP PUSH1 0x1 PUSH0 SSTORE POP PUSH1 0x1 PUSH1 0x1 PUSH1 0xA0 SHL SUB AND DUP1 ISZERO PUSH2 0x239 JUMPI PUSH1 0x1 DUP1 SLOAD PUSH1 0x1 PUSH1 0x1 PUSH1 0xA0 SHL SUB NOT DUP2 AND DUP4 OR SWAP1 SWAP2 SSTORE PUSH1 0x1 PUSH1 0x1 PUSH1 0xA0 SHL SUB AND PUSH32 0x8BE0079C531659141344CD1FD0A4F28419497F9722A3DAAFE3B4186F6B6457E0 PUSH0 DUP1 LOG3 PUSH1 0x1 PUSH1 0x2 SSTORE PUSH1 0x1E PUSH1 0x3 SSTORE PUSH0 JUMPDEST DUP2 MLOAD DUP2 LT ISZERO PUSH2 0x22A JUMPI PUSH1 0x1 PUSH1 0x1 PUSH1 0xA0 SHL SUB PUSH2 0x112 DUP3 DUP5 PUSH2 0x2A1 JUMP JUMPDEST MLOAD AND PUSH2 0x121 JUMPI JUMPDEST PUSH1 0x1 ADD PUSH2 0xF7 JUMP JUMPDEST PUSH1 0x1 PUSH1 0x1 PUSH1 0xA0 SHL SUB PUSH2 0x133 DUP3 DUP5 PUSH2 0x2A1 JUMP JUMPDEST MLOAD AND PUSH0 SWAP1 DUP2 MSTORE PUSH1 0x7 PUSH1 0x20 MSTORE PUSH1 0x40 SWAP1 KECCAK256 DUP1 SLOAD PUSH1 0xFF NOT AND PUSH1 0x1 OR SWAP1 SSTORE PUSH1 0x1 PUSH1 0x1 PUSH1 0xA0 SHL SUB PUSH2 0x15F DUP3 DUP5 PUSH2 0x2A1 JUMP JUMPDEST MLOAD AND SWAP1 PUSH1 0x8 SLOAD SWAP2 PUSH9 0x10000000000000000 DUP4 LT ISZERO PUSH2 0x216 JUMPI PUSH1 0x1 DUP4 ADD DUP1 PUSH1 0x8 SSTORE DUP4 LT ISZERO PUSH2 0x202 JUMPI PUSH1 0x8 PUSH0 MSTORE PUSH32 0xF3F7A9FE364FAAB93B216DA50A3214154F22A0A2B415B23A84C8169E8B636EE3 SWAP1 SWAP3 ADD DUP1 SLOAD PUSH1 0x1 PUSH1 0x1 PUSH1 0xA0 SHL SUB NOT AND SWAP1 SWAP3 OR SWAP1 SWAP2 SSTORE PUSH1 0x1 SWAP1 PUSH1 0x1 PUSH1 0x1 PUSH1 0xA0 SHL SUB PUSH2 0x1D5 DUP3 DUP6 PUSH2 0x2A1 JUMP JUMPDEST MLOAD AND PUSH32 0x44D6D25963F097AD14F29F06854A01F575648A1EF82F30E562CCD3889717E339 PUSH0 DUP1 LOG2 SWAP1 POP PUSH2 0x119 JUMP JUMPDEST PUSH4 0x4E487B71 PUSH1 0xE0 SHL PUSH0 MSTORE PUSH1 0x32 PUSH1 0x4 MSTORE PUSH1 0x24 PUSH0 REVERT JUMPDEST PUSH4 0x4E487B71 PUSH1 0xE0 SHL PUSH0 MSTORE PUSH1 0x41 PUSH1 0x4 MSTORE PUSH1 0x24 PUSH0 REVERT JUMPDEST PUSH1 0x40 MLOAD PUSH2 0x1F6B SWAP1 DUP2 PUSH2 0x2B6 DUP3 CODECOPY RETURN JUMPDEST PUSH4 0x1E4FBDF7 PUSH1 0xE0 SHL PUSH0 MSTORE PUSH0 PUSH1 0x4 MSTORE PUSH1 0x24 PUSH0 REVERT JUMPDEST PUSH1 0x20 DUP1 SWAP2 PUSH2 0x259 DUP5 PUSH2 0x28D JUMP JUMPDEST DUP2 MSTORE ADD SWAP2 ADD SWAP1 PUSH2 0x8D JUMP JUMPDEST PUSH0 DUP1 REVERT JUMPDEST PUSH1 0x40 MLOAD SWAP2 SWAP1 PUSH1 0x1F ADD PUSH1 0x1F NOT AND DUP3 ADD PUSH1 0x1 PUSH1 0x1 PUSH1 0x40 SHL SUB DUP2 GT DUP4 DUP3 LT OR PUSH2 0x216 JUMPI PUSH1 0x40 MSTORE JUMP JUMPDEST MLOAD SWAP1 PUSH1 0x1 PUSH1 0x1 PUSH1 0xA0 SHL SUB DUP3 AND DUP3 SUB PUSH2 0x264 JUMPI JUMP JUMPDEST DUP1 MLOAD DUP3 LT ISZERO PUSH2 0x202 JUMPI PUSH1 0x20 SWAP2 PUSH1 0x5 SHL ADD ADD SWAP1 JUMP INVALID PUSH1 0x80 PUSH1 0x40 MSTORE PUSH1 0x4 CALLDATASIZE LT ISZERO PUSH2 0x11 JUMPI PUSH0 DUP1 REVERT JUMPDEST PUSH0 CALLDATALOAD PUSH1 0xE0 SHR DUP1 PUSH4 0xA5694C2 EQ PUSH2 0x1B48 JUMPI DUP1 PUSH4 0xD3B404F EQ PUSH2 0x1ADE JUMPI DUP1 PUSH4 0x11117FC8 EQ PUSH2 0x1A9C JUMPI DUP1 PUSH4 0x117A5B90 EQ PUSH2 0x1A0C JUMPI DUP1 PUSH4 0x129DAF84 EQ PUSH2 0x1958 JUMPI DUP1 PUSH4 0x1785F53C EQ PUSH2 0x17AB JUMPI DUP1 PUSH4 0x24D7806C EQ PUSH2 0x1750 JUMPI DUP1 PUSH4 0x2F54BF6E EQ PUSH2 0x171B JUMPI DUP1 PUSH4 0x3CCFD60B EQ PUSH2 0x16D9 JUMPI DUP1 PUSH4 0x3DB494CB EQ PUSH2 0x16BC JUMPI DUP1 PUSH4 0x429B62E5 EQ PUSH2 0x167F JUMPI DUP1 PUSH4 0x47E1D550 EQ PUSH2 0x15D0 JUMPI DUP1 PUSH4 0x4FD66EAE EQ PUSH2 0xA7C JUMPI DUP1 PUSH4 0x560D52D4 EQ PUSH2 0x15B5 JUMPI DUP1 PUSH4 0x61E4A23A EQ PUSH2 0x14BC JUMPI DUP1 PUSH4 0x6CC7D8F8 EQ PUSH2 0xF47 JUMPI DUP1 PUSH4 0x6CE5BA6F EQ PUSH2 0xDBE JUMPI DUP1 PUSH4 0x70480275 EQ PUSH2 0xC85 JUMPI DUP1 PUSH4 0x715018A6 EQ PUSH2 0xC2A JUMPI DUP1 PUSH4 0x72AEB81F EQ PUSH2 0xBA9 JUMPI DUP1 PUSH4 0x8B7BF3EB EQ PUSH2 0xB8C JUMPI DUP1 PUSH4 0x8DA5CB5B EQ PUSH2 0xB64 JUMPI DUP1 PUSH4 0x9A53371E EQ PUSH2 0xAF5 JUMPI DUP1 PUSH4 0xB135BBB0 EQ PUSH2 0xAD8 JUMPI DUP1 PUSH4 0xCDAFBBB6 EQ PUSH2 0xA7C JUMPI DUP1 PUSH4 0xD9F774FC EQ PUSH2 0x9B4 JUMPI DUP1 PUSH4 0xDB249EC8 EQ PUSH2 0x4C6 JUMPI DUP1 PUSH4 0xE2889C82 EQ PUSH2 0x44F JUMPI DUP1 PUSH4 0xEFAA55A0 EQ PUSH2 0x275 JUMPI DUP1 PUSH4 0xF2FDE38B EQ PUSH2 0x1EF JUMPI PUSH4 0xF4DCDC8E EQ PUSH2 0x16E JUMPI PUSH0 DUP1 REVERT JUMPDEST CALLVALUE PUSH2 0x1EB JUMPI PUSH1 0x40 CALLDATASIZE PUSH1 0x3 NOT ADD SLT PUSH2 0x1EB JUMPI PUSH1 0x4 CALLDATALOAD PUSH2 0x18A PUSH2 0x1BB6 JUMP JUMPDEST SWAP1 DUP1 ISZERO ISZERO DUP1 PUSH2 0x1E0 JUMPI JUMPDEST PUSH2 0x19D SWAP1 PUSH2 0x1E05 JUMP JUMPDEST PUSH0 MSTORE PUSH1 0x4 PUSH1 0x20 MSTORE PUSH1 0xB PUSH1 0x40 PUSH0 KECCAK256 ADD SWAP1 PUSH1 0x1 DUP1 PUSH1 0xA0 SHL SUB AND PUSH0 MSTORE PUSH1 0x20 MSTORE PUSH2 0x1DC PUSH2 0x1C8 PUSH1 0x40 PUSH0 KECCAK256 PUSH2 0x1C67 JUMP JUMPDEST PUSH1 0x40 MLOAD SWAP2 DUP3 SWAP2 PUSH1 0x20 DUP4 MSTORE PUSH1 0x20 DUP4 ADD SWAP1 PUSH2 0x1D07 JUMP JUMPDEST SUB SWAP1 RETURN JUMPDEST POP PUSH1 0x2 SLOAD DUP2 LT PUSH2 0x194 JUMP JUMPDEST PUSH0 DUP1 REVERT JUMPDEST CALLVALUE PUSH2 0x1EB JUMPI PUSH1 0x20 CALLDATASIZE PUSH1 0x3 NOT ADD SLT PUSH2 0x1EB JUMPI PUSH2 0x208 PUSH2 0x1BA0 JUMP JUMPDEST PUSH2 0x210 PUSH2 0x1F0E JUMP JUMPDEST PUSH1 0x1 PUSH1 0x1 PUSH1 0xA0 SHL SUB AND DUP1 ISZERO PUSH2 0x262 JUMPI PUSH1 0x1 DUP1 SLOAD PUSH1 0x1 PUSH1 0x1 PUSH1 0xA0 SHL SUB NOT DUP2 AND DUP4 OR SWAP1 SWAP2 SSTORE PUSH1 0x1 PUSH1 0x1 PUSH1 0xA0 SHL SUB AND PUSH32 0x8BE0079C531659141344CD1FD0A4F28419497F9722A3DAAFE3B4186F6B6457E0 PUSH0 DUP1 LOG3 STOP JUMPDEST PUSH4 0x1E4FBDF7 PUSH1 0xE0 SHL PUSH0 MSTORE PUSH0 PUSH1 0x4 MSTORE PUSH1 0x24 PUSH0 REVERT JUMPDEST PUSH1 0x20 CALLDATASIZE PUSH1 0x3 NOT ADD SLT PUSH2 0x1EB JUMPI PUSH1 0x4 CALLDATALOAD DUP1 ISZERO ISZERO DUP1 PUSH2 0x444 JUMPI JUMPDEST PUSH2 0x296 SWAP1 PUSH2 0x1E05 JUMP JUMPDEST DUP1 PUSH0 MSTORE PUSH1 0x4 PUSH1 0x20 MSTORE PUSH2 0x2B1 PUSH1 0xFF PUSH1 0x9 PUSH1 0x40 PUSH0 KECCAK256 ADD SLOAD AND PUSH2 0x1E47 JUMP JUMPDEST PUSH0 DUP2 DUP2 MSTORE PUSH1 0x4 PUSH1 0x20 MSTORE PUSH1 0x40 SWAP1 KECCAK256 PUSH1 0x8 DUP2 ADD SLOAD PUSH1 0x7 SWAP1 SWAP2 ADD SLOAD PUSH2 0x2DF SWAP2 PUSH2 0x2D7 SWAP2 SWAP1 PUSH2 0x1E88 JUMP JUMPDEST TIMESTAMP GT ISZERO PUSH2 0x1ECF JUMP JUMPDEST DUP1 PUSH0 MSTORE PUSH1 0x4 PUSH1 0x20 MSTORE PUSH1 0x40 PUSH0 KECCAK256 PUSH1 0xA DUP2 ADD SWAP1 PUSH1 0x1 DUP1 PUSH1 0xA0 SHL SUB CALLER AND PUSH0 MSTORE DUP2 PUSH1 0x20 MSTORE PUSH1 0xFF PUSH1 0x40 PUSH0 KECCAK256 SLOAD AND PUSH2 0x3FF JUMPI PUSH1 0x4 DUP2 ADD SLOAD CALLVALUE SUB PUSH2 0x3C4 JUMPI PUSH1 0x5 SWAP2 PUSH1 0x1 DUP1 PUSH1 0xA0 SHL SUB CALLER AND PUSH0 MSTORE PUSH1 0x20 MSTORE PUSH1 0x40 PUSH0 KECCAK256 PUSH1 0x1 PUSH1 0xFF NOT DUP3 SLOAD AND OR SWAP1 SSTORE ADD PUSH2 0x342 CALLVALUE DUP3 SLOAD PUSH2 0x1E88 JUMP JUMPDEST SWAP1 SSTORE CALLER PUSH0 MSTORE PUSH1 0x6 PUSH1 0x20 MSTORE PUSH1 0x40 PUSH0 KECCAK256 DUP1 SLOAD PUSH1 0x1 PUSH1 0x40 SHL DUP2 LT ISZERO PUSH2 0x3B0 JUMPI PUSH2 0x36D SWAP2 PUSH1 0x1 DUP3 ADD DUP2 SSTORE PUSH2 0x1BF8 JUMP JUMPDEST DUP2 SLOAD SWAP1 PUSH1 0x3 SHL SWAP1 DUP4 DUP3 SHL SWAP2 PUSH0 NOT SWAP1 SHL NOT AND OR SWAP1 SSTORE PUSH1 0x40 MLOAD SWAP1 CALLVALUE DUP3 MSTORE PUSH32 0x3DFBE1FCB4E2D61F3B4A0C93D8F814C92250618B3387F396CC9FC9FAFE2C203 PUSH1 0x20 CALLER SWAP4 LOG3 STOP JUMPDEST PUSH4 0x4E487B71 PUSH1 0xE0 SHL PUSH0 MSTORE PUSH1 0x41 PUSH1 0x4 MSTORE PUSH1 0x24 PUSH0 REVERT JUMPDEST PUSH1 0x40 MLOAD PUSH3 0x461BCD PUSH1 0xE5 SHL DUP2 MSTORE PUSH1 0x20 PUSH1 0x4 DUP3 ADD MSTORE PUSH1 0x13 PUSH1 0x24 DUP3 ADD MSTORE PUSH19 0x496E636F727265637420656E74727920666565 PUSH1 0x68 SHL PUSH1 0x44 DUP3 ADD MSTORE PUSH1 0x64 SWAP1 REVERT JUMPDEST PUSH1 0x40 MLOAD PUSH3 0x461BCD PUSH1 0xE5 SHL DUP2 MSTORE PUSH1 0x20 PUSH1 0x4 DUP3 ADD MSTORE PUSH1 0x1F PUSH1 0x24 DUP3 ADD MSTORE PUSH32 0x506C6179657220616C7265616479206A6F696E656420746869732067616D6500 PUSH1 0x44 DUP3 ADD MSTORE PUSH1 0x64 SWAP1 REVERT JUMPDEST POP PUSH1 0x2 SLOAD DUP2 LT PUSH2 0x28D JUMP JUMPDEST CALLVALUE PUSH2 0x1EB JUMPI PUSH1 0x20 CALLDATASIZE PUSH1 0x3 NOT ADD SLT PUSH2 0x1EB JUMPI PUSH1 0x4 CALLDATALOAD PUSH2 0x46B PUSH2 0x1F0E JUMP JUMPDEST PUSH1 0xA DUP2 LT ISZERO DUP1 PUSH2 0x4BA JUMPI JUMPDEST ISZERO PUSH2 0x480 JUMPI PUSH1 0x3 SSTORE STOP JUMPDEST PUSH1 0x40 MLOAD PUSH3 0x461BCD PUSH1 0xE5 SHL DUP2 MSTORE PUSH1 0x20 PUSH1 0x4 DUP3 ADD MSTORE PUSH1 0x12 PUSH1 0x24 DUP3 ADD MSTORE PUSH18 0x125B9D985B1A59081D1A5B59481B1A5B5A5D PUSH1 0x72 SHL PUSH1 0x44 DUP3 ADD MSTORE PUSH1 0x64 SWAP1 REVERT JUMPDEST POP PUSH2 0x12C DUP2 GT ISZERO PUSH2 0x476 JUMP JUMPDEST CALLVALUE PUSH2 0x1EB JUMPI PUSH1 0x40 CALLDATASIZE PUSH1 0x3 NOT ADD SLT PUSH2 0x1EB JUMPI PUSH1 0x4 CALLDATALOAD PUSH1 0x24 CALLDATALOAD PUSH8 0xFFFFFFFFFFFFFFFF DUP2 GT PUSH2 0x1EB JUMPI PUSH2 0x4FA SWAP1 CALLDATASIZE SWAP1 PUSH1 0x4 ADD PUSH2 0x1DAF JUMP JUMPDEST SWAP1 DUP1 ISZERO ISZERO DUP1 PUSH2 0x9A9 JUMPI JUMPDEST PUSH2 0x50D SWAP1 PUSH2 0x1E05 JUMP JUMPDEST DUP1 PUSH0 MSTORE PUSH1 0x4 PUSH1 0x20 MSTORE PUSH2 0x528 PUSH1 0xFF PUSH1 0x9 PUSH1 0x40 PUSH0 KECCAK256 ADD SLOAD AND PUSH2 0x1E47 JUMP JUMPDEST PUSH0 DUP2 DUP2 MSTORE PUSH1 0x4 PUSH1 0x20 MSTORE PUSH1 0x40 SWAP1 KECCAK256 PUSH1 0x8 DUP2 ADD SLOAD PUSH1 0x7 SWAP1 SWAP2 ADD SLOAD PUSH2 0x54E SWAP2 PUSH2 0x2D7 SWAP2 SWAP1 PUSH2 0x1E88 JUMP JUMPDEST PUSH0 DUP2 DUP2 MSTORE PUSH1 0x4 PUSH1 0x20 SWAP1 DUP2 MSTORE PUSH1 0x40 DUP1 DUP4 KECCAK256 CALLER DUP5 MSTORE PUSH1 0xA DUP2 ADD SWAP1 SWAP3 MSTORE SWAP1 SWAP2 KECCAK256 SLOAD PUSH1 0xFF AND ISZERO PUSH2 0x964 JUMPI CALLER PUSH0 SWAP1 DUP2 MSTORE PUSH1 0xB DUP3 ADD PUSH1 0x20 DUP2 SWAP1 MSTORE PUSH1 0x40 SWAP1 SWAP2 KECCAK256 SLOAD PUSH2 0x591 SWAP1 PUSH2 0x1C0D JUMP JUMPDEST PUSH2 0x91F JUMPI CALLER PUSH0 SWAP1 DUP2 MSTORE PUSH1 0x20 SWAP2 SWAP1 SWAP2 MSTORE PUSH1 0x40 SWAP1 KECCAK256 DUP4 MLOAD PUSH8 0xFFFFFFFFFFFFFFFF DUP2 GT PUSH2 0x3B0 JUMPI PUSH2 0x5BF DUP3 SLOAD PUSH2 0x1C0D JUMP JUMPDEST PUSH1 0x1F DUP2 GT PUSH2 0x8DA JUMPI JUMPDEST POP DUP1 PUSH1 0x20 PUSH1 0x1F DUP3 GT PUSH1 0x1 EQ PUSH2 0x879 JUMPI PUSH0 SWAP2 PUSH2 0x86E JUMPI JUMPDEST POP DUP2 PUSH1 0x1 SHL SWAP2 PUSH0 NOT SWAP1 PUSH1 0x3 SHL SHR NOT AND OR SWAP1 SSTORE JUMPDEST PUSH1 0x2 DUP4 MLOAD PUSH1 0x20 DUP6 ADD KECCAK256 SWAP2 ADD PUSH1 0x40 MLOAD PUSH0 SWAP2 DUP2 DUP2 SLOAD SWAP4 PUSH2 0x60E DUP6 PUSH2 0x1C0D JUMP JUMPDEST SWAP3 DUP4 DUP4 MSTORE PUSH1 0x20 DUP4 ADD SWAP6 PUSH1 0x1 DUP2 AND SWAP1 DUP2 PUSH0 EQ PUSH2 0x84F JUMPI POP PUSH1 0x1 EQ PUSH2 0x80B JUMPI JUMPDEST POP PUSH2 0x639 SWAP3 POP SUB DUP3 PUSH2 0x1C45 JUMP JUMPDEST MLOAD SWAP1 KECCAK256 EQ PUSH2 0x67F JUMPI JUMPDEST PUSH32 0x17A40E01BF0138D07F888B59D3DF945EE0F73445EBBDE5213180AD0CB1B8B383 PUSH1 0x40 MLOAD PUSH1 0x20 DUP2 MSTORE DUP1 PUSH2 0x67A CALLER SWAP6 PUSH1 0x20 DUP4 ADD SWAP1 PUSH2 0x1D07 JUMP JUMPDEST SUB SWAP1 LOG3 STOP JUMPDEST PUSH0 DUP2 DUP2 MSTORE PUSH1 0x4 PUSH1 0x20 MSTORE PUSH1 0x40 SWAP1 KECCAK256 PUSH1 0x9 DUP2 ADD DUP1 SLOAD PUSH1 0x1 PUSH1 0x1 PUSH1 0xB0 SHL SUB NOT AND CALLER PUSH1 0x10 SHL PUSH3 0x10000 PUSH1 0x1 PUSH1 0xB0 SHL SUB AND OR PUSH2 0x100 OR SWAP1 SSTORE PUSH1 0x5 SWAP1 DUP2 ADD SLOAD SWAP1 DUP2 DUP2 MUL SWAP1 DUP3 ISZERO DUP4 DUP4 DIV SWAP1 SWAP2 EQ OR ISZERO PUSH2 0x7F7 JUMPI PUSH1 0x64 SWAP1 DIV DUP1 DUP3 SUB SWAP2 DUP1 DUP4 GT PUSH2 0x7F7 JUMPI CALLER PUSH0 MSTORE PUSH1 0x5 PUSH1 0x20 MSTORE PUSH1 0x40 PUSH0 KECCAK256 SWAP1 PUSH2 0x6F1 DUP3 SLOAD PUSH2 0x1E95 JUMP JUMPDEST SWAP1 DUP2 DUP4 SSTORE PUSH1 0x1 DUP4 ADD SWAP3 PUSH2 0x704 DUP5 SLOAD PUSH2 0x1E95 JUMP JUMPDEST DUP1 SWAP5 SSTORE PUSH1 0x2 DUP2 ADD PUSH2 0x716 DUP8 DUP3 SLOAD PUSH2 0x1E88 JUMP JUMPDEST SWAP1 SSTORE PUSH2 0x2710 DUP5 MUL SWAP4 DUP1 DUP6 DIV PUSH2 0x2710 EQ SWAP1 ISZERO OR ISZERO PUSH2 0x7F7 JUMPI DUP3 ISZERO PUSH2 0x7E3 JUMPI PUSH1 0x3 DUP6 SWAP4 DUP8 SWAP6 DIV SWAP2 ADD SSTORE EQ DUP1 ISZERO PUSH2 0x7BE JUMPI JUMPDEST POP POP DUP1 ISZERO DUP1 ISZERO PUSH2 0x784 JUMPI JUMPDEST POP POP PUSH1 0x40 MLOAD SWAP1 DUP2 MSTORE DUP2 PUSH32 0x9E59E9B0EC1755CCAF2FD4A7ED4AD5B0A678626E91834AEE53EBDF1356BD390A PUSH1 0x20 CALLER SWAP4 LOG3 PUSH2 0x642 JUMP JUMPDEST PUSH0 DUP1 DUP1 SWAP4 DUP2 SWAP4 PUSH1 0x1 DUP1 PUSH1 0xA0 SHL SUB PUSH1 0x1 SLOAD AND SWAP1 DUP4 SWAP1 PUSH2 0x7B5 JUMPI JUMPDEST CALL ISZERO PUSH2 0x7AA JUMPI DUP4 DUP1 PUSH2 0x750 JUMP JUMPDEST PUSH1 0x40 MLOAD RETURNDATASIZE PUSH0 DUP3 RETURNDATACOPY RETURNDATASIZE SWAP1 REVERT JUMPDEST POP PUSH2 0x8FC PUSH2 0x79D JUMP JUMPDEST PUSH0 SWAP1 PUSH2 0x7DA JUMPI JUMPDEST PUSH0 DUP1 DUP1 SWAP4 DUP2 SWAP4 CALLER SWAP1 CALL ISZERO PUSH2 0x7AA JUMPI DUP2 DUP6 PUSH2 0x745 JUMP JUMPDEST POP PUSH2 0x8FC PUSH2 0x7C5 JUMP JUMPDEST PUSH4 0x4E487B71 PUSH1 0xE0 SHL PUSH0 MSTORE PUSH1 0x12 PUSH1 0x4 MSTORE PUSH1 0x24 PUSH0 REVERT JUMPDEST PUSH4 0x4E487B71 PUSH1 0xE0 SHL PUSH0 MSTORE PUSH1 0x11 PUSH1 0x4 MSTORE PUSH1 0x24 PUSH0 REVERT JUMPDEST SWAP1 POP PUSH0 SWAP3 SWAP2 SWAP3 MSTORE PUSH1 0x20 PUSH0 KECCAK256 SWAP1 PUSH0 SWAP2 JUMPDEST DUP2 DUP4 LT PUSH2 0x833 JUMPI POP POP SWAP1 PUSH1 0x20 PUSH2 0x639 SWAP3 DUP3 ADD ADD DUP9 PUSH2 0x62C JUMP JUMPDEST PUSH1 0x20 SWAP2 SWAP4 POP DUP1 PUSH1 0x1 SWAP2 SLOAD DUP4 DUP6 DUP9 ADD ADD MSTORE ADD SWAP2 ADD SWAP1 SWAP2 DUP4 SWAP3 PUSH2 0x81A JUMP JUMPDEST PUSH1 0xFF NOT AND DUP8 MSTORE POP PUSH2 0x639 SWAP4 ISZERO ISZERO PUSH1 0x5 SHL DUP4 ADD PUSH1 0x20 ADD SWAP2 POP DUP10 SWAP1 POP PUSH2 0x62C JUMP JUMPDEST SWAP1 POP DUP6 ADD MLOAD DUP7 PUSH2 0x5DE JUMP JUMPDEST PUSH0 DUP5 DUP2 MSTORE DUP2 DUP2 KECCAK256 SWAP3 POP PUSH1 0x1F NOT DUP5 AND SWAP1 JUMPDEST DUP2 DUP2 LT PUSH2 0x8C2 JUMPI POP SWAP1 DUP4 PUSH1 0x1 SWAP5 SWAP4 SWAP3 LT PUSH2 0x8AA JUMPI JUMPDEST POP POP DUP2 SHL ADD SWAP1 SSTORE PUSH2 0x5F1 JUMP JUMPDEST DUP8 ADD MLOAD PUSH0 NOT PUSH1 0xF8 DUP5 PUSH1 0x3 SHL AND SHR NOT AND SWAP1 SSTORE DUP7 DUP1 PUSH2 0x89E JUMP JUMPDEST SWAP2 SWAP3 PUSH1 0x20 PUSH1 0x1 DUP2 SWAP3 DUP7 DUP13 ADD MLOAD DUP2 SSTORE ADD SWAP5 ADD SWAP3 ADD PUSH2 0x889 JUMP JUMPDEST DUP3 PUSH0 MSTORE PUSH1 0x20 PUSH0 KECCAK256 PUSH1 0x1F DUP4 ADD PUSH1 0x5 SHR DUP2 ADD SWAP2 PUSH1 0x20 DUP5 LT PUSH2 0x915 JUMPI JUMPDEST PUSH1 0x1F ADD PUSH1 0x5 SHR ADD SWAP1 JUMPDEST DUP2 DUP2 LT PUSH2 0x90A JUMPI POP PUSH2 0x5C8 JUMP JUMPDEST PUSH0 DUP2 SSTORE PUSH1 0x1 ADD PUSH2 0x8FD JUMP JUMPDEST SWAP1 SWAP2 POP DUP2 SWAP1 PUSH2 0x8F4 JUMP JUMPDEST PUSH1 0x40 MLOAD PUSH3 0x461BCD PUSH1 0xE5 SHL DUP2 MSTORE PUSH1 0x20 PUSH1 0x4 DUP3 ADD MSTORE PUSH1 0x17 PUSH1 0x24 DUP3 ADD MSTORE PUSH32 0x416C7265616479207375626D6974746564206775657373000000000000000000 PUSH1 0x44 DUP3 ADD MSTORE PUSH1 0x64 SWAP1 REVERT JUMPDEST PUSH1 0x40 MLOAD PUSH3 0x461BCD PUSH1 0xE5 SHL DUP2 MSTORE PUSH1 0x20 PUSH1 0x4 DUP3 ADD MSTORE PUSH1 0x17 PUSH1 0x24 DUP3 ADD MSTORE PUSH32 0x506C61796572206E6F7420696E20746869732067616D65000000000000000000 PUSH1 0x44 DUP3 ADD MSTORE PUSH1 0x64 SWAP1 REVERT JUMPDEST POP PUSH1 0x2 SLOAD DUP2 LT PUSH2 0x504 JUMP JUMPDEST CALLVALUE PUSH2 0x1EB JUMPI PUSH0 CALLDATASIZE PUSH1 0x3 NOT ADD SLT PUSH2 0x1EB JUMPI PUSH1 0x40 MLOAD DUP1 PUSH1 0x20 PUSH1 0x8 SLOAD SWAP3 DUP4 DUP2 MSTORE ADD DUP1 SWAP3 PUSH1 0x8 PUSH0 MSTORE PUSH32 0xF3F7A9FE364FAAB93B216DA50A3214154F22A0A2B415B23A84C8169E8B636EE3 SWAP1 PUSH0 JUMPDEST DUP2 DUP2 LT PUSH2 0xA5D JUMPI POP POP POP DUP2 PUSH2 0xA12 SWAP2 SUB DUP3 PUSH2 0x1C45 JUMP JUMPDEST PUSH1 0x40 MLOAD SWAP2 DUP3 SWAP2 PUSH1 0x20 DUP4 ADD SWAP1 PUSH1 0x20 DUP5 MSTORE MLOAD DUP1 SWAP2 MSTORE PUSH1 0x40 DUP4 ADD SWAP2 SWAP1 PUSH0 JUMPDEST DUP2 DUP2 LT PUSH2 0xA3B JUMPI POP POP POP SUB SWAP1 RETURN JUMPDEST DUP3 MLOAD PUSH1 0x1 PUSH1 0x1 PUSH1 0xA0 SHL SUB AND DUP5 MSTORE DUP6 SWAP5 POP PUSH1 0x20 SWAP4 DUP5 ADD SWAP4 SWAP1 SWAP3 ADD SWAP2 PUSH1 0x1 ADD PUSH2 0xA2D JUMP JUMPDEST DUP3 SLOAD PUSH1 0x1 PUSH1 0x1 PUSH1 0xA0 SHL SUB AND DUP5 MSTORE PUSH1 0x20 SWAP1 SWAP4 ADD SWAP3 PUSH1 0x1 SWAP3 DUP4 ADD SWAP3 ADD PUSH2 0x9FC JUMP JUMPDEST CALLVALUE PUSH2 0x1EB JUMPI PUSH1 0x20 CALLDATASIZE PUSH1 0x3 NOT ADD SLT PUSH2 0x1EB JUMPI PUSH1 0x1 PUSH1 0x1 PUSH1 0xA0 SHL SUB PUSH2 0xA9D PUSH2 0x1BA0 JUMP JUMPDEST AND PUSH0 SWAP1 DUP2 MSTORE PUSH1 0x5 PUSH1 0x20 SWAP1 DUP2 MSTORE PUSH1 0x40 SWAP2 DUP3 SWAP1 KECCAK256 DUP1 SLOAD PUSH1 0x1 DUP3 ADD SLOAD PUSH1 0x2 DUP4 ADD SLOAD PUSH1 0x3 SWAP1 SWAP4 ADD SLOAD DUP6 MLOAD SWAP3 DUP4 MSTORE SWAP4 DUP3 ADD MSTORE SWAP3 DUP4 ADD MSTORE PUSH1 0x60 DUP3 ADD MSTORE PUSH1 0x80 SWAP1 RETURN JUMPDEST CALLVALUE PUSH2 0x1EB JUMPI PUSH0 CALLDATASIZE PUSH1 0x3 NOT ADD SLT PUSH2 0x1EB JUMPI PUSH1 0x20 PUSH1 0x2 SLOAD PUSH1 0x40 MLOAD SWAP1 DUP2 MSTORE RETURN JUMPDEST CALLVALUE PUSH2 0x1EB JUMPI PUSH1 0x40 CALLDATASIZE PUSH1 0x3 NOT ADD SLT PUSH2 0x1EB JUMPI PUSH1 0x4 CALLDATALOAD PUSH2 0xB11 PUSH2 0x1BB6 JUMP JUMPDEST SWAP1 DUP1 ISZERO ISZERO DUP1 PUSH2 0xB59 JUMPI JUMPDEST PUSH2 0xB24 SWAP1 PUSH2 0x1E05 JUMP JUMPDEST PUSH0 MSTORE PUSH1 0x4 PUSH1 0x20 MSTORE PUSH1 0xB PUSH1 0x40 PUSH0 KECCAK256 ADD SWAP1 PUSH1 0x1 DUP1 PUSH1 0xA0 SHL SUB AND PUSH0 MSTORE PUSH1 0x20 MSTORE PUSH1 0x20 PUSH2 0xB4F PUSH1 0x40 PUSH0 KECCAK256 SLOAD PUSH2 0x1C0D JUMP JUMPDEST ISZERO ISZERO PUSH1 0x40 MLOAD SWAP1 DUP2 MSTORE RETURN JUMPDEST POP PUSH1 0x2 SLOAD DUP2 LT PUSH2 0xB1B JUMP JUMPDEST CALLVALUE PUSH2 0x1EB JUMPI PUSH0 CALLDATASIZE PUSH1 0x3 NOT ADD SLT PUSH2 0x1EB JUMPI PUSH1 0x1 SLOAD PUSH1 0x40 MLOAD PUSH1 0x1 PUSH1 0x1 PUSH1 0xA0 SHL SUB SWAP1 SWAP2 AND DUP2 MSTORE PUSH1 0x20 SWAP1 RETURN JUMPDEST CALLVALUE PUSH2 0x1EB JUMPI PUSH0 CALLDATASIZE PUSH1 0x3 NOT ADD SLT PUSH2 0x1EB JUMPI PUSH1 0x20 PUSH1 0x8 SLOAD PUSH1 0x40 MLOAD SWAP1 DUP2 MSTORE RETURN JUMPDEST CALLVALUE PUSH2 0x1EB JUMPI PUSH0 CALLDATASIZE PUSH1 0x3 NOT ADD SLT PUSH2 0x1EB JUMPI PUSH0 PUSH1 0x1 PUSH1 0x2 SLOAD SWAP1 JUMPDEST DUP2 DUP2 LT PUSH2 0xBD3 JUMPI PUSH1 0x20 DUP4 PUSH1 0x40 MLOAD SWAP1 DUP2 MSTORE RETURN JUMPDEST DUP1 PUSH0 MSTORE PUSH1 0x4 PUSH1 0x20 MSTORE PUSH1 0xFF PUSH1 0x9 PUSH1 0x40 PUSH0 KECCAK256 ADD SLOAD AND DUP1 PUSH2 0xC0D JUMPI JUMPDEST PUSH2 0xBF9 JUMPI JUMPDEST PUSH1 0x1 ADD PUSH2 0xBC1 JUMP JUMPDEST SWAP2 PUSH2 0xC05 PUSH1 0x1 SWAP2 PUSH2 0x1E95 JUMP JUMPDEST SWAP3 SWAP1 POP PUSH2 0xBF1 JUMP JUMPDEST POP DUP1 PUSH0 MSTORE PUSH1 0x4 PUSH1 0x20 MSTORE PUSH1 0xFF PUSH1 0x9 PUSH1 0x40 PUSH0 KECCAK256 ADD SLOAD PUSH1 0x8 SHR AND ISZERO PUSH2 0xBEC JUMP JUMPDEST CALLVALUE PUSH2 0x1EB JUMPI PUSH0 CALLDATASIZE PUSH1 0x3 NOT ADD SLT PUSH2 0x1EB JUMPI PUSH2 0xC42 PUSH2 0x1F0E JUMP JUMPDEST PUSH1 0x1 DUP1 SLOAD PUSH1 0x1 PUSH1 0x1 PUSH1 0xA0 SHL SUB NOT DUP2 AND SWAP1 SWAP2 SSTORE PUSH0 SWAP1 PUSH1 0x1 PUSH1 0x1 PUSH1 0xA0 SHL SUB AND PUSH32 0x8BE0079C531659141344CD1FD0A4F28419497F9722A3DAAFE3B4186F6B6457E0 DUP3 DUP1 LOG3 STOP JUMPDEST CALLVALUE PUSH2 0x1EB JUMPI PUSH1 0x20 CALLDATASIZE PUSH1 0x3 NOT ADD SLT PUSH2 0x1EB JUMPI PUSH2 0xC9E PUSH2 0x1BA0 JUMP JUMPDEST PUSH2 0xCA6 PUSH2 0x1F0E JUMP JUMPDEST PUSH1 0x1 PUSH1 0x1 PUSH1 0xA0 SHL SUB DUP2 AND SWAP1 DUP2 ISZERO PUSH2 0xD87 JUMPI DUP2 PUSH0 MSTORE PUSH1 0x7 PUSH1 0x20 MSTORE PUSH1 0xFF PUSH1 0x40 PUSH0 KECCAK256 SLOAD AND PUSH2 0xD4F JUMPI DUP2 PUSH0 MSTORE PUSH1 0x7 PUSH1 0x20 MSTORE PUSH1 0x40 PUSH0 KECCAK256 PUSH1 0x1 PUSH1 0xFF NOT DUP3 SLOAD AND OR SWAP1 SSTORE PUSH1 0x8 SLOAD SWAP1 PUSH1 0x1 PUSH1 0x40 SHL DUP3 LT ISZERO PUSH2 0x3B0 JUMPI PUSH2 0xD05 DUP3 PUSH1 0x1 PUSH2 0xD29 SWAP5 ADD PUSH1 0x8 SSTORE PUSH2 0x1BCC JUMP JUMPDEST DUP2 SLOAD PUSH1 0x1 PUSH1 0x1 PUSH1 0xA0 SHL SUB SWAP4 DUP5 AND PUSH1 0x3 SWAP3 SWAP1 SWAP3 SHL SWAP2 DUP3 SHL SWAP4 SWAP1 SWAP2 SHL NOT AND SWAP2 SWAP1 SWAP2 OR SWAP1 SSTORE JUMP JUMPDEST PUSH32 0x44D6D25963F097AD14F29F06854A01F575648A1EF82F30E562CCD3889717E339 PUSH0 DUP1 LOG2 STOP JUMPDEST PUSH1 0x40 MLOAD PUSH3 0x461BCD PUSH1 0xE5 SHL DUP2 MSTORE PUSH1 0x20 PUSH1 0x4 DUP3 ADD MSTORE PUSH1 0x10 PUSH1 0x24 DUP3 ADD MSTORE PUSH16 0x20B63932B0B23C9030B71030B236B4B7 PUSH1 0x81 SHL PUSH1 0x44 DUP3 ADD MSTORE PUSH1 0x64 SWAP1 REVERT JUMPDEST PUSH1 0x40 MLOAD PUSH3 0x461BCD PUSH1 0xE5 SHL DUP2 MSTORE PUSH1 0x20 PUSH1 0x4 DUP3 ADD MSTORE PUSH1 0xF PUSH1 0x24 DUP3 ADD MSTORE PUSH15 0x496E76616C69642061646472657373 PUSH1 0x88 SHL PUSH1 0x44 DUP3 ADD MSTORE PUSH1 0x64 SWAP1 REVERT JUMPDEST CALLVALUE PUSH2 0x1EB JUMPI PUSH0 CALLDATASIZE PUSH1 0x3 NOT ADD SLT PUSH2 0x1EB JUMPI PUSH1 0x2 SLOAD PUSH1 0x1 DUP2 GT ISZERO PUSH2 0xF11 JUMPI PUSH0 NOT DUP2 ADD SWAP1 DUP1 DUP3 GT PUSH2 0x7F7 JUMPI PUSH2 0xDEF DUP3 PUSH2 0x1EA3 JUMP JUMPDEST SWAP2 PUSH2 0xDFD PUSH1 0x40 MLOAD SWAP4 DUP5 PUSH2 0x1C45 JUMP JUMPDEST DUP1 DUP4 MSTORE PUSH2 0xE0C PUSH1 0x1F NOT SWAP2 PUSH2 0x1EA3 JUMP JUMPDEST ADD CALLDATASIZE PUSH1 0x20 DUP5 ADD CALLDATACOPY PUSH0 SWAP1 PUSH1 0x1 JUMPDEST DUP2 DUP2 LT PUSH2 0xEAE JUMPI POP POP DUP1 ISZERO PUSH2 0xE69 JUMPI PUSH1 0x20 SWAP2 PUSH2 0xE60 SWAP2 PUSH1 0x40 MLOAD DUP5 DUP2 ADD SWAP1 TIMESTAMP DUP3 MSTORE PREVRANDAO PUSH1 0x40 DUP3 ADD MSTORE CALLER PUSH1 0x60 SHL PUSH1 0x60 DUP3 ADD MSTORE PUSH1 0x54 DUP2 MSTORE PUSH2 0xE56 PUSH1 0x74 DUP3 PUSH2 0x1C45 JUMP JUMPDEST MLOAD SWAP1 KECCAK256 MOD SWAP1 PUSH2 0x1EBB JUMP JUMPDEST MLOAD PUSH1 0x40 MLOAD SWAP1 DUP2 MSTORE RETURN JUMPDEST PUSH1 0x40 MLOAD PUSH3 0x461BCD PUSH1 0xE5 SHL DUP2 MSTORE PUSH1 0x20 PUSH1 0x4 DUP3 ADD MSTORE PUSH1 0x19 PUSH1 0x24 DUP3 ADD MSTORE PUSH32 0x4E6F206163746976652067616D657320617661696C61626C6500000000000000 PUSH1 0x44 DUP3 ADD MSTORE PUSH1 0x64 SWAP1 REVERT JUMPDEST DUP1 PUSH0 MSTORE PUSH1 0x4 PUSH1 0x20 MSTORE PUSH1 0xFF PUSH1 0x9 PUSH1 0x40 PUSH0 KECCAK256 ADD SLOAD AND DUP1 PUSH2 0xEF4 JUMPI JUMPDEST PUSH2 0xED4 JUMPI JUMPDEST PUSH1 0x1 ADD PUSH2 0xE18 JUMP JUMPDEST SWAP2 PUSH2 0xEEC DUP2 DUP5 PUSH2 0xEE6 PUSH1 0x1 SWAP5 DUP9 PUSH2 0x1EBB JUMP JUMPDEST MSTORE PUSH2 0x1E95 JUMP JUMPDEST SWAP3 SWAP1 POP PUSH2 0xECC JUMP JUMPDEST POP DUP1 PUSH0 MSTORE PUSH1 0x4 PUSH1 0x20 MSTORE PUSH1 0xFF PUSH1 0x9 PUSH1 0x40 PUSH0 KECCAK256 ADD SLOAD PUSH1 0x8 SHR AND ISZERO PUSH2 0xEC7 JUMP JUMPDEST PUSH1 0x40 MLOAD PUSH3 0x461BCD PUSH1 0xE5 SHL DUP2 MSTORE PUSH1 0x20 PUSH1 0x4 DUP3 ADD MSTORE PUSH1 0xE PUSH1 0x24 DUP3 ADD MSTORE PUSH14 0x139BC819D85B595CC8195E1A5CDD PUSH1 0x92 SHL PUSH1 0x44 DUP3 ADD MSTORE PUSH1 0x64 SWAP1 REVERT JUMPDEST PUSH1 0xA0 CALLDATASIZE PUSH1 0x3 NOT ADD SLT PUSH2 0x1EB JUMPI PUSH1 0x4 CALLDATALOAD PUSH8 0xFFFFFFFFFFFFFFFF DUP2 GT PUSH2 0x1EB JUMPI PUSH2 0xF73 SWAP1 CALLDATASIZE SWAP1 PUSH1 0x4 ADD PUSH2 0x1DAF JUMP JUMPDEST PUSH1 0x24 CALLDATALOAD PUSH8 0xFFFFFFFFFFFFFFFF DUP2 GT PUSH2 0x1EB JUMPI PUSH2 0xF93 SWAP1 CALLDATASIZE SWAP1 PUSH1 0x4 ADD PUSH2 0x1DAF JUMP JUMPDEST PUSH1 0x44 CALLDATALOAD PUSH8 0xFFFFFFFFFFFFFFFF DUP2 GT PUSH2 0x1EB JUMPI PUSH2 0xFB3 SWAP1 CALLDATASIZE SWAP1 PUSH1 0x4 ADD PUSH2 0x1DAF JUMP JUMPDEST SWAP2 PUSH1 0x64 CALLDATALOAD SWAP3 PUSH1 0x84 CALLDATALOAD SWAP1 CALLER PUSH0 MSTORE PUSH1 0x7 PUSH1 0x20 MSTORE PUSH1 0xFF PUSH1 0x40 PUSH0 KECCAK256 SLOAD AND DUP1 ISZERO PUSH2 0x14A8 JUMPI JUMPDEST ISZERO PUSH2 0x146D JUMPI DUP5 ISZERO PUSH2 0x1429 JUMPI DUP2 CALLVALUE LT PUSH2 0x13DA JUMPI PUSH1 0x2 SLOAD SWAP4 PUSH2 0xFF2 DUP6 PUSH2 0x1E95 JUMP JUMPDEST PUSH1 0x2 SSTORE DUP5 PUSH0 MSTORE PUSH1 0x4 PUSH1 0x20 MSTORE PUSH1 0x40 PUSH0 KECCAK256 SWAP4 DUP6 DUP6 SSTORE PUSH1 0x1 DUP6 ADD SWAP1 DUP1 MLOAD SWAP1 PUSH8 0xFFFFFFFFFFFFFFFF DUP3 GT PUSH2 0x3B0 JUMPI DUP2 SWAP1 PUSH2 0x1028 DUP5 SLOAD PUSH2 0x1C0D JUMP JUMPDEST PUSH1 0x1F DUP2 GT PUSH2 0x138A JUMPI JUMPDEST POP PUSH1 0x20 SWAP1 PUSH1 0x1F DUP4 GT PUSH1 0x1 EQ PUSH2 0x1327 JUMPI PUSH0 SWAP3 PUSH2 0x131C JUMPI JUMPDEST POP POP DUP2 PUSH1 0x1 SHL SWAP2 PUSH0 NOT SWAP1 PUSH1 0x3 SHL SHR NOT AND OR SWAP1 SSTORE JUMPDEST DUP1 MLOAD PUSH1 0x2 DUP6 ADD SWAP2 PUSH8 0xFFFFFFFFFFFFFFFF DUP3 GT PUSH2 0x3B0 JUMPI DUP2 SWAP1 PUSH2 0x107D DUP5 SLOAD PUSH2 0x1C0D JUMP JUMPDEST PUSH1 0x1F DUP2 GT PUSH2 0x12CC JUMPI JUMPDEST POP PUSH1 0x20 SWAP1 PUSH1 0x1F DUP4 GT PUSH1 0x1 EQ PUSH2 0x1269 JUMPI PUSH0 SWAP3 PUSH2 0x125E JUMPI JUMPDEST POP POP DUP2 PUSH1 0x1 SHL SWAP2 PUSH0 NOT SWAP1 PUSH1 0x3 SHL SHR NOT AND OR SWAP1 SSTORE JUMPDEST DUP1 MLOAD PUSH1 0x3 DUP5 ADD SWAP2 PUSH8 0xFFFFFFFFFFFFFFFF DUP3 GT PUSH2 0x3B0 JUMPI PUSH2 0x10D0 DUP4 SLOAD PUSH2 0x1C0D JUMP JUMPDEST PUSH1 0x1F DUP2 GT PUSH2 0x1219 JUMPI JUMPDEST POP SWAP2 PUSH1 0x20 SWAP7 SWAP4 SWAP2 DUP7 SWAP6 SWAP4 DUP9 SWAP1 PUSH1 0x1F DUP4 GT PUSH1 0x1 EQ PUSH2 0x118B JUMPI SWAP3 DUP3 PUSH1 0x40 SWAP7 SWAP4 PUSH32 0xBD3F84A55FDC44F970ADC6CCBAA93E78D7DA5F3FC37C4B7DA578D47C9AD2E46A SWAP9 SWAP7 SWAP4 PUSH1 0x9 SWAP7 PUSH0 SWAP3 PUSH2 0x1180 JUMPI JUMPDEST POP POP DUP2 PUSH1 0x1 SHL SWAP2 PUSH0 NOT SWAP1 PUSH1 0x3 SHL SHR NOT AND OR SWAP1 SSTORE JUMPDEST PUSH1 0x4 DUP3 ADD DUP5 SWAP1 SSTORE PUSH1 0x6 DUP3 ADD DUP2 SWAP1 SSTORE PUSH1 0x5 DUP3 ADD SSTORE PUSH1 0x3 DUP1 SLOAD PUSH1 0x7 DUP4 ADD SSTORE TIMESTAMP PUSH1 0x8 DUP4 ADD SSTORE SWAP2 ADD DUP1 SLOAD PUSH1 0x1 PUSH1 0x1 PUSH1 0xB0 SHL SUB NOT AND PUSH1 0x1 OR SWAP1 SSTORE SLOAD DUP3 MLOAD SWAP2 DUP3 MSTORE DUP7 DUP3 ADD MSTORE LOG2 PUSH1 0x40 MLOAD SWAP1 DUP2 MSTORE RETURN JUMPDEST ADD MLOAD SWAP1 POP DUP13 DUP1 PUSH2 0x1124 JUMP JUMPDEST SWAP1 PUSH1 0x1F NOT DUP4 AND SWAP2 DUP5 PUSH0 MSTORE DUP2 PUSH0 KECCAK256 SWAP3 PUSH0 JUMPDEST DUP2 DUP2 LT PUSH2 0x11FF JUMPI POP SWAP4 PUSH32 0xBD3F84A55FDC44F970ADC6CCBAA93E78D7DA5F3FC37C4B7DA578D47C9AD2E46A SWAP9 SWAP7 SWAP4 PUSH1 0x9 SWAP7 SWAP4 PUSH1 0x1 SWAP4 DUP4 PUSH1 0x40 SWAP12 SWAP9 LT PUSH2 0x11E7 JUMPI JUMPDEST POP POP POP DUP2 SHL ADD SWAP1 SSTORE PUSH2 0x1138 JUMP JUMPDEST ADD MLOAD PUSH0 NOT PUSH1 0xF8 DUP5 PUSH1 0x3 SHL AND SHR NOT AND SWAP1 SSTORE DUP13 DUP1 DUP1 PUSH2 0x11DA JUMP JUMPDEST DUP3 DUP5 ADD MLOAD DUP6 SSTORE DUP12 SWAP11 POP PUSH1 0x1 SWAP1 SWAP5 ADD SWAP4 SWAP3 DUP13 ADD SWAP3 DUP13 ADD PUSH2 0x119B JUMP JUMPDEST DUP4 PUSH0 MSTORE PUSH1 0x20 PUSH0 KECCAK256 PUSH1 0x1F DUP5 ADD PUSH1 0x5 SHR DUP2 ADD SWAP2 PUSH1 0x20 DUP6 LT PUSH2 0x1254 JUMPI JUMPDEST PUSH1 0x1F ADD PUSH1 0x5 SHR ADD SWAP1 JUMPDEST DUP2 DUP2 LT PUSH2 0x1249 JUMPI POP PUSH2 0x10D9 JUMP JUMPDEST PUSH0 DUP2 SSTORE PUSH1 0x1 ADD PUSH2 0x123C JUMP JUMPDEST SWAP1 SWAP2 POP DUP2 SWAP1 PUSH2 0x1233 JUMP JUMPDEST ADD MLOAD SWAP1 POP DUP9 DUP1 PUSH2 0x109C JUMP JUMPDEST PUSH0 DUP6 DUP2 MSTORE DUP3 DUP2 KECCAK256 SWAP4 POP PUSH1 0x1F NOT DUP6 AND SWAP1 JUMPDEST DUP2 DUP2 LT PUSH2 0x12B4 JUMPI POP SWAP1 DUP5 PUSH1 0x1 SWAP6 SWAP5 SWAP4 SWAP3 LT PUSH2 0x129C JUMPI JUMPDEST POP POP POP DUP2 SHL ADD SWAP1 SSTORE PUSH2 0x10B0 JUMP JUMPDEST ADD MLOAD PUSH0 NOT PUSH1 0xF8 DUP5 PUSH1 0x3 SHL AND SHR NOT AND SWAP1 SSTORE DUP9 DUP1 DUP1 PUSH2 0x128F JUMP JUMPDEST SWAP3 SWAP4 PUSH1 0x20 PUSH1 0x1 DUP2 SWAP3 DUP8 DUP7 ADD MLOAD DUP2 SSTORE ADD SWAP6 ADD SWAP4 ADD PUSH2 0x1279 JUMP JUMPDEST SWAP1 SWAP2 POP DUP4 PUSH0 MSTORE PUSH1 0x20 PUSH0 KECCAK256 PUSH1 0x1F DUP5 ADD PUSH1 0x5 SHR DUP2 ADD SWAP2 PUSH1 0x20 DUP6 LT PUSH2 0x1312 JUMPI JUMPDEST SWAP1 PUSH1 0x1F DUP6 SWAP5 SWAP4 SWAP3 ADD PUSH1 0x5 SHR ADD SWAP1 JUMPDEST DUP2 DUP2 LT PUSH2 0x1304 JUMPI POP PUSH2 0x1086 JUMP JUMPDEST PUSH0 DUP2 SSTORE DUP5 SWAP4 POP PUSH1 0x1 ADD PUSH2 0x12F7 JUMP JUMPDEST SWAP1 SWAP2 POP DUP2 SWAP1 PUSH2 0x12E9 JUMP JUMPDEST ADD MLOAD SWAP1 POP DUP10 DUP1 PUSH2 0x1047 JUMP JUMPDEST PUSH0 DUP6 DUP2 MSTORE DUP3 DUP2 KECCAK256 SWAP4 POP PUSH1 0x1F NOT DUP6 AND SWAP1 JUMPDEST DUP2 DUP2 LT PUSH2 0x1372 JUMPI POP SWAP1 DUP5 PUSH1 0x1 SWAP6 SWAP5 SWAP4 SWAP3 LT PUSH2 0x135A JUMPI JUMPDEST POP POP POP DUP2 SHL ADD SWAP1 SSTORE PUSH2 0x105B JUMP JUMPDEST ADD MLOAD PUSH0 NOT PUSH1 0xF8 DUP5 PUSH1 0x3 SHL AND SHR NOT AND SWAP1 SSTORE DUP10 DUP1 DUP1 PUSH2 0x134D JUMP JUMPDEST SWAP3 SWAP4 PUSH1 0x20 PUSH1 0x1 DUP2 SWAP3 DUP8 DUP7 ADD MLOAD DUP2 SSTORE ADD SWAP6 ADD SWAP4 ADD PUSH2 0x1337 JUMP JUMPDEST SWAP1 SWAP2 POP DUP4 PUSH0 MSTORE PUSH1 0x20 PUSH0 KECCAK256 PUSH1 0x1F DUP5 ADD PUSH1 0x5 SHR DUP2 ADD SWAP2 PUSH1 0x20 DUP6 LT PUSH2 0x13D0 JUMPI JUMPDEST SWAP1 PUSH1 0x1F DUP6 SWAP5 SWAP4 SWAP3 ADD PUSH1 0x5 SHR ADD SWAP1 JUMPDEST DUP2 DUP2 LT PUSH2 0x13C2 JUMPI POP PUSH2 0x1031 JUMP JUMPDEST PUSH0 DUP2 SSTORE DUP5 SWAP4 POP PUSH1 0x1 ADD PUSH2 0x13B5 JUMP JUMPDEST SWAP1 SWAP2 POP DUP2 SWAP1 PUSH2 0x13A7 JUMP JUMPDEST PUSH1 0x40 MLOAD PUSH3 0x461BCD PUSH1 0xE5 SHL DUP2 MSTORE PUSH1 0x20 PUSH1 0x4 DUP3 ADD MSTORE PUSH1 0x21 PUSH1 0x24 DUP3 ADD MSTORE PUSH32 0x496E73756666696369656E742066756E647320666F72207072697A6520706F6F PUSH1 0x44 DUP3 ADD MSTORE PUSH1 0x1B PUSH1 0xFA SHL PUSH1 0x64 DUP3 ADD MSTORE PUSH1 0x84 SWAP1 REVERT JUMPDEST PUSH1 0x64 PUSH1 0x40 MLOAD PUSH3 0x461BCD PUSH1 0xE5 SHL DUP2 MSTORE PUSH1 0x20 PUSH1 0x4 DUP3 ADD MSTORE PUSH1 0x20 PUSH1 0x24 DUP3 ADD MSTORE PUSH32 0x456E74727920666565206D7573742062652067726561746572207468616E2030 PUSH1 0x44 DUP3 ADD MSTORE REVERT JUMPDEST PUSH1 0x40 MLOAD PUSH3 0x461BCD PUSH1 0xE5 SHL DUP2 MSTORE PUSH1 0x20 PUSH1 0x4 DUP3 ADD MSTORE PUSH1 0x13 PUSH1 0x24 DUP3 ADD MSTORE PUSH19 0x27B7363C9030B236B4B71037B91037BBB732B9 PUSH1 0x69 SHL PUSH1 0x44 DUP3 ADD MSTORE PUSH1 0x64 SWAP1 REVERT JUMPDEST POP PUSH1 0x1 SLOAD PUSH1 0x1 PUSH1 0x1 PUSH1 0xA0 SHL SUB AND CALLER EQ PUSH2 0xFD3 JUMP JUMPDEST CALLVALUE PUSH2 0x1EB JUMPI PUSH1 0x20 CALLDATASIZE PUSH1 0x3 NOT ADD SLT PUSH2 0x1EB JUMPI PUSH1 0x4 CALLDATALOAD DUP1 ISZERO ISZERO DUP1 PUSH2 0x15AA JUMPI JUMPDEST PUSH2 0x14E2 SWAP1 PUSH2 0x1E05 JUMP JUMPDEST DUP1 PUSH0 MSTORE PUSH1 0x4 PUSH1 0x20 MSTORE PUSH2 0x14FD PUSH1 0xFF PUSH1 0x9 PUSH1 0x40 PUSH0 KECCAK256 ADD SLOAD AND PUSH2 0x1E47 JUMP JUMPDEST DUP1 PUSH0 MSTORE PUSH1 0x4 PUSH1 0x20 MSTORE PUSH1 0x40 PUSH0 KECCAK256 PUSH2 0x151C PUSH1 0x8 DUP3 ADD SLOAD PUSH1 0x7 DUP4 ADD SLOAD SWAP1 PUSH2 0x1E88 JUMP JUMPDEST TIMESTAMP GT ISZERO PUSH2 0x1565 JUMPI PUSH1 0x20 PUSH1 0x5 DUP3 PUSH1 0x9 PUSH32 0xA72860103F540F00E7D5C44FF9EA4CDB6CF0361B63E542D7A657C4C1154100DE SWAP5 ADD PUSH2 0x100 PUSH2 0xFFFF NOT DUP3 SLOAD AND OR SWAP1 SSTORE ADD SLOAD PUSH1 0x40 MLOAD SWAP1 DUP2 MSTORE LOG2 STOP JUMPDEST PUSH1 0x40 MLOAD PUSH3 0x461BCD PUSH1 0xE5 SHL DUP2 MSTORE PUSH1 0x20 PUSH1 0x4 DUP3 ADD MSTORE PUSH1 0x18 PUSH1 0x24 DUP3 ADD MSTORE PUSH32 0x47616D6520686173206E6F742065787069726564207965740000000000000000 PUSH1 0x44 DUP3 ADD MSTORE PUSH1 0x64 SWAP1 REVERT JUMPDEST POP PUSH1 0x2 SLOAD DUP2 LT PUSH2 0x14D9 JUMP JUMPDEST CALLVALUE PUSH2 0x1EB JUMPI PUSH0 CALLDATASIZE PUSH1 0x3 NOT ADD SLT PUSH2 0x1EB JUMPI PUSH1 0x20 PUSH1 0x40 MLOAD PUSH1 0x5 DUP2 MSTORE RETURN JUMPDEST CALLVALUE PUSH2 0x1EB JUMPI PUSH1 0x20 CALLDATASIZE PUSH1 0x3 NOT ADD SLT PUSH2 0x1EB JUMPI PUSH1 0x4 CALLDATALOAD DUP1 ISZERO ISZERO DUP1 PUSH2 0x1674 JUMPI JUMPDEST PUSH2 0x15F6 SWAP1 PUSH2 0x1E05 JUMP JUMPDEST PUSH0 MSTORE PUSH1 0x4 PUSH1 0x20 MSTORE PUSH1 0x40 PUSH0 KECCAK256 DUP1 SLOAD SWAP1 PUSH2 0x1DC PUSH1 0x4 DUP3 ADD SLOAD SWAP3 PUSH1 0x5 DUP4 ADD SLOAD SWAP1 PUSH1 0x6 DUP5 ADD SLOAD SWAP1 PUSH1 0x7 DUP6 ADD SLOAD PUSH1 0x8 DUP7 ADD SLOAD SWAP1 PUSH1 0x9 DUP8 ADD SLOAD SWAP4 PUSH2 0x1636 PUSH1 0x1 DUP10 ADD PUSH2 0x1C67 JUMP JUMPDEST SWAP6 PUSH2 0x164F PUSH1 0x3 PUSH2 0x1648 PUSH1 0x2 DUP13 ADD PUSH2 0x1C67 JUMP JUMPDEST SWAP11 ADD PUSH2 0x1C67 JUMP JUMPDEST SWAP10 PUSH1 0x40 MLOAD SWAP11 DUP12 SWAP11 PUSH1 0x1 DUP1 PUSH1 0xA0 SHL SUB DUP10 PUSH1 0x10 SHR AND SWAP10 PUSH1 0xFF DUP1 DUP12 PUSH1 0x8 SHR AND SWAP11 AND SWAP9 DUP14 PUSH2 0x1D2B JUMP JUMPDEST POP PUSH1 0x2 SLOAD DUP2 LT PUSH2 0x15ED JUMP JUMPDEST CALLVALUE PUSH2 0x1EB JUMPI PUSH1 0x20 CALLDATASIZE PUSH1 0x3 NOT ADD SLT PUSH2 0x1EB JUMPI PUSH1 0x1 PUSH1 0x1 PUSH1 0xA0 SHL SUB PUSH2 0x16A0 PUSH2 0x1BA0 JUMP JUMPDEST AND PUSH0 MSTORE PUSH1 0x7 PUSH1 0x20 MSTORE PUSH1 0x20 PUSH1 0xFF PUSH1 0x40 PUSH0 KECCAK256 SLOAD AND PUSH1 0x40 MLOAD SWAP1 ISZERO ISZERO DUP2 MSTORE RETURN JUMPDEST CALLVALUE PUSH2 0x1EB JUMPI PUSH0 CALLDATASIZE PUSH1 0x3 NOT ADD SLT PUSH2 0x1EB JUMPI PUSH1 0x20 PUSH1 0x3 SLOAD PUSH1 0x40 MLOAD SWAP1 DUP2 MSTORE RETURN JUMPDEST CALLVALUE PUSH2 0x1EB JUMPI PUSH0 CALLDATASIZE PUSH1 0x3 NOT ADD SLT PUSH2 0x1EB JUMPI PUSH2 0x16F1 PUSH2 0x1F0E JUMP JUMPDEST PUSH0 DUP1 DUP1 DUP1 PUSH1 0x1 DUP1 PUSH1 0xA0 SHL SUB PUSH1 0x1 SLOAD AND SELFBALANCE SWAP1 DUP3 DUP3 ISZERO PUSH2 0x1712 JUMPI JUMPDEST CALL ISZERO PUSH2 0x7AA JUMPI STOP JUMPDEST POP PUSH2 0x8FC PUSH2 0x170A JUMP JUMPDEST CALLVALUE PUSH2 0x1EB JUMPI PUSH1 0x20 CALLDATASIZE PUSH1 0x3 NOT ADD SLT PUSH2 0x1EB JUMPI PUSH1 0x20 PUSH2 0x1736 PUSH2 0x1BA0 JUMP JUMPDEST PUSH1 0x1 SLOAD PUSH1 0x40 MLOAD PUSH1 0x1 PUSH1 0x1 PUSH1 0xA0 SHL SUB SWAP3 DUP4 AND SWAP2 SWAP1 SWAP3 AND EQ DUP2 MSTORE RETURN JUMPDEST CALLVALUE PUSH2 0x1EB JUMPI PUSH1 0x20 CALLDATASIZE PUSH1 0x3 NOT ADD SLT PUSH2 0x1EB JUMPI PUSH1 0x20 PUSH1 0x1 PUSH1 0x1 PUSH1 0xA0 SHL SUB PUSH2 0x1773 PUSH2 0x1BA0 JUMP JUMPDEST AND DUP1 PUSH0 MSTORE PUSH1 0x7 DUP3 MSTORE PUSH1 0xFF PUSH1 0x40 PUSH0 KECCAK256 SLOAD AND SWAP1 DUP2 ISZERO PUSH2 0x1796 JUMPI JUMPDEST POP PUSH1 0x40 MLOAD SWAP1 ISZERO ISZERO DUP2 MSTORE RETURN JUMPDEST PUSH1 0x1 SLOAD PUSH1 0x1 PUSH1 0x1 PUSH1 0xA0 SHL SUB AND EQ SWAP1 POP DUP3 PUSH2 0x178B JUMP JUMPDEST CALLVALUE PUSH2 0x1EB JUMPI PUSH1 0x20 CALLDATASIZE PUSH1 0x3 NOT ADD SLT PUSH2 0x1EB JUMPI PUSH2 0x17C4 PUSH2 0x1BA0 JUMP JUMPDEST PUSH2 0x17CC PUSH2 0x1F0E JUMP JUMPDEST PUSH1 0x1 PUSH1 0x1 PUSH1 0xA0 SHL SUB AND PUSH0 DUP2 DUP2 MSTORE PUSH1 0x7 PUSH1 0x20 MSTORE PUSH1 0x40 SWAP1 KECCAK256 SLOAD PUSH1 0xFF AND ISZERO PUSH2 0x1924 JUMPI PUSH1 0x1 SLOAD PUSH1 0x1 PUSH1 0x1 PUSH1 0xA0 SHL SUB AND DUP2 EQ PUSH2 0x18E9 JUMPI PUSH0 DUP2 DUP2 MSTORE PUSH1 0x7 PUSH1 0x20 MSTORE PUSH1 0x40 DUP2 KECCAK256 DUP1 SLOAD PUSH1 0xFF NOT AND SWAP1 SSTORE JUMPDEST PUSH1 0x8 SLOAD SWAP1 DUP2 DUP2 LT ISZERO PUSH2 0x18E2 JUMPI DUP3 PUSH2 0x1829 DUP3 PUSH2 0x1BCC JUMP JUMPDEST SWAP1 SLOAD PUSH1 0x3 SWAP2 SWAP1 SWAP2 SHL SHR PUSH1 0x1 PUSH1 0x1 PUSH1 0xA0 SHL SUB AND EQ PUSH2 0x184A JUMPI PUSH1 0x1 SWAP2 POP ADD PUSH2 0x1813 JUMP JUMPDEST PUSH0 NOT DUP3 ADD SWAP2 DUP3 GT PUSH2 0x7F7 JUMPI PUSH2 0xD05 PUSH2 0x1864 PUSH2 0x187C SWAP4 PUSH2 0x1BCC JUMP JUMPDEST SWAP1 SLOAD PUSH1 0x3 SWAP2 SWAP1 SWAP2 SHL SHR PUSH1 0x1 PUSH1 0x1 PUSH1 0xA0 SHL SUB AND SWAP2 PUSH2 0x1BCC JUMP JUMPDEST PUSH1 0x8 SLOAD DUP1 ISZERO PUSH2 0x18CE JUMPI PUSH0 NOT ADD PUSH2 0x1891 DUP2 PUSH2 0x1BCC JUMP JUMPDEST DUP2 SLOAD SWAP1 PUSH1 0x1 DUP1 PUSH1 0xA0 SHL SUB SWAP1 PUSH1 0x3 SHL SHL NOT AND SWAP1 SSTORE PUSH1 0x8 SSTORE JUMPDEST PUSH32 0xA3B62BC36326052D97EA62D63C3D60308ED4C3EA8AC079DD8499F1E9C4F80C0F PUSH0 DUP1 LOG2 STOP JUMPDEST PUSH4 0x4E487B71 PUSH1 0xE0 SHL PUSH0 MSTORE PUSH1 0x31 PUSH1 0x4 MSTORE PUSH1 0x24 PUSH0 REVERT JUMPDEST POP POP PUSH2 0x18A8 JUMP JUMPDEST PUSH1 0x40 MLOAD PUSH3 0x461BCD PUSH1 0xE5 SHL DUP2 MSTORE PUSH1 0x20 PUSH1 0x4 DUP3 ADD MSTORE PUSH1 0x13 PUSH1 0x24 DUP3 ADD MSTORE PUSH19 0x21B0B73737BA103932B6B7BB329037BBB732B9 PUSH1 0x69 SHL PUSH1 0x44 DUP3 ADD MSTORE PUSH1 0x64 SWAP1 REVERT JUMPDEST PUSH1 0x40 MLOAD PUSH3 0x461BCD PUSH1 0xE5 SHL DUP2 MSTORE PUSH1 0x20 PUSH1 0x4 DUP3 ADD MSTORE PUSH1 0xC PUSH1 0x24 DUP3 ADD MSTORE PUSH12 0x2737BA1030B71030B236B4B7 PUSH1 0xA1 SHL PUSH1 0x44 DUP3 ADD MSTORE PUSH1 0x64 SWAP1 REVERT JUMPDEST CALLVALUE PUSH2 0x1EB JUMPI PUSH1 0x20 CALLDATASIZE PUSH1 0x3 NOT ADD SLT PUSH2 0x1EB JUMPI PUSH1 0x1 PUSH1 0x1 PUSH1 0xA0 SHL SUB PUSH2 0x1979 PUSH2 0x1BA0 JUMP JUMPDEST AND PUSH0 MSTORE PUSH1 0x6 PUSH1 0x20 MSTORE PUSH1 0x40 PUSH0 KECCAK256 PUSH1 0x40 MLOAD DUP1 PUSH1 0x20 DUP4 SLOAD SWAP2 DUP3 DUP2 MSTORE ADD SWAP1 DUP2 SWAP4 PUSH0 MSTORE PUSH1 0x20 PUSH0 KECCAK256 SWAP1 PUSH0 JUMPDEST DUP2 DUP2 LT PUSH2 0x19F6 JUMPI POP POP POP DUP2 PUSH2 0x19B4 SWAP2 SUB DUP3 PUSH2 0x1C45 JUMP JUMPDEST PUSH1 0x40 MLOAD SWAP2 DUP3 SWAP2 PUSH1 0x20 DUP4 ADD SWAP1 PUSH1 0x20 DUP5 MSTORE MLOAD DUP1 SWAP2 MSTORE PUSH1 0x40 DUP4 ADD SWAP2 SWAP1 PUSH0 JUMPDEST DUP2 DUP2 LT PUSH2 0x19DD JUMPI POP POP POP SUB SWAP1 RETURN JUMPDEST DUP3 MLOAD DUP5 MSTORE DUP6 SWAP5 POP PUSH1 0x20 SWAP4 DUP5 ADD SWAP4 SWAP1 SWAP3 ADD SWAP2 PUSH1 0x1 ADD PUSH2 0x19CF JUMP JUMPDEST DUP3 SLOAD DUP5 MSTORE PUSH1 0x20 SWAP1 SWAP4 ADD SWAP3 PUSH1 0x1 SWAP3 DUP4 ADD SWAP3 ADD PUSH2 0x199E JUMP JUMPDEST CALLVALUE PUSH2 0x1EB JUMPI PUSH1 0x20 CALLDATASIZE PUSH1 0x3 NOT ADD SLT PUSH2 0x1EB JUMPI PUSH1 0x4 CALLDATALOAD PUSH0 MSTORE PUSH1 0x4 PUSH1 0x20 MSTORE PUSH1 0x40 PUSH0 KECCAK256 DUP1 SLOAD SWAP1 PUSH2 0x1DC PUSH2 0x1A3D PUSH1 0x1 DUP4 ADD PUSH2 0x1C67 JUMP JUMPDEST PUSH2 0x1A49 PUSH1 0x2 DUP5 ADD PUSH2 0x1C67 JUMP JUMPDEST SWAP3 PUSH2 0x1A56 PUSH1 0x3 DUP3 ADD PUSH2 0x1C67 JUMP JUMPDEST SWAP5 PUSH1 0x4 DUP3 ADD SLOAD SWAP2 PUSH1 0x5 DUP2 ADD SLOAD PUSH1 0x6 DUP3 ADD SLOAD PUSH1 0x7 DUP4 ADD SLOAD SWAP2 PUSH1 0x9 PUSH1 0x8 DUP6 ADD SLOAD SWAP5 ADD SLOAD SWAP6 PUSH1 0x40 MLOAD SWAP11 DUP12 SWAP11 PUSH1 0x1 DUP1 PUSH1 0xA0 SHL SUB DUP10 PUSH1 0x10 SHR AND SWAP10 PUSH1 0xFF DUP1 DUP12 PUSH1 0x8 SHR AND SWAP11 AND SWAP9 DUP14 PUSH2 0x1D2B JUMP JUMPDEST CALLVALUE PUSH2 0x1EB JUMPI PUSH1 0x20 CALLDATASIZE PUSH1 0x3 NOT ADD SLT PUSH2 0x1EB JUMPI PUSH1 0x4 CALLDATALOAD PUSH1 0x8 SLOAD DUP2 LT ISZERO PUSH2 0x1EB JUMPI PUSH2 0x1AC5 PUSH1 0x20 SWAP2 PUSH2 0x1BCC JUMP JUMPDEST SWAP1 SLOAD PUSH1 0x40 MLOAD PUSH1 0x3 SWAP3 SWAP1 SWAP3 SHL SHR PUSH1 0x1 PUSH1 0x1 PUSH1 0xA0 SHL SUB AND DUP2 MSTORE RETURN JUMPDEST CALLVALUE PUSH2 0x1EB JUMPI PUSH1 0x40 CALLDATASIZE PUSH1 0x3 NOT ADD SLT PUSH2 0x1EB JUMPI PUSH1 0x4 CALLDATALOAD PUSH2 0x1AFA PUSH2 0x1BB6 JUMP JUMPDEST SWAP1 DUP1 ISZERO ISZERO DUP1 PUSH2 0x1B3D JUMPI JUMPDEST PUSH2 0x1B0D SWAP1 PUSH2 0x1E05 JUMP JUMPDEST PUSH0 MSTORE PUSH1 0x4 PUSH1 0x20 MSTORE PUSH1 0xA PUSH1 0x40 PUSH0 KECCAK256 ADD SWAP1 PUSH1 0x1 DUP1 PUSH1 0xA0 SHL SUB AND PUSH0 MSTORE PUSH1 0x20 MSTORE PUSH1 0x20 PUSH1 0xFF PUSH1 0x40 PUSH0 KECCAK256 SLOAD AND PUSH1 0x40 MLOAD SWAP1 ISZERO ISZERO DUP2 MSTORE RETURN JUMPDEST POP PUSH1 0x2 SLOAD DUP2 LT PUSH2 0x1B04 JUMP JUMPDEST CALLVALUE PUSH2 0x1EB JUMPI PUSH1 0x40 CALLDATASIZE PUSH1 0x3 NOT ADD SLT PUSH2 0x1EB JUMPI PUSH2 0x1B61 PUSH2 0x1BA0 JUMP JUMPDEST PUSH1 0x1 PUSH1 0x1 PUSH1 0xA0 SHL SUB AND PUSH0 SWAP1 DUP2 MSTORE PUSH1 0x6 PUSH1 0x20 MSTORE PUSH1 0x40 SWAP1 KECCAK256 DUP1 SLOAD PUSH1 0x24 CALLDATALOAD SWAP2 SWAP1 DUP3 LT ISZERO PUSH2 0x1EB JUMPI PUSH1 0x20 SWAP2 PUSH2 0x1B91 SWAP2 PUSH2 0x1BF8 JUMP JUMPDEST SWAP1 SLOAD SWAP1 PUSH1 0x3 SHL SHR PUSH1 0x40 MLOAD SWAP1 DUP2 MSTORE RETURN JUMPDEST PUSH1 0x4 CALLDATALOAD SWAP1 PUSH1 0x1 PUSH1 0x1 PUSH1 0xA0 SHL SUB DUP3 AND DUP3 SUB PUSH2 0x1EB JUMPI JUMP JUMPDEST PUSH1 0x24 CALLDATALOAD SWAP1 PUSH1 0x1 PUSH1 0x1 PUSH1 0xA0 SHL SUB DUP3 AND DUP3 SUB PUSH2 0x1EB JUMPI JUMP JUMPDEST PUSH1 0x8 SLOAD DUP2 LT ISZERO PUSH2 0x1BE4 JUMPI PUSH1 0x8 PUSH0 MSTORE PUSH1 0x20 PUSH0 KECCAK256 ADD SWAP1 PUSH0 SWAP1 JUMP JUMPDEST PUSH4 0x4E487B71 PUSH1 0xE0 SHL PUSH0 MSTORE PUSH1 0x32 PUSH1 0x4 MSTORE PUSH1 0x24 PUSH0 REVERT JUMPDEST DUP1 SLOAD DUP3 LT ISZERO PUSH2 0x1BE4 JUMPI PUSH0 MSTORE PUSH1 0x20 PUSH0 KECCAK256 ADD SWAP1 PUSH0 SWAP1 JUMP JUMPDEST SWAP1 PUSH1 0x1 DUP3 DUP2 SHR SWAP3 AND DUP1 ISZERO PUSH2 0x1C3B JUMPI JUMPDEST PUSH1 0x20 DUP4 LT EQ PUSH2 0x1C27 JUMPI JUMP JUMPDEST PUSH4 0x4E487B71 PUSH1 0xE0 SHL PUSH0 MSTORE PUSH1 0x22 PUSH1 0x4 MSTORE PUSH1 0x24 PUSH0 REVERT JUMPDEST SWAP2 PUSH1 0x7F AND SWAP2 PUSH2 0x1C1C JUMP JUMPDEST SWAP1 PUSH1 0x1F DUP1 NOT SWAP2 ADD AND DUP2 ADD SWAP1 DUP2 LT PUSH8 0xFFFFFFFFFFFFFFFF DUP3 GT OR PUSH2 0x3B0 JUMPI PUSH1 0x40 MSTORE JUMP JUMPDEST SWAP1 PUSH1 0x40 MLOAD SWAP2 DUP3 PUSH0 DUP3 SLOAD SWAP3 PUSH2 0x1C7A DUP5 PUSH2 0x1C0D JUMP JUMPDEST DUP1 DUP5 MSTORE SWAP4 PUSH1 0x1 DUP2 AND SWAP1 DUP2 ISZERO PUSH2 0x1CE5 JUMPI POP PUSH1 0x1 EQ PUSH2 0x1CA1 JUMPI JUMPDEST POP PUSH2 0x1C9F SWAP3 POP SUB DUP4 PUSH2 0x1C45 JUMP JUMPDEST JUMP JUMPDEST SWAP1 POP PUSH0 SWAP3 SWAP2 SWAP3 MSTORE PUSH1 0x20 PUSH0 KECCAK256 SWAP1 PUSH0 SWAP2 JUMPDEST DUP2 DUP4 LT PUSH2 0x1CC9 JUMPI POP POP SWAP1 PUSH1 0x20 PUSH2 0x1C9F SWAP3 DUP3 ADD ADD PUSH0 PUSH2 0x1C92 JUMP JUMPDEST PUSH1 0x20 SWAP2 SWAP4 POP DUP1 PUSH1 0x1 SWAP2 SLOAD DUP4 DUP6 DUP10 ADD ADD MSTORE ADD SWAP2 ADD SWAP1 SWAP2 DUP5 SWAP3 PUSH2 0x1CB0 JUMP JUMPDEST SWAP1 POP PUSH1 0x20 SWAP3 POP PUSH2 0x1C9F SWAP5 SWAP2 POP PUSH1 0xFF NOT AND DUP3 DUP5 ADD MSTORE ISZERO ISZERO PUSH1 0x5 SHL DUP3 ADD ADD PUSH0 PUSH2 0x1C92 JUMP JUMPDEST DUP1 MLOAD DUP1 DUP4 MSTORE PUSH1 0x20 SWAP3 SWAP2 DUP2 SWAP1 DUP5 ADD DUP5 DUP5 ADD MCOPY PUSH0 DUP3 DUP3 ADD DUP5 ADD MSTORE PUSH1 0x1F ADD PUSH1 0x1F NOT AND ADD ADD SWAP1 JUMP JUMPDEST SWAP11 SWAP8 SWAP5 SWAP13 SWAP12 SWAP9 SWAP6 SWAP3 PUSH2 0x1D66 SWAP1 PUSH2 0x1D58 PUSH2 0x1D74 SWAP5 PUSH2 0x180 DUP16 PUSH2 0x160 SWAP16 SWAP13 SWAP10 SWAP7 DUP2 MSTORE DUP2 PUSH1 0x20 DUP3 ADD MSTORE ADD SWAP1 PUSH2 0x1D07 JUMP JUMPDEST DUP14 DUP2 SUB PUSH1 0x40 DUP16 ADD MSTORE SWAP1 PUSH2 0x1D07 JUMP JUMPDEST SWAP1 DUP12 DUP3 SUB PUSH1 0x60 DUP14 ADD MSTORE PUSH2 0x1D07 JUMP JUMPDEST PUSH1 0x80 DUP11 ADD SWAP12 SWAP1 SWAP12 MSTORE PUSH1 0xA0 DUP10 ADD MSTORE PUSH1 0xC0 DUP9 ADD MSTORE PUSH1 0xE0 DUP8 ADD MSTORE PUSH2 0x100 DUP7 ADD MSTORE ISZERO ISZERO PUSH2 0x120 DUP6 ADD MSTORE ISZERO ISZERO PUSH2 0x140 DUP5 ADD MSTORE PUSH1 0x1 PUSH1 0x1 PUSH1 0xA0 SHL SUB AND SWAP2 ADD MSTORE JUMP JUMPDEST DUP2 PUSH1 0x1F DUP3 ADD SLT ISZERO PUSH2 0x1EB JUMPI DUP1 CALLDATALOAD SWAP1 PUSH8 0xFFFFFFFFFFFFFFFF DUP3 GT PUSH2 0x3B0 JUMPI PUSH1 0x40 MLOAD SWAP3 PUSH2 0x1DE4 PUSH1 0x1F DUP5 ADD PUSH1 0x1F NOT AND PUSH1 0x20 ADD DUP6 PUSH2 0x1C45 JUMP JUMPDEST DUP3 DUP5 MSTORE PUSH1 0x20 DUP4 DUP4 ADD ADD GT PUSH2 0x1EB JUMPI DUP2 PUSH0 SWAP3 PUSH1 0x20 DUP1 SWAP4 ADD DUP4 DUP7 ADD CALLDATACOPY DUP4 ADD ADD MSTORE SWAP1 JUMP JUMPDEST ISZERO PUSH2 0x1E0C JUMPI JUMP JUMPDEST PUSH1 0x40 MLOAD PUSH3 0x461BCD PUSH1 0xE5 SHL DUP2 MSTORE PUSH1 0x20 PUSH1 0x4 DUP3 ADD MSTORE PUSH1 0x13 PUSH1 0x24 DUP3 ADD MSTORE PUSH19 0x11D85B5948191BD95CC81B9BDD08195E1A5CDD PUSH1 0x6A SHL PUSH1 0x44 DUP3 ADD MSTORE PUSH1 0x64 SWAP1 REVERT JUMPDEST ISZERO PUSH2 0x1E4E JUMPI JUMP JUMPDEST PUSH1 0x40 MLOAD PUSH3 0x461BCD PUSH1 0xE5 SHL DUP2 MSTORE PUSH1 0x20 PUSH1 0x4 DUP3 ADD MSTORE PUSH1 0x12 PUSH1 0x24 DUP3 ADD MSTORE PUSH18 0x47616D65206973206E6F7420616374697665 PUSH1 0x70 SHL PUSH1 0x44 DUP3 ADD MSTORE PUSH1 0x64 SWAP1 REVERT JUMPDEST SWAP2 SWAP1 DUP3 ADD DUP1 SWAP3 GT PUSH2 0x7F7 JUMPI JUMP JUMPDEST PUSH0 NOT DUP2 EQ PUSH2 0x7F7 JUMPI PUSH1 0x1 ADD SWAP1 JUMP JUMPDEST PUSH8 0xFFFFFFFFFFFFFFFF DUP2 GT PUSH2 0x3B0 JUMPI PUSH1 0x5 SHL PUSH1 0x20 ADD SWAP1 JUMP JUMPDEST DUP1 MLOAD DUP3 LT ISZERO PUSH2 0x1BE4 JUMPI PUSH1 0x20 SWAP2 PUSH1 0x5 SHL ADD ADD SWAP1 JUMP JUMPDEST ISZERO PUSH2 0x1ED6 JUMPI JUMP JUMPDEST PUSH1 0x40 MLOAD PUSH3 0x461BCD PUSH1 0xE5 SHL DUP2 MSTORE PUSH1 0x20 PUSH1 0x4 DUP3 ADD MSTORE PUSH1 0x10 PUSH1 0x24 DUP3 ADD MSTORE PUSH16 0x11D85B59481A185CC8195E1C1A5C9959 PUSH1 0x82 SHL PUSH1 0x44 DUP3 ADD MSTORE PUSH1 0x64 SWAP1 REVERT JUMPDEST PUSH1 0x1 SLOAD PUSH1 0x1 PUSH1 0x1 PUSH1 0xA0 SHL SUB AND CALLER SUB PUSH2 0x1F22 JUMPI JUMP JUMPDEST PUSH4 0x118CDAA7 PUSH1 0xE0 SHL PUSH0 MSTORE CALLER PUSH1 0x4 MSTORE PUSH1 0x24 PUSH0 REVERT INVALID LOG2 PUSH5 0x6970667358 0x22 SLT KECCAK256 DUP6 MLOAD SWAP2 0xC0 PUSH29 0x6D9EBB7FE138014DE66F36623526F975C3EF672954CA6F7678181D6473 PUSH16 0x6C634300081C00330000000000000000 "},"methodIdentifiers":{"PLATFORM_FEE_PERCENT()":"560d52d4","addAdmin(address)":"70480275","adminList(uint256)":"11117fc8","admins(address)":"429b62e5","createGame(string,string,string,uint256,uint256)":"6cc7d8f8","defaultTimeLimit()":"3db494cb","expireGame(uint256)":"61e4a23a","games(uint256)":"117a5b90","getActiveGamesCount()":"72aeb81f","getAdminCount()":"8b7bf3eb","getAdminList()":"d9f774fc","getGameInfo(uint256)":"47e1d550","getPlayerGames(address)":"129daf84","getPlayerGuess(uint256,address)":"f4dcdc8e","getPlayerStats(address)":"4fd66eae","getRandomActiveGame()":"6ce5ba6f","hasPlayerGuessed(uint256,address)":"9a53371e","isAdmin(address)":"24d7806c","isOwner(address)":"2f54bf6e","isPlayerInGame(uint256,address)":"0d3b404f","joinGame(uint256)":"efaa55a0","nextGameId()":"b135bbb0","owner()":"8da5cb5b","playerGames(address,uint256)":"0a5694c2","playerStats(address)":"cdafbbb6","removeAdmin(address)":"1785f53c","renounceOwnership()":"715018a6","setTimeLimit(uint256)":"e2889c82","submitGuess(uint256,string)":"db249ec8","transferOwnership(address)":"f2fde38b","withdraw()":"3ccfd60b"}}}}}