{"project/contracts/GuessWhatGame.sol":{"GuessWhatGame":{"abi":[{"inputs":[{"internalType":"address","name":"initialOwner","type":"address"},{"internalType":"address[]","name":"initialAdmins","type":"address[]"}],"stateMutability":"nonpayable","type":"constructor"},{"inputs":[{"internalType":"address","name":"owner","type":"address"}],"name":"OwnableInvalidOwner","type":"error"},{"inputs":[{"internalType":"address","name":"account","type":"address"}],"name":"OwnableUnauthorizedAccount","type":"error"},{"inputs":[],"name":"ReentrancyGuardReentrantCall","type":"error"},{"anonymous":false,"inputs":[{"indexed":true,"internalType":"address","name":"admin","type":"address"}],"name":"AdminAdded","type":"event"},{"anonymous":false,"inputs":[{"indexed":true,"internalType":"address","name":"admin","type":"address"}],"name":"AdminRemoved","type":"event"},{"anonymous":false,"inputs":[{"indexed":true,"internalType":"uint256","name":"gameId","type":"uint256"},{"indexed":false,"internalType":"uint256","name":"entryFee","type":"uint256"},{"indexed":false,"internalType":"uint256","name":"basePrizeAmount","type":"uint256"}],"name":"GameCreated","type":"event"},{"anonymous":false,"inputs":[{"indexed":true,"internalType":"uint256","name":"gameId","type":"uint256"},{"indexed":false,"internalType":"uint256","name":"totalPrize","type":"uint256"}],"name":"GameExpired","type":"event"},{"anonymous":false,"inputs":[{"indexed":true,"internalType":"uint256","name":"gameId","type":"uint256"},{"indexed":true,"internalType":"address","name":"winner","type":"address"},{"indexed":false,"internalType":"uint256","name":"prize","type":"uint256"}],"name":"GameWon","type":"event"},{"anonymous":false,"inputs":[{"indexed":true,"internalType":"uint256","name":"gameId","type":"uint256"},{"indexed":true,"internalType":"address","name":"player","type":"address"},{"indexed":false,"internalType":"string","name":"guess","type":"string"}],"name":"GuessSubmitted","type":"event"},{"anonymous":false,"inputs":[{"indexed":true,"internalType":"address","name":"previousOwner","type":"address"},{"indexed":true,"internalType":"address","name":"newOwner","type":"address"}],"name":"OwnershipTransferred","type":"event"},{"anonymous":false,"inputs":[{"indexed":false,"internalType":"uint256","name":"oldFee","type":"uint256"},{"indexed":false,"internalType":"uint256","name":"newFee","type":"uint256"}],"name":"PlatformFeeUpdated","type":"event"},{"anonymous":false,"inputs":[{"indexed":true,"internalType":"uint256","name":"gameId","type":"uint256"},{"indexed":true,"internalType":"address","name":"player","type":"address"},{"indexed":false,"internalType":"uint256","name":"entryFee","type":"uint256"}],"name":"PlayerJoined","type":"event"},{"anonymous":false,"inputs":[{"indexed":true,"internalType":"uint256","name":"gameId","type":"uint256"},{"indexed":true,"internalType":"address","name":"winner","type":"address"},{"indexed":false,"internalType":"uint256","name":"amount","type":"uint256"}],"name":"PrizeClaimed","type":"event"},{"anonymous":false,"inputs":[{"indexed":false,"internalType":"uint256","name":"oldMultiplier","type":"uint256"},{"indexed":false,"internalType":"uint256","name":"newMultiplier","type":"uint256"}],"name":"PrizeMultiplierUpdated","type":"event"},{"anonymous":false,"inputs":[{"indexed":false,"internalType":"uint256","name":"oldFee","type":"uint256"},{"indexed":false,"internalType":"uint256","name":"newFee","type":"uint256"}],"name":"SustainableFeeUpdated","type":"event"},{"anonymous":false,"inputs":[{"indexed":true,"internalType":"address","name":"funder","type":"address"},{"indexed":false,"internalType":"uint256","name":"amount","type":"uint256"}],"name":"TreasuryFunded","type":"event"},{"anonymous":false,"inputs":[{"indexed":true,"internalType":"address","name":"recipient","type":"address"},{"indexed":false,"internalType":"uint256","name":"amount","type":"uint256"}],"name":"TreasuryWithdrawn","type":"event"},{"inputs":[{"internalType":"address","name":"_admin","type":"address"}],"name":"addAdmin","outputs":[],"stateMutability":"nonpayable","type":"function"},{"inputs":[{"internalType":"uint256","name":"","type":"uint256"}],"name":"adminList","outputs":[{"internalType":"address","name":"","type":"address"}],"stateMutability":"view","type":"function"},{"inputs":[{"internalType":"address","name":"","type":"address"}],"name":"admins","outputs":[{"internalType":"bool","name":"","type":"bool"}],"stateMutability":"view","type":"function"},{"inputs":[{"internalType":"string","name":"_topWord","type":"string"},{"internalType":"bytes32","name":"_middleWordHash","type":"bytes32"},{"internalType":"uint256","name":"_middleWordLength","type":"uint256"},{"internalType":"string","name":"_bottomWord","type":"string"},{"internalType":"uint256","name":"_entryFee","type":"uint256"}],"name":"createGame","outputs":[{"internalType":"uint256","name":"","type":"uint256"}],"stateMutability":"nonpayable","type":"function"},{"inputs":[],"name":"defaultPrizeMultiplier","outputs":[{"internalType":"uint256","name":"","type":"uint256"}],"stateMutability":"view","type":"function"},{"inputs":[],"name":"emergencyCloseAllGames","outputs":[],"stateMutability":"nonpayable","type":"function"},{"inputs":[{"internalType":"uint256","name":"_gameId","type":"uint256"}],"name":"emergencyCloseGame","outputs":[],"stateMutability":"nonpayable","type":"function"},{"inputs":[],"name":"emergencyWithdraw","outputs":[],"stateMutability":"nonpayable","type":"function"},{"inputs":[],"name":"fundTreasury","outputs":[],"stateMutability":"payable","type":"function"},{"inputs":[{"internalType":"uint256","name":"","type":"uint256"}],"name":"games","outputs":[{"internalType":"uint256","name":"gameId","type":"uint256"},{"internalType":"string","name":"topWord","type":"string"},{"internalType":"bytes32","name":"middleWordHash","type":"bytes32"},{"internalType":"uint256","name":"middleWordLength","type":"uint256"},{"internalType":"string","name":"bottomWord","type":"string"},{"internalType":"uint256","name":"entryFee","type":"uint256"},{"internalType":"uint256","name":"totalPrize","type":"uint256"},{"internalType":"uint256","name":"basePrizeAmount","type":"uint256"},{"internalType":"uint256","name":"startTime","type":"uint256"},{"internalType":"bool","name":"isActive","type":"bool"},{"internalType":"bool","name":"isCompleted","type":"bool"},{"internalType":"address","name":"winner","type":"address"}],"stateMutability":"view","type":"function"},{"inputs":[],"name":"getActiveGamesCount","outputs":[{"internalType":"uint256","name":"","type":"uint256"}],"stateMutability":"view","type":"function"},{"inputs":[],"name":"getAdminCount","outputs":[{"internalType":"uint256","name":"","type":"uint256"}],"stateMutability":"view","type":"function"},{"inputs":[],"name":"getAdminList","outputs":[{"internalType":"address[]","name":"","type":"address[]"}],"stateMutability":"view","type":"function"},{"inputs":[],"name":"getContractBalance","outputs":[{"internalType":"uint256","name":"","type":"uint256"}],"stateMutability":"view","type":"function"},{"inputs":[{"internalType":"uint256","name":"_gameId","type":"uint256"}],"name":"getGameInfo","outputs":[{"internalType":"uint256","name":"gameId","type":"uint256"},{"internalType":"string","name":"topWord","type":"string"},{"internalType":"uint256","name":"middleWordLength","type":"uint256"},{"internalType":"string","name":"bottomWord","type":"string"},{"internalType":"uint256","name":"entryFee","type":"uint256"},{"internalType":"uint256","name":"totalPrize","type":"uint256"},{"internalType":"uint256","name":"basePrizeAmount","type":"uint256"},{"internalType":"uint256","name":"startTime","type":"uint256"},{"internalType":"bool","name":"isActive","type":"bool"},{"internalType":"bool","name":"isCompleted","type":"bool"},{"internalType":"address","name":"winner","type":"address"}],"stateMutability":"view","type":"function"},{"inputs":[{"internalType":"address","name":"_player","type":"address"}],"name":"getPlayerGames","outputs":[{"internalType":"uint256[]","name":"","type":"uint256[]"}],"stateMutability":"view","type":"function"},{"inputs":[{"internalType":"uint256","name":"_gameId","type":"uint256"},{"internalType":"address","name":"_player","type":"address"}],"name":"getPlayerGuess","outputs":[{"internalType":"string","name":"","type":"string"}],"stateMutability":"view","type":"function"},{"inputs":[{"internalType":"address","name":"_player","type":"address"}],"name":"getPlayerStats","outputs":[{"internalType":"uint256","name":"gamesPlayed","type":"uint256"},{"internalType":"uint256","name":"guessesPlayed","type":"uint256"},{"internalType":"uint256","name":"correctGuesses","type":"uint256"},{"internalType":"uint256","name":"totalWinnings","type":"uint256"},{"internalType":"uint256","name":"accuracy","type":"uint256"}],"stateMutability":"view","type":"function"},{"inputs":[],"name":"getRandomActiveGame","outputs":[{"internalType":"uint256","name":"","type":"uint256"}],"stateMutability":"view","type":"function"},{"inputs":[],"name":"getTreasuryBalance","outputs":[{"internalType":"uint256","name":"","type":"uint256"}],"stateMutability":"view","type":"function"},{"inputs":[{"internalType":"uint256","name":"_gameId","type":"uint256"},{"internalType":"address","name":"_player","type":"address"}],"name":"hasPlayerGuessed","outputs":[{"internalType":"bool","name":"","type":"bool"}],"stateMutability":"view","type":"function"},{"inputs":[{"internalType":"address","name":"_address","type":"address"}],"name":"isAdmin","outputs":[{"internalType":"bool","name":"","type":"bool"}],"stateMutability":"view","type":"function"},{"inputs":[{"internalType":"address","name":"_address","type":"address"}],"name":"isOwner","outputs":[{"internalType":"bool","name":"","type":"bool"}],"stateMutability":"view","type":"function"},{"inputs":[{"internalType":"uint256","name":"_gameId","type":"uint256"},{"internalType":"address","name":"_player","type":"address"}],"name":"isPlayerInGame","outputs":[{"internalType":"bool","name":"","type":"bool"}],"stateMutability":"view","type":"function"},{"inputs":[],"name":"nextGameId","outputs":[{"internalType":"uint256","name":"","type":"uint256"}],"stateMutability":"view","type":"function"},{"inputs":[],"name":"owner","outputs":[{"internalType":"address","name":"","type":"address"}],"stateMutability":"view","type":"function"},{"inputs":[],"name":"platformFeePercent","outputs":[{"internalType":"uint256","name":"","type":"uint256"}],"stateMutability":"view","type":"function"},{"inputs":[{"internalType":"address","name":"","type":"address"},{"internalType":"uint256","name":"","type":"uint256"}],"name":"playerGames","outputs":[{"internalType":"uint256","name":"","type":"uint256"}],"stateMutability":"view","type":"function"},{"inputs":[{"internalType":"address","name":"","type":"address"}],"name":"playerStats","outputs":[{"internalType":"uint256","name":"gamesPlayed","type":"uint256"},{"internalType":"uint256","name":"guessesPlayed","type":"uint256"},{"internalType":"uint256","name":"correctGuesses","type":"uint256"},{"internalType":"uint256","name":"totalWinnings","type":"uint256"},{"internalType":"uint256","name":"accuracy","type":"uint256"}],"stateMutability":"view","type":"function"},{"inputs":[{"internalType":"address","name":"_admin","type":"address"}],"name":"removeAdmin","outputs":[],"stateMutability":"nonpayable","type":"function"},{"inputs":[],"name":"renounceOwnership","outputs":[],"stateMutability":"nonpayable","type":"function"},{"inputs":[{"internalType":"uint256","name":"_feePercent","type":"uint256"}],"name":"setPlatformFee","outputs":[],"stateMutability":"nonpayable","type":"function"},{"inputs":[{"internalType":"uint256","name":"_multiplier","type":"uint256"}],"name":"setPrizeMultiplier","outputs":[],"stateMutability":"nonpayable","type":"function"},{"inputs":[{"internalType":"uint256","name":"_feePercent","type":"uint256"}],"name":"setSustainableFee","outputs":[],"stateMutability":"nonpayable","type":"function"},{"inputs":[{"internalType":"uint256","name":"_gameId","type":"uint256"},{"internalType":"string","name":"_guess","type":"string"}],"name":"submitGuess","outputs":[],"stateMutability":"payable","type":"function"},{"inputs":[],"name":"sustainableFeePercent","outputs":[{"internalType":"uint256","name":"","type":"uint256"}],"stateMutability":"view","type":"function"},{"inputs":[{"internalType":"address","name":"newOwner","type":"address"}],"name":"transferOwnership","outputs":[],"stateMutability":"nonpayable","type":"function"},{"inputs":[],"name":"treasuryBalance","outputs":[{"internalType":"uint256","name":"","type":"uint256"}],"stateMutability":"view","type":"function"},{"inputs":[{"internalType":"uint256","name":"_amount","type":"uint256"}],"name":"withdrawFromTreasury","outputs":[],"stateMutability":"nonpayable","type":"function"}],"evm":{"bytecode":{"linkReferences":{},"object":"60806040523461026e576125ce8038038061001981610272565b92833981019060408183031261026e5761003281610297565b602082015190916001600160401b03821161026e57019180601f8401121561026e578251926001600160401b038411610220578360051b90602080610078818501610272565b80978152019282010192831161026e57602001905b82821061025657505060015f55506001600160a01b0316801561024357600180546001600160a01b0319811683179091556001600160a01b03167f8be0079c531659141344cd1fd0a4f28419497f9722a3daafe3b4186f6b6457e05f80a3600160025560056003556005600455600a6006555f5b8151811015610234576001600160a01b0361011c82846102ab565b511661012b575b600101610101565b6001600160a01b0361013d82846102ab565b51165f908152600a60205260409020805460ff191660011790556001600160a01b0361016982846102ab565b511690600b549168010000000000000000831015610220576001830180600b5583101561020c57600b5f527f0175b7a638427703f0dbe7bb9bbf987a2551717b34e79f33b5b1008d1fa01db990920180546001600160a01b0319169092179091556001906001600160a01b036101df82856102ab565b51167f44d6d25963f097ad14f29f06854a01f575648a1ef82f30e562ccd3889717e3395f80a29050610123565b634e487b7160e01b5f52603260045260245ffd5b634e487b7160e01b5f52604160045260245ffd5b60405161230e90816102c08239f35b631e4fbdf760e01b5f525f60045260245ffd5b6020809161026384610297565b81520191019061008d565b5f80fd5b6040519190601f01601f191682016001600160401b0381118382101761022057604052565b51906001600160a01b038216820361026e57565b805182101561020c5760209160051b01019056fe60806040526004361015610011575f80fd5b5f3560e01c80630a5694c214611ec45780630d3b404f14611e5a57806311117fc814611e18578063117a5b9014611d33578063129daf8414611c7f57806312e8e2c314611be55780631785f53c14611a385780631b39c1f61461196b5780631fb81fa5146118bf57806324d7806c146118645780632d57dc34146117ba5780632f54bf6e14611785578063313dab2014610f20578063429b62e51461174857806347e1d550146116555780634fd66eae14610dd6578063635556241461157a5780636ce5ba6f146113f15780636f9fb98a146113d6578063704802751461129d578063715018a61461124257806372aeb81f146111c157806382f7defa146111a457806387bf18a61461100e5780638b7bf3eb14610ff15780638c639a8514610fd45780638da5cb5b14610fac5780639a53371e14610f3d5780639b5655dc14610f20578063b135bbb014610f03578063b9c1868514610e4a578063cdafbbb614610dd6578063d9f774fc14610d0e578063db249ec8146107ae578063db2e21bc1461071f578063ea212a1414610702578063ee8a3d16146102cd578063f2fde38b146102475763f4dcdc8e146101c6575f80fd5b34610243576040366003190112610243576004356101e2611f32565b9080151580610238575b6101f5906120fd565b5f526007602052600b60405f20019060018060a01b03165f5260205261023461022060405f20611fe3565b604051918291602083526020830190612083565b0390f35b5060025481106101ec565b5f80fd5b3461024357602036600319011261024357610260611f1c565b610268612293565b6001600160a01b031680156102ba57600180546001600160a01b0319811683179091556001600160a01b03167f8be0079c531659141344cd1fd0a4f28419497f9722a3daafe3b4186f6b6457e05f80a3005b631e4fbdf760e01b5f525f60045260245ffd5b346102435760a03660031901126102435760043567ffffffffffffffff8111610243576102fe9036906004016120a7565b6024359060643567ffffffffffffffff8111610243576103229036906004016120a7565b9060843592335f52600a60205260ff60405f20541680156106ee575b6103479061214c565b83156106aa578015610666576002549261036084612254565b600255835f52600760205260405f209161037c60065487612262565b9361038b8560055410156121dc565b8584558051600185019167ffffffffffffffff82116105945781906103b08454611f89565b601f8111610616575b50602090601f83116001146105b3575f926105a8575b50508160011b915f199060031b1c19161790555b600283015560443560038301558051600483019167ffffffffffffffff8211610594576104108354611f89565b601f811161054f575b509160209693918695938890601f83116001146104c15792826009937fbd3f84a55fdc44f970adc6ccbaa93e78d7da5f3fc37c4b7da578d47c9ad2e46a989693604098965f926104b6575b50508160011b915f199060031b1c19161790555b60058101849055600781018390555f60068201554260088201550180546001600160b01b0319166001179055825191825286820152a2604051908152f35b015190508c80610464565b90601f19831691845f52815f20925f5b8181106105355750937fbd3f84a55fdc44f970adc6ccbaa93e78d7da5f3fc37c4b7da578d47c9ad2e46a9896936040989693600193836009981061051d575b505050811b019055610478565b01515f1960f88460031b161c191690558c8080610510565b8284015185558b9a50600190940193928c01928c016104d1565b835f5260205f20601f840160051c8101916020851061058a575b601f0160051c01905b81811061057f5750610419565b5f8155600101610572565b9091508190610569565b634e487b7160e01b5f52604160045260245ffd5b0151905089806103cf565b5f8581528281209350601f198516905b8181106105fe57509084600195949392106105e6575b505050811b0190556103e3565b01515f1960f88460031b161c191690558980806105d9565b929360206001819287860151815501950193016105c3565b909150835f5260205f20601f840160051c8101916020851061065c575b90601f859493920160051c01905b81811061064e57506103b9565b5f8155849350600101610641565b9091508190610633565b606460405162461bcd60e51b815260206004820152602060248201527f4d6964646c6520776f726420686173682063616e6e6f7420626520656d7074796044820152fd5b606460405162461bcd60e51b815260206004820152602060248201527f456e74727920666565206d7573742062652067726561746572207468616e20306044820152fd5b506001546001600160a01b0316331461033e565b34610243575f366003190112610243576020600454604051908152f35b34610243575f36600319011261024357610737612293565b61073f6122ba565b478015610772576001545f918291829182916001600160a01b031682f1156107675760015f55005b6040513d5f823e3d90fd5b60405162461bcd60e51b81526020600482015260146024820152734e6f2066756e647320746f20776974686472617760601b6044820152606490fd5b60403660031901126102435760043560243567ffffffffffffffff8111610243576107dd9036906004016120a7565b9080151580610d03575b6107f0906120fd565b805f52600760205261080b60ff600960405f2001541661218e565b6108136122ba565b805f52600760205260405f2060058101543403610cc857335f908152600860209081526040808320600a85019283905292205460ff1615610bfc575b50600190600683016108623482546121cf565b90550161086f8154612254565b9055335f908152600b820160205260409020835167ffffffffffffffff81116105945761089c8254611f89565b601f8111610bb7575b50806020601f8211600114610b56575f91610b4b575b508160011b915f199060031b1c19161790555b600283516020850120910154145f14610b37575f8181526007602052604090206009810180546001600160b01b0319163360101b62010000600160b01b0316176101001790556006810154600582015461097892919080821115610b295761093b6007916109469361213f565b925b015491826121cf565b90606461095560035484612262565b04928392610973606461096a60045484612262565b0495869261213f565b61213f565b92600554828110610aec57610995926109909161213f565b6121cf565b600555335f52600860205260405f20600281016109b28154612254565b809155600382016109c48582546121cf565b905581549081610aac575b5050508180158015610a87575b505080158015610a58575b5050604051908152817f9e59e9b0ec1755ccaf2fd4a7ed4ad5b0a678626e91834aee53ebdf1356bd390a60203393a35b7f17a40e01bf0138d07f888b59d3df945ee0f73445ebbde5213180ad0cb1b8b3836040516020815280610a4f33956020830190612083565b0390a360015f55005b5f808093819360018060a01b0360015416908390610a7e575bf1156107675783806109e7565b506108fc610a71565b5f90610aa3575b5f80809381933390f1156107675781856109dc565b506108fc610a8e565b6127108102908082046127101490151715610ad857600491610acd91612275565b9101558480806109cf565b634e487b7160e01b5f52601160045260245ffd5b60405162461bcd60e51b8152602060048201526015602482015274496e73756666696369656e7420747265617375727960581b6044820152606490fd5b505061094660075f9261093d565b610b43346005546121cf565b600555610a17565b9050850151866108bb565b5f8481528181209250601f198416905b818110610b9f57509083600194939210610b87575b5050811b0190556108ce565b8701515f1960f88460031b161c191690558680610b7b565b9192602060018192868c015181550194019201610b66565b825f5260205f20601f830160051c81019160208410610bf2575b601f0160051c01905b818110610be757506108a5565b5f8155600101610bda565b9091508190610bd1565b335f90815260209182526040808220805460ff191660011790556009909252208054600160401b81101561059457610c3991600182018155611f74565b81549060031b9085821b915f19901b1916179055610c578154612254565b9081815581610c98575b60019150604051348152847f03dfbe1fcb4e2d61f3b4a0c93d8f814c92250618b3387f396cc9fc9fafe2c20360203393a39061084f565b60028101546127108102908082046127101490151715610ad857600192610cbe91612275565b6004820155610c61565b60405162461bcd60e51b8152602060048201526013602482015272496e636f727265637420656e7472792066656560681b6044820152606490fd5b5060025481106107e7565b34610243575f36600319011261024357604051806020600b5492838152018092600b5f527f0175b7a638427703f0dbe7bb9bbf987a2551717b34e79f33b5b1008d1fa01db9905f5b818110610db75750505081610d6c910382611fc1565b604051918291602083019060208452518091526040830191905f5b818110610d95575050500390f35b82516001600160a01b0316845285945060209384019390920191600101610d87565b82546001600160a01b0316845260209093019260019283019201610d56565b34610243576020366003190112610243576001600160a01b03610df7611f1c565b165f52600860205260405f2080546102346001830154926002810154906004600382015491015491604051958695869192608093969594919660a084019784526020840152604083015260608201520152565b5f36600319011261024357335f52600a60205260ff60405f2054168015610eef575b610e759061214c565b3415610eb857610e87346005546121cf565b6005556040513481527fda1785fe1dec267c363b06ae3e02c3e086123f9d611399f7a1cc98492518372e60203392a2005b60405162461bcd60e51b815260206004820152600f60248201526e4d7573742073656e642066756e647360881b6044820152606490fd5b506001546001600160a01b03163314610e6c565b34610243575f366003190112610243576020600254604051908152f35b34610243575f366003190112610243576020600554604051908152f35b3461024357604036600319011261024357600435610f59611f32565b9080151580610fa1575b610f6c906120fd565b5f526007602052600b60405f20019060018060a01b03165f526020526020610f9760405f2054611f89565b1515604051908152f35b506002548110610f63565b34610243575f366003190112610243576001546040516001600160a01b039091168152602090f35b34610243575f366003190112610243576020600354604051908152f35b34610243575f366003190112610243576020600b54604051908152f35b34610243575f36600319011261024357335f52600a60205260ff60405f2054168015611190575b61103e9061214c565b6110466122ba565b60015f805b60025483101561113f57825f52600760205260405f20926009840180549460ff861680611131575b611084575b5050600101925061104b565b600601805461ffff19909616610100179091555f905583806110e3575b50807fa72860103f540f00e7d5c44ff9ea4cdb6cf0361b63e542d7a657c4c1154100de60206110d260019596612254565b96604051908152a283929185611078565b7fa72860103f540f00e7d5c44ff9ea4cdb6cf0361b63e542d7a657c4c1154100de60206110d26111258460019761111d88976005546121cf565b6005556121cf565b955050505050836110a1565b5060ff8660081c1615611073565b501561114b5760015f55005b60405162461bcd60e51b815260206004820152601860248201527f4e6f206163746976652067616d657320746f20636c6f736500000000000000006044820152606490fd5b506001546001600160a01b03163314611035565b34610243575f366003190112610243576020600654604051908152f35b34610243575f366003190112610243575f6001600254905b8181106111eb57602083604051908152f35b805f52600760205260ff600960405f2001541680611225575b611211575b6001016111d9565b9161121d600191612254565b929050611209565b50805f52600760205260ff600960405f20015460081c1615611204565b34610243575f3660031901126102435761125a612293565b600180546001600160a01b031981169091555f906001600160a01b03167f8be0079c531659141344cd1fd0a4f28419497f9722a3daafe3b4186f6b6457e08280a3005b34610243576020366003190112610243576112b6611f1c565b6112be612293565b6001600160a01b03811690811561139f57815f52600a60205260ff60405f20541661136757815f52600a60205260405f20600160ff19825416179055600b5490600160401b8210156105945761131d8260016113419401600b55611f48565b81546001600160a01b0393841660039290921b91821b9390911b1916919091179055565b7f44d6d25963f097ad14f29f06854a01f575648a1ef82f30e562ccd3889717e3395f80a2005b60405162461bcd60e51b815260206004820152601060248201526f20b63932b0b23c9030b71030b236b4b760811b6044820152606490fd5b60405162461bcd60e51b815260206004820152600f60248201526e496e76616c6964206164647265737360881b6044820152606490fd5b34610243575f36600319011261024357602047604051908152f35b34610243575f366003190112610243576002546001811115611544575f19810190808211610ad85761142282612228565b916114306040519384611fc1565b80835261143f601f1991612228565b013660208401375f9060015b8181106114e1575050801561149c5760209161149391604051848101904282524460408201523360601b606082015260548152611489607482611fc1565b5190200690612240565b51604051908152f35b60405162461bcd60e51b815260206004820152601960248201527f4e6f206163746976652067616d657320617661696c61626c65000000000000006044820152606490fd5b805f52600760205260ff600960405f2001541680611527575b611507575b60010161144b565b9161151f818461151960019488612240565b52612254565b9290506114ff565b50805f52600760205260ff600960405f20015460081c16156114fa565b60405162461bcd60e51b815260206004820152600e60248201526d139bc819d85b595cc8195e1a5cdd60921b6044820152606490fd5b3461024357602036600319011261024357600435611596612293565b61159e6122ba565b8015611610576115b781600554610973828210156121dc565b6005555f8080808460018060a01b036001541682f115610767576001546040519182526001600160a01b0316907f41fdd680478135993bc53fb2ffaf9560951b57ef62ff6badd02b61e018b4f17f90602090a260015f55005b60405162461bcd60e51b815260206004820152601d60248201527f416d6f756e74206d7573742062652067726561746572207468616e20300000006044820152606490fd5b34610243576020366003190112610243576004358015158061173d575b61167b906120fd565b5f52600760205260405f2080546003820154600583015490600684015460078501546008860154916116f56009880154946116c460046116bd60018c01611fe3565b9a01611fe3565b6116e26040519a8b9a8b5261016060208c01526101608b0190612083565b9160408a015288820360608a0152612083565b608087019590955260a086015260c085015260e084015260ff8181161515610100850152600882901c16151561012084015260101c6001600160a01b03166101408301520390f35b506002548110611672565b34610243576020366003190112610243576001600160a01b03611769611f1c565b165f52600a602052602060ff60405f2054166040519015158152f35b346102435760203660031901126102435760206117a0611f1c565b6001546040516001600160a01b0392831691909216148152f35b34610243576020366003190112610243576004356117d6612293565b80156118155760407f514a13b7c45f1c0e37b6e90a86a9d5760aa7b452d562dfad87123c398c6c6b9591600654908060065582519182526020820152a1005b60405162461bcd60e51b815260206004820152602160248201527f4d756c7469706c696572206d7573742062652067726561746572207468616e206044820152600360fc1b6064820152608490fd5b346102435760203660031901126102435760206001600160a01b03611887611f1c565b16805f52600a825260ff60405f2054169081156118aa575b506040519015158152f35b6001546001600160a01b03161490508261189f565b34610243576020366003190112610243576004356118db612293565b600a811161191c5760407f0f1a0803ded65cdd91b012c2eabb747329ba3cb02c9850072a5981822ab2bb7b91600454908060045582519182526020820152a1005b60405162461bcd60e51b815260206004820152602160248201527f5375737461696e61626c65206665652063616e6e6f74206578636565642031306044820152602560f81b6064820152608490fd5b3461024357602036600319011261024357600435335f52600a60205260ff60405f2054168015611a24575b61199f9061214c565b6119a76122ba565b805f5260076020527fa72860103f540f00e7d5c44ff9ea4cdb6cf0361b63e542d7a657c4c1154100de602060405f205f6009820160068154936119ec60ff861661218e565b019061010082549461ffff19161790555580611a10575b604051908152a260015f55005b611a1c816005546121cf565b600555611a03565b506001546001600160a01b03163314611996565b3461024357602036600319011261024357611a51611f1c565b611a59612293565b6001600160a01b03165f818152600a602052604090205460ff1615611bb1576001546001600160a01b03168114611b76575f818152600a60205260408120805460ff191690555b600b549081811015611b6f5782611ab682611f48565b905460039190911b1c6001600160a01b031614611ad7576001915001611aa0565b5f198201918211610ad85761131d611af1611b0993611f48565b905460039190911b1c6001600160a01b031691611f48565b600b548015611b5b575f1901611b1e81611f48565b81549060018060a01b039060031b1b19169055600b555b7fa3b62bc36326052d97ea62d63c3d60308ed4c3ea8ac079dd8499f1e9c4f80c0f5f80a2005b634e487b7160e01b5f52603160045260245ffd5b5050611b35565b60405162461bcd60e51b815260206004820152601360248201527221b0b73737ba103932b6b7bb329037bbb732b960691b6044820152606490fd5b60405162461bcd60e51b815260206004820152600c60248201526b2737ba1030b71030b236b4b760a11b6044820152606490fd5b3461024357602036600319011261024357600435611c01612293565b60328111611c425760407fd347e206f25a89b917fc9482f1a2d294d749baa4dc9bde7fb495ee11fe49164391600354908060035582519182526020820152a1005b60405162461bcd60e51b81526020600482015260156024820152744665652063616e6e6f74206578636565642035302560581b6044820152606490fd5b34610243576020366003190112610243576001600160a01b03611ca0611f1c565b165f52600960205260405f20604051806020835491828152019081935f5260205f20905f5b818110611d1d5750505081611cdb910382611fc1565b604051918291602083019060208452518091526040830191905f5b818110611d04575050500390f35b8251845285945060209384019390920191600101611cf6565b8254845260209093019260019283019201611cc5565b34610243576020366003190112610243576004355f52600760205260405f208054611d6060018301611fe3565b91600281015490600381015490611d7960048201611fe3565b600582015493611dcf6006840154916007850154936009600887015496015496611db76040519b8c9b8c5261018060208d01526101808c0190612083565b9260408b015260608a015288820360808a0152612083565b60a087019590955260c086015260e085015261010084015260ff8181161515610120850152600882901c16151561014084015260101c6001600160a01b03166101608301520390f35b3461024357602036600319011261024357600435600b5481101561024357611e41602091611f48565b905460405160039290921b1c6001600160a01b03168152f35b3461024357604036600319011261024357600435611e76611f32565b9080151580611eb9575b611e89906120fd565b5f526007602052600a60405f20019060018060a01b03165f52602052602060ff60405f2054166040519015158152f35b506002548110611e80565b3461024357604036600319011261024357611edd611f1c565b6001600160a01b03165f9081526009602052604090208054602435919082101561024357602091611f0d91611f74565b90549060031b1c604051908152f35b600435906001600160a01b038216820361024357565b602435906001600160a01b038216820361024357565b600b54811015611f6057600b5f5260205f2001905f90565b634e487b7160e01b5f52603260045260245ffd5b8054821015611f60575f5260205f2001905f90565b90600182811c92168015611fb7575b6020831014611fa357565b634e487b7160e01b5f52602260045260245ffd5b91607f1691611f98565b90601f8019910116810190811067ffffffffffffffff82111761059457604052565b9060405191825f825492611ff684611f89565b8084529360018116908115612061575060011461201d575b5061201b92500383611fc1565b565b90505f9291925260205f20905f915b81831061204557505090602061201b928201015f61200e565b602091935080600191548385890101520191019091849261202c565b90506020925061201b94915060ff191682840152151560051b8201015f61200e565b805180835260209291819084018484015e5f828201840152601f01601f1916010190565b81601f820112156102435780359067ffffffffffffffff821161059457604051926120dc601f8401601f191660200185611fc1565b8284526020838301011161024357815f926020809301838601378301015290565b1561210457565b60405162461bcd60e51b815260206004820152601360248201527211d85b5948191bd95cc81b9bdd08195e1a5cdd606a1b6044820152606490fd5b91908203918211610ad857565b1561215357565b60405162461bcd60e51b815260206004820152601360248201527227b7363c9030b236b4b71037b91037bbb732b960691b6044820152606490fd5b1561219557565b60405162461bcd60e51b815260206004820152601260248201527147616d65206973206e6f742061637469766560701b6044820152606490fd5b91908201809211610ad857565b156121e357565b60405162461bcd60e51b815260206004820152601d60248201527f496e73756666696369656e742074726561737572792062616c616e63650000006044820152606490fd5b67ffffffffffffffff81116105945760051b60200190565b8051821015611f605760209160051b010190565b5f198114610ad85760010190565b81810292918115918404141715610ad857565b811561227f570490565b634e487b7160e01b5f52601260045260245ffd5b6001546001600160a01b031633036122a757565b63118cdaa760e01b5f523360045260245ffd5b60025f54146122c95760025f55565b633ee5aeb560e01b5f5260045ffdfea264697066735822122094c89b7618d7177b37f79d07300318756f99a1c12b69e6f89a15bc6aa7ae6ea864736f6c634300081c0033","opcodes":"PUSH1 0x80 PUSH1 0x40 MSTORE CALLVALUE PUSH2 0x26E JUMPI PUSH2 0x25CE DUP1 CODESIZE SUB DUP1 PUSH2 0x19 DUP2 PUSH2 0x272 JUMP JUMPDEST SWAP3 DUP4 CODECOPY DUP2 ADD SWAP1 PUSH1 0x40 DUP2 DUP4 SUB SLT PUSH2 0x26E JUMPI PUSH2 0x32 DUP2 PUSH2 0x297 JUMP JUMPDEST PUSH1 0x20 DUP3 ADD MLOAD SWAP1 SWAP2 PUSH1 0x1 PUSH1 0x1 PUSH1 0x40 SHL SUB DUP3 GT PUSH2 0x26E JUMPI ADD SWAP2 DUP1 PUSH1 0x1F DUP5 ADD SLT ISZERO PUSH2 0x26E JUMPI DUP3 MLOAD SWAP3 PUSH1 0x1 PUSH1 0x1 PUSH1 0x40 SHL SUB DUP5 GT PUSH2 0x220 JUMPI DUP4 PUSH1 0x5 SHL SWAP1 PUSH1 0x20 DUP1 PUSH2 0x78 DUP2 DUP6 ADD PUSH2 0x272 JUMP JUMPDEST DUP1 SWAP8 DUP2 MSTORE ADD SWAP3 DUP3 ADD ADD SWAP3 DUP4 GT PUSH2 0x26E JUMPI PUSH1 0x20 ADD SWAP1 JUMPDEST DUP3 DUP3 LT PUSH2 0x256 JUMPI POP POP PUSH1 0x1 PUSH0 SSTORE POP PUSH1 0x1 PUSH1 0x1 PUSH1 0xA0 SHL SUB AND DUP1 ISZERO PUSH2 0x243 JUMPI PUSH1 0x1 DUP1 SLOAD PUSH1 0x1 PUSH1 0x1 PUSH1 0xA0 SHL SUB NOT DUP2 AND DUP4 OR SWAP1 SWAP2 SSTORE PUSH1 0x1 PUSH1 0x1 PUSH1 0xA0 SHL SUB AND PUSH32 0x8BE0079C531659141344CD1FD0A4F28419497F9722A3DAAFE3B4186F6B6457E0 PUSH0 DUP1 LOG3 PUSH1 0x1 PUSH1 0x2 SSTORE PUSH1 0x5 PUSH1 0x3 SSTORE PUSH1 0x5 PUSH1 0x4 SSTORE PUSH1 0xA PUSH1 0x6 SSTORE PUSH0 JUMPDEST DUP2 MLOAD DUP2 LT ISZERO PUSH2 0x234 JUMPI PUSH1 0x1 PUSH1 0x1 PUSH1 0xA0 SHL SUB PUSH2 0x11C DUP3 DUP5 PUSH2 0x2AB JUMP JUMPDEST MLOAD AND PUSH2 0x12B JUMPI JUMPDEST PUSH1 0x1 ADD PUSH2 0x101 JUMP JUMPDEST PUSH1 0x1 PUSH1 0x1 PUSH1 0xA0 SHL SUB PUSH2 0x13D DUP3 DUP5 PUSH2 0x2AB JUMP JUMPDEST MLOAD AND PUSH0 SWAP1 DUP2 MSTORE PUSH1 0xA PUSH1 0x20 MSTORE PUSH1 0x40 SWAP1 KECCAK256 DUP1 SLOAD PUSH1 0xFF NOT AND PUSH1 0x1 OR SWAP1 SSTORE PUSH1 0x1 PUSH1 0x1 PUSH1 0xA0 SHL SUB PUSH2 0x169 DUP3 DUP5 PUSH2 0x2AB JUMP JUMPDEST MLOAD AND SWAP1 PUSH1 0xB SLOAD SWAP2 PUSH9 0x10000000000000000 DUP4 LT ISZERO PUSH2 0x220 JUMPI PUSH1 0x1 DUP4 ADD DUP1 PUSH1 0xB SSTORE DUP4 LT ISZERO PUSH2 0x20C JUMPI PUSH1 0xB PUSH0 MSTORE PUSH32 0x175B7A638427703F0DBE7BB9BBF987A2551717B34E79F33B5B1008D1FA01DB9 SWAP1 SWAP3 ADD DUP1 SLOAD PUSH1 0x1 PUSH1 0x1 PUSH1 0xA0 SHL SUB NOT AND SWAP1 SWAP3 OR SWAP1 SWAP2 SSTORE PUSH1 0x1 SWAP1 PUSH1 0x1 PUSH1 0x1 PUSH1 0xA0 SHL SUB PUSH2 0x1DF DUP3 DUP6 PUSH2 0x2AB JUMP JUMPDEST MLOAD AND PUSH32 0x44D6D25963F097AD14F29F06854A01F575648A1EF82F30E562CCD3889717E339 PUSH0 DUP1 LOG2 SWAP1 POP PUSH2 0x123 JUMP JUMPDEST PUSH4 0x4E487B71 PUSH1 0xE0 SHL PUSH0 MSTORE PUSH1 0x32 PUSH1 0x4 MSTORE PUSH1 0x24 PUSH0 REVERT JUMPDEST PUSH4 0x4E487B71 PUSH1 0xE0 SHL PUSH0 MSTORE PUSH1 0x41 PUSH1 0x4 MSTORE PUSH1 0x24 PUSH0 REVERT JUMPDEST PUSH1 0x40 MLOAD PUSH2 0x230E SWAP1 DUP2 PUSH2 0x2C0 DUP3 CODECOPY RETURN JUMPDEST PUSH4 0x1E4FBDF7 PUSH1 0xE0 SHL PUSH0 MSTORE PUSH0 PUSH1 0x4 MSTORE PUSH1 0x24 PUSH0 REVERT JUMPDEST PUSH1 0x20 DUP1 SWAP2 PUSH2 0x263 DUP5 PUSH2 0x297 JUMP JUMPDEST DUP2 MSTORE ADD SWAP2 ADD SWAP1 PUSH2 0x8D JUMP JUMPDEST PUSH0 DUP1 REVERT JUMPDEST PUSH1 0x40 MLOAD SWAP2 SWAP1 PUSH1 0x1F ADD PUSH1 0x1F NOT AND DUP3 ADD PUSH1 0x1 PUSH1 0x1 PUSH1 0x40 SHL SUB DUP2 GT DUP4 DUP3 LT OR PUSH2 0x220 JUMPI PUSH1 0x40 MSTORE JUMP JUMPDEST MLOAD SWAP1 PUSH1 0x1 PUSH1 0x1 PUSH1 0xA0 SHL SUB DUP3 AND DUP3 SUB PUSH2 0x26E JUMPI JUMP JUMPDEST DUP1 MLOAD DUP3 LT ISZERO PUSH2 0x20C JUMPI PUSH1 0x20 SWAP2 PUSH1 0x5 SHL ADD ADD SWAP1 JUMP INVALID PUSH1 0x80 PUSH1 0x40 MSTORE PUSH1 0x4 CALLDATASIZE LT ISZERO PUSH2 0x11 JUMPI PUSH0 DUP1 REVERT JUMPDEST PUSH0 CALLDATALOAD PUSH1 0xE0 SHR DUP1 PUSH4 0xA5694C2 EQ PUSH2 0x1EC4 JUMPI DUP1 PUSH4 0xD3B404F EQ PUSH2 0x1E5A JUMPI DUP1 PUSH4 0x11117FC8 EQ PUSH2 0x1E18 JUMPI DUP1 PUSH4 0x117A5B90 EQ PUSH2 0x1D33 JUMPI DUP1 PUSH4 0x129DAF84 EQ PUSH2 0x1C7F JUMPI DUP1 PUSH4 0x12E8E2C3 EQ PUSH2 0x1BE5 JUMPI DUP1 PUSH4 0x1785F53C EQ PUSH2 0x1A38 JUMPI DUP1 PUSH4 0x1B39C1F6 EQ PUSH2 0x196B JUMPI DUP1 PUSH4 0x1FB81FA5 EQ PUSH2 0x18BF JUMPI DUP1 PUSH4 0x24D7806C EQ PUSH2 0x1864 JUMPI DUP1 PUSH4 0x2D57DC34 EQ PUSH2 0x17BA JUMPI DUP1 PUSH4 0x2F54BF6E EQ PUSH2 0x1785 JUMPI DUP1 PUSH4 0x313DAB20 EQ PUSH2 0xF20 JUMPI DUP1 PUSH4 0x429B62E5 EQ PUSH2 0x1748 JUMPI DUP1 PUSH4 0x47E1D550 EQ PUSH2 0x1655 JUMPI DUP1 PUSH4 0x4FD66EAE EQ PUSH2 0xDD6 JUMPI DUP1 PUSH4 0x63555624 EQ PUSH2 0x157A JUMPI DUP1 PUSH4 0x6CE5BA6F EQ PUSH2 0x13F1 JUMPI DUP1 PUSH4 0x6F9FB98A EQ PUSH2 0x13D6 JUMPI DUP1 PUSH4 0x70480275 EQ PUSH2 0x129D JUMPI DUP1 PUSH4 0x715018A6 EQ PUSH2 0x1242 JUMPI DUP1 PUSH4 0x72AEB81F EQ PUSH2 0x11C1 JUMPI DUP1 PUSH4 0x82F7DEFA EQ PUSH2 0x11A4 JUMPI DUP1 PUSH4 0x87BF18A6 EQ PUSH2 0x100E JUMPI DUP1 PUSH4 0x8B7BF3EB EQ PUSH2 0xFF1 JUMPI DUP1 PUSH4 0x8C639A85 EQ PUSH2 0xFD4 JUMPI DUP1 PUSH4 0x8DA5CB5B EQ PUSH2 0xFAC JUMPI DUP1 PUSH4 0x9A53371E EQ PUSH2 0xF3D JUMPI DUP1 PUSH4 0x9B5655DC EQ PUSH2 0xF20 JUMPI DUP1 PUSH4 0xB135BBB0 EQ PUSH2 0xF03 JUMPI DUP1 PUSH4 0xB9C18685 EQ PUSH2 0xE4A JUMPI DUP1 PUSH4 0xCDAFBBB6 EQ PUSH2 0xDD6 JUMPI DUP1 PUSH4 0xD9F774FC EQ PUSH2 0xD0E JUMPI DUP1 PUSH4 0xDB249EC8 EQ PUSH2 0x7AE JUMPI DUP1 PUSH4 0xDB2E21BC EQ PUSH2 0x71F JUMPI DUP1 PUSH4 0xEA212A14 EQ PUSH2 0x702 JUMPI DUP1 PUSH4 0xEE8A3D16 EQ PUSH2 0x2CD JUMPI DUP1 PUSH4 0xF2FDE38B EQ PUSH2 0x247 JUMPI PUSH4 0xF4DCDC8E EQ PUSH2 0x1C6 JUMPI PUSH0 DUP1 REVERT JUMPDEST CALLVALUE PUSH2 0x243 JUMPI PUSH1 0x40 CALLDATASIZE PUSH1 0x3 NOT ADD SLT PUSH2 0x243 JUMPI PUSH1 0x4 CALLDATALOAD PUSH2 0x1E2 PUSH2 0x1F32 JUMP JUMPDEST SWAP1 DUP1 ISZERO ISZERO DUP1 PUSH2 0x238 JUMPI JUMPDEST PUSH2 0x1F5 SWAP1 PUSH2 0x20FD JUMP JUMPDEST PUSH0 MSTORE PUSH1 0x7 PUSH1 0x20 MSTORE PUSH1 0xB PUSH1 0x40 PUSH0 KECCAK256 ADD SWAP1 PUSH1 0x1 DUP1 PUSH1 0xA0 SHL SUB AND PUSH0 MSTORE PUSH1 0x20 MSTORE PUSH2 0x234 PUSH2 0x220 PUSH1 0x40 PUSH0 KECCAK256 PUSH2 0x1FE3 JUMP JUMPDEST PUSH1 0x40 MLOAD SWAP2 DUP3 SWAP2 PUSH1 0x20 DUP4 MSTORE PUSH1 0x20 DUP4 ADD SWAP1 PUSH2 0x2083 JUMP JUMPDEST SUB SWAP1 RETURN JUMPDEST POP PUSH1 0x2 SLOAD DUP2 LT PUSH2 0x1EC JUMP JUMPDEST PUSH0 DUP1 REVERT JUMPDEST CALLVALUE PUSH2 0x243 JUMPI PUSH1 0x20 CALLDATASIZE PUSH1 0x3 NOT ADD SLT PUSH2 0x243 JUMPI PUSH2 0x260 PUSH2 0x1F1C JUMP JUMPDEST PUSH2 0x268 PUSH2 0x2293 JUMP JUMPDEST PUSH1 0x1 PUSH1 0x1 PUSH1 0xA0 SHL SUB AND DUP1 ISZERO PUSH2 0x2BA JUMPI PUSH1 0x1 DUP1 SLOAD PUSH1 0x1 PUSH1 0x1 PUSH1 0xA0 SHL SUB NOT DUP2 AND DUP4 OR SWAP1 SWAP2 SSTORE PUSH1 0x1 PUSH1 0x1 PUSH1 0xA0 SHL SUB AND PUSH32 0x8BE0079C531659141344CD1FD0A4F28419497F9722A3DAAFE3B4186F6B6457E0 PUSH0 DUP1 LOG3 STOP JUMPDEST PUSH4 0x1E4FBDF7 PUSH1 0xE0 SHL PUSH0 MSTORE PUSH0 PUSH1 0x4 MSTORE PUSH1 0x24 PUSH0 REVERT JUMPDEST CALLVALUE PUSH2 0x243 JUMPI PUSH1 0xA0 CALLDATASIZE PUSH1 0x3 NOT ADD SLT PUSH2 0x243 JUMPI PUSH1 0x4 CALLDATALOAD PUSH8 0xFFFFFFFFFFFFFFFF DUP2 GT PUSH2 0x243 JUMPI PUSH2 0x2FE SWAP1 CALLDATASIZE SWAP1 PUSH1 0x4 ADD PUSH2 0x20A7 JUMP JUMPDEST PUSH1 0x24 CALLDATALOAD SWAP1 PUSH1 0x64 CALLDATALOAD PUSH8 0xFFFFFFFFFFFFFFFF DUP2 GT PUSH2 0x243 JUMPI PUSH2 0x322 SWAP1 CALLDATASIZE SWAP1 PUSH1 0x4 ADD PUSH2 0x20A7 JUMP JUMPDEST SWAP1 PUSH1 0x84 CALLDATALOAD SWAP3 CALLER PUSH0 MSTORE PUSH1 0xA PUSH1 0x20 MSTORE PUSH1 0xFF PUSH1 0x40 PUSH0 KECCAK256 SLOAD AND DUP1 ISZERO PUSH2 0x6EE JUMPI JUMPDEST PUSH2 0x347 SWAP1 PUSH2 0x214C JUMP JUMPDEST DUP4 ISZERO PUSH2 0x6AA JUMPI DUP1 ISZERO PUSH2 0x666 JUMPI PUSH1 0x2 SLOAD SWAP3 PUSH2 0x360 DUP5 PUSH2 0x2254 JUMP JUMPDEST PUSH1 0x2 SSTORE DUP4 PUSH0 MSTORE PUSH1 0x7 PUSH1 0x20 MSTORE PUSH1 0x40 PUSH0 KECCAK256 SWAP2 PUSH2 0x37C PUSH1 0x6 SLOAD DUP8 PUSH2 0x2262 JUMP JUMPDEST SWAP4 PUSH2 0x38B DUP6 PUSH1 0x5 SLOAD LT ISZERO PUSH2 0x21DC JUMP JUMPDEST DUP6 DUP5 SSTORE DUP1 MLOAD PUSH1 0x1 DUP6 ADD SWAP2 PUSH8 0xFFFFFFFFFFFFFFFF DUP3 GT PUSH2 0x594 JUMPI DUP2 SWAP1 PUSH2 0x3B0 DUP5 SLOAD PUSH2 0x1F89 JUMP JUMPDEST PUSH1 0x1F DUP2 GT PUSH2 0x616 JUMPI JUMPDEST POP PUSH1 0x20 SWAP1 PUSH1 0x1F DUP4 GT PUSH1 0x1 EQ PUSH2 0x5B3 JUMPI PUSH0 SWAP3 PUSH2 0x5A8 JUMPI JUMPDEST POP POP DUP2 PUSH1 0x1 SHL SWAP2 PUSH0 NOT SWAP1 PUSH1 0x3 SHL SHR NOT AND OR SWAP1 SSTORE JUMPDEST PUSH1 0x2 DUP4 ADD SSTORE PUSH1 0x44 CALLDATALOAD PUSH1 0x3 DUP4 ADD SSTORE DUP1 MLOAD PUSH1 0x4 DUP4 ADD SWAP2 PUSH8 0xFFFFFFFFFFFFFFFF DUP3 GT PUSH2 0x594 JUMPI PUSH2 0x410 DUP4 SLOAD PUSH2 0x1F89 JUMP JUMPDEST PUSH1 0x1F DUP2 GT PUSH2 0x54F JUMPI JUMPDEST POP SWAP2 PUSH1 0x20 SWAP7 SWAP4 SWAP2 DUP7 SWAP6 SWAP4 DUP9 SWAP1 PUSH1 0x1F DUP4 GT PUSH1 0x1 EQ PUSH2 0x4C1 JUMPI SWAP3 DUP3 PUSH1 0x9 SWAP4 PUSH32 0xBD3F84A55FDC44F970ADC6CCBAA93E78D7DA5F3FC37C4B7DA578D47C9AD2E46A SWAP9 SWAP7 SWAP4 PUSH1 0x40 SWAP9 SWAP7 PUSH0 SWAP3 PUSH2 0x4B6 JUMPI JUMPDEST POP POP DUP2 PUSH1 0x1 SHL SWAP2 PUSH0 NOT SWAP1 PUSH1 0x3 SHL SHR NOT AND OR SWAP1 SSTORE JUMPDEST PUSH1 0x5 DUP2 ADD DUP5 SWAP1 SSTORE PUSH1 0x7 DUP2 ADD DUP4 SWAP1 SSTORE PUSH0 PUSH1 0x6 DUP3 ADD SSTORE TIMESTAMP PUSH1 0x8 DUP3 ADD SSTORE ADD DUP1 SLOAD PUSH1 0x1 PUSH1 0x1 PUSH1 0xB0 SHL SUB NOT AND PUSH1 0x1 OR SWAP1 SSTORE DUP3 MLOAD SWAP2 DUP3 MSTORE DUP7 DUP3 ADD MSTORE LOG2 PUSH1 0x40 MLOAD SWAP1 DUP2 MSTORE RETURN JUMPDEST ADD MLOAD SWAP1 POP DUP13 DUP1 PUSH2 0x464 JUMP JUMPDEST SWAP1 PUSH1 0x1F NOT DUP4 AND SWAP2 DUP5 PUSH0 MSTORE DUP2 PUSH0 KECCAK256 SWAP3 PUSH0 JUMPDEST DUP2 DUP2 LT PUSH2 0x535 JUMPI POP SWAP4 PUSH32 0xBD3F84A55FDC44F970ADC6CCBAA93E78D7DA5F3FC37C4B7DA578D47C9AD2E46A SWAP9 SWAP7 SWAP4 PUSH1 0x40 SWAP9 SWAP7 SWAP4 PUSH1 0x1 SWAP4 DUP4 PUSH1 0x9 SWAP9 LT PUSH2 0x51D JUMPI JUMPDEST POP POP POP DUP2 SHL ADD SWAP1 SSTORE PUSH2 0x478 JUMP JUMPDEST ADD MLOAD PUSH0 NOT PUSH1 0xF8 DUP5 PUSH1 0x3 SHL AND SHR NOT AND SWAP1 SSTORE DUP13 DUP1 DUP1 PUSH2 0x510 JUMP JUMPDEST DUP3 DUP5 ADD MLOAD DUP6 SSTORE DUP12 SWAP11 POP PUSH1 0x1 SWAP1 SWAP5 ADD SWAP4 SWAP3 DUP13 ADD SWAP3 DUP13 ADD PUSH2 0x4D1 JUMP JUMPDEST DUP4 PUSH0 MSTORE PUSH1 0x20 PUSH0 KECCAK256 PUSH1 0x1F DUP5 ADD PUSH1 0x5 SHR DUP2 ADD SWAP2 PUSH1 0x20 DUP6 LT PUSH2 0x58A JUMPI JUMPDEST PUSH1 0x1F ADD PUSH1 0x5 SHR ADD SWAP1 JUMPDEST DUP2 DUP2 LT PUSH2 0x57F JUMPI POP PUSH2 0x419 JUMP JUMPDEST PUSH0 DUP2 SSTORE PUSH1 0x1 ADD PUSH2 0x572 JUMP JUMPDEST SWAP1 SWAP2 POP DUP2 SWAP1 PUSH2 0x569 JUMP JUMPDEST PUSH4 0x4E487B71 PUSH1 0xE0 SHL PUSH0 MSTORE PUSH1 0x41 PUSH1 0x4 MSTORE PUSH1 0x24 PUSH0 REVERT JUMPDEST ADD MLOAD SWAP1 POP DUP10 DUP1 PUSH2 0x3CF JUMP JUMPDEST PUSH0 DUP6 DUP2 MSTORE DUP3 DUP2 KECCAK256 SWAP4 POP PUSH1 0x1F NOT DUP6 AND SWAP1 JUMPDEST DUP2 DUP2 LT PUSH2 0x5FE JUMPI POP SWAP1 DUP5 PUSH1 0x1 SWAP6 SWAP5 SWAP4 SWAP3 LT PUSH2 0x5E6 JUMPI JUMPDEST POP POP POP DUP2 SHL ADD SWAP1 SSTORE PUSH2 0x3E3 JUMP JUMPDEST ADD MLOAD PUSH0 NOT PUSH1 0xF8 DUP5 PUSH1 0x3 SHL AND SHR NOT AND SWAP1 SSTORE DUP10 DUP1 DUP1 PUSH2 0x5D9 JUMP JUMPDEST SWAP3 SWAP4 PUSH1 0x20 PUSH1 0x1 DUP2 SWAP3 DUP8 DUP7 ADD MLOAD DUP2 SSTORE ADD SWAP6 ADD SWAP4 ADD PUSH2 0x5C3 JUMP JUMPDEST SWAP1 SWAP2 POP DUP4 PUSH0 MSTORE PUSH1 0x20 PUSH0 KECCAK256 PUSH1 0x1F DUP5 ADD PUSH1 0x5 SHR DUP2 ADD SWAP2 PUSH1 0x20 DUP6 LT PUSH2 0x65C JUMPI JUMPDEST SWAP1 PUSH1 0x1F DUP6 SWAP5 SWAP4 SWAP3 ADD PUSH1 0x5 SHR ADD SWAP1 JUMPDEST DUP2 DUP2 LT PUSH2 0x64E JUMPI POP PUSH2 0x3B9 JUMP JUMPDEST PUSH0 DUP2 SSTORE DUP5 SWAP4 POP PUSH1 0x1 ADD PUSH2 0x641 JUMP JUMPDEST SWAP1 SWAP2 POP DUP2 SWAP1 PUSH2 0x633 JUMP JUMPDEST PUSH1 0x64 PUSH1 0x40 MLOAD PUSH3 0x461BCD PUSH1 0xE5 SHL DUP2 MSTORE PUSH1 0x20 PUSH1 0x4 DUP3 ADD MSTORE PUSH1 0x20 PUSH1 0x24 DUP3 ADD MSTORE PUSH32 0x4D6964646C6520776F726420686173682063616E6E6F7420626520656D707479 PUSH1 0x44 DUP3 ADD MSTORE REVERT JUMPDEST PUSH1 0x64 PUSH1 0x40 MLOAD PUSH3 0x461BCD PUSH1 0xE5 SHL DUP2 MSTORE PUSH1 0x20 PUSH1 0x4 DUP3 ADD MSTORE PUSH1 0x20 PUSH1 0x24 DUP3 ADD MSTORE PUSH32 0x456E74727920666565206D7573742062652067726561746572207468616E2030 PUSH1 0x44 DUP3 ADD MSTORE REVERT JUMPDEST POP PUSH1 0x1 SLOAD PUSH1 0x1 PUSH1 0x1 PUSH1 0xA0 SHL SUB AND CALLER EQ PUSH2 0x33E JUMP JUMPDEST CALLVALUE PUSH2 0x243 JUMPI PUSH0 CALLDATASIZE PUSH1 0x3 NOT ADD SLT PUSH2 0x243 JUMPI PUSH1 0x20 PUSH1 0x4 SLOAD PUSH1 0x40 MLOAD SWAP1 DUP2 MSTORE RETURN JUMPDEST CALLVALUE PUSH2 0x243 JUMPI PUSH0 CALLDATASIZE PUSH1 0x3 NOT ADD SLT PUSH2 0x243 JUMPI PUSH2 0x737 PUSH2 0x2293 JUMP JUMPDEST PUSH2 0x73F PUSH2 0x22BA JUMP JUMPDEST SELFBALANCE DUP1 ISZERO PUSH2 0x772 JUMPI PUSH1 0x1 SLOAD PUSH0 SWAP2 DUP3 SWAP2 DUP3 SWAP2 DUP3 SWAP2 PUSH1 0x1 PUSH1 0x1 PUSH1 0xA0 SHL SUB AND DUP3 CALL ISZERO PUSH2 0x767 JUMPI PUSH1 0x1 PUSH0 SSTORE STOP JUMPDEST PUSH1 0x40 MLOAD RETURNDATASIZE PUSH0 DUP3 RETURNDATACOPY RETURNDATASIZE SWAP1 REVERT JUMPDEST PUSH1 0x40 MLOAD PUSH3 0x461BCD PUSH1 0xE5 SHL DUP2 MSTORE PUSH1 0x20 PUSH1 0x4 DUP3 ADD MSTORE PUSH1 0x14 PUSH1 0x24 DUP3 ADD MSTORE PUSH20 0x4E6F2066756E647320746F207769746864726177 PUSH1 0x60 SHL PUSH1 0x44 DUP3 ADD MSTORE PUSH1 0x64 SWAP1 REVERT JUMPDEST PUSH1 0x40 CALLDATASIZE PUSH1 0x3 NOT ADD SLT PUSH2 0x243 JUMPI PUSH1 0x4 CALLDATALOAD PUSH1 0x24 CALLDATALOAD PUSH8 0xFFFFFFFFFFFFFFFF DUP2 GT PUSH2 0x243 JUMPI PUSH2 0x7DD SWAP1 CALLDATASIZE SWAP1 PUSH1 0x4 ADD PUSH2 0x20A7 JUMP JUMPDEST SWAP1 DUP1 ISZERO ISZERO DUP1 PUSH2 0xD03 JUMPI JUMPDEST PUSH2 0x7F0 SWAP1 PUSH2 0x20FD JUMP JUMPDEST DUP1 PUSH0 MSTORE PUSH1 0x7 PUSH1 0x20 MSTORE PUSH2 0x80B PUSH1 0xFF PUSH1 0x9 PUSH1 0x40 PUSH0 KECCAK256 ADD SLOAD AND PUSH2 0x218E JUMP JUMPDEST PUSH2 0x813 PUSH2 0x22BA JUMP JUMPDEST DUP1 PUSH0 MSTORE PUSH1 0x7 PUSH1 0x20 MSTORE PUSH1 0x40 PUSH0 KECCAK256 PUSH1 0x5 DUP2 ADD SLOAD CALLVALUE SUB PUSH2 0xCC8 JUMPI CALLER PUSH0 SWAP1 DUP2 MSTORE PUSH1 0x8 PUSH1 0x20 SWAP1 DUP2 MSTORE PUSH1 0x40 DUP1 DUP4 KECCAK256 PUSH1 0xA DUP6 ADD SWAP3 DUP4 SWAP1 MSTORE SWAP3 KECCAK256 SLOAD PUSH1 0xFF AND ISZERO PUSH2 0xBFC JUMPI JUMPDEST POP PUSH1 0x1 SWAP1 PUSH1 0x6 DUP4 ADD PUSH2 0x862 CALLVALUE DUP3 SLOAD PUSH2 0x21CF JUMP JUMPDEST SWAP1 SSTORE ADD PUSH2 0x86F DUP2 SLOAD PUSH2 0x2254 JUMP JUMPDEST SWAP1 SSTORE CALLER PUSH0 SWAP1 DUP2 MSTORE PUSH1 0xB DUP3 ADD PUSH1 0x20 MSTORE PUSH1 0x40 SWAP1 KECCAK256 DUP4 MLOAD PUSH8 0xFFFFFFFFFFFFFFFF DUP2 GT PUSH2 0x594 JUMPI PUSH2 0x89C DUP3 SLOAD PUSH2 0x1F89 JUMP JUMPDEST PUSH1 0x1F DUP2 GT PUSH2 0xBB7 JUMPI JUMPDEST POP DUP1 PUSH1 0x20 PUSH1 0x1F DUP3 GT PUSH1 0x1 EQ PUSH2 0xB56 JUMPI PUSH0 SWAP2 PUSH2 0xB4B JUMPI JUMPDEST POP DUP2 PUSH1 0x1 SHL SWAP2 PUSH0 NOT SWAP1 PUSH1 0x3 SHL SHR NOT AND OR SWAP1 SSTORE JUMPDEST PUSH1 0x2 DUP4 MLOAD PUSH1 0x20 DUP6 ADD KECCAK256 SWAP2 ADD SLOAD EQ PUSH0 EQ PUSH2 0xB37 JUMPI PUSH0 DUP2 DUP2 MSTORE PUSH1 0x7 PUSH1 0x20 MSTORE PUSH1 0x40 SWAP1 KECCAK256 PUSH1 0x9 DUP2 ADD DUP1 SLOAD PUSH1 0x1 PUSH1 0x1 PUSH1 0xB0 SHL SUB NOT AND CALLER PUSH1 0x10 SHL PUSH3 0x10000 PUSH1 0x1 PUSH1 0xB0 SHL SUB AND OR PUSH2 0x100 OR SWAP1 SSTORE PUSH1 0x6 DUP2 ADD SLOAD PUSH1 0x5 DUP3 ADD SLOAD PUSH2 0x978 SWAP3 SWAP2 SWAP1 DUP1 DUP3 GT ISZERO PUSH2 0xB29 JUMPI PUSH2 0x93B PUSH1 0x7 SWAP2 PUSH2 0x946 SWAP4 PUSH2 0x213F JUMP JUMPDEST SWAP3 JUMPDEST ADD SLOAD SWAP2 DUP3 PUSH2 0x21CF JUMP JUMPDEST SWAP1 PUSH1 0x64 PUSH2 0x955 PUSH1 0x3 SLOAD DUP5 PUSH2 0x2262 JUMP JUMPDEST DIV SWAP3 DUP4 SWAP3 PUSH2 0x973 PUSH1 0x64 PUSH2 0x96A PUSH1 0x4 SLOAD DUP5 PUSH2 0x2262 JUMP JUMPDEST DIV SWAP6 DUP7 SWAP3 PUSH2 0x213F JUMP JUMPDEST PUSH2 0x213F JUMP JUMPDEST SWAP3 PUSH1 0x5 SLOAD DUP3 DUP2 LT PUSH2 0xAEC JUMPI PUSH2 0x995 SWAP3 PUSH2 0x990 SWAP2 PUSH2 0x213F JUMP JUMPDEST PUSH2 0x21CF JUMP JUMPDEST PUSH1 0x5 SSTORE CALLER PUSH0 MSTORE PUSH1 0x8 PUSH1 0x20 MSTORE PUSH1 0x40 PUSH0 KECCAK256 PUSH1 0x2 DUP2 ADD PUSH2 0x9B2 DUP2 SLOAD PUSH2 0x2254 JUMP JUMPDEST DUP1 SWAP2 SSTORE PUSH1 0x3 DUP3 ADD PUSH2 0x9C4 DUP6 DUP3 SLOAD PUSH2 0x21CF JUMP JUMPDEST SWAP1 SSTORE DUP2 SLOAD SWAP1 DUP2 PUSH2 0xAAC JUMPI JUMPDEST POP POP POP DUP2 DUP1 ISZERO DUP1 ISZERO PUSH2 0xA87 JUMPI JUMPDEST POP POP DUP1 ISZERO DUP1 ISZERO PUSH2 0xA58 JUMPI JUMPDEST POP POP PUSH1 0x40 MLOAD SWAP1 DUP2 MSTORE DUP2 PUSH32 0x9E59E9B0EC1755CCAF2FD4A7ED4AD5B0A678626E91834AEE53EBDF1356BD390A PUSH1 0x20 CALLER SWAP4 LOG3 JUMPDEST PUSH32 0x17A40E01BF0138D07F888B59D3DF945EE0F73445EBBDE5213180AD0CB1B8B383 PUSH1 0x40 MLOAD PUSH1 0x20 DUP2 MSTORE DUP1 PUSH2 0xA4F CALLER SWAP6 PUSH1 0x20 DUP4 ADD SWAP1 PUSH2 0x2083 JUMP JUMPDEST SUB SWAP1 LOG3 PUSH1 0x1 PUSH0 SSTORE STOP JUMPDEST PUSH0 DUP1 DUP1 SWAP4 DUP2 SWAP4 PUSH1 0x1 DUP1 PUSH1 0xA0 SHL SUB PUSH1 0x1 SLOAD AND SWAP1 DUP4 SWAP1 PUSH2 0xA7E JUMPI JUMPDEST CALL ISZERO PUSH2 0x767 JUMPI DUP4 DUP1 PUSH2 0x9E7 JUMP JUMPDEST POP PUSH2 0x8FC PUSH2 0xA71 JUMP JUMPDEST PUSH0 SWAP1 PUSH2 0xAA3 JUMPI JUMPDEST PUSH0 DUP1 DUP1 SWAP4 DUP2 SWAP4 CALLER SWAP1 CALL ISZERO PUSH2 0x767 JUMPI DUP2 DUP6 PUSH2 0x9DC JUMP JUMPDEST POP PUSH2 0x8FC PUSH2 0xA8E JUMP JUMPDEST PUSH2 0x2710 DUP2 MUL SWAP1 DUP1 DUP3 DIV PUSH2 0x2710 EQ SWAP1 ISZERO OR ISZERO PUSH2 0xAD8 JUMPI PUSH1 0x4 SWAP2 PUSH2 0xACD SWAP2 PUSH2 0x2275 JUMP JUMPDEST SWAP2 ADD SSTORE DUP5 DUP1 DUP1 PUSH2 0x9CF JUMP JUMPDEST PUSH4 0x4E487B71 PUSH1 0xE0 SHL PUSH0 MSTORE PUSH1 0x11 PUSH1 0x4 MSTORE PUSH1 0x24 PUSH0 REVERT JUMPDEST PUSH1 0x40 MLOAD PUSH3 0x461BCD PUSH1 0xE5 SHL DUP2 MSTORE PUSH1 0x20 PUSH1 0x4 DUP3 ADD MSTORE PUSH1 0x15 PUSH1 0x24 DUP3 ADD MSTORE PUSH21 0x496E73756666696369656E74207472656173757279 PUSH1 0x58 SHL PUSH1 0x44 DUP3 ADD MSTORE PUSH1 0x64 SWAP1 REVERT JUMPDEST POP POP PUSH2 0x946 PUSH1 0x7 PUSH0 SWAP3 PUSH2 0x93D JUMP JUMPDEST PUSH2 0xB43 CALLVALUE PUSH1 0x5 SLOAD PUSH2 0x21CF JUMP JUMPDEST PUSH1 0x5 SSTORE PUSH2 0xA17 JUMP JUMPDEST SWAP1 POP DUP6 ADD MLOAD DUP7 PUSH2 0x8BB JUMP JUMPDEST PUSH0 DUP5 DUP2 MSTORE DUP2 DUP2 KECCAK256 SWAP3 POP PUSH1 0x1F NOT DUP5 AND SWAP1 JUMPDEST DUP2 DUP2 LT PUSH2 0xB9F JUMPI POP SWAP1 DUP4 PUSH1 0x1 SWAP5 SWAP4 SWAP3 LT PUSH2 0xB87 JUMPI JUMPDEST POP POP DUP2 SHL ADD SWAP1 SSTORE PUSH2 0x8CE JUMP JUMPDEST DUP8 ADD MLOAD PUSH0 NOT PUSH1 0xF8 DUP5 PUSH1 0x3 SHL AND SHR NOT AND SWAP1 SSTORE DUP7 DUP1 PUSH2 0xB7B JUMP JUMPDEST SWAP2 SWAP3 PUSH1 0x20 PUSH1 0x1 DUP2 SWAP3 DUP7 DUP13 ADD MLOAD DUP2 SSTORE ADD SWAP5 ADD SWAP3 ADD PUSH2 0xB66 JUMP JUMPDEST DUP3 PUSH0 MSTORE PUSH1 0x20 PUSH0 KECCAK256 PUSH1 0x1F DUP4 ADD PUSH1 0x5 SHR DUP2 ADD SWAP2 PUSH1 0x20 DUP5 LT PUSH2 0xBF2 JUMPI JUMPDEST PUSH1 0x1F ADD PUSH1 0x5 SHR ADD SWAP1 JUMPDEST DUP2 DUP2 LT PUSH2 0xBE7 JUMPI POP PUSH2 0x8A5 JUMP JUMPDEST PUSH0 DUP2 SSTORE PUSH1 0x1 ADD PUSH2 0xBDA JUMP JUMPDEST SWAP1 SWAP2 POP DUP2 SWAP1 PUSH2 0xBD1 JUMP JUMPDEST CALLER PUSH0 SWAP1 DUP2 MSTORE PUSH1 0x20 SWAP2 DUP3 MSTORE PUSH1 0x40 DUP1 DUP3 KECCAK256 DUP1 SLOAD PUSH1 0xFF NOT AND PUSH1 0x1 OR SWAP1 SSTORE PUSH1 0x9 SWAP1 SWAP3 MSTORE KECCAK256 DUP1 SLOAD PUSH1 0x1 PUSH1 0x40 SHL DUP2 LT ISZERO PUSH2 0x594 JUMPI PUSH2 0xC39 SWAP2 PUSH1 0x1 DUP3 ADD DUP2 SSTORE PUSH2 0x1F74 JUMP JUMPDEST DUP2 SLOAD SWAP1 PUSH1 0x3 SHL SWAP1 DUP6 DUP3 SHL SWAP2 PUSH0 NOT SWAP1 SHL NOT AND OR SWAP1 SSTORE PUSH2 0xC57 DUP2 SLOAD PUSH2 0x2254 JUMP JUMPDEST SWAP1 DUP2 DUP2 SSTORE DUP2 PUSH2 0xC98 JUMPI JUMPDEST PUSH1 0x1 SWAP2 POP PUSH1 0x40 MLOAD CALLVALUE DUP2 MSTORE DUP5 PUSH32 0x3DFBE1FCB4E2D61F3B4A0C93D8F814C92250618B3387F396CC9FC9FAFE2C203 PUSH1 0x20 CALLER SWAP4 LOG3 SWAP1 PUSH2 0x84F JUMP JUMPDEST PUSH1 0x2 DUP2 ADD SLOAD PUSH2 0x2710 DUP2 MUL SWAP1 DUP1 DUP3 DIV PUSH2 0x2710 EQ SWAP1 ISZERO OR ISZERO PUSH2 0xAD8 JUMPI PUSH1 0x1 SWAP3 PUSH2 0xCBE SWAP2 PUSH2 0x2275 JUMP JUMPDEST PUSH1 0x4 DUP3 ADD SSTORE PUSH2 0xC61 JUMP JUMPDEST PUSH1 0x40 MLOAD PUSH3 0x461BCD PUSH1 0xE5 SHL DUP2 MSTORE PUSH1 0x20 PUSH1 0x4 DUP3 ADD MSTORE PUSH1 0x13 PUSH1 0x24 DUP3 ADD MSTORE PUSH19 0x496E636F727265637420656E74727920666565 PUSH1 0x68 SHL PUSH1 0x44 DUP3 ADD MSTORE PUSH1 0x64 SWAP1 REVERT JUMPDEST POP PUSH1 0x2 SLOAD DUP2 LT PUSH2 0x7E7 JUMP JUMPDEST CALLVALUE PUSH2 0x243 JUMPI PUSH0 CALLDATASIZE PUSH1 0x3 NOT ADD SLT PUSH2 0x243 JUMPI PUSH1 0x40 MLOAD DUP1 PUSH1 0x20 PUSH1 0xB SLOAD SWAP3 DUP4 DUP2 MSTORE ADD DUP1 SWAP3 PUSH1 0xB PUSH0 MSTORE PUSH32 0x175B7A638427703F0DBE7BB9BBF987A2551717B34E79F33B5B1008D1FA01DB9 SWAP1 PUSH0 JUMPDEST DUP2 DUP2 LT PUSH2 0xDB7 JUMPI POP POP POP DUP2 PUSH2 0xD6C SWAP2 SUB DUP3 PUSH2 0x1FC1 JUMP JUMPDEST PUSH1 0x40 MLOAD SWAP2 DUP3 SWAP2 PUSH1 0x20 DUP4 ADD SWAP1 PUSH1 0x20 DUP5 MSTORE MLOAD DUP1 SWAP2 MSTORE PUSH1 0x40 DUP4 ADD SWAP2 SWAP1 PUSH0 JUMPDEST DUP2 DUP2 LT PUSH2 0xD95 JUMPI POP POP POP SUB SWAP1 RETURN JUMPDEST DUP3 MLOAD PUSH1 0x1 PUSH1 0x1 PUSH1 0xA0 SHL SUB AND DUP5 MSTORE DUP6 SWAP5 POP PUSH1 0x20 SWAP4 DUP5 ADD SWAP4 SWAP1 SWAP3 ADD SWAP2 PUSH1 0x1 ADD PUSH2 0xD87 JUMP JUMPDEST DUP3 SLOAD PUSH1 0x1 PUSH1 0x1 PUSH1 0xA0 SHL SUB AND DUP5 MSTORE PUSH1 0x20 SWAP1 SWAP4 ADD SWAP3 PUSH1 0x1 SWAP3 DUP4 ADD SWAP3 ADD PUSH2 0xD56 JUMP JUMPDEST CALLVALUE PUSH2 0x243 JUMPI PUSH1 0x20 CALLDATASIZE PUSH1 0x3 NOT ADD SLT PUSH2 0x243 JUMPI PUSH1 0x1 PUSH1 0x1 PUSH1 0xA0 SHL SUB PUSH2 0xDF7 PUSH2 0x1F1C JUMP JUMPDEST AND PUSH0 MSTORE PUSH1 0x8 PUSH1 0x20 MSTORE PUSH1 0x40 PUSH0 KECCAK256 DUP1 SLOAD PUSH2 0x234 PUSH1 0x1 DUP4 ADD SLOAD SWAP3 PUSH1 0x2 DUP2 ADD SLOAD SWAP1 PUSH1 0x4 PUSH1 0x3 DUP3 ADD SLOAD SWAP2 ADD SLOAD SWAP2 PUSH1 0x40 MLOAD SWAP6 DUP7 SWAP6 DUP7 SWAP2 SWAP3 PUSH1 0x80 SWAP4 SWAP7 SWAP6 SWAP5 SWAP2 SWAP7 PUSH1 0xA0 DUP5 ADD SWAP8 DUP5 MSTORE PUSH1 0x20 DUP5 ADD MSTORE PUSH1 0x40 DUP4 ADD MSTORE PUSH1 0x60 DUP3 ADD MSTORE ADD MSTORE JUMP JUMPDEST PUSH0 CALLDATASIZE PUSH1 0x3 NOT ADD SLT PUSH2 0x243 JUMPI CALLER PUSH0 MSTORE PUSH1 0xA PUSH1 0x20 MSTORE PUSH1 0xFF PUSH1 0x40 PUSH0 KECCAK256 SLOAD AND DUP1 ISZERO PUSH2 0xEEF JUMPI JUMPDEST PUSH2 0xE75 SWAP1 PUSH2 0x214C JUMP JUMPDEST CALLVALUE ISZERO PUSH2 0xEB8 JUMPI PUSH2 0xE87 CALLVALUE PUSH1 0x5 SLOAD PUSH2 0x21CF JUMP JUMPDEST PUSH1 0x5 SSTORE PUSH1 0x40 MLOAD CALLVALUE DUP2 MSTORE PUSH32 0xDA1785FE1DEC267C363B06AE3E02C3E086123F9D611399F7A1CC98492518372E PUSH1 0x20 CALLER SWAP3 LOG2 STOP JUMPDEST PUSH1 0x40 MLOAD PUSH3 0x461BCD PUSH1 0xE5 SHL DUP2 MSTORE PUSH1 0x20 PUSH1 0x4 DUP3 ADD MSTORE PUSH1 0xF PUSH1 0x24 DUP3 ADD MSTORE PUSH15 0x4D7573742073656E642066756E6473 PUSH1 0x88 SHL PUSH1 0x44 DUP3 ADD MSTORE PUSH1 0x64 SWAP1 REVERT JUMPDEST POP PUSH1 0x1 SLOAD PUSH1 0x1 PUSH1 0x1 PUSH1 0xA0 SHL SUB AND CALLER EQ PUSH2 0xE6C JUMP JUMPDEST CALLVALUE PUSH2 0x243 JUMPI PUSH0 CALLDATASIZE PUSH1 0x3 NOT ADD SLT PUSH2 0x243 JUMPI PUSH1 0x20 PUSH1 0x2 SLOAD PUSH1 0x40 MLOAD SWAP1 DUP2 MSTORE RETURN JUMPDEST CALLVALUE PUSH2 0x243 JUMPI PUSH0 CALLDATASIZE PUSH1 0x3 NOT ADD SLT PUSH2 0x243 JUMPI PUSH1 0x20 PUSH1 0x5 SLOAD PUSH1 0x40 MLOAD SWAP1 DUP2 MSTORE RETURN JUMPDEST CALLVALUE PUSH2 0x243 JUMPI PUSH1 0x40 CALLDATASIZE PUSH1 0x3 NOT ADD SLT PUSH2 0x243 JUMPI PUSH1 0x4 CALLDATALOAD PUSH2 0xF59 PUSH2 0x1F32 JUMP JUMPDEST SWAP1 DUP1 ISZERO ISZERO DUP1 PUSH2 0xFA1 JUMPI JUMPDEST PUSH2 0xF6C SWAP1 PUSH2 0x20FD JUMP JUMPDEST PUSH0 MSTORE PUSH1 0x7 PUSH1 0x20 MSTORE PUSH1 0xB PUSH1 0x40 PUSH0 KECCAK256 ADD SWAP1 PUSH1 0x1 DUP1 PUSH1 0xA0 SHL SUB AND PUSH0 MSTORE PUSH1 0x20 MSTORE PUSH1 0x20 PUSH2 0xF97 PUSH1 0x40 PUSH0 KECCAK256 SLOAD PUSH2 0x1F89 JUMP JUMPDEST ISZERO ISZERO PUSH1 0x40 MLOAD SWAP1 DUP2 MSTORE RETURN JUMPDEST POP PUSH1 0x2 SLOAD DUP2 LT PUSH2 0xF63 JUMP JUMPDEST CALLVALUE PUSH2 0x243 JUMPI PUSH0 CALLDATASIZE PUSH1 0x3 NOT ADD SLT PUSH2 0x243 JUMPI PUSH1 0x1 SLOAD PUSH1 0x40 MLOAD PUSH1 0x1 PUSH1 0x1 PUSH1 0xA0 SHL SUB SWAP1 SWAP2 AND DUP2 MSTORE PUSH1 0x20 SWAP1 RETURN JUMPDEST CALLVALUE PUSH2 0x243 JUMPI PUSH0 CALLDATASIZE PUSH1 0x3 NOT ADD SLT PUSH2 0x243 JUMPI PUSH1 0x20 PUSH1 0x3 SLOAD PUSH1 0x40 MLOAD SWAP1 DUP2 MSTORE RETURN JUMPDEST CALLVALUE PUSH2 0x243 JUMPI PUSH0 CALLDATASIZE PUSH1 0x3 NOT ADD SLT PUSH2 0x243 JUMPI PUSH1 0x20 PUSH1 0xB SLOAD PUSH1 0x40 MLOAD SWAP1 DUP2 MSTORE RETURN JUMPDEST CALLVALUE PUSH2 0x243 JUMPI PUSH0 CALLDATASIZE PUSH1 0x3 NOT ADD SLT PUSH2 0x243 JUMPI CALLER PUSH0 MSTORE PUSH1 0xA PUSH1 0x20 MSTORE PUSH1 0xFF PUSH1 0x40 PUSH0 KECCAK256 SLOAD AND DUP1 ISZERO PUSH2 0x1190 JUMPI JUMPDEST PUSH2 0x103E SWAP1 PUSH2 0x214C JUMP JUMPDEST PUSH2 0x1046 PUSH2 0x22BA JUMP JUMPDEST PUSH1 0x1 PUSH0 DUP1 JUMPDEST PUSH1 0x2 SLOAD DUP4 LT ISZERO PUSH2 0x113F JUMPI DUP3 PUSH0 MSTORE PUSH1 0x7 PUSH1 0x20 MSTORE PUSH1 0x40 PUSH0 KECCAK256 SWAP3 PUSH1 0x9 DUP5 ADD DUP1 SLOAD SWAP5 PUSH1 0xFF DUP7 AND DUP1 PUSH2 0x1131 JUMPI JUMPDEST PUSH2 0x1084 JUMPI JUMPDEST POP POP PUSH1 0x1 ADD SWAP3 POP PUSH2 0x104B JUMP JUMPDEST PUSH1 0x6 ADD DUP1 SLOAD PUSH2 0xFFFF NOT SWAP1 SWAP7 AND PUSH2 0x100 OR SWAP1 SWAP2 SSTORE PUSH0 SWAP1 SSTORE DUP4 DUP1 PUSH2 0x10E3 JUMPI JUMPDEST POP DUP1 PUSH32 0xA72860103F540F00E7D5C44FF9EA4CDB6CF0361B63E542D7A657C4C1154100DE PUSH1 0x20 PUSH2 0x10D2 PUSH1 0x1 SWAP6 SWAP7 PUSH2 0x2254 JUMP JUMPDEST SWAP7 PUSH1 0x40 MLOAD SWAP1 DUP2 MSTORE LOG2 DUP4 SWAP3 SWAP2 DUP6 PUSH2 0x1078 JUMP JUMPDEST PUSH32 0xA72860103F540F00E7D5C44FF9EA4CDB6CF0361B63E542D7A657C4C1154100DE PUSH1 0x20 PUSH2 0x10D2 PUSH2 0x1125 DUP5 PUSH1 0x1 SWAP8 PUSH2 0x111D DUP9 SWAP8 PUSH1 0x5 SLOAD PUSH2 0x21CF JUMP JUMPDEST PUSH1 0x5 SSTORE PUSH2 0x21CF JUMP JUMPDEST SWAP6 POP POP POP POP POP DUP4 PUSH2 0x10A1 JUMP JUMPDEST POP PUSH1 0xFF DUP7 PUSH1 0x8 SHR AND ISZERO PUSH2 0x1073 JUMP JUMPDEST POP ISZERO PUSH2 0x114B JUMPI PUSH1 0x1 PUSH0 SSTORE STOP JUMPDEST PUSH1 0x40 MLOAD PUSH3 0x461BCD PUSH1 0xE5 SHL DUP2 MSTORE PUSH1 0x20 PUSH1 0x4 DUP3 ADD MSTORE PUSH1 0x18 PUSH1 0x24 DUP3 ADD MSTORE PUSH32 0x4E6F206163746976652067616D657320746F20636C6F73650000000000000000 PUSH1 0x44 DUP3 ADD MSTORE PUSH1 0x64 SWAP1 REVERT JUMPDEST POP PUSH1 0x1 SLOAD PUSH1 0x1 PUSH1 0x1 PUSH1 0xA0 SHL SUB AND CALLER EQ PUSH2 0x1035 JUMP JUMPDEST CALLVALUE PUSH2 0x243 JUMPI PUSH0 CALLDATASIZE PUSH1 0x3 NOT ADD SLT PUSH2 0x243 JUMPI PUSH1 0x20 PUSH1 0x6 SLOAD PUSH1 0x40 MLOAD SWAP1 DUP2 MSTORE RETURN JUMPDEST CALLVALUE PUSH2 0x243 JUMPI PUSH0 CALLDATASIZE PUSH1 0x3 NOT ADD SLT PUSH2 0x243 JUMPI PUSH0 PUSH1 0x1 PUSH1 0x2 SLOAD SWAP1 JUMPDEST DUP2 DUP2 LT PUSH2 0x11EB JUMPI PUSH1 0x20 DUP4 PUSH1 0x40 MLOAD SWAP1 DUP2 MSTORE RETURN JUMPDEST DUP1 PUSH0 MSTORE PUSH1 0x7 PUSH1 0x20 MSTORE PUSH1 0xFF PUSH1 0x9 PUSH1 0x40 PUSH0 KECCAK256 ADD SLOAD AND DUP1 PUSH2 0x1225 JUMPI JUMPDEST PUSH2 0x1211 JUMPI JUMPDEST PUSH1 0x1 ADD PUSH2 0x11D9 JUMP JUMPDEST SWAP2 PUSH2 0x121D PUSH1 0x1 SWAP2 PUSH2 0x2254 JUMP JUMPDEST SWAP3 SWAP1 POP PUSH2 0x1209 JUMP JUMPDEST POP DUP1 PUSH0 MSTORE PUSH1 0x7 PUSH1 0x20 MSTORE PUSH1 0xFF PUSH1 0x9 PUSH1 0x40 PUSH0 KECCAK256 ADD SLOAD PUSH1 0x8 SHR AND ISZERO PUSH2 0x1204 JUMP JUMPDEST CALLVALUE PUSH2 0x243 JUMPI PUSH0 CALLDATASIZE PUSH1 0x3 NOT ADD SLT PUSH2 0x243 JUMPI PUSH2 0x125A PUSH2 0x2293 JUMP JUMPDEST PUSH1 0x1 DUP1 SLOAD PUSH1 0x1 PUSH1 0x1 PUSH1 0xA0 SHL SUB NOT DUP2 AND SWAP1 SWAP2 SSTORE PUSH0 SWAP1 PUSH1 0x1 PUSH1 0x1 PUSH1 0xA0 SHL SUB AND PUSH32 0x8BE0079C531659141344CD1FD0A4F28419497F9722A3DAAFE3B4186F6B6457E0 DUP3 DUP1 LOG3 STOP JUMPDEST CALLVALUE PUSH2 0x243 JUMPI PUSH1 0x20 CALLDATASIZE PUSH1 0x3 NOT ADD SLT PUSH2 0x243 JUMPI PUSH2 0x12B6 PUSH2 0x1F1C JUMP JUMPDEST PUSH2 0x12BE PUSH2 0x2293 JUMP JUMPDEST PUSH1 0x1 PUSH1 0x1 PUSH1 0xA0 SHL SUB DUP2 AND SWAP1 DUP2 ISZERO PUSH2 0x139F JUMPI DUP2 PUSH0 MSTORE PUSH1 0xA PUSH1 0x20 MSTORE PUSH1 0xFF PUSH1 0x40 PUSH0 KECCAK256 SLOAD AND PUSH2 0x1367 JUMPI DUP2 PUSH0 MSTORE PUSH1 0xA PUSH1 0x20 MSTORE PUSH1 0x40 PUSH0 KECCAK256 PUSH1 0x1 PUSH1 0xFF NOT DUP3 SLOAD AND OR SWAP1 SSTORE PUSH1 0xB SLOAD SWAP1 PUSH1 0x1 PUSH1 0x40 SHL DUP3 LT ISZERO PUSH2 0x594 JUMPI PUSH2 0x131D DUP3 PUSH1 0x1 PUSH2 0x1341 SWAP5 ADD PUSH1 0xB SSTORE PUSH2 0x1F48 JUMP JUMPDEST DUP2 SLOAD PUSH1 0x1 PUSH1 0x1 PUSH1 0xA0 SHL SUB SWAP4 DUP5 AND PUSH1 0x3 SWAP3 SWAP1 SWAP3 SHL SWAP2 DUP3 SHL SWAP4 SWAP1 SWAP2 SHL NOT AND SWAP2 SWAP1 SWAP2 OR SWAP1 SSTORE JUMP JUMPDEST PUSH32 0x44D6D25963F097AD14F29F06854A01F575648A1EF82F30E562CCD3889717E339 PUSH0 DUP1 LOG2 STOP JUMPDEST PUSH1 0x40 MLOAD PUSH3 0x461BCD PUSH1 0xE5 SHL DUP2 MSTORE PUSH1 0x20 PUSH1 0x4 DUP3 ADD MSTORE PUSH1 0x10 PUSH1 0x24 DUP3 ADD MSTORE PUSH16 0x20B63932B0B23C9030B71030B236B4B7 PUSH1 0x81 SHL PUSH1 0x44 DUP3 ADD MSTORE PUSH1 0x64 SWAP1 REVERT JUMPDEST PUSH1 0x40 MLOAD PUSH3 0x461BCD PUSH1 0xE5 SHL DUP2 MSTORE PUSH1 0x20 PUSH1 0x4 DUP3 ADD MSTORE PUSH1 0xF PUSH1 0x24 DUP3 ADD MSTORE PUSH15 0x496E76616C69642061646472657373 PUSH1 0x88 SHL PUSH1 0x44 DUP3 ADD MSTORE PUSH1 0x64 SWAP1 REVERT JUMPDEST CALLVALUE PUSH2 0x243 JUMPI PUSH0 CALLDATASIZE PUSH1 0x3 NOT ADD SLT PUSH2 0x243 JUMPI PUSH1 0x20 SELFBALANCE PUSH1 0x40 MLOAD SWAP1 DUP2 MSTORE RETURN JUMPDEST CALLVALUE PUSH2 0x243 JUMPI PUSH0 CALLDATASIZE PUSH1 0x3 NOT ADD SLT PUSH2 0x243 JUMPI PUSH1 0x2 SLOAD PUSH1 0x1 DUP2 GT ISZERO PUSH2 0x1544 JUMPI PUSH0 NOT DUP2 ADD SWAP1 DUP1 DUP3 GT PUSH2 0xAD8 JUMPI PUSH2 0x1422 DUP3 PUSH2 0x2228 JUMP JUMPDEST SWAP2 PUSH2 0x1430 PUSH1 0x40 MLOAD SWAP4 DUP5 PUSH2 0x1FC1 JUMP JUMPDEST DUP1 DUP4 MSTORE PUSH2 0x143F PUSH1 0x1F NOT SWAP2 PUSH2 0x2228 JUMP JUMPDEST ADD CALLDATASIZE PUSH1 0x20 DUP5 ADD CALLDATACOPY PUSH0 SWAP1 PUSH1 0x1 JUMPDEST DUP2 DUP2 LT PUSH2 0x14E1 JUMPI POP POP DUP1 ISZERO PUSH2 0x149C JUMPI PUSH1 0x20 SWAP2 PUSH2 0x1493 SWAP2 PUSH1 0x40 MLOAD DUP5 DUP2 ADD SWAP1 TIMESTAMP DUP3 MSTORE PREVRANDAO PUSH1 0x40 DUP3 ADD MSTORE CALLER PUSH1 0x60 SHL PUSH1 0x60 DUP3 ADD MSTORE PUSH1 0x54 DUP2 MSTORE PUSH2 0x1489 PUSH1 0x74 DUP3 PUSH2 0x1FC1 JUMP JUMPDEST MLOAD SWAP1 KECCAK256 MOD SWAP1 PUSH2 0x2240 JUMP JUMPDEST MLOAD PUSH1 0x40 MLOAD SWAP1 DUP2 MSTORE RETURN JUMPDEST PUSH1 0x40 MLOAD PUSH3 0x461BCD PUSH1 0xE5 SHL DUP2 MSTORE PUSH1 0x20 PUSH1 0x4 DUP3 ADD MSTORE PUSH1 0x19 PUSH1 0x24 DUP3 ADD MSTORE PUSH32 0x4E6F206163746976652067616D657320617661696C61626C6500000000000000 PUSH1 0x44 DUP3 ADD MSTORE PUSH1 0x64 SWAP1 REVERT JUMPDEST DUP1 PUSH0 MSTORE PUSH1 0x7 PUSH1 0x20 MSTORE PUSH1 0xFF PUSH1 0x9 PUSH1 0x40 PUSH0 KECCAK256 ADD SLOAD AND DUP1 PUSH2 0x1527 JUMPI JUMPDEST PUSH2 0x1507 JUMPI JUMPDEST PUSH1 0x1 ADD PUSH2 0x144B JUMP JUMPDEST SWAP2 PUSH2 0x151F DUP2 DUP5 PUSH2 0x1519 PUSH1 0x1 SWAP5 DUP9 PUSH2 0x2240 JUMP JUMPDEST MSTORE PUSH2 0x2254 JUMP JUMPDEST SWAP3 SWAP1 POP PUSH2 0x14FF JUMP JUMPDEST POP DUP1 PUSH0 MSTORE PUSH1 0x7 PUSH1 0x20 MSTORE PUSH1 0xFF PUSH1 0x9 PUSH1 0x40 PUSH0 KECCAK256 ADD SLOAD PUSH1 0x8 SHR AND ISZERO PUSH2 0x14FA JUMP JUMPDEST PUSH1 0x40 MLOAD PUSH3 0x461BCD PUSH1 0xE5 SHL DUP2 MSTORE PUSH1 0x20 PUSH1 0x4 DUP3 ADD MSTORE PUSH1 0xE PUSH1 0x24 DUP3 ADD MSTORE PUSH14 0x139BC819D85B595CC8195E1A5CDD PUSH1 0x92 SHL PUSH1 0x44 DUP3 ADD MSTORE PUSH1 0x64 SWAP1 REVERT JUMPDEST CALLVALUE PUSH2 0x243 JUMPI PUSH1 0x20 CALLDATASIZE PUSH1 0x3 NOT ADD SLT PUSH2 0x243 JUMPI PUSH1 0x4 CALLDATALOAD PUSH2 0x1596 PUSH2 0x2293 JUMP JUMPDEST PUSH2 0x159E PUSH2 0x22BA JUMP JUMPDEST DUP1 ISZERO PUSH2 0x1610 JUMPI PUSH2 0x15B7 DUP2 PUSH1 0x5 SLOAD PUSH2 0x973 DUP3 DUP3 LT ISZERO PUSH2 0x21DC JUMP JUMPDEST PUSH1 0x5 SSTORE PUSH0 DUP1 DUP1 DUP1 DUP5 PUSH1 0x1 DUP1 PUSH1 0xA0 SHL SUB PUSH1 0x1 SLOAD AND DUP3 CALL ISZERO PUSH2 0x767 JUMPI PUSH1 0x1 SLOAD PUSH1 0x40 MLOAD SWAP2 DUP3 MSTORE PUSH1 0x1 PUSH1 0x1 PUSH1 0xA0 SHL SUB AND SWAP1 PUSH32 0x41FDD680478135993BC53FB2FFAF9560951B57EF62FF6BADD02B61E018B4F17F SWAP1 PUSH1 0x20 SWAP1 LOG2 PUSH1 0x1 PUSH0 SSTORE STOP JUMPDEST PUSH1 0x40 MLOAD PUSH3 0x461BCD PUSH1 0xE5 SHL DUP2 MSTORE PUSH1 0x20 PUSH1 0x4 DUP3 ADD MSTORE PUSH1 0x1D PUSH1 0x24 DUP3 ADD MSTORE PUSH32 0x416D6F756E74206D7573742062652067726561746572207468616E2030000000 PUSH1 0x44 DUP3 ADD MSTORE PUSH1 0x64 SWAP1 REVERT JUMPDEST CALLVALUE PUSH2 0x243 JUMPI PUSH1 0x20 CALLDATASIZE PUSH1 0x3 NOT ADD SLT PUSH2 0x243 JUMPI PUSH1 0x4 CALLDATALOAD DUP1 ISZERO ISZERO DUP1 PUSH2 0x173D JUMPI JUMPDEST PUSH2 0x167B SWAP1 PUSH2 0x20FD JUMP JUMPDEST PUSH0 MSTORE PUSH1 0x7 PUSH1 0x20 MSTORE PUSH1 0x40 PUSH0 KECCAK256 DUP1 SLOAD PUSH1 0x3 DUP3 ADD SLOAD PUSH1 0x5 DUP4 ADD SLOAD SWAP1 PUSH1 0x6 DUP5 ADD SLOAD PUSH1 0x7 DUP6 ADD SLOAD PUSH1 0x8 DUP7 ADD SLOAD SWAP2 PUSH2 0x16F5 PUSH1 0x9 DUP9 ADD SLOAD SWAP5 PUSH2 0x16C4 PUSH1 0x4 PUSH2 0x16BD PUSH1 0x1 DUP13 ADD PUSH2 0x1FE3 JUMP JUMPDEST SWAP11 ADD PUSH2 0x1FE3 JUMP JUMPDEST PUSH2 0x16E2 PUSH1 0x40 MLOAD SWAP11 DUP12 SWAP11 DUP12 MSTORE PUSH2 0x160 PUSH1 0x20 DUP13 ADD MSTORE PUSH2 0x160 DUP12 ADD SWAP1 PUSH2 0x2083 JUMP JUMPDEST SWAP2 PUSH1 0x40 DUP11 ADD MSTORE DUP9 DUP3 SUB PUSH1 0x60 DUP11 ADD MSTORE PUSH2 0x2083 JUMP JUMPDEST PUSH1 0x80 DUP8 ADD SWAP6 SWAP1 SWAP6 MSTORE PUSH1 0xA0 DUP7 ADD MSTORE PUSH1 0xC0 DUP6 ADD MSTORE PUSH1 0xE0 DUP5 ADD MSTORE PUSH1 0xFF DUP2 DUP2 AND ISZERO ISZERO PUSH2 0x100 DUP6 ADD MSTORE PUSH1 0x8 DUP3 SWAP1 SHR AND ISZERO ISZERO PUSH2 0x120 DUP5 ADD MSTORE PUSH1 0x10 SHR PUSH1 0x1 PUSH1 0x1 PUSH1 0xA0 SHL SUB AND PUSH2 0x140 DUP4 ADD MSTORE SUB SWAP1 RETURN JUMPDEST POP PUSH1 0x2 SLOAD DUP2 LT PUSH2 0x1672 JUMP JUMPDEST CALLVALUE PUSH2 0x243 JUMPI PUSH1 0x20 CALLDATASIZE PUSH1 0x3 NOT ADD SLT PUSH2 0x243 JUMPI PUSH1 0x1 PUSH1 0x1 PUSH1 0xA0 SHL SUB PUSH2 0x1769 PUSH2 0x1F1C JUMP JUMPDEST AND PUSH0 MSTORE PUSH1 0xA PUSH1 0x20 MSTORE PUSH1 0x20 PUSH1 0xFF PUSH1 0x40 PUSH0 KECCAK256 SLOAD AND PUSH1 0x40 MLOAD SWAP1 ISZERO ISZERO DUP2 MSTORE RETURN JUMPDEST CALLVALUE PUSH2 0x243 JUMPI PUSH1 0x20 CALLDATASIZE PUSH1 0x3 NOT ADD SLT PUSH2 0x243 JUMPI PUSH1 0x20 PUSH2 0x17A0 PUSH2 0x1F1C JUMP JUMPDEST PUSH1 0x1 SLOAD PUSH1 0x40 MLOAD PUSH1 0x1 PUSH1 0x1 PUSH1 0xA0 SHL SUB SWAP3 DUP4 AND SWAP2 SWAP1 SWAP3 AND EQ DUP2 MSTORE RETURN JUMPDEST CALLVALUE PUSH2 0x243 JUMPI PUSH1 0x20 CALLDATASIZE PUSH1 0x3 NOT ADD SLT PUSH2 0x243 JUMPI PUSH1 0x4 CALLDATALOAD PUSH2 0x17D6 PUSH2 0x2293 JUMP JUMPDEST DUP1 ISZERO PUSH2 0x1815 JUMPI PUSH1 0x40 PUSH32 0x514A13B7C45F1C0E37B6E90A86A9D5760AA7B452D562DFAD87123C398C6C6B95 SWAP2 PUSH1 0x6 SLOAD SWAP1 DUP1 PUSH1 0x6 SSTORE DUP3 MLOAD SWAP2 DUP3 MSTORE PUSH1 0x20 DUP3 ADD MSTORE LOG1 STOP JUMPDEST PUSH1 0x40 MLOAD PUSH3 0x461BCD PUSH1 0xE5 SHL DUP2 MSTORE PUSH1 0x20 PUSH1 0x4 DUP3 ADD MSTORE PUSH1 0x21 PUSH1 0x24 DUP3 ADD MSTORE PUSH32 0x4D756C7469706C696572206D7573742062652067726561746572207468616E20 PUSH1 0x44 DUP3 ADD MSTORE PUSH1 0x3 PUSH1 0xFC SHL PUSH1 0x64 DUP3 ADD MSTORE PUSH1 0x84 SWAP1 REVERT JUMPDEST CALLVALUE PUSH2 0x243 JUMPI PUSH1 0x20 CALLDATASIZE PUSH1 0x3 NOT ADD SLT PUSH2 0x243 JUMPI PUSH1 0x20 PUSH1 0x1 PUSH1 0x1 PUSH1 0xA0 SHL SUB PUSH2 0x1887 PUSH2 0x1F1C JUMP JUMPDEST AND DUP1 PUSH0 MSTORE PUSH1 0xA DUP3 MSTORE PUSH1 0xFF PUSH1 0x40 PUSH0 KECCAK256 SLOAD AND SWAP1 DUP2 ISZERO PUSH2 0x18AA JUMPI JUMPDEST POP PUSH1 0x40 MLOAD SWAP1 ISZERO ISZERO DUP2 MSTORE RETURN JUMPDEST PUSH1 0x1 SLOAD PUSH1 0x1 PUSH1 0x1 PUSH1 0xA0 SHL SUB AND EQ SWAP1 POP DUP3 PUSH2 0x189F JUMP JUMPDEST CALLVALUE PUSH2 0x243 JUMPI PUSH1 0x20 CALLDATASIZE PUSH1 0x3 NOT ADD SLT PUSH2 0x243 JUMPI PUSH1 0x4 CALLDATALOAD PUSH2 0x18DB PUSH2 0x2293 JUMP JUMPDEST PUSH1 0xA DUP2 GT PUSH2 0x191C JUMPI PUSH1 0x40 PUSH32 0xF1A0803DED65CDD91B012C2EABB747329BA3CB02C9850072A5981822AB2BB7B SWAP2 PUSH1 0x4 SLOAD SWAP1 DUP1 PUSH1 0x4 SSTORE DUP3 MLOAD SWAP2 DUP3 MSTORE PUSH1 0x20 DUP3 ADD MSTORE LOG1 STOP JUMPDEST PUSH1 0x40 MLOAD PUSH3 0x461BCD PUSH1 0xE5 SHL DUP2 MSTORE PUSH1 0x20 PUSH1 0x4 DUP3 ADD MSTORE PUSH1 0x21 PUSH1 0x24 DUP3 ADD MSTORE PUSH32 0x5375737461696E61626C65206665652063616E6E6F7420657863656564203130 PUSH1 0x44 DUP3 ADD MSTORE PUSH1 0x25 PUSH1 0xF8 SHL PUSH1 0x64 DUP3 ADD MSTORE PUSH1 0x84 SWAP1 REVERT JUMPDEST CALLVALUE PUSH2 0x243 JUMPI PUSH1 0x20 CALLDATASIZE PUSH1 0x3 NOT ADD SLT PUSH2 0x243 JUMPI PUSH1 0x4 CALLDATALOAD CALLER PUSH0 MSTORE PUSH1 0xA PUSH1 0x20 MSTORE PUSH1 0xFF PUSH1 0x40 PUSH0 KECCAK256 SLOAD AND DUP1 ISZERO PUSH2 0x1A24 JUMPI JUMPDEST PUSH2 0x199F SWAP1 PUSH2 0x214C JUMP JUMPDEST PUSH2 0x19A7 PUSH2 0x22BA JUMP JUMPDEST DUP1 PUSH0 MSTORE PUSH1 0x7 PUSH1 0x20 MSTORE PUSH32 0xA72860103F540F00E7D5C44FF9EA4CDB6CF0361B63E542D7A657C4C1154100DE PUSH1 0x20 PUSH1 0x40 PUSH0 KECCAK256 PUSH0 PUSH1 0x9 DUP3 ADD PUSH1 0x6 DUP2 SLOAD SWAP4 PUSH2 0x19EC PUSH1 0xFF DUP7 AND PUSH2 0x218E JUMP JUMPDEST ADD SWAP1 PUSH2 0x100 DUP3 SLOAD SWAP5 PUSH2 0xFFFF NOT AND OR SWAP1 SSTORE SSTORE DUP1 PUSH2 0x1A10 JUMPI JUMPDEST PUSH1 0x40 MLOAD SWAP1 DUP2 MSTORE LOG2 PUSH1 0x1 PUSH0 SSTORE STOP JUMPDEST PUSH2 0x1A1C DUP2 PUSH1 0x5 SLOAD PUSH2 0x21CF JUMP JUMPDEST PUSH1 0x5 SSTORE PUSH2 0x1A03 JUMP JUMPDEST POP PUSH1 0x1 SLOAD PUSH1 0x1 PUSH1 0x1 PUSH1 0xA0 SHL SUB AND CALLER EQ PUSH2 0x1996 JUMP JUMPDEST CALLVALUE PUSH2 0x243 JUMPI PUSH1 0x20 CALLDATASIZE PUSH1 0x3 NOT ADD SLT PUSH2 0x243 JUMPI PUSH2 0x1A51 PUSH2 0x1F1C JUMP JUMPDEST PUSH2 0x1A59 PUSH2 0x2293 JUMP JUMPDEST PUSH1 0x1 PUSH1 0x1 PUSH1 0xA0 SHL SUB AND PUSH0 DUP2 DUP2 MSTORE PUSH1 0xA PUSH1 0x20 MSTORE PUSH1 0x40 SWAP1 KECCAK256 SLOAD PUSH1 0xFF AND ISZERO PUSH2 0x1BB1 JUMPI PUSH1 0x1 SLOAD PUSH1 0x1 PUSH1 0x1 PUSH1 0xA0 SHL SUB AND DUP2 EQ PUSH2 0x1B76 JUMPI PUSH0 DUP2 DUP2 MSTORE PUSH1 0xA PUSH1 0x20 MSTORE PUSH1 0x40 DUP2 KECCAK256 DUP1 SLOAD PUSH1 0xFF NOT AND SWAP1 SSTORE JUMPDEST PUSH1 0xB SLOAD SWAP1 DUP2 DUP2 LT ISZERO PUSH2 0x1B6F JUMPI DUP3 PUSH2 0x1AB6 DUP3 PUSH2 0x1F48 JUMP JUMPDEST SWAP1 SLOAD PUSH1 0x3 SWAP2 SWAP1 SWAP2 SHL SHR PUSH1 0x1 PUSH1 0x1 PUSH1 0xA0 SHL SUB AND EQ PUSH2 0x1AD7 JUMPI PUSH1 0x1 SWAP2 POP ADD PUSH2 0x1AA0 JUMP JUMPDEST PUSH0 NOT DUP3 ADD SWAP2 DUP3 GT PUSH2 0xAD8 JUMPI PUSH2 0x131D PUSH2 0x1AF1 PUSH2 0x1B09 SWAP4 PUSH2 0x1F48 JUMP JUMPDEST SWAP1 SLOAD PUSH1 0x3 SWAP2 SWAP1 SWAP2 SHL SHR PUSH1 0x1 PUSH1 0x1 PUSH1 0xA0 SHL SUB AND SWAP2 PUSH2 0x1F48 JUMP JUMPDEST PUSH1 0xB SLOAD DUP1 ISZERO PUSH2 0x1B5B JUMPI PUSH0 NOT ADD PUSH2 0x1B1E DUP2 PUSH2 0x1F48 JUMP JUMPDEST DUP2 SLOAD SWAP1 PUSH1 0x1 DUP1 PUSH1 0xA0 SHL SUB SWAP1 PUSH1 0x3 SHL SHL NOT AND SWAP1 SSTORE PUSH1 0xB SSTORE JUMPDEST PUSH32 0xA3B62BC36326052D97EA62D63C3D60308ED4C3EA8AC079DD8499F1E9C4F80C0F PUSH0 DUP1 LOG2 STOP JUMPDEST PUSH4 0x4E487B71 PUSH1 0xE0 SHL PUSH0 MSTORE PUSH1 0x31 PUSH1 0x4 MSTORE PUSH1 0x24 PUSH0 REVERT JUMPDEST POP POP PUSH2 0x1B35 JUMP JUMPDEST PUSH1 0x40 MLOAD PUSH3 0x461BCD PUSH1 0xE5 SHL DUP2 MSTORE PUSH1 0x20 PUSH1 0x4 DUP3 ADD MSTORE PUSH1 0x13 PUSH1 0x24 DUP3 ADD MSTORE PUSH19 0x21B0B73737BA103932B6B7BB329037BBB732B9 PUSH1 0x69 SHL PUSH1 0x44 DUP3 ADD MSTORE PUSH1 0x64 SWAP1 REVERT JUMPDEST PUSH1 0x40 MLOAD PUSH3 0x461BCD PUSH1 0xE5 SHL DUP2 MSTORE PUSH1 0x20 PUSH1 0x4 DUP3 ADD MSTORE PUSH1 0xC PUSH1 0x24 DUP3 ADD MSTORE PUSH12 0x2737BA1030B71030B236B4B7 PUSH1 0xA1 SHL PUSH1 0x44 DUP3 ADD MSTORE PUSH1 0x64 SWAP1 REVERT JUMPDEST CALLVALUE PUSH2 0x243 JUMPI PUSH1 0x20 CALLDATASIZE PUSH1 0x3 NOT ADD SLT PUSH2 0x243 JUMPI PUSH1 0x4 CALLDATALOAD PUSH2 0x1C01 PUSH2 0x2293 JUMP JUMPDEST PUSH1 0x32 DUP2 GT PUSH2 0x1C42 JUMPI PUSH1 0x40 PUSH32 0xD347E206F25A89B917FC9482F1A2D294D749BAA4DC9BDE7FB495EE11FE491643 SWAP2 PUSH1 0x3 SLOAD SWAP1 DUP1 PUSH1 0x3 SSTORE DUP3 MLOAD SWAP2 DUP3 MSTORE PUSH1 0x20 DUP3 ADD MSTORE LOG1 STOP JUMPDEST PUSH1 0x40 MLOAD PUSH3 0x461BCD PUSH1 0xE5 SHL DUP2 MSTORE PUSH1 0x20 PUSH1 0x4 DUP3 ADD MSTORE PUSH1 0x15 PUSH1 0x24 DUP3 ADD MSTORE PUSH21 0x4665652063616E6E6F742065786365656420353025 PUSH1 0x58 SHL PUSH1 0x44 DUP3 ADD MSTORE PUSH1 0x64 SWAP1 REVERT JUMPDEST CALLVALUE PUSH2 0x243 JUMPI PUSH1 0x20 CALLDATASIZE PUSH1 0x3 NOT ADD SLT PUSH2 0x243 JUMPI PUSH1 0x1 PUSH1 0x1 PUSH1 0xA0 SHL SUB PUSH2 0x1CA0 PUSH2 0x1F1C JUMP JUMPDEST AND PUSH0 MSTORE PUSH1 0x9 PUSH1 0x20 MSTORE PUSH1 0x40 PUSH0 KECCAK256 PUSH1 0x40 MLOAD DUP1 PUSH1 0x20 DUP4 SLOAD SWAP2 DUP3 DUP2 MSTORE ADD SWAP1 DUP2 SWAP4 PUSH0 MSTORE PUSH1 0x20 PUSH0 KECCAK256 SWAP1 PUSH0 JUMPDEST DUP2 DUP2 LT PUSH2 0x1D1D JUMPI POP POP POP DUP2 PUSH2 0x1CDB SWAP2 SUB DUP3 PUSH2 0x1FC1 JUMP JUMPDEST PUSH1 0x40 MLOAD SWAP2 DUP3 SWAP2 PUSH1 0x20 DUP4 ADD SWAP1 PUSH1 0x20 DUP5 MSTORE MLOAD DUP1 SWAP2 MSTORE PUSH1 0x40 DUP4 ADD SWAP2 SWAP1 PUSH0 JUMPDEST DUP2 DUP2 LT PUSH2 0x1D04 JUMPI POP POP POP SUB SWAP1 RETURN JUMPDEST DUP3 MLOAD DUP5 MSTORE DUP6 SWAP5 POP PUSH1 0x20 SWAP4 DUP5 ADD SWAP4 SWAP1 SWAP3 ADD SWAP2 PUSH1 0x1 ADD PUSH2 0x1CF6 JUMP JUMPDEST DUP3 SLOAD DUP5 MSTORE PUSH1 0x20 SWAP1 SWAP4 ADD SWAP3 PUSH1 0x1 SWAP3 DUP4 ADD SWAP3 ADD PUSH2 0x1CC5 JUMP JUMPDEST CALLVALUE PUSH2 0x243 JUMPI PUSH1 0x20 CALLDATASIZE PUSH1 0x3 NOT ADD SLT PUSH2 0x243 JUMPI PUSH1 0x4 CALLDATALOAD PUSH0 MSTORE PUSH1 0x7 PUSH1 0x20 MSTORE PUSH1 0x40 PUSH0 KECCAK256 DUP1 SLOAD PUSH2 0x1D60 PUSH1 0x1 DUP4 ADD PUSH2 0x1FE3 JUMP JUMPDEST SWAP2 PUSH1 0x2 DUP2 ADD SLOAD SWAP1 PUSH1 0x3 DUP2 ADD SLOAD SWAP1 PUSH2 0x1D79 PUSH1 0x4 DUP3 ADD PUSH2 0x1FE3 JUMP JUMPDEST PUSH1 0x5 DUP3 ADD SLOAD SWAP4 PUSH2 0x1DCF PUSH1 0x6 DUP5 ADD SLOAD SWAP2 PUSH1 0x7 DUP6 ADD SLOAD SWAP4 PUSH1 0x9 PUSH1 0x8 DUP8 ADD SLOAD SWAP7 ADD SLOAD SWAP7 PUSH2 0x1DB7 PUSH1 0x40 MLOAD SWAP12 DUP13 SWAP12 DUP13 MSTORE PUSH2 0x180 PUSH1 0x20 DUP14 ADD MSTORE PUSH2 0x180 DUP13 ADD SWAP1 PUSH2 0x2083 JUMP JUMPDEST SWAP3 PUSH1 0x40 DUP12 ADD MSTORE PUSH1 0x60 DUP11 ADD MSTORE DUP9 DUP3 SUB PUSH1 0x80 DUP11 ADD MSTORE PUSH2 0x2083 JUMP JUMPDEST PUSH1 0xA0 DUP8 ADD SWAP6 SWAP1 SWAP6 MSTORE PUSH1 0xC0 DUP7 ADD MSTORE PUSH1 0xE0 DUP6 ADD MSTORE PUSH2 0x100 DUP5 ADD MSTORE PUSH1 0xFF DUP2 DUP2 AND ISZERO ISZERO PUSH2 0x120 DUP6 ADD MSTORE PUSH1 0x8 DUP3 SWAP1 SHR AND ISZERO ISZERO PUSH2 0x140 DUP5 ADD MSTORE PUSH1 0x10 SHR PUSH1 0x1 PUSH1 0x1 PUSH1 0xA0 SHL SUB AND PUSH2 0x160 DUP4 ADD MSTORE SUB SWAP1 RETURN JUMPDEST CALLVALUE PUSH2 0x243 JUMPI PUSH1 0x20 CALLDATASIZE PUSH1 0x3 NOT ADD SLT PUSH2 0x243 JUMPI PUSH1 0x4 CALLDATALOAD PUSH1 0xB SLOAD DUP2 LT ISZERO PUSH2 0x243 JUMPI PUSH2 0x1E41 PUSH1 0x20 SWAP2 PUSH2 0x1F48 JUMP JUMPDEST SWAP1 SLOAD PUSH1 0x40 MLOAD PUSH1 0x3 SWAP3 SWAP1 SWAP3 SHL SHR PUSH1 0x1 PUSH1 0x1 PUSH1 0xA0 SHL SUB AND DUP2 MSTORE RETURN JUMPDEST CALLVALUE PUSH2 0x243 JUMPI PUSH1 0x40 CALLDATASIZE PUSH1 0x3 NOT ADD SLT PUSH2 0x243 JUMPI PUSH1 0x4 CALLDATALOAD PUSH2 0x1E76 PUSH2 0x1F32 JUMP JUMPDEST SWAP1 DUP1 ISZERO ISZERO DUP1 PUSH2 0x1EB9 JUMPI JUMPDEST PUSH2 0x1E89 SWAP1 PUSH2 0x20FD JUMP JUMPDEST PUSH0 MSTORE PUSH1 0x7 PUSH1 0x20 MSTORE PUSH1 0xA PUSH1 0x40 PUSH0 KECCAK256 ADD SWAP1 PUSH1 0x1 DUP1 PUSH1 0xA0 SHL SUB AND PUSH0 MSTORE PUSH1 0x20 MSTORE PUSH1 0x20 PUSH1 0xFF PUSH1 0x40 PUSH0 KECCAK256 SLOAD AND PUSH1 0x40 MLOAD SWAP1 ISZERO ISZERO DUP2 MSTORE RETURN JUMPDEST POP PUSH1 0x2 SLOAD DUP2 LT PUSH2 0x1E80 JUMP JUMPDEST CALLVALUE PUSH2 0x243 JUMPI PUSH1 0x40 CALLDATASIZE PUSH1 0x3 NOT ADD SLT PUSH2 0x243 JUMPI PUSH2 0x1EDD PUSH2 0x1F1C JUMP JUMPDEST PUSH1 0x1 PUSH1 0x1 PUSH1 0xA0 SHL SUB AND PUSH0 SWAP1 DUP2 MSTORE PUSH1 0x9 PUSH1 0x20 MSTORE PUSH1 0x40 SWAP1 KECCAK256 DUP1 SLOAD PUSH1 0x24 CALLDATALOAD SWAP2 SWAP1 DUP3 LT ISZERO PUSH2 0x243 JUMPI PUSH1 0x20 SWAP2 PUSH2 0x1F0D SWAP2 PUSH2 0x1F74 JUMP JUMPDEST SWAP1 SLOAD SWAP1 PUSH1 0x3 SHL SHR PUSH1 0x40 MLOAD SWAP1 DUP2 MSTORE RETURN JUMPDEST PUSH1 0x4 CALLDATALOAD SWAP1 PUSH1 0x1 PUSH1 0x1 PUSH1 0xA0 SHL SUB DUP3 AND DUP3 SUB PUSH2 0x243 JUMPI JUMP JUMPDEST PUSH1 0x24 CALLDATALOAD SWAP1 PUSH1 0x1 PUSH1 0x1 PUSH1 0xA0 SHL SUB DUP3 AND DUP3 SUB PUSH2 0x243 JUMPI JUMP JUMPDEST PUSH1 0xB SLOAD DUP2 LT ISZERO PUSH2 0x1F60 JUMPI PUSH1 0xB PUSH0 MSTORE PUSH1 0x20 PUSH0 KECCAK256 ADD SWAP1 PUSH0 SWAP1 JUMP JUMPDEST PUSH4 0x4E487B71 PUSH1 0xE0 SHL PUSH0 MSTORE PUSH1 0x32 PUSH1 0x4 MSTORE PUSH1 0x24 PUSH0 REVERT JUMPDEST DUP1 SLOAD DUP3 LT ISZERO PUSH2 0x1F60 JUMPI PUSH0 MSTORE PUSH1 0x20 PUSH0 KECCAK256 ADD SWAP1 PUSH0 SWAP1 JUMP JUMPDEST SWAP1 PUSH1 0x1 DUP3 DUP2 SHR SWAP3 AND DUP1 ISZERO PUSH2 0x1FB7 JUMPI JUMPDEST PUSH1 0x20 DUP4 LT EQ PUSH2 0x1FA3 JUMPI JUMP JUMPDEST PUSH4 0x4E487B71 PUSH1 0xE0 SHL PUSH0 MSTORE PUSH1 0x22 PUSH1 0x4 MSTORE PUSH1 0x24 PUSH0 REVERT JUMPDEST SWAP2 PUSH1 0x7F AND SWAP2 PUSH2 0x1F98 JUMP JUMPDEST SWAP1 PUSH1 0x1F DUP1 NOT SWAP2 ADD AND DUP2 ADD SWAP1 DUP2 LT PUSH8 0xFFFFFFFFFFFFFFFF DUP3 GT OR PUSH2 0x594 JUMPI PUSH1 0x40 MSTORE JUMP JUMPDEST SWAP1 PUSH1 0x40 MLOAD SWAP2 DUP3 PUSH0 DUP3 SLOAD SWAP3 PUSH2 0x1FF6 DUP5 PUSH2 0x1F89 JUMP JUMPDEST DUP1 DUP5 MSTORE SWAP4 PUSH1 0x1 DUP2 AND SWAP1 DUP2 ISZERO PUSH2 0x2061 JUMPI POP PUSH1 0x1 EQ PUSH2 0x201D JUMPI JUMPDEST POP PUSH2 0x201B SWAP3 POP SUB DUP4 PUSH2 0x1FC1 JUMP JUMPDEST JUMP JUMPDEST SWAP1 POP PUSH0 SWAP3 SWAP2 SWAP3 MSTORE PUSH1 0x20 PUSH0 KECCAK256 SWAP1 PUSH0 SWAP2 JUMPDEST DUP2 DUP4 LT PUSH2 0x2045 JUMPI POP POP SWAP1 PUSH1 0x20 PUSH2 0x201B SWAP3 DUP3 ADD ADD PUSH0 PUSH2 0x200E JUMP JUMPDEST PUSH1 0x20 SWAP2 SWAP4 POP DUP1 PUSH1 0x1 SWAP2 SLOAD DUP4 DUP6 DUP10 ADD ADD MSTORE ADD SWAP2 ADD SWAP1 SWAP2 DUP5 SWAP3 PUSH2 0x202C JUMP JUMPDEST SWAP1 POP PUSH1 0x20 SWAP3 POP PUSH2 0x201B SWAP5 SWAP2 POP PUSH1 0xFF NOT AND DUP3 DUP5 ADD MSTORE ISZERO ISZERO PUSH1 0x5 SHL DUP3 ADD ADD PUSH0 PUSH2 0x200E JUMP JUMPDEST DUP1 MLOAD DUP1 DUP4 MSTORE PUSH1 0x20 SWAP3 SWAP2 DUP2 SWAP1 DUP5 ADD DUP5 DUP5 ADD MCOPY PUSH0 DUP3 DUP3 ADD DUP5 ADD MSTORE PUSH1 0x1F ADD PUSH1 0x1F NOT AND ADD ADD SWAP1 JUMP JUMPDEST DUP2 PUSH1 0x1F DUP3 ADD SLT ISZERO PUSH2 0x243 JUMPI DUP1 CALLDATALOAD SWAP1 PUSH8 0xFFFFFFFFFFFFFFFF DUP3 GT PUSH2 0x594 JUMPI PUSH1 0x40 MLOAD SWAP3 PUSH2 0x20DC PUSH1 0x1F DUP5 ADD PUSH1 0x1F NOT AND PUSH1 0x20 ADD DUP6 PUSH2 0x1FC1 JUMP JUMPDEST DUP3 DUP5 MSTORE PUSH1 0x20 DUP4 DUP4 ADD ADD GT PUSH2 0x243 JUMPI DUP2 PUSH0 SWAP3 PUSH1 0x20 DUP1 SWAP4 ADD DUP4 DUP7 ADD CALLDATACOPY DUP4 ADD ADD MSTORE SWAP1 JUMP JUMPDEST ISZERO PUSH2 0x2104 JUMPI JUMP JUMPDEST PUSH1 0x40 MLOAD PUSH3 0x461BCD PUSH1 0xE5 SHL DUP2 MSTORE PUSH1 0x20 PUSH1 0x4 DUP3 ADD MSTORE PUSH1 0x13 PUSH1 0x24 DUP3 ADD MSTORE PUSH19 0x11D85B5948191BD95CC81B9BDD08195E1A5CDD PUSH1 0x6A SHL PUSH1 0x44 DUP3 ADD MSTORE PUSH1 0x64 SWAP1 REVERT JUMPDEST SWAP2 SWAP1 DUP3 SUB SWAP2 DUP3 GT PUSH2 0xAD8 JUMPI JUMP JUMPDEST ISZERO PUSH2 0x2153 JUMPI JUMP JUMPDEST PUSH1 0x40 MLOAD PUSH3 0x461BCD PUSH1 0xE5 SHL DUP2 MSTORE PUSH1 0x20 PUSH1 0x4 DUP3 ADD MSTORE PUSH1 0x13 PUSH1 0x24 DUP3 ADD MSTORE PUSH19 0x27B7363C9030B236B4B71037B91037BBB732B9 PUSH1 0x69 SHL PUSH1 0x44 DUP3 ADD MSTORE PUSH1 0x64 SWAP1 REVERT JUMPDEST ISZERO PUSH2 0x2195 JUMPI JUMP JUMPDEST PUSH1 0x40 MLOAD PUSH3 0x461BCD PUSH1 0xE5 SHL DUP2 MSTORE PUSH1 0x20 PUSH1 0x4 DUP3 ADD MSTORE PUSH1 0x12 PUSH1 0x24 DUP3 ADD MSTORE PUSH18 0x47616D65206973206E6F7420616374697665 PUSH1 0x70 SHL PUSH1 0x44 DUP3 ADD MSTORE PUSH1 0x64 SWAP1 REVERT JUMPDEST SWAP2 SWAP1 DUP3 ADD DUP1 SWAP3 GT PUSH2 0xAD8 JUMPI JUMP JUMPDEST ISZERO PUSH2 0x21E3 JUMPI JUMP JUMPDEST PUSH1 0x40 MLOAD PUSH3 0x461BCD PUSH1 0xE5 SHL DUP2 MSTORE PUSH1 0x20 PUSH1 0x4 DUP3 ADD MSTORE PUSH1 0x1D PUSH1 0x24 DUP3 ADD MSTORE PUSH32 0x496E73756666696369656E742074726561737572792062616C616E6365000000 PUSH1 0x44 DUP3 ADD MSTORE PUSH1 0x64 SWAP1 REVERT JUMPDEST PUSH8 0xFFFFFFFFFFFFFFFF DUP2 GT PUSH2 0x594 JUMPI PUSH1 0x5 SHL PUSH1 0x20 ADD SWAP1 JUMP JUMPDEST DUP1 MLOAD DUP3 LT ISZERO PUSH2 0x1F60 JUMPI PUSH1 0x20 SWAP2 PUSH1 0x5 SHL ADD ADD SWAP1 JUMP JUMPDEST PUSH0 NOT DUP2 EQ PUSH2 0xAD8 JUMPI PUSH1 0x1 ADD SWAP1 JUMP JUMPDEST DUP2 DUP2 MUL SWAP3 SWAP2 DUP2 ISZERO SWAP2 DUP5 DIV EQ OR ISZERO PUSH2 0xAD8 JUMPI JUMP JUMPDEST DUP2 ISZERO PUSH2 0x227F JUMPI DIV SWAP1 JUMP JUMPDEST PUSH4 0x4E487B71 PUSH1 0xE0 SHL PUSH0 MSTORE PUSH1 0x12 PUSH1 0x4 MSTORE PUSH1 0x24 PUSH0 REVERT JUMPDEST PUSH1 0x1 SLOAD PUSH1 0x1 PUSH1 0x1 PUSH1 0xA0 SHL SUB AND CALLER SUB PUSH2 0x22A7 JUMPI JUMP JUMPDEST PUSH4 0x118CDAA7 PUSH1 0xE0 SHL PUSH0 MSTORE CALLER PUSH1 0x4 MSTORE PUSH1 0x24 PUSH0 REVERT JUMPDEST PUSH1 0x2 PUSH0 SLOAD EQ PUSH2 0x22C9 JUMPI PUSH1 0x2 PUSH0 SSTORE JUMP JUMPDEST PUSH4 0x3EE5AEB5 PUSH1 0xE0 SHL PUSH0 MSTORE PUSH1 0x4 PUSH0 REVERT INVALID LOG2 PUSH5 0x6970667358 0x22 SLT KECCAK256 SWAP5 0xC8 SWAP12 PUSH23 0x18D7177B37F79D07300318756F99A1C12B69E6F89A15BC PUSH11 0xA7AE6EA864736F6C634300 ADDMOD SHR STOP CALLER "},"methodIdentifiers":{"addAdmin(address)":"70480275","adminList(uint256)":"11117fc8","admins(address)":"429b62e5","createGame(string,bytes32,uint256,string,uint256)":"ee8a3d16","defaultPrizeMultiplier()":"82f7defa","emergencyCloseAllGames()":"87bf18a6","emergencyCloseGame(uint256)":"1b39c1f6","emergencyWithdraw()":"db2e21bc","fundTreasury()":"b9c18685","games(uint256)":"117a5b90","getActiveGamesCount()":"72aeb81f","getAdminCount()":"8b7bf3eb","getAdminList()":"d9f774fc","getContractBalance()":"6f9fb98a","getGameInfo(uint256)":"47e1d550","getPlayerGames(address)":"129daf84","getPlayerGuess(uint256,address)":"f4dcdc8e","getPlayerStats(address)":"4fd66eae","getRandomActiveGame()":"6ce5ba6f","getTreasuryBalance()":"9b5655dc","hasPlayerGuessed(uint256,address)":"9a53371e","isAdmin(address)":"24d7806c","isOwner(address)":"2f54bf6e","isPlayerInGame(uint256,address)":"0d3b404f","nextGameId()":"b135bbb0","owner()":"8da5cb5b","platformFeePercent()":"8c639a85","playerGames(address,uint256)":"0a5694c2","playerStats(address)":"cdafbbb6","removeAdmin(address)":"1785f53c","renounceOwnership()":"715018a6","setPlatformFee(uint256)":"12e8e2c3","setPrizeMultiplier(uint256)":"2d57dc34","setSustainableFee(uint256)":"1fb81fa5","submitGuess(uint256,string)":"db249ec8","sustainableFeePercent()":"ea212a14","transferOwnership(address)":"f2fde38b","treasuryBalance()":"313dab20","withdrawFromTreasury(uint256)":"63555624"}}}}}