{"project/contracts/GuessWhatGame.sol":{"GuessWhatGame":{"abi":[{"inputs":[{"internalType":"address","name":"initialOwner","type":"address"},{"internalType":"address[]","name":"initialAdmins","type":"address[]"}],"stateMutability":"nonpayable","type":"constructor"},{"inputs":[{"internalType":"address","name":"owner","type":"address"}],"name":"OwnableInvalidOwner","type":"error"},{"inputs":[{"internalType":"address","name":"account","type":"address"}],"name":"OwnableUnauthorizedAccount","type":"error"},{"inputs":[],"name":"ReentrancyGuardReentrantCall","type":"error"},{"anonymous":false,"inputs":[{"indexed":true,"internalType":"address","name":"admin","type":"address"}],"name":"AdminAdded","type":"event"},{"anonymous":false,"inputs":[{"indexed":true,"internalType":"address","name":"admin","type":"address"}],"name":"AdminRemoved","type":"event"},{"anonymous":false,"inputs":[{"indexed":true,"internalType":"uint256","name":"gameId","type":"uint256"},{"indexed":false,"internalType":"uint256","name":"entryFee","type":"uint256"}],"name":"GameCreated","type":"event"},{"anonymous":false,"inputs":[{"indexed":true,"internalType":"uint256","name":"gameId","type":"uint256"},{"indexed":false,"internalType":"uint256","name":"totalPrize","type":"uint256"}],"name":"GameExpired","type":"event"},{"anonymous":false,"inputs":[{"indexed":true,"internalType":"uint256","name":"gameId","type":"uint256"},{"indexed":true,"internalType":"address","name":"winner","type":"address"},{"indexed":false,"internalType":"uint256","name":"prize","type":"uint256"}],"name":"GameWon","type":"event"},{"anonymous":false,"inputs":[{"indexed":true,"internalType":"uint256","name":"gameId","type":"uint256"},{"indexed":true,"internalType":"address","name":"player","type":"address"},{"indexed":false,"internalType":"string","name":"guess","type":"string"}],"name":"GuessSubmitted","type":"event"},{"anonymous":false,"inputs":[{"indexed":true,"internalType":"address","name":"previousOwner","type":"address"},{"indexed":true,"internalType":"address","name":"newOwner","type":"address"}],"name":"OwnershipTransferred","type":"event"},{"anonymous":false,"inputs":[{"indexed":true,"internalType":"uint256","name":"gameId","type":"uint256"},{"indexed":true,"internalType":"address","name":"player","type":"address"},{"indexed":false,"internalType":"uint256","name":"entryFee","type":"uint256"}],"name":"PlayerJoined","type":"event"},{"anonymous":false,"inputs":[{"indexed":true,"internalType":"uint256","name":"gameId","type":"uint256"},{"indexed":true,"internalType":"address","name":"winner","type":"address"},{"indexed":false,"internalType":"uint256","name":"amount","type":"uint256"}],"name":"PrizeClaimed","type":"event"},{"inputs":[],"name":"PLATFORM_FEE_PERCENT","outputs":[{"internalType":"uint256","name":"","type":"uint256"}],"stateMutability":"view","type":"function"},{"inputs":[{"internalType":"address","name":"_admin","type":"address"}],"name":"addAdmin","outputs":[],"stateMutability":"nonpayable","type":"function"},{"inputs":[{"internalType":"uint256","name":"","type":"uint256"}],"name":"adminList","outputs":[{"internalType":"address","name":"","type":"address"}],"stateMutability":"view","type":"function"},{"inputs":[{"internalType":"address","name":"","type":"address"}],"name":"admins","outputs":[{"internalType":"bool","name":"","type":"bool"}],"stateMutability":"view","type":"function"},{"inputs":[{"internalType":"string","name":"_topWord","type":"string"},{"internalType":"string","name":"_middleWord","type":"string"},{"internalType":"string","name":"_bottomWord","type":"string"},{"internalType":"uint256","name":"_entryFee","type":"uint256"},{"internalType":"uint256","name":"_initialPrizePool","type":"uint256"}],"name":"createGame","outputs":[{"internalType":"uint256","name":"","type":"uint256"}],"stateMutability":"payable","type":"function"},{"inputs":[{"internalType":"uint256","name":"_gameId","type":"uint256"}],"name":"emergencyCloseGame","outputs":[],"stateMutability":"nonpayable","type":"function"},{"inputs":[],"name":"emergencyWithdraw","outputs":[],"stateMutability":"nonpayable","type":"function"},{"inputs":[{"internalType":"uint256","name":"","type":"uint256"}],"name":"games","outputs":[{"internalType":"uint256","name":"gameId","type":"uint256"},{"internalType":"string","name":"topWord","type":"string"},{"internalType":"string","name":"middleWord","type":"string"},{"internalType":"string","name":"bottomWord","type":"string"},{"internalType":"uint256","name":"entryFee","type":"uint256"},{"internalType":"uint256","name":"totalPrize","type":"uint256"},{"internalType":"uint256","name":"initialPrizePool","type":"uint256"},{"internalType":"uint256","name":"startTime","type":"uint256"},{"internalType":"bool","name":"isActive","type":"bool"},{"internalType":"bool","name":"isCompleted","type":"bool"},{"internalType":"address","name":"winner","type":"address"}],"stateMutability":"view","type":"function"},{"inputs":[],"name":"getActiveGamesCount","outputs":[{"internalType":"uint256","name":"","type":"uint256"}],"stateMutability":"view","type":"function"},{"inputs":[],"name":"getAdminCount","outputs":[{"internalType":"uint256","name":"","type":"uint256"}],"stateMutability":"view","type":"function"},{"inputs":[],"name":"getAdminList","outputs":[{"internalType":"address[]","name":"","type":"address[]"}],"stateMutability":"view","type":"function"},{"inputs":[],"name":"getContractBalance","outputs":[{"internalType":"uint256","name":"","type":"uint256"}],"stateMutability":"view","type":"function"},{"inputs":[{"internalType":"uint256","name":"_gameId","type":"uint256"}],"name":"getGameInfo","outputs":[{"internalType":"uint256","name":"gameId","type":"uint256"},{"internalType":"string","name":"topWord","type":"string"},{"internalType":"string","name":"middleWord","type":"string"},{"internalType":"string","name":"bottomWord","type":"string"},{"internalType":"uint256","name":"entryFee","type":"uint256"},{"internalType":"uint256","name":"totalPrize","type":"uint256"},{"internalType":"uint256","name":"initialPrizePool","type":"uint256"},{"internalType":"uint256","name":"startTime","type":"uint256"},{"internalType":"bool","name":"isActive","type":"bool"},{"internalType":"bool","name":"isCompleted","type":"bool"},{"internalType":"address","name":"winner","type":"address"}],"stateMutability":"view","type":"function"},{"inputs":[{"internalType":"address","name":"_player","type":"address"}],"name":"getPlayerGames","outputs":[{"internalType":"uint256[]","name":"","type":"uint256[]"}],"stateMutability":"view","type":"function"},{"inputs":[{"internalType":"uint256","name":"_gameId","type":"uint256"},{"internalType":"address","name":"_player","type":"address"}],"name":"getPlayerGuess","outputs":[{"internalType":"string","name":"","type":"string"}],"stateMutability":"view","type":"function"},{"inputs":[{"internalType":"address","name":"_player","type":"address"}],"name":"getPlayerStats","outputs":[{"internalType":"uint256","name":"gamesPlayed","type":"uint256"},{"internalType":"uint256","name":"correctGuesses","type":"uint256"},{"internalType":"uint256","name":"totalWinnings","type":"uint256"},{"internalType":"uint256","name":"accuracy","type":"uint256"}],"stateMutability":"view","type":"function"},{"inputs":[],"name":"getRandomActiveGame","outputs":[{"internalType":"uint256","name":"","type":"uint256"}],"stateMutability":"view","type":"function"},{"inputs":[{"internalType":"uint256","name":"_gameId","type":"uint256"},{"internalType":"address","name":"_player","type":"address"}],"name":"hasPlayerGuessed","outputs":[{"internalType":"bool","name":"","type":"bool"}],"stateMutability":"view","type":"function"},{"inputs":[{"internalType":"address","name":"_address","type":"address"}],"name":"isAdmin","outputs":[{"internalType":"bool","name":"","type":"bool"}],"stateMutability":"view","type":"function"},{"inputs":[{"internalType":"address","name":"_address","type":"address"}],"name":"isOwner","outputs":[{"internalType":"bool","name":"","type":"bool"}],"stateMutability":"view","type":"function"},{"inputs":[{"internalType":"uint256","name":"_gameId","type":"uint256"},{"internalType":"address","name":"_player","type":"address"}],"name":"isPlayerInGame","outputs":[{"internalType":"bool","name":"","type":"bool"}],"stateMutability":"view","type":"function"},{"inputs":[{"internalType":"uint256","name":"_gameId","type":"uint256"}],"name":"joinGame","outputs":[],"stateMutability":"payable","type":"function"},{"inputs":[],"name":"nextGameId","outputs":[{"internalType":"uint256","name":"","type":"uint256"}],"stateMutability":"view","type":"function"},{"inputs":[],"name":"owner","outputs":[{"internalType":"address","name":"","type":"address"}],"stateMutability":"view","type":"function"},{"inputs":[{"internalType":"address","name":"","type":"address"},{"internalType":"uint256","name":"","type":"uint256"}],"name":"playerGames","outputs":[{"internalType":"uint256","name":"","type":"uint256"}],"stateMutability":"view","type":"function"},{"inputs":[{"internalType":"address","name":"","type":"address"}],"name":"playerStats","outputs":[{"internalType":"uint256","name":"gamesPlayed","type":"uint256"},{"internalType":"uint256","name":"correctGuesses","type":"uint256"},{"internalType":"uint256","name":"totalWinnings","type":"uint256"},{"internalType":"uint256","name":"accuracy","type":"uint256"}],"stateMutability":"view","type":"function"},{"inputs":[{"internalType":"address","name":"_admin","type":"address"}],"name":"removeAdmin","outputs":[],"stateMutability":"nonpayable","type":"function"},{"inputs":[],"name":"renounceOwnership","outputs":[],"stateMutability":"nonpayable","type":"function"},{"inputs":[{"internalType":"uint256","name":"_gameId","type":"uint256"},{"internalType":"string","name":"_guess","type":"string"}],"name":"submitGuess","outputs":[],"stateMutability":"payable","type":"function"},{"inputs":[{"internalType":"address","name":"newOwner","type":"address"}],"name":"transferOwnership","outputs":[],"stateMutability":"nonpayable","type":"function"}],"evm":{"bytecode":{"linkReferences":{},"object":"60806040523461025f576121078038038061001981610263565b92833981019060408183031261025f5761003281610288565b602082015190916001600160401b03821161025f57019180601f8401121561025f578251926001600160401b038411610211578360051b90602080610078818501610263565b80978152019282010192831161025f57602001905b82821061024757505060015f55506001600160a01b0316801561023457600180546001600160a01b0319811683179091556001600160a01b03167f8be0079c531659141344cd1fd0a4f28419497f9722a3daafe3b4186f6b6457e05f80a360016002555f5b8151811015610225576001600160a01b0361010d828461029c565b511661011c575b6001016100f2565b6001600160a01b0361012e828461029c565b51165f908152600660205260409020805460ff191660011790556001600160a01b0361015a828461029c565b51169060075491680100000000000000008310156102115760018301806007558310156101fd5760075f527fa66cc928b5edb82af9bd49922954155ab7b0942694bea4ce44661d9a8736c68890920180546001600160a01b0319169092179091556001906001600160a01b036101d0828561029c565b51167f44d6d25963f097ad14f29f06854a01f575648a1ef82f30e562ccd3889717e3395f80a29050610114565b634e487b7160e01b5f52603260045260245ffd5b634e487b7160e01b5f52604160045260245ffd5b604051611e5690816102b18239f35b631e4fbdf760e01b5f525f60045260245ffd5b6020809161025484610288565b81520191019061008d565b5f80fd5b6040519190601f01601f191682016001600160401b0381118382101761021157604052565b51906001600160a01b038216820361025f57565b80518210156101fd5760209160051b01019056fe60806040526004361015610011575f80fd5b5f3560e01c80630a5694c2146119d65780630d3b404f1461196c57806311117fc81461192a578063117a5b901461189f578063129daf84146117eb5780631785f53c1461163e5780631b39c1f61461155a57806324d7806c146114ff5780632f54bf6e146114ca578063429b62e51461148d57806347e1d550146113e45780634fd66eae146109b5578063560d52d4146113c95780636cc7d8f814610e9b5780636ce5ba6f14610d125780636f9fb98a14610cf75780637048027514610bbe578063715018a614610b6357806372aeb81f14610ae25780638b7bf3eb14610ac55780638da5cb5b14610a9d5780639a53371e14610a2e578063b135bbb014610a11578063cdafbbb6146109b5578063d9f774fc146108ed578063db249ec81461046e578063db2e21bc146103df578063efaa55a01461026a578063f2fde38b146101e45763f4dcdc8e14610163575f80fd5b346101e05760403660031901126101e05760043561017f611a44565b90801515806101d5575b61019290611c8d565b5f526003602052600a60405f20019060018060a01b03165f526020526101d16101bd60405f20611af5565b604051918291602083526020830190611b95565b0390f35b506002548110610189565b5f80fd5b346101e05760203660031901126101e0576101fd611a2e565b610205611ddb565b6001600160a01b0316801561025757600180546001600160a01b0319811683179091556001600160a01b03167f8be0079c531659141344cd1fd0a4f28419497f9722a3daafe3b4186f6b6457e05f80a3005b631e4fbdf760e01b5f525f60045260245ffd5b60203660031901126101e057600435801515806103d4575b61028b90611c8d565b805f5260036020526102a660ff600860405f20015416611d11565b805f52600360205260405f20600981019060018060a01b0333165f528160205260ff60405f20541661038f576005916102e460048301543414611d8c565b60018060a01b0333165f5260205260405f20600160ff198254161790550161030d348254611dce565b9055335f52600560205260405f208054600160401b81101561037b5761033891600182018155611a86565b81549060031b9083821b915f19901b1916179055604051903482527f03dfbe1fcb4e2d61f3b4a0c93d8f814c92250618b3387f396cc9fc9fafe2c20360203393a3005b634e487b7160e01b5f52604160045260245ffd5b60405162461bcd60e51b815260206004820152601f60248201527f506c6179657220616c7265616479206a6f696e656420746869732067616d65006044820152606490fd5b506002548110610282565b346101e0575f3660031901126101e0576103f7611ddb565b6103ff611e02565b478015610432576001545f918291829182916001600160a01b031682f1156104275760015f55005b6040513d5f823e3d90fd5b60405162461bcd60e51b81526020600482015260146024820152734e6f2066756e647320746f20776974686472617760601b6044820152606490fd5b60403660031901126101e05760043560243567ffffffffffffffff81116101e05761049d903690600401611c37565b90801515806108e2575b6104b090611c8d565b805f5260036020526104cb60ff600860405f20015416611d11565b6104d3611e02565b5f818152600360209081526040808320338452600981019092529091205460ff161561089d5761050860048201543414611d8c565b60058101610517348254611dce565b9055335f908152600a820160205260409020835167ffffffffffffffff811161037b576105448254611a9b565b601f8111610858575b50806020601f82116001146107f7575f916107ec575b508160011b915f199060031b1c19161790555b60028351602085012091016040515f918181549361059385611a9b565b9283835260208301956001811690815f146107cd5750600114610789575b506105be92500382611ad3565b51902014610608575b7f17a40e01bf0138d07f888b59d3df945ee0f73445ebbde5213180ad0cb1b8b38360405160208152806105ff33956020830190611b95565b0390a360015f55005b5f8181526003602052604090206008810180546001600160b01b0319163360101b62010000600160b01b03161761010017905560059081015490818102908215838304909114171561077557606490048082039180831161077557335f52600460205260405f209061067a8254611d52565b90818355600183019261068d8454611d52565b8094556002810161069f878254611dce565b90556127108402938085046127101490151715610775578215610761576003859387950491015514801561073c575b50508015801561070d575b5050604051908152817f9e59e9b0ec1755ccaf2fd4a7ed4ad5b0a678626e91834aee53ebdf1356bd390a60203393a36105c7565b5f808093819360018060a01b0360015416908390610733575bf1156104275783806106d9565b506108fc610726565b5f90610758575b5f80809381933390f1156104275781856106ce565b506108fc610743565b634e487b7160e01b5f52601260045260245ffd5b634e487b7160e01b5f52601160045260245ffd5b90505f9291925260205f20905f915b8183106107b15750509060206105be92820101886105b1565b6020919350806001915483858801015201910190918392610798565b60ff19168752506105be93151560051b830160200191508990506105b1565b905085015186610563565b5f8481528181209250601f198416905b81811061084057509083600194939210610828575b5050811b019055610576565b8701515f1960f88460031b161c19169055868061081c565b9192602060018192868c015181550194019201610807565b825f5260205f20601f830160051c81019160208410610893575b601f0160051c01905b818110610888575061054d565b5f815560010161087b565b9091508190610872565b60405162461bcd60e51b815260206004820152601760248201527f506c61796572206e6f7420696e20746869732067616d650000000000000000006044820152606490fd5b5060025481106104a7565b346101e0575f3660031901126101e0576040518060206007549283815201809260075f527fa66cc928b5edb82af9bd49922954155ab7b0942694bea4ce44661d9a8736c688905f5b818110610996575050508161094b910382611ad3565b604051918291602083019060208452518091526040830191905f5b818110610974575050500390f35b82516001600160a01b0316845285945060209384019390920191600101610966565b82546001600160a01b0316845260209093019260019283019201610935565b346101e05760203660031901126101e0576001600160a01b036109d6611a2e565b165f90815260046020908152604091829020805460018201546002830154600390930154855192835293820152928301526060820152608090f35b346101e0575f3660031901126101e0576020600254604051908152f35b346101e05760403660031901126101e057600435610a4a611a44565b9080151580610a92575b610a5d90611c8d565b5f526003602052600a60405f20019060018060a01b03165f526020526020610a8860405f2054611a9b565b1515604051908152f35b506002548110610a54565b346101e0575f3660031901126101e0576001546040516001600160a01b039091168152602090f35b346101e0575f3660031901126101e0576020600754604051908152f35b346101e0575f3660031901126101e0575f6001600254905b818110610b0c57602083604051908152f35b805f52600360205260ff600860405f2001541680610b46575b610b32575b600101610afa565b91610b3e600191611d52565b929050610b2a565b50805f52600360205260ff600860405f20015460081c1615610b25565b346101e0575f3660031901126101e057610b7b611ddb565b600180546001600160a01b031981169091555f906001600160a01b03167f8be0079c531659141344cd1fd0a4f28419497f9722a3daafe3b4186f6b6457e08280a3005b346101e05760203660031901126101e057610bd7611a2e565b610bdf611ddb565b6001600160a01b038116908115610cc057815f52600660205260ff60405f205416610c8857815f52600660205260405f20600160ff1982541617905560075490600160401b82101561037b57610c3e826001610c629401600755611a5a565b81546001600160a01b0393841660039290921b91821b9390911b1916919091179055565b7f44d6d25963f097ad14f29f06854a01f575648a1ef82f30e562ccd3889717e3395f80a2005b60405162461bcd60e51b815260206004820152601060248201526f20b63932b0b23c9030b71030b236b4b760811b6044820152606490fd5b60405162461bcd60e51b815260206004820152600f60248201526e496e76616c6964206164647265737360881b6044820152606490fd5b346101e0575f3660031901126101e057602047604051908152f35b346101e0575f3660031901126101e0576002546001811115610e65575f1981019080821161077557610d4382611d60565b91610d516040519384611ad3565b808352610d60601f1991611d60565b013660208401375f9060015b818110610e025750508015610dbd57602091610db491604051848101904282524460408201523360601b606082015260548152610daa607482611ad3565b5190200690611d78565b51604051908152f35b60405162461bcd60e51b815260206004820152601960248201527f4e6f206163746976652067616d657320617661696c61626c65000000000000006044820152606490fd5b805f52600360205260ff600860405f2001541680610e48575b610e28575b600101610d6c565b91610e408184610e3a60019488611d78565b52611d52565b929050610e20565b50805f52600360205260ff600860405f20015460081c1615610e1b565b60405162461bcd60e51b815260206004820152600e60248201526d139bc819d85b595cc8195e1a5cdd60921b6044820152606490fd5b60a03660031901126101e05760043567ffffffffffffffff81116101e057610ec7903690600401611c37565b60243567ffffffffffffffff81116101e057610ee7903690600401611c37565b60443567ffffffffffffffff81116101e057610f07903690600401611c37565b916064359260843590335f52600660205260ff60405f20541680156113b5575b610f3090611ccf565b8415611371578134106113225760025493610f4a85611d52565b600255845f52600360205260405f2093858555600185019080519067ffffffffffffffff821161037b578190610f808454611a9b565b601f81116112d2575b50602090601f831160011461126f575f92611264575b50508160011b915f199060031b1c19161790555b8051600285019167ffffffffffffffff821161037b578190610fd58454611a9b565b601f8111611214575b50602090601f83116001146111b1575f926111a6575b50508160011b915f199060031b1c19161790555b8051600384019167ffffffffffffffff821161037b576110288354611a9b565b601f8111611161575b509160209693918695938890601f83116001146110d45792828a96937fa26856d25e558c79e1632806bc6824075cf59885a115825f2aab62385a3f71429896936008965f926110c9575b50508160011b915f199060031b1c19161790555b600482018490556006820181905560058201554260078201550180546001600160b01b0319166001179055604051908152a2604051908152f35b015190508c8061107b565b90601f19831691845f52815f20925f5b8181106111475750937fa26856d25e558c79e1632806bc6824075cf59885a115825f2aab62385a3f714298969360089693600193838f9b981061112f575b505050811b01905561108f565b01515f1960f88460031b161c191690558c8080611122565b8284015185558b9a50600190940193928c01928c016110e4565b835f5260205f20601f840160051c8101916020851061119c575b601f0160051c01905b8181106111915750611031565b5f8155600101611184565b909150819061117b565b015190508880610ff4565b5f8581528281209350601f198516905b8181106111fc57509084600195949392106111e4575b505050811b019055611008565b01515f1960f88460031b161c191690558880806111d7565b929360206001819287860151815501950193016111c1565b909150835f5260205f20601f840160051c8101916020851061125a575b90601f859493920160051c01905b81811061124c5750610fde565b5f815584935060010161123f565b9091508190611231565b015190508980610f9f565b5f8581528281209350601f198516905b8181106112ba57509084600195949392106112a2575b505050811b019055610fb3565b01515f1960f88460031b161c19169055898080611295565b9293602060018192878601518155019501930161127f565b909150835f5260205f20601f840160051c81019160208510611318575b90601f859493920160051c01905b81811061130a5750610f89565b5f81558493506001016112fd565b90915081906112ef565b60405162461bcd60e51b815260206004820152602160248201527f496e73756666696369656e742066756e647320666f72207072697a6520706f6f6044820152601b60fa1b6064820152608490fd5b606460405162461bcd60e51b815260206004820152602060248201527f456e74727920666565206d7573742062652067726561746572207468616e20306044820152fd5b506001546001600160a01b03163314610f27565b346101e0575f3660031901126101e057602060405160058152f35b346101e05760203660031901126101e05760043580151580611482575b61140a90611c8d565b5f52600360205260405f208054906101d1600482015492600583015490600684015490600785015460088601549261144460018801611af5565b9461145d600361145660028b01611af5565b9901611af5565b98604051998a9960018060a01b038860101c169860ff808a60081c169916978c611bb9565b506002548110611401565b346101e05760203660031901126101e0576001600160a01b036114ae611a2e565b165f526006602052602060ff60405f2054166040519015158152f35b346101e05760203660031901126101e05760206114e5611a2e565b6001546040516001600160a01b0392831691909216148152f35b346101e05760203660031901126101e05760206001600160a01b03611522611a2e565b16805f526006825260ff60405f205416908115611545575b506040519015158152f35b6001546001600160a01b03161490508261153a565b346101e05760203660031901126101e057600435335f52600660205260ff60405f205416801561162a575b61158e90611ccf565b611596611e02565b805f52600360205260405f205f6008820160058154936115b860ff8616611d11565b019061010082549461ffff19161790555580158015611604575b5060207fa72860103f540f00e7d5c44ff9ea4cdb6cf0361b63e542d7a657c4c1154100de91604051908152a260015f55005b81905f90611621575b5f80809381933390f11561042757826115d2565b506108fc61160d565b506001546001600160a01b03163314611585565b346101e05760203660031901126101e057611657611a2e565b61165f611ddb565b6001600160a01b03165f8181526006602052604090205460ff16156117b7576001546001600160a01b0316811461177c575f818152600660205260408120805460ff191690555b600754908181101561177557826116bc82611a5a565b905460039190911b1c6001600160a01b0316146116dd5760019150016116a6565b5f19820191821161077557610c3e6116f761170f93611a5a565b905460039190911b1c6001600160a01b031691611a5a565b6007548015611761575f190161172481611a5a565b81549060018060a01b039060031b1b191690556007555b7fa3b62bc36326052d97ea62d63c3d60308ed4c3ea8ac079dd8499f1e9c4f80c0f5f80a2005b634e487b7160e01b5f52603160045260245ffd5b505061173b565b60405162461bcd60e51b815260206004820152601360248201527221b0b73737ba103932b6b7bb329037bbb732b960691b6044820152606490fd5b60405162461bcd60e51b815260206004820152600c60248201526b2737ba1030b71030b236b4b760a11b6044820152606490fd5b346101e05760203660031901126101e0576001600160a01b0361180c611a2e565b165f52600560205260405f20604051806020835491828152019081935f5260205f20905f5b8181106118895750505081611847910382611ad3565b604051918291602083019060208452518091526040830191905f5b818110611870575050500390f35b8251845285945060209384019390920191600101611862565b8254845260209093019260019283019201611831565b346101e05760203660031901126101e0576004355f52600360205260405f208054906101d16118d060018301611af5565b6118dc60028401611af5565b926118e960038201611af5565b9460048201549160058101546006820154906008600784015493015494604051998a9960018060a01b038860101c169860ff808a60081c169916978c611bb9565b346101e05760203660031901126101e0576004356007548110156101e057611953602091611a5a565b905460405160039290921b1c6001600160a01b03168152f35b346101e05760403660031901126101e057600435611988611a44565b90801515806119cb575b61199b90611c8d565b5f526003602052600960405f20019060018060a01b03165f52602052602060ff60405f2054166040519015158152f35b506002548110611992565b346101e05760403660031901126101e0576119ef611a2e565b6001600160a01b03165f908152600560205260409020805460243591908210156101e057602091611a1f91611a86565b90549060031b1c604051908152f35b600435906001600160a01b03821682036101e057565b602435906001600160a01b03821682036101e057565b600754811015611a725760075f5260205f2001905f90565b634e487b7160e01b5f52603260045260245ffd5b8054821015611a72575f5260205f2001905f90565b90600182811c92168015611ac9575b6020831014611ab557565b634e487b7160e01b5f52602260045260245ffd5b91607f1691611aaa565b90601f8019910116810190811067ffffffffffffffff82111761037b57604052565b9060405191825f825492611b0884611a9b565b8084529360018116908115611b735750600114611b2f575b50611b2d92500383611ad3565b565b90505f9291925260205f20905f915b818310611b57575050906020611b2d928201015f611b20565b6020919350806001915483858901015201910190918492611b3e565b905060209250611b2d94915060ff191682840152151560051b8201015f611b20565b805180835260209291819084018484015e5f828201840152601f01601f1916010190565b99969390610140999693611be6611c0294979e9d9a976101608e611bf49581528160208201520190611b95565b8c810360408e015290611b95565b908a820360608c0152611b95565b608089019a909a5260a088015260c087015260e0860152151561010085015215156101208401526001600160a01b0316910152565b81601f820112156101e05780359067ffffffffffffffff821161037b5760405192611c6c601f8401601f191660200185611ad3565b828452602083830101116101e057815f926020809301838601378301015290565b15611c9457565b60405162461bcd60e51b815260206004820152601360248201527211d85b5948191bd95cc81b9bdd08195e1a5cdd606a1b6044820152606490fd5b15611cd657565b60405162461bcd60e51b815260206004820152601360248201527227b7363c9030b236b4b71037b91037bbb732b960691b6044820152606490fd5b15611d1857565b60405162461bcd60e51b815260206004820152601260248201527147616d65206973206e6f742061637469766560701b6044820152606490fd5b5f1981146107755760010190565b67ffffffffffffffff811161037b5760051b60200190565b8051821015611a725760209160051b010190565b15611d9357565b60405162461bcd60e51b8152602060048201526013602482015272496e636f727265637420656e7472792066656560681b6044820152606490fd5b9190820180921161077557565b6001546001600160a01b03163303611def57565b63118cdaa760e01b5f523360045260245ffd5b60025f5414611e115760025f55565b633ee5aeb560e01b5f5260045ffdfea26469706673582212205cfc1f0da173b78de9cfb1184cdca7e8a7cca0666b799433102ad91541499db464736f6c634300081c0033","opcodes":"PUSH1 0x80 PUSH1 0x40 MSTORE CALLVALUE PUSH2 0x25F JUMPI PUSH2 0x2107 DUP1 CODESIZE SUB DUP1 PUSH2 0x19 DUP2 PUSH2 0x263 JUMP JUMPDEST SWAP3 DUP4 CODECOPY DUP2 ADD SWAP1 PUSH1 0x40 DUP2 DUP4 SUB SLT PUSH2 0x25F JUMPI PUSH2 0x32 DUP2 PUSH2 0x288 JUMP JUMPDEST PUSH1 0x20 DUP3 ADD MLOAD SWAP1 SWAP2 PUSH1 0x1 PUSH1 0x1 PUSH1 0x40 SHL SUB DUP3 GT PUSH2 0x25F JUMPI ADD SWAP2 DUP1 PUSH1 0x1F DUP5 ADD SLT ISZERO PUSH2 0x25F JUMPI DUP3 MLOAD SWAP3 PUSH1 0x1 PUSH1 0x1 PUSH1 0x40 SHL SUB DUP5 GT PUSH2 0x211 JUMPI DUP4 PUSH1 0x5 SHL SWAP1 PUSH1 0x20 DUP1 PUSH2 0x78 DUP2 DUP6 ADD PUSH2 0x263 JUMP JUMPDEST DUP1 SWAP8 DUP2 MSTORE ADD SWAP3 DUP3 ADD ADD SWAP3 DUP4 GT PUSH2 0x25F JUMPI PUSH1 0x20 ADD SWAP1 JUMPDEST DUP3 DUP3 LT PUSH2 0x247 JUMPI POP POP PUSH1 0x1 PUSH0 SSTORE POP PUSH1 0x1 PUSH1 0x1 PUSH1 0xA0 SHL SUB AND DUP1 ISZERO PUSH2 0x234 JUMPI PUSH1 0x1 DUP1 SLOAD PUSH1 0x1 PUSH1 0x1 PUSH1 0xA0 SHL SUB NOT DUP2 AND DUP4 OR SWAP1 SWAP2 SSTORE PUSH1 0x1 PUSH1 0x1 PUSH1 0xA0 SHL SUB AND PUSH32 0x8BE0079C531659141344CD1FD0A4F28419497F9722A3DAAFE3B4186F6B6457E0 PUSH0 DUP1 LOG3 PUSH1 0x1 PUSH1 0x2 SSTORE PUSH0 JUMPDEST DUP2 MLOAD DUP2 LT ISZERO PUSH2 0x225 JUMPI PUSH1 0x1 PUSH1 0x1 PUSH1 0xA0 SHL SUB PUSH2 0x10D DUP3 DUP5 PUSH2 0x29C JUMP JUMPDEST MLOAD AND PUSH2 0x11C JUMPI JUMPDEST PUSH1 0x1 ADD PUSH2 0xF2 JUMP JUMPDEST PUSH1 0x1 PUSH1 0x1 PUSH1 0xA0 SHL SUB PUSH2 0x12E DUP3 DUP5 PUSH2 0x29C JUMP JUMPDEST MLOAD AND PUSH0 SWAP1 DUP2 MSTORE PUSH1 0x6 PUSH1 0x20 MSTORE PUSH1 0x40 SWAP1 KECCAK256 DUP1 SLOAD PUSH1 0xFF NOT AND PUSH1 0x1 OR SWAP1 SSTORE PUSH1 0x1 PUSH1 0x1 PUSH1 0xA0 SHL SUB PUSH2 0x15A DUP3 DUP5 PUSH2 0x29C JUMP JUMPDEST MLOAD AND SWAP1 PUSH1 0x7 SLOAD SWAP2 PUSH9 0x10000000000000000 DUP4 LT ISZERO PUSH2 0x211 JUMPI PUSH1 0x1 DUP4 ADD DUP1 PUSH1 0x7 SSTORE DUP4 LT ISZERO PUSH2 0x1FD JUMPI PUSH1 0x7 PUSH0 MSTORE PUSH32 0xA66CC928B5EDB82AF9BD49922954155AB7B0942694BEA4CE44661D9A8736C688 SWAP1 SWAP3 ADD DUP1 SLOAD PUSH1 0x1 PUSH1 0x1 PUSH1 0xA0 SHL SUB NOT AND SWAP1 SWAP3 OR SWAP1 SWAP2 SSTORE PUSH1 0x1 SWAP1 PUSH1 0x1 PUSH1 0x1 PUSH1 0xA0 SHL SUB PUSH2 0x1D0 DUP3 DUP6 PUSH2 0x29C JUMP JUMPDEST MLOAD AND PUSH32 0x44D6D25963F097AD14F29F06854A01F575648A1EF82F30E562CCD3889717E339 PUSH0 DUP1 LOG2 SWAP1 POP PUSH2 0x114 JUMP JUMPDEST PUSH4 0x4E487B71 PUSH1 0xE0 SHL PUSH0 MSTORE PUSH1 0x32 PUSH1 0x4 MSTORE PUSH1 0x24 PUSH0 REVERT JUMPDEST PUSH4 0x4E487B71 PUSH1 0xE0 SHL PUSH0 MSTORE PUSH1 0x41 PUSH1 0x4 MSTORE PUSH1 0x24 PUSH0 REVERT JUMPDEST PUSH1 0x40 MLOAD PUSH2 0x1E56 SWAP1 DUP2 PUSH2 0x2B1 DUP3 CODECOPY RETURN JUMPDEST PUSH4 0x1E4FBDF7 PUSH1 0xE0 SHL PUSH0 MSTORE PUSH0 PUSH1 0x4 MSTORE PUSH1 0x24 PUSH0 REVERT JUMPDEST PUSH1 0x20 DUP1 SWAP2 PUSH2 0x254 DUP5 PUSH2 0x288 JUMP JUMPDEST DUP2 MSTORE ADD SWAP2 ADD SWAP1 PUSH2 0x8D JUMP JUMPDEST PUSH0 DUP1 REVERT JUMPDEST PUSH1 0x40 MLOAD SWAP2 SWAP1 PUSH1 0x1F ADD PUSH1 0x1F NOT AND DUP3 ADD PUSH1 0x1 PUSH1 0x1 PUSH1 0x40 SHL SUB DUP2 GT DUP4 DUP3 LT OR PUSH2 0x211 JUMPI PUSH1 0x40 MSTORE JUMP JUMPDEST MLOAD SWAP1 PUSH1 0x1 PUSH1 0x1 PUSH1 0xA0 SHL SUB DUP3 AND DUP3 SUB PUSH2 0x25F JUMPI JUMP JUMPDEST DUP1 MLOAD DUP3 LT ISZERO PUSH2 0x1FD JUMPI PUSH1 0x20 SWAP2 PUSH1 0x5 SHL ADD ADD SWAP1 JUMP INVALID PUSH1 0x80 PUSH1 0x40 MSTORE PUSH1 0x4 CALLDATASIZE LT ISZERO PUSH2 0x11 JUMPI PUSH0 DUP1 REVERT JUMPDEST PUSH0 CALLDATALOAD PUSH1 0xE0 SHR DUP1 PUSH4 0xA5694C2 EQ PUSH2 0x19D6 JUMPI DUP1 PUSH4 0xD3B404F EQ PUSH2 0x196C JUMPI DUP1 PUSH4 0x11117FC8 EQ PUSH2 0x192A JUMPI DUP1 PUSH4 0x117A5B90 EQ PUSH2 0x189F JUMPI DUP1 PUSH4 0x129DAF84 EQ PUSH2 0x17EB JUMPI DUP1 PUSH4 0x1785F53C EQ PUSH2 0x163E JUMPI DUP1 PUSH4 0x1B39C1F6 EQ PUSH2 0x155A JUMPI DUP1 PUSH4 0x24D7806C EQ PUSH2 0x14FF JUMPI DUP1 PUSH4 0x2F54BF6E EQ PUSH2 0x14CA JUMPI DUP1 PUSH4 0x429B62E5 EQ PUSH2 0x148D JUMPI DUP1 PUSH4 0x47E1D550 EQ PUSH2 0x13E4 JUMPI DUP1 PUSH4 0x4FD66EAE EQ PUSH2 0x9B5 JUMPI DUP1 PUSH4 0x560D52D4 EQ PUSH2 0x13C9 JUMPI DUP1 PUSH4 0x6CC7D8F8 EQ PUSH2 0xE9B JUMPI DUP1 PUSH4 0x6CE5BA6F EQ PUSH2 0xD12 JUMPI DUP1 PUSH4 0x6F9FB98A EQ PUSH2 0xCF7 JUMPI DUP1 PUSH4 0x70480275 EQ PUSH2 0xBBE JUMPI DUP1 PUSH4 0x715018A6 EQ PUSH2 0xB63 JUMPI DUP1 PUSH4 0x72AEB81F EQ PUSH2 0xAE2 JUMPI DUP1 PUSH4 0x8B7BF3EB EQ PUSH2 0xAC5 JUMPI DUP1 PUSH4 0x8DA5CB5B EQ PUSH2 0xA9D JUMPI DUP1 PUSH4 0x9A53371E EQ PUSH2 0xA2E JUMPI DUP1 PUSH4 0xB135BBB0 EQ PUSH2 0xA11 JUMPI DUP1 PUSH4 0xCDAFBBB6 EQ PUSH2 0x9B5 JUMPI DUP1 PUSH4 0xD9F774FC EQ PUSH2 0x8ED JUMPI DUP1 PUSH4 0xDB249EC8 EQ PUSH2 0x46E JUMPI DUP1 PUSH4 0xDB2E21BC EQ PUSH2 0x3DF JUMPI DUP1 PUSH4 0xEFAA55A0 EQ PUSH2 0x26A JUMPI DUP1 PUSH4 0xF2FDE38B EQ PUSH2 0x1E4 JUMPI PUSH4 0xF4DCDC8E EQ PUSH2 0x163 JUMPI PUSH0 DUP1 REVERT JUMPDEST CALLVALUE PUSH2 0x1E0 JUMPI PUSH1 0x40 CALLDATASIZE PUSH1 0x3 NOT ADD SLT PUSH2 0x1E0 JUMPI PUSH1 0x4 CALLDATALOAD PUSH2 0x17F PUSH2 0x1A44 JUMP JUMPDEST SWAP1 DUP1 ISZERO ISZERO DUP1 PUSH2 0x1D5 JUMPI JUMPDEST PUSH2 0x192 SWAP1 PUSH2 0x1C8D JUMP JUMPDEST PUSH0 MSTORE PUSH1 0x3 PUSH1 0x20 MSTORE PUSH1 0xA PUSH1 0x40 PUSH0 KECCAK256 ADD SWAP1 PUSH1 0x1 DUP1 PUSH1 0xA0 SHL SUB AND PUSH0 MSTORE PUSH1 0x20 MSTORE PUSH2 0x1D1 PUSH2 0x1BD PUSH1 0x40 PUSH0 KECCAK256 PUSH2 0x1AF5 JUMP JUMPDEST PUSH1 0x40 MLOAD SWAP2 DUP3 SWAP2 PUSH1 0x20 DUP4 MSTORE PUSH1 0x20 DUP4 ADD SWAP1 PUSH2 0x1B95 JUMP JUMPDEST SUB SWAP1 RETURN JUMPDEST POP PUSH1 0x2 SLOAD DUP2 LT PUSH2 0x189 JUMP JUMPDEST PUSH0 DUP1 REVERT JUMPDEST CALLVALUE PUSH2 0x1E0 JUMPI PUSH1 0x20 CALLDATASIZE PUSH1 0x3 NOT ADD SLT PUSH2 0x1E0 JUMPI PUSH2 0x1FD PUSH2 0x1A2E JUMP JUMPDEST PUSH2 0x205 PUSH2 0x1DDB JUMP JUMPDEST PUSH1 0x1 PUSH1 0x1 PUSH1 0xA0 SHL SUB AND DUP1 ISZERO PUSH2 0x257 JUMPI PUSH1 0x1 DUP1 SLOAD PUSH1 0x1 PUSH1 0x1 PUSH1 0xA0 SHL SUB NOT DUP2 AND DUP4 OR SWAP1 SWAP2 SSTORE PUSH1 0x1 PUSH1 0x1 PUSH1 0xA0 SHL SUB AND PUSH32 0x8BE0079C531659141344CD1FD0A4F28419497F9722A3DAAFE3B4186F6B6457E0 PUSH0 DUP1 LOG3 STOP JUMPDEST PUSH4 0x1E4FBDF7 PUSH1 0xE0 SHL PUSH0 MSTORE PUSH0 PUSH1 0x4 MSTORE PUSH1 0x24 PUSH0 REVERT JUMPDEST PUSH1 0x20 CALLDATASIZE PUSH1 0x3 NOT ADD SLT PUSH2 0x1E0 JUMPI PUSH1 0x4 CALLDATALOAD DUP1 ISZERO ISZERO DUP1 PUSH2 0x3D4 JUMPI JUMPDEST PUSH2 0x28B SWAP1 PUSH2 0x1C8D JUMP JUMPDEST DUP1 PUSH0 MSTORE PUSH1 0x3 PUSH1 0x20 MSTORE PUSH2 0x2A6 PUSH1 0xFF PUSH1 0x8 PUSH1 0x40 PUSH0 KECCAK256 ADD SLOAD AND PUSH2 0x1D11 JUMP JUMPDEST DUP1 PUSH0 MSTORE PUSH1 0x3 PUSH1 0x20 MSTORE PUSH1 0x40 PUSH0 KECCAK256 PUSH1 0x9 DUP2 ADD SWAP1 PUSH1 0x1 DUP1 PUSH1 0xA0 SHL SUB CALLER AND PUSH0 MSTORE DUP2 PUSH1 0x20 MSTORE PUSH1 0xFF PUSH1 0x40 PUSH0 KECCAK256 SLOAD AND PUSH2 0x38F JUMPI PUSH1 0x5 SWAP2 PUSH2 0x2E4 PUSH1 0x4 DUP4 ADD SLOAD CALLVALUE EQ PUSH2 0x1D8C JUMP JUMPDEST PUSH1 0x1 DUP1 PUSH1 0xA0 SHL SUB CALLER AND PUSH0 MSTORE PUSH1 0x20 MSTORE PUSH1 0x40 PUSH0 KECCAK256 PUSH1 0x1 PUSH1 0xFF NOT DUP3 SLOAD AND OR SWAP1 SSTORE ADD PUSH2 0x30D CALLVALUE DUP3 SLOAD PUSH2 0x1DCE JUMP JUMPDEST SWAP1 SSTORE CALLER PUSH0 MSTORE PUSH1 0x5 PUSH1 0x20 MSTORE PUSH1 0x40 PUSH0 KECCAK256 DUP1 SLOAD PUSH1 0x1 PUSH1 0x40 SHL DUP2 LT ISZERO PUSH2 0x37B JUMPI PUSH2 0x338 SWAP2 PUSH1 0x1 DUP3 ADD DUP2 SSTORE PUSH2 0x1A86 JUMP JUMPDEST DUP2 SLOAD SWAP1 PUSH1 0x3 SHL SWAP1 DUP4 DUP3 SHL SWAP2 PUSH0 NOT SWAP1 SHL NOT AND OR SWAP1 SSTORE PUSH1 0x40 MLOAD SWAP1 CALLVALUE DUP3 MSTORE PUSH32 0x3DFBE1FCB4E2D61F3B4A0C93D8F814C92250618B3387F396CC9FC9FAFE2C203 PUSH1 0x20 CALLER SWAP4 LOG3 STOP JUMPDEST PUSH4 0x4E487B71 PUSH1 0xE0 SHL PUSH0 MSTORE PUSH1 0x41 PUSH1 0x4 MSTORE PUSH1 0x24 PUSH0 REVERT JUMPDEST PUSH1 0x40 MLOAD PUSH3 0x461BCD PUSH1 0xE5 SHL DUP2 MSTORE PUSH1 0x20 PUSH1 0x4 DUP3 ADD MSTORE PUSH1 0x1F PUSH1 0x24 DUP3 ADD MSTORE PUSH32 0x506C6179657220616C7265616479206A6F696E656420746869732067616D6500 PUSH1 0x44 DUP3 ADD MSTORE PUSH1 0x64 SWAP1 REVERT JUMPDEST POP PUSH1 0x2 SLOAD DUP2 LT PUSH2 0x282 JUMP JUMPDEST CALLVALUE PUSH2 0x1E0 JUMPI PUSH0 CALLDATASIZE PUSH1 0x3 NOT ADD SLT PUSH2 0x1E0 JUMPI PUSH2 0x3F7 PUSH2 0x1DDB JUMP JUMPDEST PUSH2 0x3FF PUSH2 0x1E02 JUMP JUMPDEST SELFBALANCE DUP1 ISZERO PUSH2 0x432 JUMPI PUSH1 0x1 SLOAD PUSH0 SWAP2 DUP3 SWAP2 DUP3 SWAP2 DUP3 SWAP2 PUSH1 0x1 PUSH1 0x1 PUSH1 0xA0 SHL SUB AND DUP3 CALL ISZERO PUSH2 0x427 JUMPI PUSH1 0x1 PUSH0 SSTORE STOP JUMPDEST PUSH1 0x40 MLOAD RETURNDATASIZE PUSH0 DUP3 RETURNDATACOPY RETURNDATASIZE SWAP1 REVERT JUMPDEST PUSH1 0x40 MLOAD PUSH3 0x461BCD PUSH1 0xE5 SHL DUP2 MSTORE PUSH1 0x20 PUSH1 0x4 DUP3 ADD MSTORE PUSH1 0x14 PUSH1 0x24 DUP3 ADD MSTORE PUSH20 0x4E6F2066756E647320746F207769746864726177 PUSH1 0x60 SHL PUSH1 0x44 DUP3 ADD MSTORE PUSH1 0x64 SWAP1 REVERT JUMPDEST PUSH1 0x40 CALLDATASIZE PUSH1 0x3 NOT ADD SLT PUSH2 0x1E0 JUMPI PUSH1 0x4 CALLDATALOAD PUSH1 0x24 CALLDATALOAD PUSH8 0xFFFFFFFFFFFFFFFF DUP2 GT PUSH2 0x1E0 JUMPI PUSH2 0x49D SWAP1 CALLDATASIZE SWAP1 PUSH1 0x4 ADD PUSH2 0x1C37 JUMP JUMPDEST SWAP1 DUP1 ISZERO ISZERO DUP1 PUSH2 0x8E2 JUMPI JUMPDEST PUSH2 0x4B0 SWAP1 PUSH2 0x1C8D JUMP JUMPDEST DUP1 PUSH0 MSTORE PUSH1 0x3 PUSH1 0x20 MSTORE PUSH2 0x4CB PUSH1 0xFF PUSH1 0x8 PUSH1 0x40 PUSH0 KECCAK256 ADD SLOAD AND PUSH2 0x1D11 JUMP JUMPDEST PUSH2 0x4D3 PUSH2 0x1E02 JUMP JUMPDEST PUSH0 DUP2 DUP2 MSTORE PUSH1 0x3 PUSH1 0x20 SWAP1 DUP2 MSTORE PUSH1 0x40 DUP1 DUP4 KECCAK256 CALLER DUP5 MSTORE PUSH1 0x9 DUP2 ADD SWAP1 SWAP3 MSTORE SWAP1 SWAP2 KECCAK256 SLOAD PUSH1 0xFF AND ISZERO PUSH2 0x89D JUMPI PUSH2 0x508 PUSH1 0x4 DUP3 ADD SLOAD CALLVALUE EQ PUSH2 0x1D8C JUMP JUMPDEST PUSH1 0x5 DUP2 ADD PUSH2 0x517 CALLVALUE DUP3 SLOAD PUSH2 0x1DCE JUMP JUMPDEST SWAP1 SSTORE CALLER PUSH0 SWAP1 DUP2 MSTORE PUSH1 0xA DUP3 ADD PUSH1 0x20 MSTORE PUSH1 0x40 SWAP1 KECCAK256 DUP4 MLOAD PUSH8 0xFFFFFFFFFFFFFFFF DUP2 GT PUSH2 0x37B JUMPI PUSH2 0x544 DUP3 SLOAD PUSH2 0x1A9B JUMP JUMPDEST PUSH1 0x1F DUP2 GT PUSH2 0x858 JUMPI JUMPDEST POP DUP1 PUSH1 0x20 PUSH1 0x1F DUP3 GT PUSH1 0x1 EQ PUSH2 0x7F7 JUMPI PUSH0 SWAP2 PUSH2 0x7EC JUMPI JUMPDEST POP DUP2 PUSH1 0x1 SHL SWAP2 PUSH0 NOT SWAP1 PUSH1 0x3 SHL SHR NOT AND OR SWAP1 SSTORE JUMPDEST PUSH1 0x2 DUP4 MLOAD PUSH1 0x20 DUP6 ADD KECCAK256 SWAP2 ADD PUSH1 0x40 MLOAD PUSH0 SWAP2 DUP2 DUP2 SLOAD SWAP4 PUSH2 0x593 DUP6 PUSH2 0x1A9B JUMP JUMPDEST SWAP3 DUP4 DUP4 MSTORE PUSH1 0x20 DUP4 ADD SWAP6 PUSH1 0x1 DUP2 AND SWAP1 DUP2 PUSH0 EQ PUSH2 0x7CD JUMPI POP PUSH1 0x1 EQ PUSH2 0x789 JUMPI JUMPDEST POP PUSH2 0x5BE SWAP3 POP SUB DUP3 PUSH2 0x1AD3 JUMP JUMPDEST MLOAD SWAP1 KECCAK256 EQ PUSH2 0x608 JUMPI JUMPDEST PUSH32 0x17A40E01BF0138D07F888B59D3DF945EE0F73445EBBDE5213180AD0CB1B8B383 PUSH1 0x40 MLOAD PUSH1 0x20 DUP2 MSTORE DUP1 PUSH2 0x5FF CALLER SWAP6 PUSH1 0x20 DUP4 ADD SWAP1 PUSH2 0x1B95 JUMP JUMPDEST SUB SWAP1 LOG3 PUSH1 0x1 PUSH0 SSTORE STOP JUMPDEST PUSH0 DUP2 DUP2 MSTORE PUSH1 0x3 PUSH1 0x20 MSTORE PUSH1 0x40 SWAP1 KECCAK256 PUSH1 0x8 DUP2 ADD DUP1 SLOAD PUSH1 0x1 PUSH1 0x1 PUSH1 0xB0 SHL SUB NOT AND CALLER PUSH1 0x10 SHL PUSH3 0x10000 PUSH1 0x1 PUSH1 0xB0 SHL SUB AND OR PUSH2 0x100 OR SWAP1 SSTORE PUSH1 0x5 SWAP1 DUP2 ADD SLOAD SWAP1 DUP2 DUP2 MUL SWAP1 DUP3 ISZERO DUP4 DUP4 DIV SWAP1 SWAP2 EQ OR ISZERO PUSH2 0x775 JUMPI PUSH1 0x64 SWAP1 DIV DUP1 DUP3 SUB SWAP2 DUP1 DUP4 GT PUSH2 0x775 JUMPI CALLER PUSH0 MSTORE PUSH1 0x4 PUSH1 0x20 MSTORE PUSH1 0x40 PUSH0 KECCAK256 SWAP1 PUSH2 0x67A DUP3 SLOAD PUSH2 0x1D52 JUMP JUMPDEST SWAP1 DUP2 DUP4 SSTORE PUSH1 0x1 DUP4 ADD SWAP3 PUSH2 0x68D DUP5 SLOAD PUSH2 0x1D52 JUMP JUMPDEST DUP1 SWAP5 SSTORE PUSH1 0x2 DUP2 ADD PUSH2 0x69F DUP8 DUP3 SLOAD PUSH2 0x1DCE JUMP JUMPDEST SWAP1 SSTORE PUSH2 0x2710 DUP5 MUL SWAP4 DUP1 DUP6 DIV PUSH2 0x2710 EQ SWAP1 ISZERO OR ISZERO PUSH2 0x775 JUMPI DUP3 ISZERO PUSH2 0x761 JUMPI PUSH1 0x3 DUP6 SWAP4 DUP8 SWAP6 DIV SWAP2 ADD SSTORE EQ DUP1 ISZERO PUSH2 0x73C JUMPI JUMPDEST POP POP DUP1 ISZERO DUP1 ISZERO PUSH2 0x70D JUMPI JUMPDEST POP POP PUSH1 0x40 MLOAD SWAP1 DUP2 MSTORE DUP2 PUSH32 0x9E59E9B0EC1755CCAF2FD4A7ED4AD5B0A678626E91834AEE53EBDF1356BD390A PUSH1 0x20 CALLER SWAP4 LOG3 PUSH2 0x5C7 JUMP JUMPDEST PUSH0 DUP1 DUP1 SWAP4 DUP2 SWAP4 PUSH1 0x1 DUP1 PUSH1 0xA0 SHL SUB PUSH1 0x1 SLOAD AND SWAP1 DUP4 SWAP1 PUSH2 0x733 JUMPI JUMPDEST CALL ISZERO PUSH2 0x427 JUMPI DUP4 DUP1 PUSH2 0x6D9 JUMP JUMPDEST POP PUSH2 0x8FC PUSH2 0x726 JUMP JUMPDEST PUSH0 SWAP1 PUSH2 0x758 JUMPI JUMPDEST PUSH0 DUP1 DUP1 SWAP4 DUP2 SWAP4 CALLER SWAP1 CALL ISZERO PUSH2 0x427 JUMPI DUP2 DUP6 PUSH2 0x6CE JUMP JUMPDEST POP PUSH2 0x8FC PUSH2 0x743 JUMP JUMPDEST PUSH4 0x4E487B71 PUSH1 0xE0 SHL PUSH0 MSTORE PUSH1 0x12 PUSH1 0x4 MSTORE PUSH1 0x24 PUSH0 REVERT JUMPDEST PUSH4 0x4E487B71 PUSH1 0xE0 SHL PUSH0 MSTORE PUSH1 0x11 PUSH1 0x4 MSTORE PUSH1 0x24 PUSH0 REVERT JUMPDEST SWAP1 POP PUSH0 SWAP3 SWAP2 SWAP3 MSTORE PUSH1 0x20 PUSH0 KECCAK256 SWAP1 PUSH0 SWAP2 JUMPDEST DUP2 DUP4 LT PUSH2 0x7B1 JUMPI POP POP SWAP1 PUSH1 0x20 PUSH2 0x5BE SWAP3 DUP3 ADD ADD DUP9 PUSH2 0x5B1 JUMP JUMPDEST PUSH1 0x20 SWAP2 SWAP4 POP DUP1 PUSH1 0x1 SWAP2 SLOAD DUP4 DUP6 DUP9 ADD ADD MSTORE ADD SWAP2 ADD SWAP1 SWAP2 DUP4 SWAP3 PUSH2 0x798 JUMP JUMPDEST PUSH1 0xFF NOT AND DUP8 MSTORE POP PUSH2 0x5BE SWAP4 ISZERO ISZERO PUSH1 0x5 SHL DUP4 ADD PUSH1 0x20 ADD SWAP2 POP DUP10 SWAP1 POP PUSH2 0x5B1 JUMP JUMPDEST SWAP1 POP DUP6 ADD MLOAD DUP7 PUSH2 0x563 JUMP JUMPDEST PUSH0 DUP5 DUP2 MSTORE DUP2 DUP2 KECCAK256 SWAP3 POP PUSH1 0x1F NOT DUP5 AND SWAP1 JUMPDEST DUP2 DUP2 LT PUSH2 0x840 JUMPI POP SWAP1 DUP4 PUSH1 0x1 SWAP5 SWAP4 SWAP3 LT PUSH2 0x828 JUMPI JUMPDEST POP POP DUP2 SHL ADD SWAP1 SSTORE PUSH2 0x576 JUMP JUMPDEST DUP8 ADD MLOAD PUSH0 NOT PUSH1 0xF8 DUP5 PUSH1 0x3 SHL AND SHR NOT AND SWAP1 SSTORE DUP7 DUP1 PUSH2 0x81C JUMP JUMPDEST SWAP2 SWAP3 PUSH1 0x20 PUSH1 0x1 DUP2 SWAP3 DUP7 DUP13 ADD MLOAD DUP2 SSTORE ADD SWAP5 ADD SWAP3 ADD PUSH2 0x807 JUMP JUMPDEST DUP3 PUSH0 MSTORE PUSH1 0x20 PUSH0 KECCAK256 PUSH1 0x1F DUP4 ADD PUSH1 0x5 SHR DUP2 ADD SWAP2 PUSH1 0x20 DUP5 LT PUSH2 0x893 JUMPI JUMPDEST PUSH1 0x1F ADD PUSH1 0x5 SHR ADD SWAP1 JUMPDEST DUP2 DUP2 LT PUSH2 0x888 JUMPI POP PUSH2 0x54D JUMP JUMPDEST PUSH0 DUP2 SSTORE PUSH1 0x1 ADD PUSH2 0x87B JUMP JUMPDEST SWAP1 SWAP2 POP DUP2 SWAP1 PUSH2 0x872 JUMP JUMPDEST PUSH1 0x40 MLOAD PUSH3 0x461BCD PUSH1 0xE5 SHL DUP2 MSTORE PUSH1 0x20 PUSH1 0x4 DUP3 ADD MSTORE PUSH1 0x17 PUSH1 0x24 DUP3 ADD MSTORE PUSH32 0x506C61796572206E6F7420696E20746869732067616D65000000000000000000 PUSH1 0x44 DUP3 ADD MSTORE PUSH1 0x64 SWAP1 REVERT JUMPDEST POP PUSH1 0x2 SLOAD DUP2 LT PUSH2 0x4A7 JUMP JUMPDEST CALLVALUE PUSH2 0x1E0 JUMPI PUSH0 CALLDATASIZE PUSH1 0x3 NOT ADD SLT PUSH2 0x1E0 JUMPI PUSH1 0x40 MLOAD DUP1 PUSH1 0x20 PUSH1 0x7 SLOAD SWAP3 DUP4 DUP2 MSTORE ADD DUP1 SWAP3 PUSH1 0x7 PUSH0 MSTORE PUSH32 0xA66CC928B5EDB82AF9BD49922954155AB7B0942694BEA4CE44661D9A8736C688 SWAP1 PUSH0 JUMPDEST DUP2 DUP2 LT PUSH2 0x996 JUMPI POP POP POP DUP2 PUSH2 0x94B SWAP2 SUB DUP3 PUSH2 0x1AD3 JUMP JUMPDEST PUSH1 0x40 MLOAD SWAP2 DUP3 SWAP2 PUSH1 0x20 DUP4 ADD SWAP1 PUSH1 0x20 DUP5 MSTORE MLOAD DUP1 SWAP2 MSTORE PUSH1 0x40 DUP4 ADD SWAP2 SWAP1 PUSH0 JUMPDEST DUP2 DUP2 LT PUSH2 0x974 JUMPI POP POP POP SUB SWAP1 RETURN JUMPDEST DUP3 MLOAD PUSH1 0x1 PUSH1 0x1 PUSH1 0xA0 SHL SUB AND DUP5 MSTORE DUP6 SWAP5 POP PUSH1 0x20 SWAP4 DUP5 ADD SWAP4 SWAP1 SWAP3 ADD SWAP2 PUSH1 0x1 ADD PUSH2 0x966 JUMP JUMPDEST DUP3 SLOAD PUSH1 0x1 PUSH1 0x1 PUSH1 0xA0 SHL SUB AND DUP5 MSTORE PUSH1 0x20 SWAP1 SWAP4 ADD SWAP3 PUSH1 0x1 SWAP3 DUP4 ADD SWAP3 ADD PUSH2 0x935 JUMP JUMPDEST CALLVALUE PUSH2 0x1E0 JUMPI PUSH1 0x20 CALLDATASIZE PUSH1 0x3 NOT ADD SLT PUSH2 0x1E0 JUMPI PUSH1 0x1 PUSH1 0x1 PUSH1 0xA0 SHL SUB PUSH2 0x9D6 PUSH2 0x1A2E JUMP JUMPDEST AND PUSH0 SWAP1 DUP2 MSTORE PUSH1 0x4 PUSH1 0x20 SWAP1 DUP2 MSTORE PUSH1 0x40 SWAP2 DUP3 SWAP1 KECCAK256 DUP1 SLOAD PUSH1 0x1 DUP3 ADD SLOAD PUSH1 0x2 DUP4 ADD SLOAD PUSH1 0x3 SWAP1 SWAP4 ADD SLOAD DUP6 MLOAD SWAP3 DUP4 MSTORE SWAP4 DUP3 ADD MSTORE SWAP3 DUP4 ADD MSTORE PUSH1 0x60 DUP3 ADD MSTORE PUSH1 0x80 SWAP1 RETURN JUMPDEST CALLVALUE PUSH2 0x1E0 JUMPI PUSH0 CALLDATASIZE PUSH1 0x3 NOT ADD SLT PUSH2 0x1E0 JUMPI PUSH1 0x20 PUSH1 0x2 SLOAD PUSH1 0x40 MLOAD SWAP1 DUP2 MSTORE RETURN JUMPDEST CALLVALUE PUSH2 0x1E0 JUMPI PUSH1 0x40 CALLDATASIZE PUSH1 0x3 NOT ADD SLT PUSH2 0x1E0 JUMPI PUSH1 0x4 CALLDATALOAD PUSH2 0xA4A PUSH2 0x1A44 JUMP JUMPDEST SWAP1 DUP1 ISZERO ISZERO DUP1 PUSH2 0xA92 JUMPI JUMPDEST PUSH2 0xA5D SWAP1 PUSH2 0x1C8D JUMP JUMPDEST PUSH0 MSTORE PUSH1 0x3 PUSH1 0x20 MSTORE PUSH1 0xA PUSH1 0x40 PUSH0 KECCAK256 ADD SWAP1 PUSH1 0x1 DUP1 PUSH1 0xA0 SHL SUB AND PUSH0 MSTORE PUSH1 0x20 MSTORE PUSH1 0x20 PUSH2 0xA88 PUSH1 0x40 PUSH0 KECCAK256 SLOAD PUSH2 0x1A9B JUMP JUMPDEST ISZERO ISZERO PUSH1 0x40 MLOAD SWAP1 DUP2 MSTORE RETURN JUMPDEST POP PUSH1 0x2 SLOAD DUP2 LT PUSH2 0xA54 JUMP JUMPDEST CALLVALUE PUSH2 0x1E0 JUMPI PUSH0 CALLDATASIZE PUSH1 0x3 NOT ADD SLT PUSH2 0x1E0 JUMPI PUSH1 0x1 SLOAD PUSH1 0x40 MLOAD PUSH1 0x1 PUSH1 0x1 PUSH1 0xA0 SHL SUB SWAP1 SWAP2 AND DUP2 MSTORE PUSH1 0x20 SWAP1 RETURN JUMPDEST CALLVALUE PUSH2 0x1E0 JUMPI PUSH0 CALLDATASIZE PUSH1 0x3 NOT ADD SLT PUSH2 0x1E0 JUMPI PUSH1 0x20 PUSH1 0x7 SLOAD PUSH1 0x40 MLOAD SWAP1 DUP2 MSTORE RETURN JUMPDEST CALLVALUE PUSH2 0x1E0 JUMPI PUSH0 CALLDATASIZE PUSH1 0x3 NOT ADD SLT PUSH2 0x1E0 JUMPI PUSH0 PUSH1 0x1 PUSH1 0x2 SLOAD SWAP1 JUMPDEST DUP2 DUP2 LT PUSH2 0xB0C JUMPI PUSH1 0x20 DUP4 PUSH1 0x40 MLOAD SWAP1 DUP2 MSTORE RETURN JUMPDEST DUP1 PUSH0 MSTORE PUSH1 0x3 PUSH1 0x20 MSTORE PUSH1 0xFF PUSH1 0x8 PUSH1 0x40 PUSH0 KECCAK256 ADD SLOAD AND DUP1 PUSH2 0xB46 JUMPI JUMPDEST PUSH2 0xB32 JUMPI JUMPDEST PUSH1 0x1 ADD PUSH2 0xAFA JUMP JUMPDEST SWAP2 PUSH2 0xB3E PUSH1 0x1 SWAP2 PUSH2 0x1D52 JUMP JUMPDEST SWAP3 SWAP1 POP PUSH2 0xB2A JUMP JUMPDEST POP DUP1 PUSH0 MSTORE PUSH1 0x3 PUSH1 0x20 MSTORE PUSH1 0xFF PUSH1 0x8 PUSH1 0x40 PUSH0 KECCAK256 ADD SLOAD PUSH1 0x8 SHR AND ISZERO PUSH2 0xB25 JUMP JUMPDEST CALLVALUE PUSH2 0x1E0 JUMPI PUSH0 CALLDATASIZE PUSH1 0x3 NOT ADD SLT PUSH2 0x1E0 JUMPI PUSH2 0xB7B PUSH2 0x1DDB JUMP JUMPDEST PUSH1 0x1 DUP1 SLOAD PUSH1 0x1 PUSH1 0x1 PUSH1 0xA0 SHL SUB NOT DUP2 AND SWAP1 SWAP2 SSTORE PUSH0 SWAP1 PUSH1 0x1 PUSH1 0x1 PUSH1 0xA0 SHL SUB AND PUSH32 0x8BE0079C531659141344CD1FD0A4F28419497F9722A3DAAFE3B4186F6B6457E0 DUP3 DUP1 LOG3 STOP JUMPDEST CALLVALUE PUSH2 0x1E0 JUMPI PUSH1 0x20 CALLDATASIZE PUSH1 0x3 NOT ADD SLT PUSH2 0x1E0 JUMPI PUSH2 0xBD7 PUSH2 0x1A2E JUMP JUMPDEST PUSH2 0xBDF PUSH2 0x1DDB JUMP JUMPDEST PUSH1 0x1 PUSH1 0x1 PUSH1 0xA0 SHL SUB DUP2 AND SWAP1 DUP2 ISZERO PUSH2 0xCC0 JUMPI DUP2 PUSH0 MSTORE PUSH1 0x6 PUSH1 0x20 MSTORE PUSH1 0xFF PUSH1 0x40 PUSH0 KECCAK256 SLOAD AND PUSH2 0xC88 JUMPI DUP2 PUSH0 MSTORE PUSH1 0x6 PUSH1 0x20 MSTORE PUSH1 0x40 PUSH0 KECCAK256 PUSH1 0x1 PUSH1 0xFF NOT DUP3 SLOAD AND OR SWAP1 SSTORE PUSH1 0x7 SLOAD SWAP1 PUSH1 0x1 PUSH1 0x40 SHL DUP3 LT ISZERO PUSH2 0x37B JUMPI PUSH2 0xC3E DUP3 PUSH1 0x1 PUSH2 0xC62 SWAP5 ADD PUSH1 0x7 SSTORE PUSH2 0x1A5A JUMP JUMPDEST DUP2 SLOAD PUSH1 0x1 PUSH1 0x1 PUSH1 0xA0 SHL SUB SWAP4 DUP5 AND PUSH1 0x3 SWAP3 SWAP1 SWAP3 SHL SWAP2 DUP3 SHL SWAP4 SWAP1 SWAP2 SHL NOT AND SWAP2 SWAP1 SWAP2 OR SWAP1 SSTORE JUMP JUMPDEST PUSH32 0x44D6D25963F097AD14F29F06854A01F575648A1EF82F30E562CCD3889717E339 PUSH0 DUP1 LOG2 STOP JUMPDEST PUSH1 0x40 MLOAD PUSH3 0x461BCD PUSH1 0xE5 SHL DUP2 MSTORE PUSH1 0x20 PUSH1 0x4 DUP3 ADD MSTORE PUSH1 0x10 PUSH1 0x24 DUP3 ADD MSTORE PUSH16 0x20B63932B0B23C9030B71030B236B4B7 PUSH1 0x81 SHL PUSH1 0x44 DUP3 ADD MSTORE PUSH1 0x64 SWAP1 REVERT JUMPDEST PUSH1 0x40 MLOAD PUSH3 0x461BCD PUSH1 0xE5 SHL DUP2 MSTORE PUSH1 0x20 PUSH1 0x4 DUP3 ADD MSTORE PUSH1 0xF PUSH1 0x24 DUP3 ADD MSTORE PUSH15 0x496E76616C69642061646472657373 PUSH1 0x88 SHL PUSH1 0x44 DUP3 ADD MSTORE PUSH1 0x64 SWAP1 REVERT JUMPDEST CALLVALUE PUSH2 0x1E0 JUMPI PUSH0 CALLDATASIZE PUSH1 0x3 NOT ADD SLT PUSH2 0x1E0 JUMPI PUSH1 0x20 SELFBALANCE PUSH1 0x40 MLOAD SWAP1 DUP2 MSTORE RETURN JUMPDEST CALLVALUE PUSH2 0x1E0 JUMPI PUSH0 CALLDATASIZE PUSH1 0x3 NOT ADD SLT PUSH2 0x1E0 JUMPI PUSH1 0x2 SLOAD PUSH1 0x1 DUP2 GT ISZERO PUSH2 0xE65 JUMPI PUSH0 NOT DUP2 ADD SWAP1 DUP1 DUP3 GT PUSH2 0x775 JUMPI PUSH2 0xD43 DUP3 PUSH2 0x1D60 JUMP JUMPDEST SWAP2 PUSH2 0xD51 PUSH1 0x40 MLOAD SWAP4 DUP5 PUSH2 0x1AD3 JUMP JUMPDEST DUP1 DUP4 MSTORE PUSH2 0xD60 PUSH1 0x1F NOT SWAP2 PUSH2 0x1D60 JUMP JUMPDEST ADD CALLDATASIZE PUSH1 0x20 DUP5 ADD CALLDATACOPY PUSH0 SWAP1 PUSH1 0x1 JUMPDEST DUP2 DUP2 LT PUSH2 0xE02 JUMPI POP POP DUP1 ISZERO PUSH2 0xDBD JUMPI PUSH1 0x20 SWAP2 PUSH2 0xDB4 SWAP2 PUSH1 0x40 MLOAD DUP5 DUP2 ADD SWAP1 TIMESTAMP DUP3 MSTORE PREVRANDAO PUSH1 0x40 DUP3 ADD MSTORE CALLER PUSH1 0x60 SHL PUSH1 0x60 DUP3 ADD MSTORE PUSH1 0x54 DUP2 MSTORE PUSH2 0xDAA PUSH1 0x74 DUP3 PUSH2 0x1AD3 JUMP JUMPDEST MLOAD SWAP1 KECCAK256 MOD SWAP1 PUSH2 0x1D78 JUMP JUMPDEST MLOAD PUSH1 0x40 MLOAD SWAP1 DUP2 MSTORE RETURN JUMPDEST PUSH1 0x40 MLOAD PUSH3 0x461BCD PUSH1 0xE5 SHL DUP2 MSTORE PUSH1 0x20 PUSH1 0x4 DUP3 ADD MSTORE PUSH1 0x19 PUSH1 0x24 DUP3 ADD MSTORE PUSH32 0x4E6F206163746976652067616D657320617661696C61626C6500000000000000 PUSH1 0x44 DUP3 ADD MSTORE PUSH1 0x64 SWAP1 REVERT JUMPDEST DUP1 PUSH0 MSTORE PUSH1 0x3 PUSH1 0x20 MSTORE PUSH1 0xFF PUSH1 0x8 PUSH1 0x40 PUSH0 KECCAK256 ADD SLOAD AND DUP1 PUSH2 0xE48 JUMPI JUMPDEST PUSH2 0xE28 JUMPI JUMPDEST PUSH1 0x1 ADD PUSH2 0xD6C JUMP JUMPDEST SWAP2 PUSH2 0xE40 DUP2 DUP5 PUSH2 0xE3A PUSH1 0x1 SWAP5 DUP9 PUSH2 0x1D78 JUMP JUMPDEST MSTORE PUSH2 0x1D52 JUMP JUMPDEST SWAP3 SWAP1 POP PUSH2 0xE20 JUMP JUMPDEST POP DUP1 PUSH0 MSTORE PUSH1 0x3 PUSH1 0x20 MSTORE PUSH1 0xFF PUSH1 0x8 PUSH1 0x40 PUSH0 KECCAK256 ADD SLOAD PUSH1 0x8 SHR AND ISZERO PUSH2 0xE1B JUMP JUMPDEST PUSH1 0x40 MLOAD PUSH3 0x461BCD PUSH1 0xE5 SHL DUP2 MSTORE PUSH1 0x20 PUSH1 0x4 DUP3 ADD MSTORE PUSH1 0xE PUSH1 0x24 DUP3 ADD MSTORE PUSH14 0x139BC819D85B595CC8195E1A5CDD PUSH1 0x92 SHL PUSH1 0x44 DUP3 ADD MSTORE PUSH1 0x64 SWAP1 REVERT JUMPDEST PUSH1 0xA0 CALLDATASIZE PUSH1 0x3 NOT ADD SLT PUSH2 0x1E0 JUMPI PUSH1 0x4 CALLDATALOAD PUSH8 0xFFFFFFFFFFFFFFFF DUP2 GT PUSH2 0x1E0 JUMPI PUSH2 0xEC7 SWAP1 CALLDATASIZE SWAP1 PUSH1 0x4 ADD PUSH2 0x1C37 JUMP JUMPDEST PUSH1 0x24 CALLDATALOAD PUSH8 0xFFFFFFFFFFFFFFFF DUP2 GT PUSH2 0x1E0 JUMPI PUSH2 0xEE7 SWAP1 CALLDATASIZE SWAP1 PUSH1 0x4 ADD PUSH2 0x1C37 JUMP JUMPDEST PUSH1 0x44 CALLDATALOAD PUSH8 0xFFFFFFFFFFFFFFFF DUP2 GT PUSH2 0x1E0 JUMPI PUSH2 0xF07 SWAP1 CALLDATASIZE SWAP1 PUSH1 0x4 ADD PUSH2 0x1C37 JUMP JUMPDEST SWAP2 PUSH1 0x64 CALLDATALOAD SWAP3 PUSH1 0x84 CALLDATALOAD SWAP1 CALLER PUSH0 MSTORE PUSH1 0x6 PUSH1 0x20 MSTORE PUSH1 0xFF PUSH1 0x40 PUSH0 KECCAK256 SLOAD AND DUP1 ISZERO PUSH2 0x13B5 JUMPI JUMPDEST PUSH2 0xF30 SWAP1 PUSH2 0x1CCF JUMP JUMPDEST DUP5 ISZERO PUSH2 0x1371 JUMPI DUP2 CALLVALUE LT PUSH2 0x1322 JUMPI PUSH1 0x2 SLOAD SWAP4 PUSH2 0xF4A DUP6 PUSH2 0x1D52 JUMP JUMPDEST PUSH1 0x2 SSTORE DUP5 PUSH0 MSTORE PUSH1 0x3 PUSH1 0x20 MSTORE PUSH1 0x40 PUSH0 KECCAK256 SWAP4 DUP6 DUP6 SSTORE PUSH1 0x1 DUP6 ADD SWAP1 DUP1 MLOAD SWAP1 PUSH8 0xFFFFFFFFFFFFFFFF DUP3 GT PUSH2 0x37B JUMPI DUP2 SWAP1 PUSH2 0xF80 DUP5 SLOAD PUSH2 0x1A9B JUMP JUMPDEST PUSH1 0x1F DUP2 GT PUSH2 0x12D2 JUMPI JUMPDEST POP PUSH1 0x20 SWAP1 PUSH1 0x1F DUP4 GT PUSH1 0x1 EQ PUSH2 0x126F JUMPI PUSH0 SWAP3 PUSH2 0x1264 JUMPI JUMPDEST POP POP DUP2 PUSH1 0x1 SHL SWAP2 PUSH0 NOT SWAP1 PUSH1 0x3 SHL SHR NOT AND OR SWAP1 SSTORE JUMPDEST DUP1 MLOAD PUSH1 0x2 DUP6 ADD SWAP2 PUSH8 0xFFFFFFFFFFFFFFFF DUP3 GT PUSH2 0x37B JUMPI DUP2 SWAP1 PUSH2 0xFD5 DUP5 SLOAD PUSH2 0x1A9B JUMP JUMPDEST PUSH1 0x1F DUP2 GT PUSH2 0x1214 JUMPI JUMPDEST POP PUSH1 0x20 SWAP1 PUSH1 0x1F DUP4 GT PUSH1 0x1 EQ PUSH2 0x11B1 JUMPI PUSH0 SWAP3 PUSH2 0x11A6 JUMPI JUMPDEST POP POP DUP2 PUSH1 0x1 SHL SWAP2 PUSH0 NOT SWAP1 PUSH1 0x3 SHL SHR NOT AND OR SWAP1 SSTORE JUMPDEST DUP1 MLOAD PUSH1 0x3 DUP5 ADD SWAP2 PUSH8 0xFFFFFFFFFFFFFFFF DUP3 GT PUSH2 0x37B JUMPI PUSH2 0x1028 DUP4 SLOAD PUSH2 0x1A9B JUMP JUMPDEST PUSH1 0x1F DUP2 GT PUSH2 0x1161 JUMPI JUMPDEST POP SWAP2 PUSH1 0x20 SWAP7 SWAP4 SWAP2 DUP7 SWAP6 SWAP4 DUP9 SWAP1 PUSH1 0x1F DUP4 GT PUSH1 0x1 EQ PUSH2 0x10D4 JUMPI SWAP3 DUP3 DUP11 SWAP7 SWAP4 PUSH32 0xA26856D25E558C79E1632806BC6824075CF59885A115825F2AAB62385A3F7142 SWAP9 SWAP7 SWAP4 PUSH1 0x8 SWAP7 PUSH0 SWAP3 PUSH2 0x10C9 JUMPI JUMPDEST POP POP DUP2 PUSH1 0x1 SHL SWAP2 PUSH0 NOT SWAP1 PUSH1 0x3 SHL SHR NOT AND OR SWAP1 SSTORE JUMPDEST PUSH1 0x4 DUP3 ADD DUP5 SWAP1 SSTORE PUSH1 0x6 DUP3 ADD DUP2 SWAP1 SSTORE PUSH1 0x5 DUP3 ADD SSTORE TIMESTAMP PUSH1 0x7 DUP3 ADD SSTORE ADD DUP1 SLOAD PUSH1 0x1 PUSH1 0x1 PUSH1 0xB0 SHL SUB NOT AND PUSH1 0x1 OR SWAP1 SSTORE PUSH1 0x40 MLOAD SWAP1 DUP2 MSTORE LOG2 PUSH1 0x40 MLOAD SWAP1 DUP2 MSTORE RETURN JUMPDEST ADD MLOAD SWAP1 POP DUP13 DUP1 PUSH2 0x107B JUMP JUMPDEST SWAP1 PUSH1 0x1F NOT DUP4 AND SWAP2 DUP5 PUSH0 MSTORE DUP2 PUSH0 KECCAK256 SWAP3 PUSH0 JUMPDEST DUP2 DUP2 LT PUSH2 0x1147 JUMPI POP SWAP4 PUSH32 0xA26856D25E558C79E1632806BC6824075CF59885A115825F2AAB62385A3F7142 SWAP9 SWAP7 SWAP4 PUSH1 0x8 SWAP7 SWAP4 PUSH1 0x1 SWAP4 DUP4 DUP16 SWAP12 SWAP9 LT PUSH2 0x112F JUMPI JUMPDEST POP POP POP DUP2 SHL ADD SWAP1 SSTORE PUSH2 0x108F JUMP JUMPDEST ADD MLOAD PUSH0 NOT PUSH1 0xF8 DUP5 PUSH1 0x3 SHL AND SHR NOT AND SWAP1 SSTORE DUP13 DUP1 DUP1 PUSH2 0x1122 JUMP JUMPDEST DUP3 DUP5 ADD MLOAD DUP6 SSTORE DUP12 SWAP11 POP PUSH1 0x1 SWAP1 SWAP5 ADD SWAP4 SWAP3 DUP13 ADD SWAP3 DUP13 ADD PUSH2 0x10E4 JUMP JUMPDEST DUP4 PUSH0 MSTORE PUSH1 0x20 PUSH0 KECCAK256 PUSH1 0x1F DUP5 ADD PUSH1 0x5 SHR DUP2 ADD SWAP2 PUSH1 0x20 DUP6 LT PUSH2 0x119C JUMPI JUMPDEST PUSH1 0x1F ADD PUSH1 0x5 SHR ADD SWAP1 JUMPDEST DUP2 DUP2 LT PUSH2 0x1191 JUMPI POP PUSH2 0x1031 JUMP JUMPDEST PUSH0 DUP2 SSTORE PUSH1 0x1 ADD PUSH2 0x1184 JUMP JUMPDEST SWAP1 SWAP2 POP DUP2 SWAP1 PUSH2 0x117B JUMP JUMPDEST ADD MLOAD SWAP1 POP DUP9 DUP1 PUSH2 0xFF4 JUMP JUMPDEST PUSH0 DUP6 DUP2 MSTORE DUP3 DUP2 KECCAK256 SWAP4 POP PUSH1 0x1F NOT DUP6 AND SWAP1 JUMPDEST DUP2 DUP2 LT PUSH2 0x11FC JUMPI POP SWAP1 DUP5 PUSH1 0x1 SWAP6 SWAP5 SWAP4 SWAP3 LT PUSH2 0x11E4 JUMPI JUMPDEST POP POP POP DUP2 SHL ADD SWAP1 SSTORE PUSH2 0x1008 JUMP JUMPDEST ADD MLOAD PUSH0 NOT PUSH1 0xF8 DUP5 PUSH1 0x3 SHL AND SHR NOT AND SWAP1 SSTORE DUP9 DUP1 DUP1 PUSH2 0x11D7 JUMP JUMPDEST SWAP3 SWAP4 PUSH1 0x20 PUSH1 0x1 DUP2 SWAP3 DUP8 DUP7 ADD MLOAD DUP2 SSTORE ADD SWAP6 ADD SWAP4 ADD PUSH2 0x11C1 JUMP JUMPDEST SWAP1 SWAP2 POP DUP4 PUSH0 MSTORE PUSH1 0x20 PUSH0 KECCAK256 PUSH1 0x1F DUP5 ADD PUSH1 0x5 SHR DUP2 ADD SWAP2 PUSH1 0x20 DUP6 LT PUSH2 0x125A JUMPI JUMPDEST SWAP1 PUSH1 0x1F DUP6 SWAP5 SWAP4 SWAP3 ADD PUSH1 0x5 SHR ADD SWAP1 JUMPDEST DUP2 DUP2 LT PUSH2 0x124C JUMPI POP PUSH2 0xFDE JUMP JUMPDEST PUSH0 DUP2 SSTORE DUP5 SWAP4 POP PUSH1 0x1 ADD PUSH2 0x123F JUMP JUMPDEST SWAP1 SWAP2 POP DUP2 SWAP1 PUSH2 0x1231 JUMP JUMPDEST ADD MLOAD SWAP1 POP DUP10 DUP1 PUSH2 0xF9F JUMP JUMPDEST PUSH0 DUP6 DUP2 MSTORE DUP3 DUP2 KECCAK256 SWAP4 POP PUSH1 0x1F NOT DUP6 AND SWAP1 JUMPDEST DUP2 DUP2 LT PUSH2 0x12BA JUMPI POP SWAP1 DUP5 PUSH1 0x1 SWAP6 SWAP5 SWAP4 SWAP3 LT PUSH2 0x12A2 JUMPI JUMPDEST POP POP POP DUP2 SHL ADD SWAP1 SSTORE PUSH2 0xFB3 JUMP JUMPDEST ADD MLOAD PUSH0 NOT PUSH1 0xF8 DUP5 PUSH1 0x3 SHL AND SHR NOT AND SWAP1 SSTORE DUP10 DUP1 DUP1 PUSH2 0x1295 JUMP JUMPDEST SWAP3 SWAP4 PUSH1 0x20 PUSH1 0x1 DUP2 SWAP3 DUP8 DUP7 ADD MLOAD DUP2 SSTORE ADD SWAP6 ADD SWAP4 ADD PUSH2 0x127F JUMP JUMPDEST SWAP1 SWAP2 POP DUP4 PUSH0 MSTORE PUSH1 0x20 PUSH0 KECCAK256 PUSH1 0x1F DUP5 ADD PUSH1 0x5 SHR DUP2 ADD SWAP2 PUSH1 0x20 DUP6 LT PUSH2 0x1318 JUMPI JUMPDEST SWAP1 PUSH1 0x1F DUP6 SWAP5 SWAP4 SWAP3 ADD PUSH1 0x5 SHR ADD SWAP1 JUMPDEST DUP2 DUP2 LT PUSH2 0x130A JUMPI POP PUSH2 0xF89 JUMP JUMPDEST PUSH0 DUP2 SSTORE DUP5 SWAP4 POP PUSH1 0x1 ADD PUSH2 0x12FD JUMP JUMPDEST SWAP1 SWAP2 POP DUP2 SWAP1 PUSH2 0x12EF JUMP JUMPDEST PUSH1 0x40 MLOAD PUSH3 0x461BCD PUSH1 0xE5 SHL DUP2 MSTORE PUSH1 0x20 PUSH1 0x4 DUP3 ADD MSTORE PUSH1 0x21 PUSH1 0x24 DUP3 ADD MSTORE PUSH32 0x496E73756666696369656E742066756E647320666F72207072697A6520706F6F PUSH1 0x44 DUP3 ADD MSTORE PUSH1 0x1B PUSH1 0xFA SHL PUSH1 0x64 DUP3 ADD MSTORE PUSH1 0x84 SWAP1 REVERT JUMPDEST PUSH1 0x64 PUSH1 0x40 MLOAD PUSH3 0x461BCD PUSH1 0xE5 SHL DUP2 MSTORE PUSH1 0x20 PUSH1 0x4 DUP3 ADD MSTORE PUSH1 0x20 PUSH1 0x24 DUP3 ADD MSTORE PUSH32 0x456E74727920666565206D7573742062652067726561746572207468616E2030 PUSH1 0x44 DUP3 ADD MSTORE REVERT JUMPDEST POP PUSH1 0x1 SLOAD PUSH1 0x1 PUSH1 0x1 PUSH1 0xA0 SHL SUB AND CALLER EQ PUSH2 0xF27 JUMP JUMPDEST CALLVALUE PUSH2 0x1E0 JUMPI PUSH0 CALLDATASIZE PUSH1 0x3 NOT ADD SLT PUSH2 0x1E0 JUMPI PUSH1 0x20 PUSH1 0x40 MLOAD PUSH1 0x5 DUP2 MSTORE RETURN JUMPDEST CALLVALUE PUSH2 0x1E0 JUMPI PUSH1 0x20 CALLDATASIZE PUSH1 0x3 NOT ADD SLT PUSH2 0x1E0 JUMPI PUSH1 0x4 CALLDATALOAD DUP1 ISZERO ISZERO DUP1 PUSH2 0x1482 JUMPI JUMPDEST PUSH2 0x140A SWAP1 PUSH2 0x1C8D JUMP JUMPDEST PUSH0 MSTORE PUSH1 0x3 PUSH1 0x20 MSTORE PUSH1 0x40 PUSH0 KECCAK256 DUP1 SLOAD SWAP1 PUSH2 0x1D1 PUSH1 0x4 DUP3 ADD SLOAD SWAP3 PUSH1 0x5 DUP4 ADD SLOAD SWAP1 PUSH1 0x6 DUP5 ADD SLOAD SWAP1 PUSH1 0x7 DUP6 ADD SLOAD PUSH1 0x8 DUP7 ADD SLOAD SWAP3 PUSH2 0x1444 PUSH1 0x1 DUP9 ADD PUSH2 0x1AF5 JUMP JUMPDEST SWAP5 PUSH2 0x145D PUSH1 0x3 PUSH2 0x1456 PUSH1 0x2 DUP12 ADD PUSH2 0x1AF5 JUMP JUMPDEST SWAP10 ADD PUSH2 0x1AF5 JUMP JUMPDEST SWAP9 PUSH1 0x40 MLOAD SWAP10 DUP11 SWAP10 PUSH1 0x1 DUP1 PUSH1 0xA0 SHL SUB DUP9 PUSH1 0x10 SHR AND SWAP9 PUSH1 0xFF DUP1 DUP11 PUSH1 0x8 SHR AND SWAP10 AND SWAP8 DUP13 PUSH2 0x1BB9 JUMP JUMPDEST POP PUSH1 0x2 SLOAD DUP2 LT PUSH2 0x1401 JUMP JUMPDEST CALLVALUE PUSH2 0x1E0 JUMPI PUSH1 0x20 CALLDATASIZE PUSH1 0x3 NOT ADD SLT PUSH2 0x1E0 JUMPI PUSH1 0x1 PUSH1 0x1 PUSH1 0xA0 SHL SUB PUSH2 0x14AE PUSH2 0x1A2E JUMP JUMPDEST AND PUSH0 MSTORE PUSH1 0x6 PUSH1 0x20 MSTORE PUSH1 0x20 PUSH1 0xFF PUSH1 0x40 PUSH0 KECCAK256 SLOAD AND PUSH1 0x40 MLOAD SWAP1 ISZERO ISZERO DUP2 MSTORE RETURN JUMPDEST CALLVALUE PUSH2 0x1E0 JUMPI PUSH1 0x20 CALLDATASIZE PUSH1 0x3 NOT ADD SLT PUSH2 0x1E0 JUMPI PUSH1 0x20 PUSH2 0x14E5 PUSH2 0x1A2E JUMP JUMPDEST PUSH1 0x1 SLOAD PUSH1 0x40 MLOAD PUSH1 0x1 PUSH1 0x1 PUSH1 0xA0 SHL SUB SWAP3 DUP4 AND SWAP2 SWAP1 SWAP3 AND EQ DUP2 MSTORE RETURN JUMPDEST CALLVALUE PUSH2 0x1E0 JUMPI PUSH1 0x20 CALLDATASIZE PUSH1 0x3 NOT ADD SLT PUSH2 0x1E0 JUMPI PUSH1 0x20 PUSH1 0x1 PUSH1 0x1 PUSH1 0xA0 SHL SUB PUSH2 0x1522 PUSH2 0x1A2E JUMP JUMPDEST AND DUP1 PUSH0 MSTORE PUSH1 0x6 DUP3 MSTORE PUSH1 0xFF PUSH1 0x40 PUSH0 KECCAK256 SLOAD AND SWAP1 DUP2 ISZERO PUSH2 0x1545 JUMPI JUMPDEST POP PUSH1 0x40 MLOAD SWAP1 ISZERO ISZERO DUP2 MSTORE RETURN JUMPDEST PUSH1 0x1 SLOAD PUSH1 0x1 PUSH1 0x1 PUSH1 0xA0 SHL SUB AND EQ SWAP1 POP DUP3 PUSH2 0x153A JUMP JUMPDEST CALLVALUE PUSH2 0x1E0 JUMPI PUSH1 0x20 CALLDATASIZE PUSH1 0x3 NOT ADD SLT PUSH2 0x1E0 JUMPI PUSH1 0x4 CALLDATALOAD CALLER PUSH0 MSTORE PUSH1 0x6 PUSH1 0x20 MSTORE PUSH1 0xFF PUSH1 0x40 PUSH0 KECCAK256 SLOAD AND DUP1 ISZERO PUSH2 0x162A JUMPI JUMPDEST PUSH2 0x158E SWAP1 PUSH2 0x1CCF JUMP JUMPDEST PUSH2 0x1596 PUSH2 0x1E02 JUMP JUMPDEST DUP1 PUSH0 MSTORE PUSH1 0x3 PUSH1 0x20 MSTORE PUSH1 0x40 PUSH0 KECCAK256 PUSH0 PUSH1 0x8 DUP3 ADD PUSH1 0x5 DUP2 SLOAD SWAP4 PUSH2 0x15B8 PUSH1 0xFF DUP7 AND PUSH2 0x1D11 JUMP JUMPDEST ADD SWAP1 PUSH2 0x100 DUP3 SLOAD SWAP5 PUSH2 0xFFFF NOT AND OR SWAP1 SSTORE SSTORE DUP1 ISZERO DUP1 ISZERO PUSH2 0x1604 JUMPI JUMPDEST POP PUSH1 0x20 PUSH32 0xA72860103F540F00E7D5C44FF9EA4CDB6CF0361B63E542D7A657C4C1154100DE SWAP2 PUSH1 0x40 MLOAD SWAP1 DUP2 MSTORE LOG2 PUSH1 0x1 PUSH0 SSTORE STOP JUMPDEST DUP2 SWAP1 PUSH0 SWAP1 PUSH2 0x1621 JUMPI JUMPDEST PUSH0 DUP1 DUP1 SWAP4 DUP2 SWAP4 CALLER SWAP1 CALL ISZERO PUSH2 0x427 JUMPI DUP3 PUSH2 0x15D2 JUMP JUMPDEST POP PUSH2 0x8FC PUSH2 0x160D JUMP JUMPDEST POP PUSH1 0x1 SLOAD PUSH1 0x1 PUSH1 0x1 PUSH1 0xA0 SHL SUB AND CALLER EQ PUSH2 0x1585 JUMP JUMPDEST CALLVALUE PUSH2 0x1E0 JUMPI PUSH1 0x20 CALLDATASIZE PUSH1 0x3 NOT ADD SLT PUSH2 0x1E0 JUMPI PUSH2 0x1657 PUSH2 0x1A2E JUMP JUMPDEST PUSH2 0x165F PUSH2 0x1DDB JUMP JUMPDEST PUSH1 0x1 PUSH1 0x1 PUSH1 0xA0 SHL SUB AND PUSH0 DUP2 DUP2 MSTORE PUSH1 0x6 PUSH1 0x20 MSTORE PUSH1 0x40 SWAP1 KECCAK256 SLOAD PUSH1 0xFF AND ISZERO PUSH2 0x17B7 JUMPI PUSH1 0x1 SLOAD PUSH1 0x1 PUSH1 0x1 PUSH1 0xA0 SHL SUB AND DUP2 EQ PUSH2 0x177C JUMPI PUSH0 DUP2 DUP2 MSTORE PUSH1 0x6 PUSH1 0x20 MSTORE PUSH1 0x40 DUP2 KECCAK256 DUP1 SLOAD PUSH1 0xFF NOT AND SWAP1 SSTORE JUMPDEST PUSH1 0x7 SLOAD SWAP1 DUP2 DUP2 LT ISZERO PUSH2 0x1775 JUMPI DUP3 PUSH2 0x16BC DUP3 PUSH2 0x1A5A JUMP JUMPDEST SWAP1 SLOAD PUSH1 0x3 SWAP2 SWAP1 SWAP2 SHL SHR PUSH1 0x1 PUSH1 0x1 PUSH1 0xA0 SHL SUB AND EQ PUSH2 0x16DD JUMPI PUSH1 0x1 SWAP2 POP ADD PUSH2 0x16A6 JUMP JUMPDEST PUSH0 NOT DUP3 ADD SWAP2 DUP3 GT PUSH2 0x775 JUMPI PUSH2 0xC3E PUSH2 0x16F7 PUSH2 0x170F SWAP4 PUSH2 0x1A5A JUMP JUMPDEST SWAP1 SLOAD PUSH1 0x3 SWAP2 SWAP1 SWAP2 SHL SHR PUSH1 0x1 PUSH1 0x1 PUSH1 0xA0 SHL SUB AND SWAP2 PUSH2 0x1A5A JUMP JUMPDEST PUSH1 0x7 SLOAD DUP1 ISZERO PUSH2 0x1761 JUMPI PUSH0 NOT ADD PUSH2 0x1724 DUP2 PUSH2 0x1A5A JUMP JUMPDEST DUP2 SLOAD SWAP1 PUSH1 0x1 DUP1 PUSH1 0xA0 SHL SUB SWAP1 PUSH1 0x3 SHL SHL NOT AND SWAP1 SSTORE PUSH1 0x7 SSTORE JUMPDEST PUSH32 0xA3B62BC36326052D97EA62D63C3D60308ED4C3EA8AC079DD8499F1E9C4F80C0F PUSH0 DUP1 LOG2 STOP JUMPDEST PUSH4 0x4E487B71 PUSH1 0xE0 SHL PUSH0 MSTORE PUSH1 0x31 PUSH1 0x4 MSTORE PUSH1 0x24 PUSH0 REVERT JUMPDEST POP POP PUSH2 0x173B JUMP JUMPDEST PUSH1 0x40 MLOAD PUSH3 0x461BCD PUSH1 0xE5 SHL DUP2 MSTORE PUSH1 0x20 PUSH1 0x4 DUP3 ADD MSTORE PUSH1 0x13 PUSH1 0x24 DUP3 ADD MSTORE PUSH19 0x21B0B73737BA103932B6B7BB329037BBB732B9 PUSH1 0x69 SHL PUSH1 0x44 DUP3 ADD MSTORE PUSH1 0x64 SWAP1 REVERT JUMPDEST PUSH1 0x40 MLOAD PUSH3 0x461BCD PUSH1 0xE5 SHL DUP2 MSTORE PUSH1 0x20 PUSH1 0x4 DUP3 ADD MSTORE PUSH1 0xC PUSH1 0x24 DUP3 ADD MSTORE PUSH12 0x2737BA1030B71030B236B4B7 PUSH1 0xA1 SHL PUSH1 0x44 DUP3 ADD MSTORE PUSH1 0x64 SWAP1 REVERT JUMPDEST CALLVALUE PUSH2 0x1E0 JUMPI PUSH1 0x20 CALLDATASIZE PUSH1 0x3 NOT ADD SLT PUSH2 0x1E0 JUMPI PUSH1 0x1 PUSH1 0x1 PUSH1 0xA0 SHL SUB PUSH2 0x180C PUSH2 0x1A2E JUMP JUMPDEST AND PUSH0 MSTORE PUSH1 0x5 PUSH1 0x20 MSTORE PUSH1 0x40 PUSH0 KECCAK256 PUSH1 0x40 MLOAD DUP1 PUSH1 0x20 DUP4 SLOAD SWAP2 DUP3 DUP2 MSTORE ADD SWAP1 DUP2 SWAP4 PUSH0 MSTORE PUSH1 0x20 PUSH0 KECCAK256 SWAP1 PUSH0 JUMPDEST DUP2 DUP2 LT PUSH2 0x1889 JUMPI POP POP POP DUP2 PUSH2 0x1847 SWAP2 SUB DUP3 PUSH2 0x1AD3 JUMP JUMPDEST PUSH1 0x40 MLOAD SWAP2 DUP3 SWAP2 PUSH1 0x20 DUP4 ADD SWAP1 PUSH1 0x20 DUP5 MSTORE MLOAD DUP1 SWAP2 MSTORE PUSH1 0x40 DUP4 ADD SWAP2 SWAP1 PUSH0 JUMPDEST DUP2 DUP2 LT PUSH2 0x1870 JUMPI POP POP POP SUB SWAP1 RETURN JUMPDEST DUP3 MLOAD DUP5 MSTORE DUP6 SWAP5 POP PUSH1 0x20 SWAP4 DUP5 ADD SWAP4 SWAP1 SWAP3 ADD SWAP2 PUSH1 0x1 ADD PUSH2 0x1862 JUMP JUMPDEST DUP3 SLOAD DUP5 MSTORE PUSH1 0x20 SWAP1 SWAP4 ADD SWAP3 PUSH1 0x1 SWAP3 DUP4 ADD SWAP3 ADD PUSH2 0x1831 JUMP JUMPDEST CALLVALUE PUSH2 0x1E0 JUMPI PUSH1 0x20 CALLDATASIZE PUSH1 0x3 NOT ADD SLT PUSH2 0x1E0 JUMPI PUSH1 0x4 CALLDATALOAD PUSH0 MSTORE PUSH1 0x3 PUSH1 0x20 MSTORE PUSH1 0x40 PUSH0 KECCAK256 DUP1 SLOAD SWAP1 PUSH2 0x1D1 PUSH2 0x18D0 PUSH1 0x1 DUP4 ADD PUSH2 0x1AF5 JUMP JUMPDEST PUSH2 0x18DC PUSH1 0x2 DUP5 ADD PUSH2 0x1AF5 JUMP JUMPDEST SWAP3 PUSH2 0x18E9 PUSH1 0x3 DUP3 ADD PUSH2 0x1AF5 JUMP JUMPDEST SWAP5 PUSH1 0x4 DUP3 ADD SLOAD SWAP2 PUSH1 0x5 DUP2 ADD SLOAD PUSH1 0x6 DUP3 ADD SLOAD SWAP1 PUSH1 0x8 PUSH1 0x7 DUP5 ADD SLOAD SWAP4 ADD SLOAD SWAP5 PUSH1 0x40 MLOAD SWAP10 DUP11 SWAP10 PUSH1 0x1 DUP1 PUSH1 0xA0 SHL SUB DUP9 PUSH1 0x10 SHR AND SWAP9 PUSH1 0xFF DUP1 DUP11 PUSH1 0x8 SHR AND SWAP10 AND SWAP8 DUP13 PUSH2 0x1BB9 JUMP JUMPDEST CALLVALUE PUSH2 0x1E0 JUMPI PUSH1 0x20 CALLDATASIZE PUSH1 0x3 NOT ADD SLT PUSH2 0x1E0 JUMPI PUSH1 0x4 CALLDATALOAD PUSH1 0x7 SLOAD DUP2 LT ISZERO PUSH2 0x1E0 JUMPI PUSH2 0x1953 PUSH1 0x20 SWAP2 PUSH2 0x1A5A JUMP JUMPDEST SWAP1 SLOAD PUSH1 0x40 MLOAD PUSH1 0x3 SWAP3 SWAP1 SWAP3 SHL SHR PUSH1 0x1 PUSH1 0x1 PUSH1 0xA0 SHL SUB AND DUP2 MSTORE RETURN JUMPDEST CALLVALUE PUSH2 0x1E0 JUMPI PUSH1 0x40 CALLDATASIZE PUSH1 0x3 NOT ADD SLT PUSH2 0x1E0 JUMPI PUSH1 0x4 CALLDATALOAD PUSH2 0x1988 PUSH2 0x1A44 JUMP JUMPDEST SWAP1 DUP1 ISZERO ISZERO DUP1 PUSH2 0x19CB JUMPI JUMPDEST PUSH2 0x199B SWAP1 PUSH2 0x1C8D JUMP JUMPDEST PUSH0 MSTORE PUSH1 0x3 PUSH1 0x20 MSTORE PUSH1 0x9 PUSH1 0x40 PUSH0 KECCAK256 ADD SWAP1 PUSH1 0x1 DUP1 PUSH1 0xA0 SHL SUB AND PUSH0 MSTORE PUSH1 0x20 MSTORE PUSH1 0x20 PUSH1 0xFF PUSH1 0x40 PUSH0 KECCAK256 SLOAD AND PUSH1 0x40 MLOAD SWAP1 ISZERO ISZERO DUP2 MSTORE RETURN JUMPDEST POP PUSH1 0x2 SLOAD DUP2 LT PUSH2 0x1992 JUMP JUMPDEST CALLVALUE PUSH2 0x1E0 JUMPI PUSH1 0x40 CALLDATASIZE PUSH1 0x3 NOT ADD SLT PUSH2 0x1E0 JUMPI PUSH2 0x19EF PUSH2 0x1A2E JUMP JUMPDEST PUSH1 0x1 PUSH1 0x1 PUSH1 0xA0 SHL SUB AND PUSH0 SWAP1 DUP2 MSTORE PUSH1 0x5 PUSH1 0x20 MSTORE PUSH1 0x40 SWAP1 KECCAK256 DUP1 SLOAD PUSH1 0x24 CALLDATALOAD SWAP2 SWAP1 DUP3 LT ISZERO PUSH2 0x1E0 JUMPI PUSH1 0x20 SWAP2 PUSH2 0x1A1F SWAP2 PUSH2 0x1A86 JUMP JUMPDEST SWAP1 SLOAD SWAP1 PUSH1 0x3 SHL SHR PUSH1 0x40 MLOAD SWAP1 DUP2 MSTORE RETURN JUMPDEST PUSH1 0x4 CALLDATALOAD SWAP1 PUSH1 0x1 PUSH1 0x1 PUSH1 0xA0 SHL SUB DUP3 AND DUP3 SUB PUSH2 0x1E0 JUMPI JUMP JUMPDEST PUSH1 0x24 CALLDATALOAD SWAP1 PUSH1 0x1 PUSH1 0x1 PUSH1 0xA0 SHL SUB DUP3 AND DUP3 SUB PUSH2 0x1E0 JUMPI JUMP JUMPDEST PUSH1 0x7 SLOAD DUP2 LT ISZERO PUSH2 0x1A72 JUMPI PUSH1 0x7 PUSH0 MSTORE PUSH1 0x20 PUSH0 KECCAK256 ADD SWAP1 PUSH0 SWAP1 JUMP JUMPDEST PUSH4 0x4E487B71 PUSH1 0xE0 SHL PUSH0 MSTORE PUSH1 0x32 PUSH1 0x4 MSTORE PUSH1 0x24 PUSH0 REVERT JUMPDEST DUP1 SLOAD DUP3 LT ISZERO PUSH2 0x1A72 JUMPI PUSH0 MSTORE PUSH1 0x20 PUSH0 KECCAK256 ADD SWAP1 PUSH0 SWAP1 JUMP JUMPDEST SWAP1 PUSH1 0x1 DUP3 DUP2 SHR SWAP3 AND DUP1 ISZERO PUSH2 0x1AC9 JUMPI JUMPDEST PUSH1 0x20 DUP4 LT EQ PUSH2 0x1AB5 JUMPI JUMP JUMPDEST PUSH4 0x4E487B71 PUSH1 0xE0 SHL PUSH0 MSTORE PUSH1 0x22 PUSH1 0x4 MSTORE PUSH1 0x24 PUSH0 REVERT JUMPDEST SWAP2 PUSH1 0x7F AND SWAP2 PUSH2 0x1AAA JUMP JUMPDEST SWAP1 PUSH1 0x1F DUP1 NOT SWAP2 ADD AND DUP2 ADD SWAP1 DUP2 LT PUSH8 0xFFFFFFFFFFFFFFFF DUP3 GT OR PUSH2 0x37B JUMPI PUSH1 0x40 MSTORE JUMP JUMPDEST SWAP1 PUSH1 0x40 MLOAD SWAP2 DUP3 PUSH0 DUP3 SLOAD SWAP3 PUSH2 0x1B08 DUP5 PUSH2 0x1A9B JUMP JUMPDEST DUP1 DUP5 MSTORE SWAP4 PUSH1 0x1 DUP2 AND SWAP1 DUP2 ISZERO PUSH2 0x1B73 JUMPI POP PUSH1 0x1 EQ PUSH2 0x1B2F JUMPI JUMPDEST POP PUSH2 0x1B2D SWAP3 POP SUB DUP4 PUSH2 0x1AD3 JUMP JUMPDEST JUMP JUMPDEST SWAP1 POP PUSH0 SWAP3 SWAP2 SWAP3 MSTORE PUSH1 0x20 PUSH0 KECCAK256 SWAP1 PUSH0 SWAP2 JUMPDEST DUP2 DUP4 LT PUSH2 0x1B57 JUMPI POP POP SWAP1 PUSH1 0x20 PUSH2 0x1B2D SWAP3 DUP3 ADD ADD PUSH0 PUSH2 0x1B20 JUMP JUMPDEST PUSH1 0x20 SWAP2 SWAP4 POP DUP1 PUSH1 0x1 SWAP2 SLOAD DUP4 DUP6 DUP10 ADD ADD MSTORE ADD SWAP2 ADD SWAP1 SWAP2 DUP5 SWAP3 PUSH2 0x1B3E JUMP JUMPDEST SWAP1 POP PUSH1 0x20 SWAP3 POP PUSH2 0x1B2D SWAP5 SWAP2 POP PUSH1 0xFF NOT AND DUP3 DUP5 ADD MSTORE ISZERO ISZERO PUSH1 0x5 SHL DUP3 ADD ADD PUSH0 PUSH2 0x1B20 JUMP JUMPDEST DUP1 MLOAD DUP1 DUP4 MSTORE PUSH1 0x20 SWAP3 SWAP2 DUP2 SWAP1 DUP5 ADD DUP5 DUP5 ADD MCOPY PUSH0 DUP3 DUP3 ADD DUP5 ADD MSTORE PUSH1 0x1F ADD PUSH1 0x1F NOT AND ADD ADD SWAP1 JUMP JUMPDEST SWAP10 SWAP7 SWAP4 SWAP1 PUSH2 0x140 SWAP10 SWAP7 SWAP4 PUSH2 0x1BE6 PUSH2 0x1C02 SWAP5 SWAP8 SWAP15 SWAP14 SWAP11 SWAP8 PUSH2 0x160 DUP15 PUSH2 0x1BF4 SWAP6 DUP2 MSTORE DUP2 PUSH1 0x20 DUP3 ADD MSTORE ADD SWAP1 PUSH2 0x1B95 JUMP JUMPDEST DUP13 DUP2 SUB PUSH1 0x40 DUP15 ADD MSTORE SWAP1 PUSH2 0x1B95 JUMP JUMPDEST SWAP1 DUP11 DUP3 SUB PUSH1 0x60 DUP13 ADD MSTORE PUSH2 0x1B95 JUMP JUMPDEST PUSH1 0x80 DUP10 ADD SWAP11 SWAP1 SWAP11 MSTORE PUSH1 0xA0 DUP9 ADD MSTORE PUSH1 0xC0 DUP8 ADD MSTORE PUSH1 0xE0 DUP7 ADD MSTORE ISZERO ISZERO PUSH2 0x100 DUP6 ADD MSTORE ISZERO ISZERO PUSH2 0x120 DUP5 ADD MSTORE PUSH1 0x1 PUSH1 0x1 PUSH1 0xA0 SHL SUB AND SWAP2 ADD MSTORE JUMP JUMPDEST DUP2 PUSH1 0x1F DUP3 ADD SLT ISZERO PUSH2 0x1E0 JUMPI DUP1 CALLDATALOAD SWAP1 PUSH8 0xFFFFFFFFFFFFFFFF DUP3 GT PUSH2 0x37B JUMPI PUSH1 0x40 MLOAD SWAP3 PUSH2 0x1C6C PUSH1 0x1F DUP5 ADD PUSH1 0x1F NOT AND PUSH1 0x20 ADD DUP6 PUSH2 0x1AD3 JUMP JUMPDEST DUP3 DUP5 MSTORE PUSH1 0x20 DUP4 DUP4 ADD ADD GT PUSH2 0x1E0 JUMPI DUP2 PUSH0 SWAP3 PUSH1 0x20 DUP1 SWAP4 ADD DUP4 DUP7 ADD CALLDATACOPY DUP4 ADD ADD MSTORE SWAP1 JUMP JUMPDEST ISZERO PUSH2 0x1C94 JUMPI JUMP JUMPDEST PUSH1 0x40 MLOAD PUSH3 0x461BCD PUSH1 0xE5 SHL DUP2 MSTORE PUSH1 0x20 PUSH1 0x4 DUP3 ADD MSTORE PUSH1 0x13 PUSH1 0x24 DUP3 ADD MSTORE PUSH19 0x11D85B5948191BD95CC81B9BDD08195E1A5CDD PUSH1 0x6A SHL PUSH1 0x44 DUP3 ADD MSTORE PUSH1 0x64 SWAP1 REVERT JUMPDEST ISZERO PUSH2 0x1CD6 JUMPI JUMP JUMPDEST PUSH1 0x40 MLOAD PUSH3 0x461BCD PUSH1 0xE5 SHL DUP2 MSTORE PUSH1 0x20 PUSH1 0x4 DUP3 ADD MSTORE PUSH1 0x13 PUSH1 0x24 DUP3 ADD MSTORE PUSH19 0x27B7363C9030B236B4B71037B91037BBB732B9 PUSH1 0x69 SHL PUSH1 0x44 DUP3 ADD MSTORE PUSH1 0x64 SWAP1 REVERT JUMPDEST ISZERO PUSH2 0x1D18 JUMPI JUMP JUMPDEST PUSH1 0x40 MLOAD PUSH3 0x461BCD PUSH1 0xE5 SHL DUP2 MSTORE PUSH1 0x20 PUSH1 0x4 DUP3 ADD MSTORE PUSH1 0x12 PUSH1 0x24 DUP3 ADD MSTORE PUSH18 0x47616D65206973206E6F7420616374697665 PUSH1 0x70 SHL PUSH1 0x44 DUP3 ADD MSTORE PUSH1 0x64 SWAP1 REVERT JUMPDEST PUSH0 NOT DUP2 EQ PUSH2 0x775 JUMPI PUSH1 0x1 ADD SWAP1 JUMP JUMPDEST PUSH8 0xFFFFFFFFFFFFFFFF DUP2 GT PUSH2 0x37B JUMPI PUSH1 0x5 SHL PUSH1 0x20 ADD SWAP1 JUMP JUMPDEST DUP1 MLOAD DUP3 LT ISZERO PUSH2 0x1A72 JUMPI PUSH1 0x20 SWAP2 PUSH1 0x5 SHL ADD ADD SWAP1 JUMP JUMPDEST ISZERO PUSH2 0x1D93 JUMPI JUMP JUMPDEST PUSH1 0x40 MLOAD PUSH3 0x461BCD PUSH1 0xE5 SHL DUP2 MSTORE PUSH1 0x20 PUSH1 0x4 DUP3 ADD MSTORE PUSH1 0x13 PUSH1 0x24 DUP3 ADD MSTORE PUSH19 0x496E636F727265637420656E74727920666565 PUSH1 0x68 SHL PUSH1 0x44 DUP3 ADD MSTORE PUSH1 0x64 SWAP1 REVERT JUMPDEST SWAP2 SWAP1 DUP3 ADD DUP1 SWAP3 GT PUSH2 0x775 JUMPI JUMP JUMPDEST PUSH1 0x1 SLOAD PUSH1 0x1 PUSH1 0x1 PUSH1 0xA0 SHL SUB AND CALLER SUB PUSH2 0x1DEF JUMPI JUMP JUMPDEST PUSH4 0x118CDAA7 PUSH1 0xE0 SHL PUSH0 MSTORE CALLER PUSH1 0x4 MSTORE PUSH1 0x24 PUSH0 REVERT JUMPDEST PUSH1 0x2 PUSH0 SLOAD EQ PUSH2 0x1E11 JUMPI PUSH1 0x2 PUSH0 SSTORE JUMP JUMPDEST PUSH4 0x3EE5AEB5 PUSH1 0xE0 SHL PUSH0 MSTORE PUSH1 0x4 PUSH0 REVERT INVALID LOG2 PUSH5 0x6970667358 0x22 SLT KECCAK256 TLOAD 0xFC 0x1F 0xD LOG1 PUSH20 0xB78DE9CFB1184CDCA7E8A7CCA0666B799433102A 0xD9 ISZERO COINBASE BLOBHASH SWAP14 0xB4 PUSH5 0x736F6C6343 STOP ADDMOD SHR STOP CALLER "},"methodIdentifiers":{"PLATFORM_FEE_PERCENT()":"560d52d4","addAdmin(address)":"70480275","adminList(uint256)":"11117fc8","admins(address)":"429b62e5","createGame(string,string,string,uint256,uint256)":"6cc7d8f8","emergencyCloseGame(uint256)":"1b39c1f6","emergencyWithdraw()":"db2e21bc","games(uint256)":"117a5b90","getActiveGamesCount()":"72aeb81f","getAdminCount()":"8b7bf3eb","getAdminList()":"d9f774fc","getContractBalance()":"6f9fb98a","getGameInfo(uint256)":"47e1d550","getPlayerGames(address)":"129daf84","getPlayerGuess(uint256,address)":"f4dcdc8e","getPlayerStats(address)":"4fd66eae","getRandomActiveGame()":"6ce5ba6f","hasPlayerGuessed(uint256,address)":"9a53371e","isAdmin(address)":"24d7806c","isOwner(address)":"2f54bf6e","isPlayerInGame(uint256,address)":"0d3b404f","joinGame(uint256)":"efaa55a0","nextGameId()":"b135bbb0","owner()":"8da5cb5b","playerGames(address,uint256)":"0a5694c2","playerStats(address)":"cdafbbb6","removeAdmin(address)":"1785f53c","renounceOwnership()":"715018a6","submitGuess(uint256,string)":"db249ec8","transferOwnership(address)":"f2fde38b"}}}}}