{
  "_format": "hh3-artifact-1",
  "contractName": "GuessWhatGame",
  "sourceName": "contracts/GuessWhatGame.sol",
  "abi": [
    {
      "inputs": [
        {
          "internalType": "address",
          "name": "initialOwner",
          "type": "address"
        },
        {
          "internalType": "address[]",
          "name": "initialAdmins",
          "type": "address[]"
        }
      ],
      "stateMutability": "nonpayable",
      "type": "constructor"
    },
    {
      "inputs": [
        {
          "internalType": "address",
          "name": "owner",
          "type": "address"
        }
      ],
      "name": "OwnableInvalidOwner",
      "type": "error"
    },
    {
      "inputs": [
        {
          "internalType": "address",
          "name": "account",
          "type": "address"
        }
      ],
      "name": "OwnableUnauthorizedAccount",
      "type": "error"
    },
    {
      "inputs": [],
      "name": "ReentrancyGuardReentrantCall",
      "type": "error"
    },
    {
      "anonymous": false,
      "inputs": [
        {
          "indexed": true,
          "internalType": "address",
          "name": "admin",
          "type": "address"
        }
      ],
      "name": "AdminAdded",
      "type": "event"
    },
    {
      "anonymous": false,
      "inputs": [
        {
          "indexed": true,
          "internalType": "address",
          "name": "admin",
          "type": "address"
        }
      ],
      "name": "AdminRemoved",
      "type": "event"
    },
    {
      "anonymous": false,
      "inputs": [
        {
          "indexed": true,
          "internalType": "uint256",
          "name": "gameId",
          "type": "uint256"
        },
        {
          "indexed": false,
          "internalType": "uint256",
          "name": "entryFee",
          "type": "uint256"
        }
      ],
      "name": "GameCreated",
      "type": "event"
    },
    {
      "anonymous": false,
      "inputs": [
        {
          "indexed": true,
          "internalType": "uint256",
          "name": "gameId",
          "type": "uint256"
        },
        {
          "indexed": false,
          "internalType": "uint256",
          "name": "totalPrize",
          "type": "uint256"
        }
      ],
      "name": "GameExpired",
      "type": "event"
    },
    {
      "anonymous": false,
      "inputs": [
        {
          "indexed": true,
          "internalType": "uint256",
          "name": "gameId",
          "type": "uint256"
        },
        {
          "indexed": true,
          "internalType": "address",
          "name": "winner",
          "type": "address"
        },
        {
          "indexed": false,
          "internalType": "uint256",
          "name": "prize",
          "type": "uint256"
        }
      ],
      "name": "GameWon",
      "type": "event"
    },
    {
      "anonymous": false,
      "inputs": [
        {
          "indexed": true,
          "internalType": "uint256",
          "name": "gameId",
          "type": "uint256"
        },
        {
          "indexed": true,
          "internalType": "address",
          "name": "player",
          "type": "address"
        },
        {
          "indexed": false,
          "internalType": "string",
          "name": "guess",
          "type": "string"
        }
      ],
      "name": "GuessSubmitted",
      "type": "event"
    },
    {
      "anonymous": false,
      "inputs": [
        {
          "indexed": true,
          "internalType": "address",
          "name": "previousOwner",
          "type": "address"
        },
        {
          "indexed": true,
          "internalType": "address",
          "name": "newOwner",
          "type": "address"
        }
      ],
      "name": "OwnershipTransferred",
      "type": "event"
    },
    {
      "anonymous": false,
      "inputs": [
        {
          "indexed": true,
          "internalType": "uint256",
          "name": "gameId",
          "type": "uint256"
        },
        {
          "indexed": true,
          "internalType": "address",
          "name": "player",
          "type": "address"
        },
        {
          "indexed": false,
          "internalType": "uint256",
          "name": "entryFee",
          "type": "uint256"
        }
      ],
      "name": "PlayerJoined",
      "type": "event"
    },
    {
      "anonymous": false,
      "inputs": [
        {
          "indexed": true,
          "internalType": "uint256",
          "name": "gameId",
          "type": "uint256"
        },
        {
          "indexed": true,
          "internalType": "address",
          "name": "winner",
          "type": "address"
        },
        {
          "indexed": false,
          "internalType": "uint256",
          "name": "amount",
          "type": "uint256"
        }
      ],
      "name": "PrizeClaimed",
      "type": "event"
    },
    {
      "inputs": [],
      "name": "PLATFORM_FEE_PERCENT",
      "outputs": [
        {
          "internalType": "uint256",
          "name": "",
          "type": "uint256"
        }
      ],
      "stateMutability": "view",
      "type": "function"
    },
    {
      "inputs": [
        {
          "internalType": "address",
          "name": "_admin",
          "type": "address"
        }
      ],
      "name": "addAdmin",
      "outputs": [],
      "stateMutability": "nonpayable",
      "type": "function"
    },
    {
      "inputs": [
        {
          "internalType": "uint256",
          "name": "",
          "type": "uint256"
        }
      ],
      "name": "adminList",
      "outputs": [
        {
          "internalType": "address",
          "name": "",
          "type": "address"
        }
      ],
      "stateMutability": "view",
      "type": "function"
    },
    {
      "inputs": [
        {
          "internalType": "address",
          "name": "",
          "type": "address"
        }
      ],
      "name": "admins",
      "outputs": [
        {
          "internalType": "bool",
          "name": "",
          "type": "bool"
        }
      ],
      "stateMutability": "view",
      "type": "function"
    },
    {
      "inputs": [
        {
          "internalType": "string",
          "name": "_topWord",
          "type": "string"
        },
        {
          "internalType": "string",
          "name": "_middleWord",
          "type": "string"
        },
        {
          "internalType": "string",
          "name": "_bottomWord",
          "type": "string"
        },
        {
          "internalType": "uint256",
          "name": "_entryFee",
          "type": "uint256"
        },
        {
          "internalType": "uint256",
          "name": "_initialPrizePool",
          "type": "uint256"
        }
      ],
      "name": "createGame",
      "outputs": [
        {
          "internalType": "uint256",
          "name": "",
          "type": "uint256"
        }
      ],
      "stateMutability": "payable",
      "type": "function"
    },
    {
      "inputs": [
        {
          "internalType": "uint256",
          "name": "_gameId",
          "type": "uint256"
        }
      ],
      "name": "emergencyCloseGame",
      "outputs": [],
      "stateMutability": "nonpayable",
      "type": "function"
    },
    {
      "inputs": [],
      "name": "emergencyWithdraw",
      "outputs": [],
      "stateMutability": "nonpayable",
      "type": "function"
    },
    {
      "inputs": [
        {
          "internalType": "uint256",
          "name": "",
          "type": "uint256"
        }
      ],
      "name": "games",
      "outputs": [
        {
          "internalType": "uint256",
          "name": "gameId",
          "type": "uint256"
        },
        {
          "internalType": "string",
          "name": "topWord",
          "type": "string"
        },
        {
          "internalType": "string",
          "name": "middleWord",
          "type": "string"
        },
        {
          "internalType": "string",
          "name": "bottomWord",
          "type": "string"
        },
        {
          "internalType": "uint256",
          "name": "entryFee",
          "type": "uint256"
        },
        {
          "internalType": "uint256",
          "name": "totalPrize",
          "type": "uint256"
        },
        {
          "internalType": "uint256",
          "name": "initialPrizePool",
          "type": "uint256"
        },
        {
          "internalType": "uint256",
          "name": "startTime",
          "type": "uint256"
        },
        {
          "internalType": "bool",
          "name": "isActive",
          "type": "bool"
        },
        {
          "internalType": "bool",
          "name": "isCompleted",
          "type": "bool"
        },
        {
          "internalType": "address",
          "name": "winner",
          "type": "address"
        }
      ],
      "stateMutability": "view",
      "type": "function"
    },
    {
      "inputs": [],
      "name": "getActiveGamesCount",
      "outputs": [
        {
          "internalType": "uint256",
          "name": "",
          "type": "uint256"
        }
      ],
      "stateMutability": "view",
      "type": "function"
    },
    {
      "inputs": [],
      "name": "getAdminCount",
      "outputs": [
        {
          "internalType": "uint256",
          "name": "",
          "type": "uint256"
        }
      ],
      "stateMutability": "view",
      "type": "function"
    },
    {
      "inputs": [],
      "name": "getAdminList",
      "outputs": [
        {
          "internalType": "address[]",
          "name": "",
          "type": "address[]"
        }
      ],
      "stateMutability": "view",
      "type": "function"
    },
    {
      "inputs": [],
      "name": "getContractBalance",
      "outputs": [
        {
          "internalType": "uint256",
          "name": "",
          "type": "uint256"
        }
      ],
      "stateMutability": "view",
      "type": "function"
    },
    {
      "inputs": [
        {
          "internalType": "uint256",
          "name": "_gameId",
          "type": "uint256"
        }
      ],
      "name": "getGameInfo",
      "outputs": [
        {
          "internalType": "uint256",
          "name": "gameId",
          "type": "uint256"
        },
        {
          "internalType": "string",
          "name": "topWord",
          "type": "string"
        },
        {
          "internalType": "string",
          "name": "middleWord",
          "type": "string"
        },
        {
          "internalType": "string",
          "name": "bottomWord",
          "type": "string"
        },
        {
          "internalType": "uint256",
          "name": "entryFee",
          "type": "uint256"
        },
        {
          "internalType": "uint256",
          "name": "totalPrize",
          "type": "uint256"
        },
        {
          "internalType": "uint256",
          "name": "initialPrizePool",
          "type": "uint256"
        },
        {
          "internalType": "uint256",
          "name": "startTime",
          "type": "uint256"
        },
        {
          "internalType": "bool",
          "name": "isActive",
          "type": "bool"
        },
        {
          "internalType": "bool",
          "name": "isCompleted",
          "type": "bool"
        },
        {
          "internalType": "address",
          "name": "winner",
          "type": "address"
        }
      ],
      "stateMutability": "view",
      "type": "function"
    },
    {
      "inputs": [
        {
          "internalType": "address",
          "name": "_player",
          "type": "address"
        }
      ],
      "name": "getPlayerGames",
      "outputs": [
        {
          "internalType": "uint256[]",
          "name": "",
          "type": "uint256[]"
        }
      ],
      "stateMutability": "view",
      "type": "function"
    },
    {
      "inputs": [
        {
          "internalType": "uint256",
          "name": "_gameId",
          "type": "uint256"
        },
        {
          "internalType": "address",
          "name": "_player",
          "type": "address"
        }
      ],
      "name": "getPlayerGuess",
      "outputs": [
        {
          "internalType": "string",
          "name": "",
          "type": "string"
        }
      ],
      "stateMutability": "view",
      "type": "function"
    },
    {
      "inputs": [
        {
          "internalType": "address",
          "name": "_player",
          "type": "address"
        }
      ],
      "name": "getPlayerStats",
      "outputs": [
        {
          "internalType": "uint256",
          "name": "gamesPlayed",
          "type": "uint256"
        },
        {
          "internalType": "uint256",
          "name": "guessesPlayed",
          "type": "uint256"
        },
        {
          "internalType": "uint256",
          "name": "correctGuesses",
          "type": "uint256"
        },
        {
          "internalType": "uint256",
          "name": "totalWinnings",
          "type": "uint256"
        },
        {
          "internalType": "uint256",
          "name": "accuracy",
          "type": "uint256"
        }
      ],
      "stateMutability": "view",
      "type": "function"
    },
    {
      "inputs": [],
      "name": "getRandomActiveGame",
      "outputs": [
        {
          "internalType": "uint256",
          "name": "",
          "type": "uint256"
        }
      ],
      "stateMutability": "view",
      "type": "function"
    },
    {
      "inputs": [
        {
          "internalType": "uint256",
          "name": "_gameId",
          "type": "uint256"
        },
        {
          "internalType": "address",
          "name": "_player",
          "type": "address"
        }
      ],
      "name": "hasPlayerGuessed",
      "outputs": [
        {
          "internalType": "bool",
          "name": "",
          "type": "bool"
        }
      ],
      "stateMutability": "view",
      "type": "function"
    },
    {
      "inputs": [
        {
          "internalType": "address",
          "name": "_address",
          "type": "address"
        }
      ],
      "name": "isAdmin",
      "outputs": [
        {
          "internalType": "bool",
          "name": "",
          "type": "bool"
        }
      ],
      "stateMutability": "view",
      "type": "function"
    },
    {
      "inputs": [
        {
          "internalType": "address",
          "name": "_address",
          "type": "address"
        }
      ],
      "name": "isOwner",
      "outputs": [
        {
          "internalType": "bool",
          "name": "",
          "type": "bool"
        }
      ],
      "stateMutability": "view",
      "type": "function"
    },
    {
      "inputs": [
        {
          "internalType": "uint256",
          "name": "_gameId",
          "type": "uint256"
        },
        {
          "internalType": "address",
          "name": "_player",
          "type": "address"
        }
      ],
      "name": "isPlayerInGame",
      "outputs": [
        {
          "internalType": "bool",
          "name": "",
          "type": "bool"
        }
      ],
      "stateMutability": "view",
      "type": "function"
    },
    {
      "inputs": [
        {
          "internalType": "uint256",
          "name": "_gameId",
          "type": "uint256"
        }
      ],
      "name": "joinGame",
      "outputs": [],
      "stateMutability": "payable",
      "type": "function"
    },
    {
      "inputs": [],
      "name": "nextGameId",
      "outputs": [
        {
          "internalType": "uint256",
          "name": "",
          "type": "uint256"
        }
      ],
      "stateMutability": "view",
      "type": "function"
    },
    {
      "inputs": [],
      "name": "owner",
      "outputs": [
        {
          "internalType": "address",
          "name": "",
          "type": "address"
        }
      ],
      "stateMutability": "view",
      "type": "function"
    },
    {
      "inputs": [
        {
          "internalType": "address",
          "name": "",
          "type": "address"
        },
        {
          "internalType": "uint256",
          "name": "",
          "type": "uint256"
        }
      ],
      "name": "playerGames",
      "outputs": [
        {
          "internalType": "uint256",
          "name": "",
          "type": "uint256"
        }
      ],
      "stateMutability": "view",
      "type": "function"
    },
    {
      "inputs": [
        {
          "internalType": "address",
          "name": "",
          "type": "address"
        }
      ],
      "name": "playerStats",
      "outputs": [
        {
          "internalType": "uint256",
          "name": "gamesPlayed",
          "type": "uint256"
        },
        {
          "internalType": "uint256",
          "name": "guessesPlayed",
          "type": "uint256"
        },
        {
          "internalType": "uint256",
          "name": "correctGuesses",
          "type": "uint256"
        },
        {
          "internalType": "uint256",
          "name": "totalWinnings",
          "type": "uint256"
        },
        {
          "internalType": "uint256",
          "name": "accuracy",
          "type": "uint256"
        }
      ],
      "stateMutability": "view",
      "type": "function"
    },
    {
      "inputs": [
        {
          "internalType": "address",
          "name": "_admin",
          "type": "address"
        }
      ],
      "name": "removeAdmin",
      "outputs": [],
      "stateMutability": "nonpayable",
      "type": "function"
    },
    {
      "inputs": [],
      "name": "renounceOwnership",
      "outputs": [],
      "stateMutability": "nonpayable",
      "type": "function"
    },
    {
      "inputs": [
        {
          "internalType": "uint256",
          "name": "_gameId",
          "type": "uint256"
        },
        {
          "internalType": "string",
          "name": "_guess",
          "type": "string"
        }
      ],
      "name": "submitGuess",
      "outputs": [],
      "stateMutability": "payable",
      "type": "function"
    },
    {
      "inputs": [
        {
          "internalType": "address",
          "name": "newOwner",
          "type": "address"
        }
      ],
      "name": "transferOwnership",
      "outputs": [],
      "stateMutability": "nonpayable",
      "type": "function"
    }
  ],
  "bytecode": "0x60806040523461025f576121638038038061001981610263565b92833981019060408183031261025f5761003281610288565b602082015190916001600160401b03821161025f57019180601f8401121561025f578251926001600160401b038411610211578360051b90602080610078818501610263565b80978152019282010192831161025f57602001905b82821061024757505060015f55506001600160a01b0316801561023457600180546001600160a01b0319811683179091556001600160a01b03167f8be0079c531659141344cd1fd0a4f28419497f9722a3daafe3b4186f6b6457e05f80a360016002555f5b8151811015610225576001600160a01b0361010d828461029c565b511661011c575b6001016100f2565b6001600160a01b0361012e828461029c565b51165f908152600660205260409020805460ff191660011790556001600160a01b0361015a828461029c565b51169060075491680100000000000000008310156102115760018301806007558310156101fd5760075f527fa66cc928b5edb82af9bd49922954155ab7b0942694bea4ce44661d9a8736c68890920180546001600160a01b0319169092179091556001906001600160a01b036101d0828561029c565b51167f44d6d25963f097ad14f29f06854a01f575648a1ef82f30e562ccd3889717e3395f80a29050610114565b634e487b7160e01b5f52603260045260245ffd5b634e487b7160e01b5f52604160045260245ffd5b604051611eb290816102b18239f35b631e4fbdf760e01b5f525f60045260245ffd5b6020809161025484610288565b81520191019061008d565b5f80fd5b6040519190601f01601f191682016001600160401b0381118382101761021157604052565b51906001600160a01b038216820361025f57565b80518210156101fd5760209160051b01019056fe60806040526004361015610011575f80fd5b5f3560e01c80630a5694c214611a325780630d3b404f146119c857806311117fc814611986578063117a5b90146118fb578063129daf84146118475780631785f53c1461169a5780631b39c1f6146115b657806324d7806c1461155b5780632f54bf6e14611526578063429b62e5146114e957806347e1d550146114405780634fd66eae146109f9578063560d52d4146114255780636cc7d8f814610ef75780636ce5ba6f14610d6e5780636f9fb98a14610d535780637048027514610c1a578063715018a614610bbf57806372aeb81f14610b3e5780638b7bf3eb14610b215780638da5cb5b14610af95780639a53371e14610a8a578063b135bbb014610a6d578063cdafbbb6146109f9578063d9f774fc14610931578063db249ec814610486578063db2e21bc146103f7578063efaa55a01461026a578063f2fde38b146101e45763f4dcdc8e14610163575f80fd5b346101e05760403660031901126101e05760043561017f611aa0565b90801515806101d5575b61019290611ce9565b5f526003602052600a60405f20019060018060a01b03165f526020526101d16101bd60405f20611b51565b604051918291602083526020830190611bf1565b0390f35b506002548110610189565b5f80fd5b346101e05760203660031901126101e0576101fd611a8a565b610205611e37565b6001600160a01b0316801561025757600180546001600160a01b0319811683179091556001600160a01b03167f8be0079c531659141344cd1fd0a4f28419497f9722a3daafe3b4186f6b6457e05f80a3005b631e4fbdf760e01b5f525f60045260245ffd5b60203660031901126101e057600435801515806103ec575b61028b90611ce9565b805f5260036020526102a660ff600860405f20015416611d6d565b805f52600360205260405f20600981019060018060a01b0333165f528160205260ff60405f2054166103a7576005916102e460048301543414611de8565b60018060a01b0333165f5260205260405f20600160ff198254161790550161030d348254611e2a565b9055335f52600560205260405f208054600160401b8110156103935761033891600182018155611ae2565b81549060031b9083821b915f19901b1916179055335f52600460205260405f206103628154611dae565b9055604051903482527f03dfbe1fcb4e2d61f3b4a0c93d8f814c92250618b3387f396cc9fc9fafe2c20360203393a3005b634e487b7160e01b5f52604160045260245ffd5b60405162461bcd60e51b815260206004820152601f60248201527f506c6179657220616c7265616479206a6f696e656420746869732067616d65006044820152606490fd5b506002548110610282565b346101e0575f3660031901126101e05761040f611e37565b610417611e5e565b47801561044a576001545f918291829182916001600160a01b031682f11561043f5760015f55005b6040513d5f823e3d90fd5b60405162461bcd60e51b81526020600482015260146024820152734e6f2066756e647320746f20776974686472617760601b6044820152606490fd5b60403660031901126101e05760043560243567ffffffffffffffff81116101e0576104b5903690600401611c93565b9080151580610926575b6104c890611ce9565b805f5260036020526104e360ff600860405f20015416611d6d565b6104eb611e5e565b5f818152600360209081526040808320338452600981019092529091205460ff16156108e15761052060048201543414611de8565b6005810161052f348254611e2a565b9055335f526004602052600160405f200161054a8154611dae565b9055335f908152600a820160205260409020835167ffffffffffffffff8111610393576105778254611af7565b601f811161089c575b50806020601f821160011461083b575f91610830575b508160011b915f199060031b1c19161790555b60028351602085012091016040515f91818154936105c685611af7565b9283835260208301956001811690815f1461081157506001146107cd575b506105f192500382611b2f565b5190201461063b575b7f17a40e01bf0138d07f888b59d3df945ee0f73445ebbde5213180ad0cb1b8b383604051602081528061063233956020830190611bf1565b0390a360015f55005b5f8181526003602052604090206008810180546001600160b01b0319163360101b62010000600160b01b0316176101001790556005908101549081810290821583830490911417156107b95760649004808203918083116107b957818391335f52600460205260405f2060028101906106b48254611dae565b809255600381016106c6868254611e2a565b905580549081158015610773575b5050505014801561074e575b50508015801561071f575b5050604051908152817f9e59e9b0ec1755ccaf2fd4a7ed4ad5b0a678626e91834aee53ebdf1356bd390a60203393a36105fa565b5f808093819360018060a01b0360015416908390610745575bf11561043f5783806106eb565b506108fc610738565b5f9061076a575b5f80809381933390f11561043f5781856106e0565b506108fc610755565b91945091945061271085029480860461271014901517156107b9576107a55760048593879504910155878080806106d4565b634e487b7160e01b5f52601260045260245ffd5b634e487b7160e01b5f52601160045260245ffd5b90505f9291925260205f20905f915b8183106107f55750509060206105f192820101886105e4565b60209193508060019154838588010152019101909183926107dc565b60ff19168752506105f193151560051b830160200191508990506105e4565b905085015186610596565b5f8481528181209250601f198416905b8181106108845750908360019493921061086c575b5050811b0190556105a9565b8701515f1960f88460031b161c191690558680610860565b9192602060018192868c01518155019401920161084b565b825f5260205f20601f830160051c810191602084106108d7575b601f0160051c01905b8181106108cc5750610580565b5f81556001016108bf565b90915081906108b6565b60405162461bcd60e51b815260206004820152601760248201527f506c61796572206e6f7420696e20746869732067616d650000000000000000006044820152606490fd5b5060025481106104bf565b346101e0575f3660031901126101e0576040518060206007549283815201809260075f527fa66cc928b5edb82af9bd49922954155ab7b0942694bea4ce44661d9a8736c688905f5b8181106109da575050508161098f910382611b2f565b604051918291602083019060208452518091526040830191905f5b8181106109b8575050500390f35b82516001600160a01b03168452859450602093840193909201916001016109aa565b82546001600160a01b0316845260209093019260019283019201610979565b346101e05760203660031901126101e0576001600160a01b03610a1a611a8a565b165f52600460205260405f2080546101d16001830154926002810154906004600382015491015491604051958695869192608093969594919660a084019784526020840152604083015260608201520152565b346101e0575f3660031901126101e0576020600254604051908152f35b346101e05760403660031901126101e057600435610aa6611aa0565b9080151580610aee575b610ab990611ce9565b5f526003602052600a60405f20019060018060a01b03165f526020526020610ae460405f2054611af7565b1515604051908152f35b506002548110610ab0565b346101e0575f3660031901126101e0576001546040516001600160a01b039091168152602090f35b346101e0575f3660031901126101e0576020600754604051908152f35b346101e0575f3660031901126101e0575f6001600254905b818110610b6857602083604051908152f35b805f52600360205260ff600860405f2001541680610ba2575b610b8e575b600101610b56565b91610b9a600191611dae565b929050610b86565b50805f52600360205260ff600860405f20015460081c1615610b81565b346101e0575f3660031901126101e057610bd7611e37565b600180546001600160a01b031981169091555f906001600160a01b03167f8be0079c531659141344cd1fd0a4f28419497f9722a3daafe3b4186f6b6457e08280a3005b346101e05760203660031901126101e057610c33611a8a565b610c3b611e37565b6001600160a01b038116908115610d1c57815f52600660205260ff60405f205416610ce457815f52600660205260405f20600160ff1982541617905560075490600160401b82101561039357610c9a826001610cbe9401600755611ab6565b81546001600160a01b0393841660039290921b91821b9390911b1916919091179055565b7f44d6d25963f097ad14f29f06854a01f575648a1ef82f30e562ccd3889717e3395f80a2005b60405162461bcd60e51b815260206004820152601060248201526f20b63932b0b23c9030b71030b236b4b760811b6044820152606490fd5b60405162461bcd60e51b815260206004820152600f60248201526e496e76616c6964206164647265737360881b6044820152606490fd5b346101e0575f3660031901126101e057602047604051908152f35b346101e0575f3660031901126101e0576002546001811115610ec1575f198101908082116107b957610d9f82611dbc565b91610dad6040519384611b2f565b808352610dbc601f1991611dbc565b013660208401375f9060015b818110610e5e5750508015610e1957602091610e1091604051848101904282524460408201523360601b606082015260548152610e06607482611b2f565b5190200690611dd4565b51604051908152f35b60405162461bcd60e51b815260206004820152601960248201527f4e6f206163746976652067616d657320617661696c61626c65000000000000006044820152606490fd5b805f52600360205260ff600860405f2001541680610ea4575b610e84575b600101610dc8565b91610e9c8184610e9660019488611dd4565b52611dae565b929050610e7c565b50805f52600360205260ff600860405f20015460081c1615610e77565b60405162461bcd60e51b815260206004820152600e60248201526d139bc819d85b595cc8195e1a5cdd60921b6044820152606490fd5b60a03660031901126101e05760043567ffffffffffffffff81116101e057610f23903690600401611c93565b60243567ffffffffffffffff81116101e057610f43903690600401611c93565b60443567ffffffffffffffff81116101e057610f63903690600401611c93565b916064359260843590335f52600660205260ff60405f2054168015611411575b610f8c90611d2b565b84156113cd5781341061137e5760025493610fa685611dae565b600255845f52600360205260405f2093858555600185019080519067ffffffffffffffff8211610393578190610fdc8454611af7565b601f811161132e575b50602090601f83116001146112cb575f926112c0575b50508160011b915f199060031b1c19161790555b8051600285019167ffffffffffffffff82116103935781906110318454611af7565b601f8111611270575b50602090601f831160011461120d575f92611202575b50508160011b915f199060031b1c19161790555b8051600384019167ffffffffffffffff8211610393576110848354611af7565b601f81116111bd575b509160209693918695938890601f83116001146111305792828a96937fa26856d25e558c79e1632806bc6824075cf59885a115825f2aab62385a3f71429896936008965f92611125575b50508160011b915f199060031b1c19161790555b600482018490556006820181905560058201554260078201550180546001600160b01b0319166001179055604051908152a2604051908152f35b015190508c806110d7565b90601f19831691845f52815f20925f5b8181106111a35750937fa26856d25e558c79e1632806bc6824075cf59885a115825f2aab62385a3f714298969360089693600193838f9b981061118b575b505050811b0190556110eb565b01515f1960f88460031b161c191690558c808061117e565b8284015185558b9a50600190940193928c01928c01611140565b835f5260205f20601f840160051c810191602085106111f8575b601f0160051c01905b8181106111ed575061108d565b5f81556001016111e0565b90915081906111d7565b015190508880611050565b5f8581528281209350601f198516905b8181106112585750908460019594939210611240575b505050811b019055611064565b01515f1960f88460031b161c19169055888080611233565b9293602060018192878601518155019501930161121d565b909150835f5260205f20601f840160051c810191602085106112b6575b90601f859493920160051c01905b8181106112a8575061103a565b5f815584935060010161129b565b909150819061128d565b015190508980610ffb565b5f8581528281209350601f198516905b81811061131657509084600195949392106112fe575b505050811b01905561100f565b01515f1960f88460031b161c191690558980806112f1565b929360206001819287860151815501950193016112db565b909150835f5260205f20601f840160051c81019160208510611374575b90601f859493920160051c01905b8181106113665750610fe5565b5f8155849350600101611359565b909150819061134b565b60405162461bcd60e51b815260206004820152602160248201527f496e73756666696369656e742066756e647320666f72207072697a6520706f6f6044820152601b60fa1b6064820152608490fd5b606460405162461bcd60e51b815260206004820152602060248201527f456e74727920666565206d7573742062652067726561746572207468616e20306044820152fd5b506001546001600160a01b03163314610f83565b346101e0575f3660031901126101e057602060405160058152f35b346101e05760203660031901126101e057600435801515806114de575b61146690611ce9565b5f52600360205260405f208054906101d160048201549260058301549060068401549060078501546008860154926114a060018801611b51565b946114b960036114b260028b01611b51565b9901611b51565b98604051998a9960018060a01b038860101c169860ff808a60081c169916978c611c15565b50600254811061145d565b346101e05760203660031901126101e0576001600160a01b0361150a611a8a565b165f526006602052602060ff60405f2054166040519015158152f35b346101e05760203660031901126101e0576020611541611a8a565b6001546040516001600160a01b0392831691909216148152f35b346101e05760203660031901126101e05760206001600160a01b0361157e611a8a565b16805f526006825260ff60405f2054169081156115a1575b506040519015158152f35b6001546001600160a01b031614905082611596565b346101e05760203660031901126101e057600435335f52600660205260ff60405f2054168015611686575b6115ea90611d2b565b6115f2611e5e565b805f52600360205260405f205f60088201600581549361161460ff8616611d6d565b019061010082549461ffff19161790555580158015611660575b5060207fa72860103f540f00e7d5c44ff9ea4cdb6cf0361b63e542d7a657c4c1154100de91604051908152a260015f55005b81905f9061167d575b5f80809381933390f11561043f578261162e565b506108fc611669565b506001546001600160a01b031633146115e1565b346101e05760203660031901126101e0576116b3611a8a565b6116bb611e37565b6001600160a01b03165f8181526006602052604090205460ff1615611813576001546001600160a01b031681146117d8575f818152600660205260408120805460ff191690555b60075490818110156117d1578261171882611ab6565b905460039190911b1c6001600160a01b031614611739576001915001611702565b5f1982019182116107b957610c9a61175361176b93611ab6565b905460039190911b1c6001600160a01b031691611ab6565b60075480156117bd575f190161178081611ab6565b81549060018060a01b039060031b1b191690556007555b7fa3b62bc36326052d97ea62d63c3d60308ed4c3ea8ac079dd8499f1e9c4f80c0f5f80a2005b634e487b7160e01b5f52603160045260245ffd5b5050611797565b60405162461bcd60e51b815260206004820152601360248201527221b0b73737ba103932b6b7bb329037bbb732b960691b6044820152606490fd5b60405162461bcd60e51b815260206004820152600c60248201526b2737ba1030b71030b236b4b760a11b6044820152606490fd5b346101e05760203660031901126101e0576001600160a01b03611868611a8a565b165f52600560205260405f20604051806020835491828152019081935f5260205f20905f5b8181106118e557505050816118a3910382611b2f565b604051918291602083019060208452518091526040830191905f5b8181106118cc575050500390f35b82518452859450602093840193909201916001016118be565b825484526020909301926001928301920161188d565b346101e05760203660031901126101e0576004355f52600360205260405f208054906101d161192c60018301611b51565b61193860028401611b51565b9261194560038201611b51565b9460048201549160058101546006820154906008600784015493015494604051998a9960018060a01b038860101c169860ff808a60081c169916978c611c15565b346101e05760203660031901126101e0576004356007548110156101e0576119af602091611ab6565b905460405160039290921b1c6001600160a01b03168152f35b346101e05760403660031901126101e0576004356119e4611aa0565b9080151580611a27575b6119f790611ce9565b5f526003602052600960405f20019060018060a01b03165f52602052602060ff60405f2054166040519015158152f35b5060025481106119ee565b346101e05760403660031901126101e057611a4b611a8a565b6001600160a01b03165f908152600560205260409020805460243591908210156101e057602091611a7b91611ae2565b90549060031b1c604051908152f35b600435906001600160a01b03821682036101e057565b602435906001600160a01b03821682036101e057565b600754811015611ace5760075f5260205f2001905f90565b634e487b7160e01b5f52603260045260245ffd5b8054821015611ace575f5260205f2001905f90565b90600182811c92168015611b25575b6020831014611b1157565b634e487b7160e01b5f52602260045260245ffd5b91607f1691611b06565b90601f8019910116810190811067ffffffffffffffff82111761039357604052565b9060405191825f825492611b6484611af7565b8084529360018116908115611bcf5750600114611b8b575b50611b8992500383611b2f565b565b90505f9291925260205f20905f915b818310611bb3575050906020611b89928201015f611b7c565b6020919350806001915483858901015201910190918492611b9a565b905060209250611b8994915060ff191682840152151560051b8201015f611b7c565b805180835260209291819084018484015e5f828201840152601f01601f1916010190565b99969390610140999693611c42611c5e94979e9d9a976101608e611c509581528160208201520190611bf1565b8c810360408e015290611bf1565b908a820360608c0152611bf1565b608089019a909a5260a088015260c087015260e0860152151561010085015215156101208401526001600160a01b0316910152565b81601f820112156101e05780359067ffffffffffffffff82116103935760405192611cc8601f8401601f191660200185611b2f565b828452602083830101116101e057815f926020809301838601378301015290565b15611cf057565b60405162461bcd60e51b815260206004820152601360248201527211d85b5948191bd95cc81b9bdd08195e1a5cdd606a1b6044820152606490fd5b15611d3257565b60405162461bcd60e51b815260206004820152601360248201527227b7363c9030b236b4b71037b91037bbb732b960691b6044820152606490fd5b15611d7457565b60405162461bcd60e51b815260206004820152601260248201527147616d65206973206e6f742061637469766560701b6044820152606490fd5b5f1981146107b95760010190565b67ffffffffffffffff81116103935760051b60200190565b8051821015611ace5760209160051b010190565b15611def57565b60405162461bcd60e51b8152602060048201526013602482015272496e636f727265637420656e7472792066656560681b6044820152606490fd5b919082018092116107b957565b6001546001600160a01b03163303611e4b57565b63118cdaa760e01b5f523360045260245ffd5b60025f5414611e6d5760025f55565b633ee5aeb560e01b5f5260045ffdfea2646970667358221220471abd4570dc9621ea94390f66a1ea88f96cc2ba8df288dc8701affe1036a77f64736f6c634300081c0033",
  "linkReferences": {},
  "deployedLinkReferences": {},
  "immutableReferences": {},
  "inputSourceName": "project/contracts/GuessWhatGame.sol",
  "buildInfoId": "solc-0_8_28-4cbb002d67573c1542c34d780d1ad799905e5a55"
}