{
  "_format": "hh3-artifact-1",
  "contractName": "GuessWhatGame",
  "sourceName": "contracts/GuessWhatGame.sol",
  "abi": [
    {
      "inputs": [
        {
          "internalType": "address",
          "name": "initialOwner",
          "type": "address"
        },
        {
          "internalType": "address[]",
          "name": "initialAdmins",
          "type": "address[]"
        }
      ],
      "stateMutability": "nonpayable",
      "type": "constructor"
    },
    {
      "inputs": [
        {
          "internalType": "address",
          "name": "owner",
          "type": "address"
        }
      ],
      "name": "OwnableInvalidOwner",
      "type": "error"
    },
    {
      "inputs": [
        {
          "internalType": "address",
          "name": "account",
          "type": "address"
        }
      ],
      "name": "OwnableUnauthorizedAccount",
      "type": "error"
    },
    {
      "inputs": [],
      "name": "ReentrancyGuardReentrantCall",
      "type": "error"
    },
    {
      "anonymous": false,
      "inputs": [
        {
          "indexed": true,
          "internalType": "address",
          "name": "admin",
          "type": "address"
        }
      ],
      "name": "AdminAdded",
      "type": "event"
    },
    {
      "anonymous": false,
      "inputs": [
        {
          "indexed": true,
          "internalType": "address",
          "name": "admin",
          "type": "address"
        }
      ],
      "name": "AdminRemoved",
      "type": "event"
    },
    {
      "anonymous": false,
      "inputs": [
        {
          "indexed": true,
          "internalType": "uint256",
          "name": "gameId",
          "type": "uint256"
        },
        {
          "indexed": false,
          "internalType": "uint256",
          "name": "entryFee",
          "type": "uint256"
        },
        {
          "indexed": false,
          "internalType": "uint256",
          "name": "basePrizeAmount",
          "type": "uint256"
        }
      ],
      "name": "GameCreated",
      "type": "event"
    },
    {
      "anonymous": false,
      "inputs": [
        {
          "indexed": true,
          "internalType": "uint256",
          "name": "gameId",
          "type": "uint256"
        },
        {
          "indexed": false,
          "internalType": "uint256",
          "name": "totalPrize",
          "type": "uint256"
        }
      ],
      "name": "GameExpired",
      "type": "event"
    },
    {
      "anonymous": false,
      "inputs": [
        {
          "indexed": true,
          "internalType": "uint256",
          "name": "gameId",
          "type": "uint256"
        },
        {
          "indexed": true,
          "internalType": "address",
          "name": "winner",
          "type": "address"
        },
        {
          "indexed": false,
          "internalType": "uint256",
          "name": "prize",
          "type": "uint256"
        }
      ],
      "name": "GameWon",
      "type": "event"
    },
    {
      "anonymous": false,
      "inputs": [
        {
          "indexed": true,
          "internalType": "uint256",
          "name": "gameId",
          "type": "uint256"
        },
        {
          "indexed": true,
          "internalType": "address",
          "name": "player",
          "type": "address"
        },
        {
          "indexed": false,
          "internalType": "string",
          "name": "guess",
          "type": "string"
        }
      ],
      "name": "GuessSubmitted",
      "type": "event"
    },
    {
      "anonymous": false,
      "inputs": [
        {
          "indexed": true,
          "internalType": "address",
          "name": "previousOwner",
          "type": "address"
        },
        {
          "indexed": true,
          "internalType": "address",
          "name": "newOwner",
          "type": "address"
        }
      ],
      "name": "OwnershipTransferred",
      "type": "event"
    },
    {
      "anonymous": false,
      "inputs": [
        {
          "indexed": false,
          "internalType": "uint256",
          "name": "oldFee",
          "type": "uint256"
        },
        {
          "indexed": false,
          "internalType": "uint256",
          "name": "newFee",
          "type": "uint256"
        }
      ],
      "name": "PlatformFeeUpdated",
      "type": "event"
    },
    {
      "anonymous": false,
      "inputs": [
        {
          "indexed": true,
          "internalType": "uint256",
          "name": "gameId",
          "type": "uint256"
        },
        {
          "indexed": true,
          "internalType": "address",
          "name": "player",
          "type": "address"
        },
        {
          "indexed": false,
          "internalType": "uint256",
          "name": "entryFee",
          "type": "uint256"
        }
      ],
      "name": "PlayerJoined",
      "type": "event"
    },
    {
      "anonymous": false,
      "inputs": [
        {
          "indexed": true,
          "internalType": "uint256",
          "name": "gameId",
          "type": "uint256"
        },
        {
          "indexed": true,
          "internalType": "address",
          "name": "winner",
          "type": "address"
        },
        {
          "indexed": false,
          "internalType": "uint256",
          "name": "amount",
          "type": "uint256"
        }
      ],
      "name": "PrizeClaimed",
      "type": "event"
    },
    {
      "anonymous": false,
      "inputs": [
        {
          "indexed": false,
          "internalType": "uint256",
          "name": "oldMultiplier",
          "type": "uint256"
        },
        {
          "indexed": false,
          "internalType": "uint256",
          "name": "newMultiplier",
          "type": "uint256"
        }
      ],
      "name": "PrizeMultiplierUpdated",
      "type": "event"
    },
    {
      "anonymous": false,
      "inputs": [
        {
          "indexed": true,
          "internalType": "address",
          "name": "funder",
          "type": "address"
        },
        {
          "indexed": false,
          "internalType": "uint256",
          "name": "amount",
          "type": "uint256"
        }
      ],
      "name": "TreasuryFunded",
      "type": "event"
    },
    {
      "anonymous": false,
      "inputs": [
        {
          "indexed": true,
          "internalType": "address",
          "name": "recipient",
          "type": "address"
        },
        {
          "indexed": false,
          "internalType": "uint256",
          "name": "amount",
          "type": "uint256"
        }
      ],
      "name": "TreasuryWithdrawn",
      "type": "event"
    },
    {
      "inputs": [
        {
          "internalType": "address",
          "name": "_admin",
          "type": "address"
        }
      ],
      "name": "addAdmin",
      "outputs": [],
      "stateMutability": "nonpayable",
      "type": "function"
    },
    {
      "inputs": [
        {
          "internalType": "uint256",
          "name": "",
          "type": "uint256"
        }
      ],
      "name": "adminList",
      "outputs": [
        {
          "internalType": "address",
          "name": "",
          "type": "address"
        }
      ],
      "stateMutability": "view",
      "type": "function"
    },
    {
      "inputs": [
        {
          "internalType": "address",
          "name": "",
          "type": "address"
        }
      ],
      "name": "admins",
      "outputs": [
        {
          "internalType": "bool",
          "name": "",
          "type": "bool"
        }
      ],
      "stateMutability": "view",
      "type": "function"
    },
    {
      "inputs": [
        {
          "internalType": "string",
          "name": "_topWord",
          "type": "string"
        },
        {
          "internalType": "bytes32",
          "name": "_middleWordHash",
          "type": "bytes32"
        },
        {
          "internalType": "string",
          "name": "_bottomWord",
          "type": "string"
        },
        {
          "internalType": "uint256",
          "name": "_entryFee",
          "type": "uint256"
        }
      ],
      "name": "createGame",
      "outputs": [
        {
          "internalType": "uint256",
          "name": "",
          "type": "uint256"
        }
      ],
      "stateMutability": "nonpayable",
      "type": "function"
    },
    {
      "inputs": [],
      "name": "defaultPrizeMultiplier",
      "outputs": [
        {
          "internalType": "uint256",
          "name": "",
          "type": "uint256"
        }
      ],
      "stateMutability": "view",
      "type": "function"
    },
    {
      "inputs": [
        {
          "internalType": "uint256",
          "name": "_gameId",
          "type": "uint256"
        }
      ],
      "name": "emergencyCloseGame",
      "outputs": [],
      "stateMutability": "nonpayable",
      "type": "function"
    },
    {
      "inputs": [],
      "name": "emergencyWithdraw",
      "outputs": [],
      "stateMutability": "nonpayable",
      "type": "function"
    },
    {
      "inputs": [],
      "name": "fundTreasury",
      "outputs": [],
      "stateMutability": "payable",
      "type": "function"
    },
    {
      "inputs": [
        {
          "internalType": "uint256",
          "name": "",
          "type": "uint256"
        }
      ],
      "name": "games",
      "outputs": [
        {
          "internalType": "uint256",
          "name": "gameId",
          "type": "uint256"
        },
        {
          "internalType": "string",
          "name": "topWord",
          "type": "string"
        },
        {
          "internalType": "bytes32",
          "name": "middleWordHash",
          "type": "bytes32"
        },
        {
          "internalType": "string",
          "name": "bottomWord",
          "type": "string"
        },
        {
          "internalType": "uint256",
          "name": "entryFee",
          "type": "uint256"
        },
        {
          "internalType": "uint256",
          "name": "totalPrize",
          "type": "uint256"
        },
        {
          "internalType": "uint256",
          "name": "basePrizeAmount",
          "type": "uint256"
        },
        {
          "internalType": "uint256",
          "name": "startTime",
          "type": "uint256"
        },
        {
          "internalType": "bool",
          "name": "isActive",
          "type": "bool"
        },
        {
          "internalType": "bool",
          "name": "isCompleted",
          "type": "bool"
        },
        {
          "internalType": "address",
          "name": "winner",
          "type": "address"
        }
      ],
      "stateMutability": "view",
      "type": "function"
    },
    {
      "inputs": [],
      "name": "getActiveGamesCount",
      "outputs": [
        {
          "internalType": "uint256",
          "name": "",
          "type": "uint256"
        }
      ],
      "stateMutability": "view",
      "type": "function"
    },
    {
      "inputs": [],
      "name": "getAdminCount",
      "outputs": [
        {
          "internalType": "uint256",
          "name": "",
          "type": "uint256"
        }
      ],
      "stateMutability": "view",
      "type": "function"
    },
    {
      "inputs": [],
      "name": "getAdminList",
      "outputs": [
        {
          "internalType": "address[]",
          "name": "",
          "type": "address[]"
        }
      ],
      "stateMutability": "view",
      "type": "function"
    },
    {
      "inputs": [],
      "name": "getContractBalance",
      "outputs": [
        {
          "internalType": "uint256",
          "name": "",
          "type": "uint256"
        }
      ],
      "stateMutability": "view",
      "type": "function"
    },
    {
      "inputs": [
        {
          "internalType": "uint256",
          "name": "_gameId",
          "type": "uint256"
        }
      ],
      "name": "getGameInfo",
      "outputs": [
        {
          "internalType": "uint256",
          "name": "gameId",
          "type": "uint256"
        },
        {
          "internalType": "string",
          "name": "topWord",
          "type": "string"
        },
        {
          "internalType": "uint256",
          "name": "middleWordLength",
          "type": "uint256"
        },
        {
          "internalType": "string",
          "name": "bottomWord",
          "type": "string"
        },
        {
          "internalType": "uint256",
          "name": "entryFee",
          "type": "uint256"
        },
        {
          "internalType": "uint256",
          "name": "totalPrize",
          "type": "uint256"
        },
        {
          "internalType": "uint256",
          "name": "basePrizeAmount",
          "type": "uint256"
        },
        {
          "internalType": "uint256",
          "name": "startTime",
          "type": "uint256"
        },
        {
          "internalType": "bool",
          "name": "isActive",
          "type": "bool"
        },
        {
          "internalType": "bool",
          "name": "isCompleted",
          "type": "bool"
        },
        {
          "internalType": "address",
          "name": "winner",
          "type": "address"
        }
      ],
      "stateMutability": "view",
      "type": "function"
    },
    {
      "inputs": [
        {
          "internalType": "address",
          "name": "_player",
          "type": "address"
        }
      ],
      "name": "getPlayerGames",
      "outputs": [
        {
          "internalType": "uint256[]",
          "name": "",
          "type": "uint256[]"
        }
      ],
      "stateMutability": "view",
      "type": "function"
    },
    {
      "inputs": [
        {
          "internalType": "uint256",
          "name": "_gameId",
          "type": "uint256"
        },
        {
          "internalType": "address",
          "name": "_player",
          "type": "address"
        }
      ],
      "name": "getPlayerGuess",
      "outputs": [
        {
          "internalType": "string",
          "name": "",
          "type": "string"
        }
      ],
      "stateMutability": "view",
      "type": "function"
    },
    {
      "inputs": [
        {
          "internalType": "address",
          "name": "_player",
          "type": "address"
        }
      ],
      "name": "getPlayerStats",
      "outputs": [
        {
          "internalType": "uint256",
          "name": "gamesPlayed",
          "type": "uint256"
        },
        {
          "internalType": "uint256",
          "name": "guessesPlayed",
          "type": "uint256"
        },
        {
          "internalType": "uint256",
          "name": "correctGuesses",
          "type": "uint256"
        },
        {
          "internalType": "uint256",
          "name": "totalWinnings",
          "type": "uint256"
        },
        {
          "internalType": "uint256",
          "name": "accuracy",
          "type": "uint256"
        }
      ],
      "stateMutability": "view",
      "type": "function"
    },
    {
      "inputs": [],
      "name": "getRandomActiveGame",
      "outputs": [
        {
          "internalType": "uint256",
          "name": "",
          "type": "uint256"
        }
      ],
      "stateMutability": "view",
      "type": "function"
    },
    {
      "inputs": [],
      "name": "getTreasuryBalance",
      "outputs": [
        {
          "internalType": "uint256",
          "name": "",
          "type": "uint256"
        }
      ],
      "stateMutability": "view",
      "type": "function"
    },
    {
      "inputs": [
        {
          "internalType": "uint256",
          "name": "_gameId",
          "type": "uint256"
        },
        {
          "internalType": "address",
          "name": "_player",
          "type": "address"
        }
      ],
      "name": "hasPlayerGuessed",
      "outputs": [
        {
          "internalType": "bool",
          "name": "",
          "type": "bool"
        }
      ],
      "stateMutability": "view",
      "type": "function"
    },
    {
      "inputs": [
        {
          "internalType": "address",
          "name": "_address",
          "type": "address"
        }
      ],
      "name": "isAdmin",
      "outputs": [
        {
          "internalType": "bool",
          "name": "",
          "type": "bool"
        }
      ],
      "stateMutability": "view",
      "type": "function"
    },
    {
      "inputs": [
        {
          "internalType": "address",
          "name": "_address",
          "type": "address"
        }
      ],
      "name": "isOwner",
      "outputs": [
        {
          "internalType": "bool",
          "name": "",
          "type": "bool"
        }
      ],
      "stateMutability": "view",
      "type": "function"
    },
    {
      "inputs": [
        {
          "internalType": "uint256",
          "name": "_gameId",
          "type": "uint256"
        },
        {
          "internalType": "address",
          "name": "_player",
          "type": "address"
        }
      ],
      "name": "isPlayerInGame",
      "outputs": [
        {
          "internalType": "bool",
          "name": "",
          "type": "bool"
        }
      ],
      "stateMutability": "view",
      "type": "function"
    },
    {
      "inputs": [],
      "name": "nextGameId",
      "outputs": [
        {
          "internalType": "uint256",
          "name": "",
          "type": "uint256"
        }
      ],
      "stateMutability": "view",
      "type": "function"
    },
    {
      "inputs": [],
      "name": "owner",
      "outputs": [
        {
          "internalType": "address",
          "name": "",
          "type": "address"
        }
      ],
      "stateMutability": "view",
      "type": "function"
    },
    {
      "inputs": [],
      "name": "platformFeePercent",
      "outputs": [
        {
          "internalType": "uint256",
          "name": "",
          "type": "uint256"
        }
      ],
      "stateMutability": "view",
      "type": "function"
    },
    {
      "inputs": [
        {
          "internalType": "address",
          "name": "",
          "type": "address"
        },
        {
          "internalType": "uint256",
          "name": "",
          "type": "uint256"
        }
      ],
      "name": "playerGames",
      "outputs": [
        {
          "internalType": "uint256",
          "name": "",
          "type": "uint256"
        }
      ],
      "stateMutability": "view",
      "type": "function"
    },
    {
      "inputs": [
        {
          "internalType": "address",
          "name": "",
          "type": "address"
        }
      ],
      "name": "playerStats",
      "outputs": [
        {
          "internalType": "uint256",
          "name": "gamesPlayed",
          "type": "uint256"
        },
        {
          "internalType": "uint256",
          "name": "guessesPlayed",
          "type": "uint256"
        },
        {
          "internalType": "uint256",
          "name": "correctGuesses",
          "type": "uint256"
        },
        {
          "internalType": "uint256",
          "name": "totalWinnings",
          "type": "uint256"
        },
        {
          "internalType": "uint256",
          "name": "accuracy",
          "type": "uint256"
        }
      ],
      "stateMutability": "view",
      "type": "function"
    },
    {
      "inputs": [
        {
          "internalType": "address",
          "name": "_admin",
          "type": "address"
        }
      ],
      "name": "removeAdmin",
      "outputs": [],
      "stateMutability": "nonpayable",
      "type": "function"
    },
    {
      "inputs": [],
      "name": "renounceOwnership",
      "outputs": [],
      "stateMutability": "nonpayable",
      "type": "function"
    },
    {
      "inputs": [
        {
          "internalType": "uint256",
          "name": "_feePercent",
          "type": "uint256"
        }
      ],
      "name": "setPlatformFee",
      "outputs": [],
      "stateMutability": "nonpayable",
      "type": "function"
    },
    {
      "inputs": [
        {
          "internalType": "uint256",
          "name": "_multiplier",
          "type": "uint256"
        }
      ],
      "name": "setPrizeMultiplier",
      "outputs": [],
      "stateMutability": "nonpayable",
      "type": "function"
    },
    {
      "inputs": [
        {
          "internalType": "uint256",
          "name": "_gameId",
          "type": "uint256"
        },
        {
          "internalType": "string",
          "name": "_guess",
          "type": "string"
        }
      ],
      "name": "submitGuess",
      "outputs": [],
      "stateMutability": "payable",
      "type": "function"
    },
    {
      "inputs": [
        {
          "internalType": "address",
          "name": "newOwner",
          "type": "address"
        }
      ],
      "name": "transferOwnership",
      "outputs": [],
      "stateMutability": "nonpayable",
      "type": "function"
    },
    {
      "inputs": [],
      "name": "treasuryBalance",
      "outputs": [
        {
          "internalType": "uint256",
          "name": "",
          "type": "uint256"
        }
      ],
      "stateMutability": "view",
      "type": "function"
    },
    {
      "inputs": [
        {
          "internalType": "uint256",
          "name": "_amount",
          "type": "uint256"
        }
      ],
      "name": "withdrawFromTreasury",
      "outputs": [],
      "stateMutability": "nonpayable",
      "type": "function"
    }
  ],
  "bytecode": "0x608060405234610269576122c6803803806100198161026d565b9283398101906040818303126102695761003281610292565b602082015190916001600160401b03821161026957019180601f84011215610269578251926001600160401b03841161021b578360051b9060208061007881850161026d565b80978152019282010192831161026957602001905b82821061025157505060015f55506001600160a01b0316801561023e57600180546001600160a01b0319811683179091556001600160a01b03167f8be0079c531659141344cd1fd0a4f28419497f9722a3daafe3b4186f6b6457e05f80a360016002556005600355600a6005555f5b815181101561022f576001600160a01b0361011782846102a6565b5116610126575b6001016100fc565b6001600160a01b0361013882846102a6565b51165f908152600960205260409020805460ff191660011790556001600160a01b0361016482846102a6565b511690600a54916801000000000000000083101561021b576001830180600a5583101561020757600a5f527fc65a7bb8d6351c1cf70c95a316cc6a92839c986682d98bc35f958f4883f9d2a890920180546001600160a01b0319169092179091556001906001600160a01b036101da82856102a6565b51167f44d6d25963f097ad14f29f06854a01f575648a1ef82f30e562ccd3889717e3395f80a2905061011e565b634e487b7160e01b5f52603260045260245ffd5b634e487b7160e01b5f52604160045260245ffd5b60405161200b90816102bb8239f35b631e4fbdf760e01b5f525f60045260245ffd5b6020809161025e84610292565b81520191019061008d565b5f80fd5b6040519190601f01601f191682016001600160401b0381118382101761021b57604052565b51906001600160a01b038216820361026957565b80518210156102075760209160051b01019056fe60806040526004361015610011575f80fd5b5f3560e01c80630a5694c214611bc15780630d3b404f14611b5757806311117fc814611b15578063117a5b9014611a84578063129daf84146119d057806312e8e2c3146119365780631785f53c146117895780631b39c1f6146116bc57806324d7806c146116615780632d57dc34146115b75780632e25eb471461119e5780632f54bf6e14611169578063313dab2014610a9a578063429b62e51461112c57806347e1d5501461103e5780634fd66eae146109505780636355562414610f5e5780636ce5ba6f14610dd55780636f9fb98a14610dba5780637048027514610c81578063715018a614610c2657806372aeb81f14610ba557806382f7defa14610b885780638b7bf3eb14610b6b5780638c639a8514610b4e5780638da5cb5b14610b265780639a53371e14610ab75780639b5655dc14610a9a578063b135bbb014610a7d578063b9c18685146109c4578063cdafbbb614610950578063d9f774fc14610888578063db249ec81461033b578063db2e21bc146102ac578063f2fde38b146102265763f4dcdc8e146101a5575f80fd5b34610222576040366003190112610222576004356101c1611c2f565b9080151580610217575b6101d490611dfa565b5f526006602052600a60405f20019060018060a01b03165f526020526102136101ff60405f20611ce0565b604051918291602083526020830190611d80565b0390f35b5060025481106101cb565b5f80fd5b346102225760203660031901126102225761023f611c19565b610247611f90565b6001600160a01b0316801561029957600180546001600160a01b0319811683179091556001600160a01b03167f8be0079c531659141344cd1fd0a4f28419497f9722a3daafe3b4186f6b6457e05f80a3005b631e4fbdf760e01b5f525f60045260245ffd5b34610222575f366003190112610222576102c4611f90565b6102cc611fb7565b4780156102ff576001545f918291829182916001600160a01b031682f1156102f45760015f55005b6040513d5f823e3d90fd5b60405162461bcd60e51b81526020600482015260146024820152734e6f2066756e647320746f20776974686472617760601b6044820152606490fd5b60403660031901126102225760043560243567ffffffffffffffff81116102225761036a903690600401611da4565b908015158061087d575b61037d90611dfa565b805f52600660205261039860ff600860405f20015416611e8b565b6103a0611fb7565b805f52600660205260405f206004810154340361084257335f908152600760209081526040808320600985019283905292205460ff1615610776575b50600190600583016103ef348254611ecc565b9055016103fc8154611ed9565b9055335f908152600a820160205260409020835167ffffffffffffffff8111610762576104298254611c86565b601f811161071d575b50806020601f82116001146106bc575f916106b1575b508160011b915f199060031b1c19161790555b600283516020850120910154145f1461069d575f8181526006602052604090206008810180546001600160b01b0319163360101b62010000600160b01b031617610100179055600581015460048201548082111561068f576104c26006916104cd93611e3c565b925b01549182611ecc565b6104e660646104de60035484611ee7565b048092611e3c565b9160045490808210610652576104fb91611e3c565b600455335f52600760205260405f20600281016105188154611ed9565b8091556003820161052a858254611ecc565b905581549081610612575b50505081801580156105ed575b5050801580156105be575b5050604051908152817f9e59e9b0ec1755ccaf2fd4a7ed4ad5b0a678626e91834aee53ebdf1356bd390a60203393a35b7f17a40e01bf0138d07f888b59d3df945ee0f73445ebbde5213180ad0cb1b8b38360405160208152806105b533956020830190611d80565b0390a360015f55005b5f808093819360018060a01b03600154169083906105e4575bf1156102f457838061054d565b506108fc6105d7565b5f90610609575b5f80809381933390f1156102f4578185610542565b506108fc6105f4565b612710810290808204612710149015171561063e5760049161063391611f72565b910155848080610535565b634e487b7160e01b5f52601160045260245ffd5b60405162461bcd60e51b8152602060048201526015602482015274496e73756666696369656e7420747265617375727960581b6044820152606490fd5b50506104cd60065f926104c4565b6106a934600454611ecc565b60045561057d565b905085015186610448565b5f8481528181209250601f198416905b818110610705575090836001949392106106ed575b5050811b01905561045b565b8701515f1960f88460031b161c1916905586806106e1565b9192602060018192868c0151815501940192016106cc565b825f5260205f20601f830160051c81019160208410610758575b601f0160051c01905b81811061074d5750610432565b5f8155600101610740565b9091508190610737565b634e487b7160e01b5f52604160045260245ffd5b335f90815260209182526040808220805460ff191660011790556008909252208054600160401b811015610762576107b391600182018155611c71565b81549060031b9085821b915f19901b19161790556107d18154611ed9565b9081815581610812575b60019150604051348152847f03dfbe1fcb4e2d61f3b4a0c93d8f814c92250618b3387f396cc9fc9fafe2c20360203393a3906103dc565b6002810154612710810290808204612710149015171561063e5760019261083891611f72565b60048201556107db565b60405162461bcd60e51b8152602060048201526013602482015272496e636f727265637420656e7472792066656560681b6044820152606490fd5b506002548110610374565b34610222575f36600319011261022257604051806020600a5492838152018092600a5f527fc65a7bb8d6351c1cf70c95a316cc6a92839c986682d98bc35f958f4883f9d2a8905f5b81811061093157505050816108e6910382611cbe565b604051918291602083019060208452518091526040830191905f5b81811061090f575050500390f35b82516001600160a01b0316845285945060209384019390920191600101610901565b82546001600160a01b03168452602090930192600192830192016108d0565b34610222576020366003190112610222576001600160a01b03610971611c19565b165f52600760205260405f2080546102136001830154926002810154906004600382015491015491604051958695869192608093969594919660a084019784526020840152604083015260608201520152565b5f36600319011261022257335f52600960205260ff60405f2054168015610a69575b6109ef90611e49565b3415610a3257610a0134600454611ecc565b6004556040513481527fda1785fe1dec267c363b06ae3e02c3e086123f9d611399f7a1cc98492518372e60203392a2005b60405162461bcd60e51b815260206004820152600f60248201526e4d7573742073656e642066756e647360881b6044820152606490fd5b506001546001600160a01b031633146109e6565b34610222575f366003190112610222576020600254604051908152f35b34610222575f366003190112610222576020600454604051908152f35b3461022257604036600319011261022257600435610ad3611c2f565b9080151580610b1b575b610ae690611dfa565b5f526006602052600a60405f20019060018060a01b03165f526020526020610b1160405f2054611c86565b1515604051908152f35b506002548110610add565b34610222575f366003190112610222576001546040516001600160a01b039091168152602090f35b34610222575f366003190112610222576020600354604051908152f35b34610222575f366003190112610222576020600a54604051908152f35b34610222575f366003190112610222576020600554604051908152f35b34610222575f366003190112610222575f6001600254905b818110610bcf57602083604051908152f35b805f52600660205260ff600860405f2001541680610c09575b610bf5575b600101610bbd565b91610c01600191611ed9565b929050610bed565b50805f52600660205260ff600860405f20015460081c1615610be8565b34610222575f36600319011261022257610c3e611f90565b600180546001600160a01b031981169091555f906001600160a01b03167f8be0079c531659141344cd1fd0a4f28419497f9722a3daafe3b4186f6b6457e08280a3005b3461022257602036600319011261022257610c9a611c19565b610ca2611f90565b6001600160a01b038116908115610d8357815f52600960205260ff60405f205416610d4b57815f52600960205260405f20600160ff19825416179055600a5490600160401b82101561076257610d01826001610d259401600a55611c45565b81546001600160a01b0393841660039290921b91821b9390911b1916919091179055565b7f44d6d25963f097ad14f29f06854a01f575648a1ef82f30e562ccd3889717e3395f80a2005b60405162461bcd60e51b815260206004820152601060248201526f20b63932b0b23c9030b71030b236b4b760811b6044820152606490fd5b60405162461bcd60e51b815260206004820152600f60248201526e496e76616c6964206164647265737360881b6044820152606490fd5b34610222575f36600319011261022257602047604051908152f35b34610222575f366003190112610222576002546001811115610f28575f1981019080821161063e57610e0682611f46565b91610e146040519384611cbe565b808352610e23601f1991611f46565b013660208401375f9060015b818110610ec55750508015610e8057602091610e7791604051848101904282524460408201523360601b606082015260548152610e6d607482611cbe565b5190200690611f5e565b51604051908152f35b60405162461bcd60e51b815260206004820152601960248201527f4e6f206163746976652067616d657320617661696c61626c65000000000000006044820152606490fd5b805f52600660205260ff600860405f2001541680610f0b575b610eeb575b600101610e2f565b91610f038184610efd60019488611f5e565b52611ed9565b929050610ee3565b50805f52600660205260ff600860405f20015460081c1615610ede565b60405162461bcd60e51b815260206004820152600e60248201526d139bc819d85b595cc8195e1a5cdd60921b6044820152606490fd5b3461022257602036600319011261022257600435610f7a611f90565b610f82611fb7565b8015610ff957610fa081600454610f9b82821015611efa565b611e3c565b6004555f8080808460018060a01b036001541682f1156102f4576001546040519182526001600160a01b0316907f41fdd680478135993bc53fb2ffaf9560951b57ef62ff6badd02b61e018b4f17f90602090a260015f55005b60405162461bcd60e51b815260206004820152601d60248201527f416d6f756e74206d7573742062652067726561746572207468616e20300000006044820152606490fd5b346102225760203660031901126102225760043580151580611121575b61106490611dfa565b5f52600660205260405f2080546004820154600583015460068401546007850154906008860154926110d96110a760036110a060018b01611ce0565b9901611ce0565b6110c5604051998a998a5261016060208b01526101608a0190611d80565b905f60408a015288820360608a0152611d80565b608087019590955260a086015260c085015260e084015260ff8181161515610100850152600882901c16151561012084015260101c6001600160a01b03166101408301520390f35b50600254811061105b565b34610222576020366003190112610222576001600160a01b0361114d611c19565b165f526009602052602060ff60405f2054166040519015158152f35b34610222576020366003190112610222576020611184611c19565b6001546040516001600160a01b0392831691909216148152f35b346102225760803660031901126102225760043567ffffffffffffffff8111610222576111cf903690600401611da4565b6024359060443567ffffffffffffffff8111610222576111f3903690600401611da4565b9060643592335f52600960205260ff60405f20541680156115a3575b61121890611e49565b831561155f57801561151b576002549261123184611ed9565b600255835f52600660205260405f209161124d60055487611ee7565b9361125c856004541015611efa565b8584558051600185019167ffffffffffffffff82116107625781906112818454611c86565b601f81116114cb575b50602090601f8311600114611468575f9261145d575b50508160011b915f199060031b1c19161790555b60028301558051600383019167ffffffffffffffff8211610762576112d98354611c86565b601f8111611418575b509160209693918695938890601f831160011461138a5792826008937fbd3f84a55fdc44f970adc6ccbaa93e78d7da5f3fc37c4b7da578d47c9ad2e46a989693604098965f9261137f575b50508160011b915f199060031b1c19161790555b60048101849055600681018390555f60058201554260078201550180546001600160b01b0319166001179055825191825286820152a2604051908152f35b015190508c8061132d565b90601f19831691845f52815f20925f5b8181106113fe5750937fbd3f84a55fdc44f970adc6ccbaa93e78d7da5f3fc37c4b7da578d47c9ad2e46a989693604098969360019383600898106113e6575b505050811b019055611341565b01515f1960f88460031b161c191690558c80806113d9565b8284015185558b9a50600190940193928c01928c0161139a565b835f5260205f20601f840160051c81019160208510611453575b601f0160051c01905b81811061144857506112e2565b5f815560010161143b565b9091508190611432565b0151905089806112a0565b5f8581528281209350601f198516905b8181106114b3575090846001959493921061149b575b505050811b0190556112b4565b01515f1960f88460031b161c1916905589808061148e565b92936020600181928786015181550195019301611478565b909150835f5260205f20601f840160051c81019160208510611511575b90601f859493920160051c01905b818110611503575061128a565b5f81558493506001016114f6565b90915081906114e8565b606460405162461bcd60e51b815260206004820152602060248201527f4d6964646c6520776f726420686173682063616e6e6f7420626520656d7074796044820152fd5b606460405162461bcd60e51b815260206004820152602060248201527f456e74727920666565206d7573742062652067726561746572207468616e20306044820152fd5b506001546001600160a01b0316331461120f565b34610222576020366003190112610222576004356115d3611f90565b80156116125760407f514a13b7c45f1c0e37b6e90a86a9d5760aa7b452d562dfad87123c398c6c6b9591600554908060055582519182526020820152a1005b60405162461bcd60e51b815260206004820152602160248201527f4d756c7469706c696572206d7573742062652067726561746572207468616e206044820152600360fc1b6064820152608490fd5b346102225760203660031901126102225760206001600160a01b03611684611c19565b16805f526009825260ff60405f2054169081156116a7575b506040519015158152f35b6001546001600160a01b03161490508261169c565b3461022257602036600319011261022257600435335f52600960205260ff60405f2054168015611775575b6116f090611e49565b6116f8611fb7565b805f5260066020527fa72860103f540f00e7d5c44ff9ea4cdb6cf0361b63e542d7a657c4c1154100de602060405f205f60088201600581549361173d60ff8616611e8b565b019061010082549461ffff19161790555580611761575b604051908152a260015f55005b61176d81600454611ecc565b600455611754565b506001546001600160a01b031633146116e7565b34610222576020366003190112610222576117a2611c19565b6117aa611f90565b6001600160a01b03165f8181526009602052604090205460ff1615611902576001546001600160a01b031681146118c7575f818152600960205260408120805460ff191690555b600a5490818110156118c0578261180782611c45565b905460039190911b1c6001600160a01b0316146118285760019150016117f1565b5f19820191821161063e57610d0161184261185a93611c45565b905460039190911b1c6001600160a01b031691611c45565b600a5480156118ac575f190161186f81611c45565b81549060018060a01b039060031b1b19169055600a555b7fa3b62bc36326052d97ea62d63c3d60308ed4c3ea8ac079dd8499f1e9c4f80c0f5f80a2005b634e487b7160e01b5f52603160045260245ffd5b5050611886565b60405162461bcd60e51b815260206004820152601360248201527221b0b73737ba103932b6b7bb329037bbb732b960691b6044820152606490fd5b60405162461bcd60e51b815260206004820152600c60248201526b2737ba1030b71030b236b4b760a11b6044820152606490fd5b3461022257602036600319011261022257600435611952611f90565b603281116119935760407fd347e206f25a89b917fc9482f1a2d294d749baa4dc9bde7fb495ee11fe49164391600354908060035582519182526020820152a1005b60405162461bcd60e51b81526020600482015260156024820152744665652063616e6e6f74206578636565642035302560581b6044820152606490fd5b34610222576020366003190112610222576001600160a01b036119f1611c19565b165f52600860205260405f20604051806020835491828152019081935f5260205f20905f5b818110611a6e5750505081611a2c910382611cbe565b604051918291602083019060208452518091526040830191905f5b818110611a55575050500390f35b8251845285945060209384019390920191600101611a47565b8254845260209093019260019283019201611a16565b34610222576020366003190112610222576004355f52600660205260405f208054611ab160018301611ce0565b91600281015490611ac460038201611ce0565b9060048101549260058201546110d96006840154926008600786015495015495611b026040519a8b9a8b5261016060208c01526101608b0190611d80565b9160408a015288820360608a0152611d80565b3461022257602036600319011261022257600435600a5481101561022257611b3e602091611c45565b905460405160039290921b1c6001600160a01b03168152f35b3461022257604036600319011261022257600435611b73611c2f565b9080151580611bb6575b611b8690611dfa565b5f526006602052600960405f20019060018060a01b03165f52602052602060ff60405f2054166040519015158152f35b506002548110611b7d565b3461022257604036600319011261022257611bda611c19565b6001600160a01b03165f9081526008602052604090208054602435919082101561022257602091611c0a91611c71565b90549060031b1c604051908152f35b600435906001600160a01b038216820361022257565b602435906001600160a01b038216820361022257565b600a54811015611c5d57600a5f5260205f2001905f90565b634e487b7160e01b5f52603260045260245ffd5b8054821015611c5d575f5260205f2001905f90565b90600182811c92168015611cb4575b6020831014611ca057565b634e487b7160e01b5f52602260045260245ffd5b91607f1691611c95565b90601f8019910116810190811067ffffffffffffffff82111761076257604052565b9060405191825f825492611cf384611c86565b8084529360018116908115611d5e5750600114611d1a575b50611d1892500383611cbe565b565b90505f9291925260205f20905f915b818310611d42575050906020611d18928201015f611d0b565b6020919350806001915483858901015201910190918492611d29565b905060209250611d1894915060ff191682840152151560051b8201015f611d0b565b805180835260209291819084018484015e5f828201840152601f01601f1916010190565b81601f820112156102225780359067ffffffffffffffff82116107625760405192611dd9601f8401601f191660200185611cbe565b8284526020838301011161022257815f926020809301838601378301015290565b15611e0157565b60405162461bcd60e51b815260206004820152601360248201527211d85b5948191bd95cc81b9bdd08195e1a5cdd606a1b6044820152606490fd5b9190820391821161063e57565b15611e5057565b60405162461bcd60e51b815260206004820152601360248201527227b7363c9030b236b4b71037b91037bbb732b960691b6044820152606490fd5b15611e9257565b60405162461bcd60e51b815260206004820152601260248201527147616d65206973206e6f742061637469766560701b6044820152606490fd5b9190820180921161063e57565b5f19811461063e5760010190565b8181029291811591840414171561063e57565b15611f0157565b60405162461bcd60e51b815260206004820152601d60248201527f496e73756666696369656e742074726561737572792062616c616e63650000006044820152606490fd5b67ffffffffffffffff81116107625760051b60200190565b8051821015611c5d5760209160051b010190565b8115611f7c570490565b634e487b7160e01b5f52601260045260245ffd5b6001546001600160a01b03163303611fa457565b63118cdaa760e01b5f523360045260245ffd5b60025f5414611fc65760025f55565b633ee5aeb560e01b5f5260045ffdfea2646970667358221220563e2c41229ef015399d63bfe29ec4928d7af294accbc10a7562a2d839ef064964736f6c634300081c0033",
  "linkReferences": {},
  "deployedLinkReferences": {},
  "immutableReferences": {},
  "inputSourceName": "project/contracts/GuessWhatGame.sol",
  "buildInfoId": "solc-0_8_28-c0b7e995b81ff426d0655c21840e7f0b086462b1"
}